{
    "contractName": "A",
    "abi": [
        {
            "inputs": [],
            "name": "foo",
            "outputs": [
                {
                    "internalType": "string",
                    "name": "",
                    "type": "string"
                }
            ],
            "stateMutability": "pure",
            "type": "function"
        },
        {
            "inputs": [],
            "name": "head",
            "outputs": [
                {
                    "internalType": "string",
                    "name": "",
                    "type": "string"
                }
            ],
            "stateMutability": "view",
            "type": "function"
        },
        {
            "inputs": [],
            "name": "middle",
            "outputs": [
                {
                    "internalType": "string",
                    "name": "",
                    "type": "string"
                }
            ],
            "stateMutability": "view",
            "type": "function"
        }
    ],
    "bytecode": "608060405234801561001057600080fd5b5060ed8061001f6000396000f3fe6080604052348015600f57600080fd5b5060043610603c5760003560e01c80635f5a21801460415780638f7dcfa3146041578063c2985578146041575b600080fd5b60408051808201825260018152604160f81b6020820152905160629190606b565b60405180910390f35b600060208083528351808285015260005b81811015609657858101830151858201604001528201607c565b506000604082860101526040601f19601f830116850101925050509291505056fea26469706673582212209fa195ac9f53b8cc28b87fd4833e8ae45a26947c90a0b1eeff55625c463889a264736f6c63430008100033",
    "sourcePath": "/Users/pengshuang/workspace/ethereum/solidity/19_Virtual.sol",
    "compiler": {
        "name": "solc",
        "version": "0.8.16+commit.07a7930e"
    },
    "functionHashes": {
        "foo()": "c2985578",
        "head()": "8f7dcfa3",
        "middle()": "5f5a2180"
    },
    "gasEstimates": {
        "creation": {
            "codeDepositCost": "47400",
            "executionCost": "99",
            "totalCost": "47499"
        },
        "external": {
            "foo()": "infinite",
            "head()": "infinite",
            "middle()": "infinite"
        }
    }
}