{
    "contractName": "Enum",
    "abi": [
        {
            "inputs": [],
            "name": "get",
            "outputs": [
                {
                    "internalType": "enum Enum.Status",
                    "name": "",
                    "type": "uint8"
                }
            ],
            "stateMutability": "view",
            "type": "function"
        },
        {
            "inputs": [],
            "name": "reset",
            "outputs": [],
            "stateMutability": "nonpayable",
            "type": "function"
        },
        {
            "inputs": [
                {
                    "internalType": "enum Enum.Status",
                    "name": "_status",
                    "type": "uint8"
                }
            ],
            "name": "set",
            "outputs": [],
            "stateMutability": "nonpayable",
            "type": "function"
        },
        {
            "inputs": [],
            "name": "ship",
            "outputs": [],
            "stateMutability": "nonpayable",
            "type": "function"
        },
        {
            "inputs": [],
            "name": "status",
            "outputs": [
                {
                    "internalType": "enum Enum.Status",
                    "name": "",
                    "type": "uint8"
                }
            ],
            "stateMutability": "view",
            "type": "function"
        }
    ],
    "bytecode": "608060405234801561001057600080fd5b50610183806100206000396000f3fe608060405234801561001057600080fd5b50600436106100575760003560e01c8063200d2ed21461005c57806324b8ba5f1461007f5780636d4ce63c14610094578063b6bef7b31461009f578063d826f88f146100b1575b600080fd5b6000546100699060ff1681565b60405161007691906100fd565b60405180910390f35b61009261008d366004610125565b6100c0565b005b60005460ff16610069565b6100926000805460ff19166002179055565b6100926000805460ff19169055565b6000805482919060ff191660018360058111156100df576100df6100e7565b021790555050565b634e487b7160e01b600052602160045260246000fd5b602081016006831061011f57634e487b7160e01b600052602160045260246000fd5b91905290565b60006020828403121561013757600080fd5b81356006811061014657600080fd5b939250505056fea26469706673582212204f6b0f71ebbd3edad85ded535ff26ae2fb411bae8eec2a11af2d8db7f4b755ea64736f6c63430008100033",
    "sourcePath": "/Users/pengshuang/workspace/ethereum/solidity/16_Enum.sol",
    "compiler": {
        "name": "solc",
        "version": "0.8.16+commit.07a7930e"
    },
    "functionHashes": {
        "get()": "6d4ce63c",
        "reset()": "d826f88f",
        "set(uint8)": "24b8ba5f",
        "ship()": "b6bef7b3",
        "status()": "200d2ed2"
    },
    "gasEstimates": {
        "creation": {
            "codeDepositCost": "77400",
            "executionCost": "129",
            "totalCost": "77529"
        },
        "external": {
            "get()": "2367",
            "reset()": "24416",
            "set(uint8)": "24520",
            "ship()": "24400",
            "status()": "2329"
        }
    }
}