{
    "contractName": "IterableMapping",
    "abi": [
        {
            "inputs": [
                {
                    "internalType": "address",
                    "name": "",
                    "type": "address"
                }
            ],
            "name": "balances",
            "outputs": [
                {
                    "internalType": "uint256",
                    "name": "",
                    "type": "uint256"
                }
            ],
            "stateMutability": "view",
            "type": "function"
        },
        {
            "inputs": [
                {
                    "internalType": "uint256",
                    "name": "_i",
                    "type": "uint256"
                }
            ],
            "name": "getElementByIndex",
            "outputs": [
                {
                    "internalType": "uint256",
                    "name": "",
                    "type": "uint256"
                }
            ],
            "stateMutability": "view",
            "type": "function"
        },
        {
            "inputs": [],
            "name": "getFirstElement",
            "outputs": [
                {
                    "internalType": "uint256",
                    "name": "",
                    "type": "uint256"
                }
            ],
            "stateMutability": "view",
            "type": "function"
        },
        {
            "inputs": [],
            "name": "getLastElement",
            "outputs": [
                {
                    "internalType": "uint256",
                    "name": "",
                    "type": "uint256"
                }
            ],
            "stateMutability": "view",
            "type": "function"
        },
        {
            "inputs": [],
            "name": "getSize",
            "outputs": [
                {
                    "internalType": "uint256",
                    "name": "",
                    "type": "uint256"
                }
            ],
            "stateMutability": "view",
            "type": "function"
        },
        {
            "inputs": [
                {
                    "internalType": "address",
                    "name": "",
                    "type": "address"
                }
            ],
            "name": "inserted",
            "outputs": [
                {
                    "internalType": "bool",
                    "name": "",
                    "type": "bool"
                }
            ],
            "stateMutability": "view",
            "type": "function"
        },
        {
            "inputs": [
                {
                    "internalType": "uint256",
                    "name": "",
                    "type": "uint256"
                }
            ],
            "name": "keys",
            "outputs": [
                {
                    "internalType": "address",
                    "name": "",
                    "type": "address"
                }
            ],
            "stateMutability": "view",
            "type": "function"
        },
        {
            "inputs": [
                {
                    "internalType": "address",
                    "name": "_key",
                    "type": "address"
                },
                {
                    "internalType": "uint256",
                    "name": "_val",
                    "type": "uint256"
                }
            ],
            "name": "set",
            "outputs": [],
            "stateMutability": "nonpayable",
            "type": "function"
        }
    ],
    "bytecode": "608060405234801561001057600080fd5b50610382806100206000396000f3fe608060405234801561001057600080fd5b50600436106100885760003560e01c8063ae5c24bd1161005b578063ae5c24bd14610133578063b7a9f2f61461013b578063ce4a392f1461014e578063de8fa4311461015657600080fd5b80630cb6aaf11461008d57806327e235e3146100bd5780633825d828146100eb5780637cd380f114610100575b600080fd5b6100a061009b3660046102b5565b61015e565b6040516001600160a01b0390911681526020015b60405180910390f35b6100dd6100cb3660046102ea565b60006020819052908152604090205481565b6040519081526020016100b4565b6100fe6100f936600461030c565b610188565b005b61012361010e3660046102ea565b60016020526000908152604090205460ff1681565b60405190151581526020016100b4565b6100dd61021b565b6100dd6101493660046102b5565b61025e565b6100dd6102a1565b6002546100dd565b6002818154811061016e57600080fd5b6000918252602090912001546001600160a01b0316905081565b6001600160a01b038216600090815260208181526040808320849055600190915290205460ff16610217576001600160a01b03821660008181526001602081905260408220805460ff1916821790556002805491820181559091527f405787fa12a823e0f2b7631cc41b3ba8828b3321ca811111fa75cd3aa3bb5ace0180546001600160a01b03191690911790555b5050565b6000806000600260008154811061023457610234610336565b60009182526020808320909101546001600160a01b03168352820192909252604001902054919050565b60008060006002848154811061027657610276610336565b60009182526020808320909101546001600160a01b0316835282019290925260400190205492915050565b600280546000918291829190610234610336565b6000602082840312156102c757600080fd5b5035919050565b80356001600160a01b03811681146102e557600080fd5b919050565b6000602082840312156102fc57600080fd5b610305826102ce565b9392505050565b6000806040838503121561031f57600080fd5b610328836102ce565b946020939093013593505050565b634e487b7160e01b600052603260045260246000fdfea2646970667358221220209924f8ebd076d6cbb946937a43a8e8ce425c181c7806104c1a6183c6eaeda164736f6c63430008100033",
    "sourcePath": "/Users/pengshuang/workspace/ethereum/solidity/14_Mapping.sol",
    "compiler": {
        "name": "solc",
        "version": "0.8.16+commit.07a7930e"
    },
    "functionHashes": {
        "balances(address)": "27e235e3",
        "getElementByIndex(uint256)": "b7a9f2f6",
        "getFirstElement()": "ae5c24bd",
        "getLastElement()": "ce4a392f",
        "getSize()": "de8fa431",
        "inserted(address)": "7cd380f1",
        "keys(uint256)": "0cb6aaf1",
        "set(address,uint256)": "3825d828"
    },
    "gasEstimates": {
        "creation": {
            "codeDepositCost": "179600",
            "executionCost": "226",
            "totalCost": "179826"
        },
        "external": {
            "balances(address)": "2545",
            "getElementByIndex(uint256)": "6807",
            "getFirstElement()": "6706",
            "getLastElement()": "2351",
            "getSize()": "2358",
            "inserted(address)": "2598",
            "keys(uint256)": "4604",
            "set(address,uint256)": "97537"
        }
    }
}