{
    "contractName": "Mapping",
    "abi": [
        {
            "inputs": [
                {
                    "internalType": "address",
                    "name": "",
                    "type": "address"
                }
            ],
            "name": "balances",
            "outputs": [
                {
                    "internalType": "uint256",
                    "name": "",
                    "type": "uint256"
                }
            ],
            "stateMutability": "view",
            "type": "function"
        },
        {
            "inputs": [],
            "name": "example",
            "outputs": [
                {
                    "internalType": "uint256",
                    "name": "",
                    "type": "uint256"
                },
                {
                    "internalType": "uint256",
                    "name": "",
                    "type": "uint256"
                }
            ],
            "stateMutability": "nonpayable",
            "type": "function"
        },
        {
            "inputs": [
                {
                    "internalType": "address",
                    "name": "",
                    "type": "address"
                },
                {
                    "internalType": "address",
                    "name": "",
                    "type": "address"
                }
            ],
            "name": "isFriend",
            "outputs": [
                {
                    "internalType": "bool",
                    "name": "",
                    "type": "bool"
                }
            ],
            "stateMutability": "view",
            "type": "function"
        }
    ],
    "bytecode": "608060405234801561001057600080fd5b50610225806100206000396000f3fe608060405234801561001057600080fd5b50600436106100415760003560e01c806327e235e3146100465780632da5d42e1461007957806354353f2f146100b7575b600080fd5b610066610054366004610173565b60006020819052908152604090205481565b6040519081526020015b60405180910390f35b6100a7610087366004610195565b600160209081526000928352604080842090915290825290205460ff1681565b6040519015158152602001610070565b6100bf6100d4565b60408051928352602083019190915201610070565b33600090815260208190526040812060648082557fada5013122d395ba3c54772283fb069b10426056ef8ca54750cb9bb552a59e7d54839260c8908461011a83866101c8565b9091555050336000908152602081815260408083208390556001808352818420308552909252909120805460ff1916909117905590939092509050565b80356001600160a01b038116811461016e57600080fd5b919050565b60006020828403121561018557600080fd5b61018e82610157565b9392505050565b600080604083850312156101a857600080fd5b6101b183610157565b91506101bf60208401610157565b90509250929050565b808201808211156101e957634e487b7160e01b600052601160045260246000fd5b9291505056fea2646970667358221220248829e1028621f235abe19d73cc7c83b3205c80b67a43a9b2b7bcfeae87cc5164736f6c63430008100033",
    "sourcePath": "/Users/pengshuang/workspace/ethereum/solidity/14_Mapping.sol",
    "compiler": {
        "name": "solc",
        "version": "0.8.16+commit.07a7930e"
    },
    "functionHashes": {
        "balances(address)": "27e235e3",
        "example()": "54353f2f",
        "isFriend(address,address)": "2da5d42e"
    },
    "gasEstimates": {
        "creation": {
            "codeDepositCost": "109800",
            "executionCost": "159",
            "totalCost": "109959"
        },
        "external": {
            "balances(address)": "2489",
            "example()": "59084",
            "isFriend(address,address)": "infinite"
        }
    }
}