{
    "contractName": "Structs",
    "abi": [
        {
            "inputs": [],
            "name": "car",
            "outputs": [
                {
                    "internalType": "string",
                    "name": "model",
                    "type": "string"
                },
                {
                    "internalType": "uint256",
                    "name": "year",
                    "type": "uint256"
                },
                {
                    "internalType": "address",
                    "name": "owner",
                    "type": "address"
                }
            ],
            "stateMutability": "view",
            "type": "function"
        },
        {
            "inputs": [
                {
                    "internalType": "uint256",
                    "name": "",
                    "type": "uint256"
                }
            ],
            "name": "cars",
            "outputs": [
                {
                    "internalType": "string",
                    "name": "model",
                    "type": "string"
                },
                {
                    "internalType": "uint256",
                    "name": "year",
                    "type": "uint256"
                },
                {
                    "internalType": "address",
                    "name": "owner",
                    "type": "address"
                }
            ],
            "stateMutability": "view",
            "type": "function"
        },
        {
            "inputs": [
                {
                    "internalType": "address",
                    "name": "",
                    "type": "address"
                },
                {
                    "internalType": "uint256",
                    "name": "",
                    "type": "uint256"
                }
            ],
            "name": "carsByOwner",
            "outputs": [
                {
                    "internalType": "string",
                    "name": "model",
                    "type": "string"
                },
                {
                    "internalType": "uint256",
                    "name": "year",
                    "type": "uint256"
                },
                {
                    "internalType": "address",
                    "name": "owner",
                    "type": "address"
                }
            ],
            "stateMutability": "view",
            "type": "function"
        },
        {
            "inputs": [],
            "name": "exampleStruct",
            "outputs": [],
            "stateMutability": "nonpayable",
            "type": "function"
        }
    ],
    "bytecode": "608060405234801561001057600080fd5b506107c3806100206000396000f3fe608060405234801561001057600080fd5b506004361061004c5760003560e01c80636b918ae314610051578063aa9fb6c81461005b578063ee26fac314610086578063f7746e361461008e575b600080fd5b6100596100a1565b005b61006e610069366004610541565b6103d0565b60405161007d93929190610579565b60405180910390f35b61006e6104a9565b61006e61009c3660046105df565b6104b8565b6040805160a080820183526006606080840191825265746f796f746160d01b6080808601919091529184526107c66020808601919091523385870181905286519485018752600b8584019081526a6c616d626f726768696e6960a81b948601949094529284526107bc848201528386019290925284518082018652908152600091810182905293840152909160408051808201825260058152645465736c6160d81b6020808301919091529083526107da908301523390820152600380546001810182556000829052845185929190910260008051602061076e8339815191520190819061018f9082610697565b506020820151600180830191909155604090920151600290910180546001600160a01b039092166001600160a01b031990921691909117905560038054918201815560008190528351849290910260008051602061076e833981519152019081906101fa9082610697565b506020820151600180830191909155604090920151600290910180546001600160a01b039092166001600160a01b031990921691909117905560038054918201815560008190528251839290910260008051602061076e833981519152019081906102659082610697565b50602082810151600180840191909155604093840151600290930180546001600160a01b039094166001600160a01b031990941693909317909255825160a081018452600760608201908152664665727261726960c81b608083015281526107e491810191909152339281019290925260038054918201815560008190528251910260008051602061076e833981519152019081906103049082610697565b506020820151816001015560408201518160020160006101000a8154816001600160a01b0302191690836001600160a01b0316021790555050506000600360008154811061035457610354610757565b600091825260209091206107cf60016003938402909201828101919091556002810180546001600160a01b03191690558254909350811061039757610397610757565b600091825260208220600390910201906103b182826104eb565b506000600182015560020180546001600160a01b031916905550505050565b600460205281600052604060002081815481106103ec57600080fd5b9060005260206000209060030201600091509150508060000180546104109061060e565b80601f016020809104026020016040519081016040528092919081815260200182805461043c9061060e565b80156104895780601f1061045e57610100808354040283529160200191610489565b820191906000526020600020905b81548152906001019060200180831161046c57829003601f168201915b5050505060018301546002909301549192916001600160a01b0316905083565b6000805481906104109061060e565b600381815481106104c857600080fd5b90600052602060002090600302016000915090508060000180546104109061060e565b5080546104f79061060e565b6000825580601f10610507575050565b601f0160209004906000526020600020908101906105259190610528565b50565b5b8082111561053d5760008155600101610529565b5090565b6000806040838503121561055457600080fd5b82356001600160a01b038116811461056b57600080fd5b946020939093013593505050565b606081526000845180606084015260005b818110156105a7576020818801810151608086840101520161058a565b506000608082850181019190915260208401959095526001600160a01b0393909316604083015250601f909101601f19160101919050565b6000602082840312156105f157600080fd5b5035919050565b634e487b7160e01b600052604160045260246000fd5b600181811c9082168061062257607f821691505b60208210810361064257634e487b7160e01b600052602260045260246000fd5b50919050565b601f82111561069257600081815260208120601f850160051c8101602086101561066f5750805b601f850160051c820191505b8181101561068e5782815560010161067b565b5050505b505050565b815167ffffffffffffffff8111156106b1576106b16105f8565b6106c5816106bf845461060e565b84610648565b602080601f8311600181146106fa57600084156106e25750858301515b600019600386901b1c1916600185901b17855561068e565b600085815260208120601f198616915b828110156107295788860151825594840194600190910190840161070a565b50858210156107475787850151600019600388901b60f8161c191681555b5050505050600190811b01905550565b634e487b7160e01b600052603260045260246000fdfec2575a0e9e593c00f959f8c92f12db2869c3395a3b0502d05e2516446f71f85ba2646970667358221220e4ba84d85d36db37c45eeae9968abe4037e183dd1dc1e18dede81501f2bf7ceb64736f6c63430008100033",
    "sourcePath": "/Users/pengshuang/workspace/ethereum/solidity/15_Structs.sol",
    "compiler": {
        "name": "solc",
        "version": "0.8.16+commit.07a7930e"
    },
    "functionHashes": {
        "car()": "ee26fac3",
        "cars(uint256)": "f7746e36",
        "carsByOwner(address,uint256)": "aa9fb6c8",
        "exampleStruct()": "6b918ae3"
    },
    "gasEstimates": {
        "creation": {
            "codeDepositCost": "397400",
            "executionCost": "436",
            "totalCost": "397836"
        },
        "external": {
            "car()": "infinite",
            "cars(uint256)": "infinite",
            "carsByOwner(address,uint256)": "infinite",
            "exampleStruct()": "infinite"
        }
    }
}