{
    "contractName": "TodoList",
    "abi": [
        {
            "inputs": [
                {
                    "internalType": "uint256",
                    "name": "_index",
                    "type": "uint256"
                }
            ],
            "name": "getTodo",
            "outputs": [
                {
                    "internalType": "string",
                    "name": "",
                    "type": "string"
                },
                {
                    "internalType": "bool",
                    "name": "",
                    "type": "bool"
                }
            ],
            "stateMutability": "view",
            "type": "function"
        },
        {
            "inputs": [
                {
                    "internalType": "string",
                    "name": "_text",
                    "type": "string"
                }
            ],
            "name": "insertTodo",
            "outputs": [],
            "stateMutability": "nonpayable",
            "type": "function"
        },
        {
            "inputs": [
                {
                    "internalType": "uint256",
                    "name": "",
                    "type": "uint256"
                }
            ],
            "name": "todos",
            "outputs": [
                {
                    "internalType": "string",
                    "name": "text",
                    "type": "string"
                },
                {
                    "internalType": "bool",
                    "name": "completed",
                    "type": "bool"
                }
            ],
            "stateMutability": "view",
            "type": "function"
        },
        {
            "inputs": [
                {
                    "internalType": "uint256",
                    "name": "_index",
                    "type": "uint256"
                }
            ],
            "name": "updateTodoCompleted",
            "outputs": [],
            "stateMutability": "nonpayable",
            "type": "function"
        },
        {
            "inputs": [
                {
                    "internalType": "string",
                    "name": "_text",
                    "type": "string"
                },
                {
                    "internalType": "uint256",
                    "name": "_index",
                    "type": "uint256"
                }
            ],
            "name": "updateTodoText",
            "outputs": [],
            "stateMutability": "nonpayable",
            "type": "function"
        }
    ],
    "bytecode": "608060405234801561001057600080fd5b50610782806100206000396000f3fe608060405234801561001057600080fd5b50600436106100575760003560e01c8063605c662d1461005c57806386a18c0a14610071578063ac0b4ded14610084578063bc8bc2b414610097578063dd68afb6146100c1575b600080fd5b61006f61006a3660046103d0565b6100d4565b005b61006f61007f366004610432565b610139565b61006f610092366004610474565b6101c0565b6100aa6100a53660046103d0565b61022d565b6040516100b89291906104c0565b60405180910390f35b6100aa6100cf3660046103d0565b6102ec565b600081815481106100e7576100e7610517565b60009182526020822060016002909202010154815460ff9091161591908390811061011457610114610517565b60009182526020909120600290910201600101805460ff191691151591909117905550565b6040805160606020601f85018190040282018101835291810183815260009282919086908690819085018382808284376000920182905250938552505050602091820181905283546001810185559381522081519192600202019081906101a090826105cc565b50602091909101516001909101805460ff19169115159190911790555050565b8282600083815481106101d5576101d5610517565b906000526020600020906002020160000191826101f392919061068c565b50600080828154811061020857610208610517565b6000918252602090912060029091020190508061022684868361068c565b5050505050565b6000818154811061023d57600080fd5b906000526020600020906002020160009150905080600001805461026090610543565b80601f016020809104026020016040519081016040528092919081815260200182805461028c90610543565b80156102d95780601f106102ae576101008083540402835291602001916102d9565b820191906000526020600020905b8154815290600101906020018083116102bc57829003601f168201915b5050506001909301549192505060ff1682565b60606000806000848154811061030457610304610517565b906000526020600020906002020160405180604001604052908160008201805461032d90610543565b80601f016020809104026020016040519081016040528092919081815260200182805461035990610543565b80156103a65780601f1061037b576101008083540402835291602001916103a6565b820191906000526020600020905b81548152906001019060200180831161038957829003601f168201915b50505091835250506001919091015460ff1615156020918201528151910151909590945092505050565b6000602082840312156103e257600080fd5b5035919050565b60008083601f8401126103fb57600080fd5b50813567ffffffffffffffff81111561041357600080fd5b60208301915083602082850101111561042b57600080fd5b9250929050565b6000806020838503121561044557600080fd5b823567ffffffffffffffff81111561045c57600080fd5b610468858286016103e9565b90969095509350505050565b60008060006040848603121561048957600080fd5b833567ffffffffffffffff8111156104a057600080fd5b6104ac868287016103e9565b909790965060209590950135949350505050565b604081526000835180604084015260005b818110156104ee57602081870181015160608684010152016104d1565b506000606082850101526060601f19601f83011684010191505082151560208301529392505050565b634e487b7160e01b600052603260045260246000fd5b634e487b7160e01b600052604160045260246000fd5b600181811c9082168061055757607f821691505b60208210810361057757634e487b7160e01b600052602260045260246000fd5b50919050565b601f8211156105c757600081815260208120601f850160051c810160208610156105a45750805b601f850160051c820191505b818110156105c3578281556001016105b0565b5050505b505050565b815167ffffffffffffffff8111156105e6576105e661052d565b6105fa816105f48454610543565b8461057d565b602080601f83116001811461062f57600084156106175750858301515b600019600386901b1c1916600185901b1785556105c3565b600085815260208120601f198616915b8281101561065e5788860151825594840194600190910190840161063f565b508582101561067c5787850151600019600388901b60f8161c191681555b5050505050600190811b01905550565b67ffffffffffffffff8311156106a4576106a461052d565b6106b8836106b28354610543565b8361057d565b6000601f8411600181146106ec57600085156106d45750838201355b600019600387901b1c1916600186901b178355610226565b600083815260209020601f19861690835b8281101561071d57868501358255602094850194600190920191016106fd565b508682101561073a5760001960f88860031b161c19848701351681555b505060018560011b018355505050505056fea2646970667358221220ae056f5125f00155f1ba5a3249fb292314d76bdde6fff737e6f24d4170fd7a4464736f6c63430008100033",
    "sourcePath": "/Users/pengshuang/workspace/ethereum/solidity/17_TodoListCase.sol",
    "compiler": {
        "name": "solc",
        "version": "0.8.16+commit.07a7930e"
    },
    "functionHashes": {
        "getTodo(uint256)": "dd68afb6",
        "insertTodo(string)": "86a18c0a",
        "todos(uint256)": "bc8bc2b4",
        "updateTodoCompleted(uint256)": "605c662d",
        "updateTodoText(string,uint256)": "ac0b4ded"
    },
    "gasEstimates": {
        "creation": {
            "codeDepositCost": "384400",
            "executionCost": "424",
            "totalCost": "384824"
        },
        "external": {
            "getTodo(uint256)": "infinite",
            "insertTodo(string)": "infinite",
            "todos(uint256)": "infinite",
            "updateTodoCompleted(uint256)": "30973",
            "updateTodoText(string,uint256)": "infinite"
        }
    }
}