{
	"34_VerifySign.sol": {
		"VerifySign": {
			"abi": [
				{
					"inputs": [
						{
							"internalType": "bytes32",
							"name": "_ethSignedMessageHash",
							"type": "bytes32"
						},
						{
							"internalType": "bytes",
							"name": "_signature",
							"type": "bytes"
						}
					],
					"name": "recover",
					"outputs": [
						{
							"internalType": "address",
							"name": "",
							"type": "address"
						}
					],
					"stateMutability": "pure",
					"type": "function"
				},
				{
					"inputs": [
						{
							"internalType": "address",
							"name": "_address",
							"type": "address"
						},
						{
							"internalType": "string",
							"name": "_message",
							"type": "string"
						},
						{
							"internalType": "bytes",
							"name": "_signature",
							"type": "bytes"
						}
					],
					"name": "verify",
					"outputs": [
						{
							"internalType": "bool",
							"name": "",
							"type": "bool"
						}
					],
					"stateMutability": "pure",
					"type": "function"
				}
			],
			"devdoc": {
				"kind": "dev",
				"methods": {},
				"version": 1
			},
			"evm": {
				"assembly": "    /* \"34_VerifySign.sol\":193:1604  contract VerifySign{... */\n  mstore(0x40, 0x80)\n  callvalue\n  dup1\n  iszero\n  tag_1\n  jumpi\n  0x00\n  dup1\n  revert\ntag_1:\n  pop\n  dataSize(sub_0)\n  dup1\n  dataOffset(sub_0)\n  0x00\n  codecopy\n  0x00\n  return\nstop\n\nsub_0: assembly {\n        /* \"34_VerifySign.sol\":193:1604  contract VerifySign{... */\n      mstore(0x40, 0x80)\n      callvalue\n      dup1\n      iszero\n      tag_1\n      jumpi\n      0x00\n      dup1\n      revert\n    tag_1:\n      pop\n      jumpi(tag_2, lt(calldatasize, 0x04))\n      shr(0xe0, calldataload(0x00))\n      dup1\n      0x19045a25\n      eq\n      tag_3\n      jumpi\n      dup1\n      0x2dd34f0f\n      eq\n      tag_4\n      jumpi\n    tag_2:\n      0x00\n      dup1\n      revert\n        /* \"34_VerifySign.sol\":981:1223  function recover(bytes32 _ethSignedMessageHash, bytes memory _signature) ... */\n    tag_3:\n      tag_5\n      0x04\n      dup1\n      calldatasize\n      sub\n      dup2\n      add\n      swap1\n      tag_6\n      swap2\n      swap1\n      tag_7\n      jump\t// in\n    tag_6:\n      tag_8\n      jump\t// in\n    tag_5:\n      mload(0x40)\n      tag_9\n      swap2\n      swap1\n      tag_10\n      jump\t// in\n    tag_9:\n      mload(0x40)\n      dup1\n      swap2\n      sub\n      swap1\n      return\n        /* \"34_VerifySign.sol\":219:550  function verify(address _address, string memory _message, bytes memory _signature) ... */\n    tag_4:\n      tag_11\n      0x04\n      dup1\n      calldatasize\n      sub\n      dup2\n      add\n      swap1\n      tag_12\n      swap2\n      swap1\n      tag_13\n      jump\t// in\n    tag_12:\n      tag_14\n      jump\t// in\n    tag_11:\n      mload(0x40)\n      tag_15\n      swap2\n      swap1\n      tag_16\n      jump\t// in\n    tag_15:\n      mload(0x40)\n      dup1\n      swap2\n      sub\n      swap1\n      return\n        /* \"34_VerifySign.sol\":981:1223  function recover(bytes32 _ethSignedMessageHash, bytes memory _signature) ... */\n    tag_8:\n        /* \"34_VerifySign.sol\":1083:1090  address */\n      0x00\n        /* \"34_VerifySign.sol\":1107:1116  bytes32 r */\n      dup1\n        /* \"34_VerifySign.sol\":1118:1127  bytes32 s */\n      0x00\n        /* \"34_VerifySign.sol\":1129:1136  uint8 v */\n      dup1\n        /* \"34_VerifySign.sol\":1140:1158  _split(_signature) */\n      tag_18\n        /* \"34_VerifySign.sol\":1147:1157  _signature */\n      dup6\n        /* \"34_VerifySign.sol\":1140:1146  _split */\n      tag_19\n        /* \"34_VerifySign.sol\":1140:1158  _split(_signature) */\n      jump\t// in\n    tag_18:\n        /* \"34_VerifySign.sol\":1106:1158  (bytes32 r, bytes32 s, uint8 v) = _split(_signature) */\n      swap3\n      pop\n      swap3\n      pop\n      swap3\n      pop\n        /* \"34_VerifySign.sol\":1175:1216  ecrecover(_ethSignedMessageHash, v, r, s) */\n      0x01\n        /* \"34_VerifySign.sol\":1185:1206  _ethSignedMessageHash */\n      dup7\n        /* \"34_VerifySign.sol\":1208:1209  v */\n      dup3\n        /* \"34_VerifySign.sol\":1211:1212  r */\n      dup6\n        /* \"34_VerifySign.sol\":1214:1215  s */\n      dup6\n        /* \"34_VerifySign.sol\":1175:1216  ecrecover(_ethSignedMessageHash, v, r, s) */\n      mload(0x40)\n      0x00\n      dup2\n      mstore\n      0x20\n      add\n      0x40\n      mstore\n      mload(0x40)\n      tag_20\n      swap5\n      swap4\n      swap3\n      swap2\n      swap1\n      tag_21\n      jump\t// in\n    tag_20:\n      0x20\n      mload(0x40)\n      0x20\n      dup2\n      sub\n      swap1\n      dup1\n      dup5\n      sub\n      swap1\n      dup6\n      gas\n      staticcall\n      iszero\n      dup1\n      iszero\n      tag_23\n      jumpi\n      returndatasize\n      0x00\n      dup1\n      returndatacopy\n      revert(0x00, returndatasize)\n    tag_23:\n      pop\n      pop\n      pop\n      mload(sub(mload(0x40), 0x20))\n        /* \"34_VerifySign.sol\":1168:1216  return ecrecover(_ethSignedMessageHash, v, r, s) */\n      swap4\n      pop\n      pop\n      pop\n      pop\n        /* \"34_VerifySign.sol\":981:1223  function recover(bytes32 _ethSignedMessageHash, bytes memory _signature) ... */\n      swap3\n      swap2\n      pop\n      pop\n      jump\t// out\n        /* \"34_VerifySign.sol\":219:550  function verify(address _address, string memory _message, bytes memory _signature) ... */\n    tag_14:\n        /* \"34_VerifySign.sol\":334:338  bool */\n      0x00\n        /* \"34_VerifySign.sol\":354:373  bytes32 messageHash */\n      dup1\n        /* \"34_VerifySign.sol\":376:400  getMessageHash(_message) */\n      tag_25\n        /* \"34_VerifySign.sol\":391:399  _message */\n      dup5\n        /* \"34_VerifySign.sol\":376:390  getMessageHash */\n      tag_26\n        /* \"34_VerifySign.sol\":376:400  getMessageHash(_message) */\n      jump\t// in\n    tag_25:\n        /* \"34_VerifySign.sol\":354:400  bytes32 messageHash = getMessageHash(_message) */\n      swap1\n      pop\n        /* \"34_VerifySign.sol\":410:438  bytes32 ethSignedMessageHash */\n      0x00\n        /* \"34_VerifySign.sol\":441:473  getEthSignedMessage(messageHash) */\n      tag_27\n        /* \"34_VerifySign.sol\":461:472  messageHash */\n      dup3\n        /* \"34_VerifySign.sol\":441:460  getEthSignedMessage */\n      tag_28\n        /* \"34_VerifySign.sol\":441:473  getEthSignedMessage(messageHash) */\n      jump\t// in\n    tag_27:\n        /* \"34_VerifySign.sol\":410:473  bytes32 ethSignedMessageHash = getEthSignedMessage(messageHash) */\n      swap1\n      pop\n        /* \"34_VerifySign.sol\":535:543  _address */\n      dup6\n        /* \"34_VerifySign.sol\":490:543  recover(ethSignedMessageHash, _signature) == _address */\n      0xffffffffffffffffffffffffffffffffffffffff\n      and\n        /* \"34_VerifySign.sol\":490:531  recover(ethSignedMessageHash, _signature) */\n      tag_29\n        /* \"34_VerifySign.sol\":498:518  ethSignedMessageHash */\n      dup3\n        /* \"34_VerifySign.sol\":520:530  _signature */\n      dup7\n        /* \"34_VerifySign.sol\":490:497  recover */\n      tag_8\n        /* \"34_VerifySign.sol\":490:531  recover(ethSignedMessageHash, _signature) */\n      jump\t// in\n    tag_29:\n        /* \"34_VerifySign.sol\":490:543  recover(ethSignedMessageHash, _signature) == _address */\n      0xffffffffffffffffffffffffffffffffffffffff\n      and\n      eq\n        /* \"34_VerifySign.sol\":483:543  return recover(ethSignedMessageHash, _signature) == _address */\n      swap3\n      pop\n      pop\n      pop\n        /* \"34_VerifySign.sol\":219:550  function verify(address _address, string memory _message, bytes memory _signature) ... */\n      swap4\n      swap3\n      pop\n      pop\n      pop\n      jump\t// out\n        /* \"34_VerifySign.sol\":1229:1602  function _split(bytes memory _signature) internal pure returns(bytes32 r,bytes32 s,uint8 v){... */\n    tag_19:\n        /* \"34_VerifySign.sol\":1292:1301  bytes32 r */\n      0x00\n        /* \"34_VerifySign.sol\":1302:1311  bytes32 s */\n      dup1\n        /* \"34_VerifySign.sol\":1312:1319  uint8 v */\n      0x00\n        /* \"34_VerifySign.sol\":1357:1359  65 */\n      0x41\n        /* \"34_VerifySign.sol\":1338:1348  _signature */\n      dup5\n        /* \"34_VerifySign.sol\":1338:1355  _signature.length */\n      mload\n        /* \"34_VerifySign.sol\":1338:1359  _signature.length==65 */\n      eq\n        /* \"34_VerifySign.sol\":1330:1387  require(_signature.length==65,\"invalid signature length\") */\n      tag_31\n      jumpi\n      mload(0x40)\n      0x08c379a000000000000000000000000000000000000000000000000000000000\n      dup2\n      mstore\n      0x04\n      add\n      tag_32\n      swap1\n      tag_33\n      jump\t// in\n    tag_32:\n      mload(0x40)\n      dup1\n      swap2\n      sub\n      swap1\n      revert\n    tag_31:\n        /* \"34_VerifySign.sol\":1462:1464  32 */\n      0x20\n        /* \"34_VerifySign.sol\":1451:1461  _signature */\n      dup5\n        /* \"34_VerifySign.sol\":1447:1465  add(_signature,32) */\n      add\n        /* \"34_VerifySign.sol\":1441:1466  mload(add(_signature,32)) */\n      mload\n        /* \"34_VerifySign.sol\":1436:1466  r := mload(add(_signature,32)) */\n      swap3\n      pop\n        /* \"34_VerifySign.sol\":1505:1507  64 */\n      0x40\n        /* \"34_VerifySign.sol\":1494:1504  _signature */\n      dup5\n        /* \"34_VerifySign.sol\":1490:1508  add(_signature,64) */\n      add\n        /* \"34_VerifySign.sol\":1484:1509  mload(add(_signature,64)) */\n      mload\n        /* \"34_VerifySign.sol\":1479:1509  s := mload(add(_signature,64)) */\n      swap2\n      pop\n        /* \"34_VerifySign.sol\":1555:1557  96 */\n      0x60\n        /* \"34_VerifySign.sol\":1544:1554  _signature */\n      dup5\n        /* \"34_VerifySign.sol\":1540:1558  add(_signature,96) */\n      add\n        /* \"34_VerifySign.sol\":1534:1559  mload(add(_signature,96)) */\n      mload\n        /* \"34_VerifySign.sol\":1532:1533  0 */\n      0x00\n        /* \"34_VerifySign.sol\":1527:1560  byte(0,mload(add(_signature,96))) */\n      byte\n        /* \"34_VerifySign.sol\":1522:1560  v := byte(0,mload(add(_signature,96))) */\n      swap1\n      pop\n        /* \"34_VerifySign.sol\":1229:1602  function _split(bytes memory _signature) internal pure returns(bytes32 r,bytes32 s,uint8 v){... */\n      swap2\n      swap4\n      swap1\n      swap3\n      pop\n      jump\t// out\n        /* \"34_VerifySign.sol\":556:695  function getMessageHash(string memory _message) internal pure returns(bytes32){... */\n    tag_26:\n        /* \"34_VerifySign.sol\":626:633  bytes32 */\n      0x00\n        /* \"34_VerifySign.sol\":678:686  _message */\n      dup2\n        /* \"34_VerifySign.sol\":661:687  abi.encodePacked(_message) */\n      add(0x20, mload(0x40))\n      tag_35\n      swap2\n      swap1\n      tag_36\n      jump\t// in\n    tag_35:\n      mload(0x40)\n      0x20\n      dup2\n      dup4\n      sub\n      sub\n      dup2\n      mstore\n      swap1\n      0x40\n      mstore\n        /* \"34_VerifySign.sol\":651:688  keccak256(abi.encodePacked(_message)) */\n      dup1\n      mload\n      swap1\n      0x20\n      add\n      keccak256\n        /* \"34_VerifySign.sol\":644:688  return keccak256(abi.encodePacked(_message)) */\n      swap1\n      pop\n        /* \"34_VerifySign.sol\":556:695  function getMessageHash(string memory _message) internal pure returns(bytes32){... */\n      swap2\n      swap1\n      pop\n      jump\t// out\n        /* \"34_VerifySign.sol\":758:974  function getEthSignedMessage(bytes32 _messageHash) internal pure returns(bytes32){... */\n    tag_28:\n        /* \"34_VerifySign.sol\":831:838  bytes32 */\n      0x00\n        /* \"34_VerifySign.sol\":944:956  _messageHash */\n      dup2\n        /* \"34_VerifySign.sol\":866:966  abi.encodePacked(... */\n      add(0x20, mload(0x40))\n      tag_38\n      swap2\n      swap1\n      tag_39\n      jump\t// in\n    tag_38:\n      mload(0x40)\n      0x20\n      dup2\n      dup4\n      sub\n      sub\n      dup2\n      mstore\n      swap1\n      0x40\n      mstore\n        /* \"34_VerifySign.sol\":856:967  keccak256(abi.encodePacked(... */\n      dup1\n      mload\n      swap1\n      0x20\n      add\n      keccak256\n        /* \"34_VerifySign.sol\":849:967  return keccak256(abi.encodePacked(... */\n      swap1\n      pop\n        /* \"34_VerifySign.sol\":758:974  function getEthSignedMessage(bytes32 _messageHash) internal pure returns(bytes32){... */\n      swap2\n      swap1\n      pop\n      jump\t// out\n        /* \"#utility.yul\":7:417   */\n    tag_41:\n        /* \"#utility.yul\":84:89   */\n      0x00\n        /* \"#utility.yul\":109:174   */\n      tag_43\n        /* \"#utility.yul\":125:173   */\n      tag_44\n        /* \"#utility.yul\":166:172   */\n      dup5\n        /* \"#utility.yul\":125:173   */\n      tag_45\n      jump\t// in\n    tag_44:\n        /* \"#utility.yul\":109:174   */\n      tag_46\n      jump\t// in\n    tag_43:\n        /* \"#utility.yul\":100:174   */\n      swap1\n      pop\n        /* \"#utility.yul\":197:203   */\n      dup3\n        /* \"#utility.yul\":190:195   */\n      dup2\n        /* \"#utility.yul\":183:204   */\n      mstore\n        /* \"#utility.yul\":235:239   */\n      0x20\n        /* \"#utility.yul\":228:233   */\n      dup2\n        /* \"#utility.yul\":224:240   */\n      add\n        /* \"#utility.yul\":273:276   */\n      dup5\n        /* \"#utility.yul\":264:270   */\n      dup5\n        /* \"#utility.yul\":259:262   */\n      dup5\n        /* \"#utility.yul\":255:271   */\n      add\n        /* \"#utility.yul\":252:277   */\n      gt\n        /* \"#utility.yul\":249:361   */\n      iszero\n      tag_47\n      jumpi\n        /* \"#utility.yul\":280:359   */\n      tag_48\n      tag_49\n      jump\t// in\n    tag_48:\n        /* \"#utility.yul\":249:361   */\n    tag_47:\n        /* \"#utility.yul\":370:411   */\n      tag_50\n        /* \"#utility.yul\":404:410   */\n      dup5\n        /* \"#utility.yul\":399:402   */\n      dup3\n        /* \"#utility.yul\":394:397   */\n      dup6\n        /* \"#utility.yul\":370:411   */\n      tag_51\n      jump\t// in\n    tag_50:\n        /* \"#utility.yul\":90:417   */\n      pop\n        /* \"#utility.yul\":7:417   */\n      swap4\n      swap3\n      pop\n      pop\n      pop\n      jump\t// out\n        /* \"#utility.yul\":423:835   */\n    tag_52:\n        /* \"#utility.yul\":501:506   */\n      0x00\n        /* \"#utility.yul\":526:592   */\n      tag_54\n        /* \"#utility.yul\":542:591   */\n      tag_55\n        /* \"#utility.yul\":584:590   */\n      dup5\n        /* \"#utility.yul\":542:591   */\n      tag_56\n      jump\t// in\n    tag_55:\n        /* \"#utility.yul\":526:592   */\n      tag_46\n      jump\t// in\n    tag_54:\n        /* \"#utility.yul\":517:592   */\n      swap1\n      pop\n        /* \"#utility.yul\":615:621   */\n      dup3\n        /* \"#utility.yul\":608:613   */\n      dup2\n        /* \"#utility.yul\":601:622   */\n      mstore\n        /* \"#utility.yul\":653:657   */\n      0x20\n        /* \"#utility.yul\":646:651   */\n      dup2\n        /* \"#utility.yul\":642:658   */\n      add\n        /* \"#utility.yul\":691:694   */\n      dup5\n        /* \"#utility.yul\":682:688   */\n      dup5\n        /* \"#utility.yul\":677:680   */\n      dup5\n        /* \"#utility.yul\":673:689   */\n      add\n        /* \"#utility.yul\":670:695   */\n      gt\n        /* \"#utility.yul\":667:779   */\n      iszero\n      tag_57\n      jumpi\n        /* \"#utility.yul\":698:777   */\n      tag_58\n      tag_49\n      jump\t// in\n    tag_58:\n        /* \"#utility.yul\":667:779   */\n    tag_57:\n        /* \"#utility.yul\":788:829   */\n      tag_59\n        /* \"#utility.yul\":822:828   */\n      dup5\n        /* \"#utility.yul\":817:820   */\n      dup3\n        /* \"#utility.yul\":812:815   */\n      dup6\n        /* \"#utility.yul\":788:829   */\n      tag_51\n      jump\t// in\n    tag_59:\n        /* \"#utility.yul\":507:835   */\n      pop\n        /* \"#utility.yul\":423:835   */\n      swap4\n      swap3\n      pop\n      pop\n      pop\n      jump\t// out\n        /* \"#utility.yul\":841:980   */\n    tag_60:\n        /* \"#utility.yul\":887:892   */\n      0x00\n        /* \"#utility.yul\":925:931   */\n      dup2\n        /* \"#utility.yul\":912:932   */\n      calldataload\n        /* \"#utility.yul\":903:932   */\n      swap1\n      pop\n        /* \"#utility.yul\":941:974   */\n      tag_62\n        /* \"#utility.yul\":968:973   */\n      dup2\n        /* \"#utility.yul\":941:974   */\n      tag_63\n      jump\t// in\n    tag_62:\n        /* \"#utility.yul\":841:980   */\n      swap3\n      swap2\n      pop\n      pop\n      jump\t// out\n        /* \"#utility.yul\":986:1125   */\n    tag_64:\n        /* \"#utility.yul\":1032:1037   */\n      0x00\n        /* \"#utility.yul\":1070:1076   */\n      dup2\n        /* \"#utility.yul\":1057:1077   */\n      calldataload\n        /* \"#utility.yul\":1048:1077   */\n      swap1\n      pop\n        /* \"#utility.yul\":1086:1119   */\n      tag_66\n        /* \"#utility.yul\":1113:1118   */\n      dup2\n        /* \"#utility.yul\":1086:1119   */\n      tag_67\n      jump\t// in\n    tag_66:\n        /* \"#utility.yul\":986:1125   */\n      swap3\n      swap2\n      pop\n      pop\n      jump\t// out\n        /* \"#utility.yul\":1144:1482   */\n    tag_68:\n        /* \"#utility.yul\":1199:1204   */\n      0x00\n        /* \"#utility.yul\":1248:1251   */\n      dup3\n        /* \"#utility.yul\":1241:1245   */\n      0x1f\n        /* \"#utility.yul\":1233:1239   */\n      dup4\n        /* \"#utility.yul\":1229:1246   */\n      add\n        /* \"#utility.yul\":1225:1252   */\n      slt\n        /* \"#utility.yul\":1215:1337   */\n      tag_70\n      jumpi\n        /* \"#utility.yul\":1256:1335   */\n      tag_71\n      tag_72\n      jump\t// in\n    tag_71:\n        /* \"#utility.yul\":1215:1337   */\n    tag_70:\n        /* \"#utility.yul\":1373:1379   */\n      dup2\n        /* \"#utility.yul\":1360:1380   */\n      calldataload\n        /* \"#utility.yul\":1398:1476   */\n      tag_73\n        /* \"#utility.yul\":1472:1475   */\n      dup5\n        /* \"#utility.yul\":1464:1470   */\n      dup3\n        /* \"#utility.yul\":1457:1461   */\n      0x20\n        /* \"#utility.yul\":1449:1455   */\n      dup7\n        /* \"#utility.yul\":1445:1462   */\n      add\n        /* \"#utility.yul\":1398:1476   */\n      tag_41\n      jump\t// in\n    tag_73:\n        /* \"#utility.yul\":1389:1476   */\n      swap2\n      pop\n        /* \"#utility.yul\":1205:1482   */\n      pop\n        /* \"#utility.yul\":1144:1482   */\n      swap3\n      swap2\n      pop\n      pop\n      jump\t// out\n        /* \"#utility.yul\":1502:1842   */\n    tag_74:\n        /* \"#utility.yul\":1558:1563   */\n      0x00\n        /* \"#utility.yul\":1607:1610   */\n      dup3\n        /* \"#utility.yul\":1600:1604   */\n      0x1f\n        /* \"#utility.yul\":1592:1598   */\n      dup4\n        /* \"#utility.yul\":1588:1605   */\n      add\n        /* \"#utility.yul\":1584:1611   */\n      slt\n        /* \"#utility.yul\":1574:1696   */\n      tag_76\n      jumpi\n        /* \"#utility.yul\":1615:1694   */\n      tag_77\n      tag_72\n      jump\t// in\n    tag_77:\n        /* \"#utility.yul\":1574:1696   */\n    tag_76:\n        /* \"#utility.yul\":1732:1738   */\n      dup2\n        /* \"#utility.yul\":1719:1739   */\n      calldataload\n        /* \"#utility.yul\":1757:1836   */\n      tag_78\n        /* \"#utility.yul\":1832:1835   */\n      dup5\n        /* \"#utility.yul\":1824:1830   */\n      dup3\n        /* \"#utility.yul\":1817:1821   */\n      0x20\n        /* \"#utility.yul\":1809:1815   */\n      dup7\n        /* \"#utility.yul\":1805:1822   */\n      add\n        /* \"#utility.yul\":1757:1836   */\n      tag_52\n      jump\t// in\n    tag_78:\n        /* \"#utility.yul\":1748:1836   */\n      swap2\n      pop\n        /* \"#utility.yul\":1564:1842   */\n      pop\n        /* \"#utility.yul\":1502:1842   */\n      swap3\n      swap2\n      pop\n      pop\n      jump\t// out\n        /* \"#utility.yul\":1848:2825   */\n    tag_13:\n        /* \"#utility.yul\":1944:1950   */\n      0x00\n        /* \"#utility.yul\":1952:1958   */\n      dup1\n        /* \"#utility.yul\":1960:1966   */\n      0x00\n        /* \"#utility.yul\":2009:2011   */\n      0x60\n        /* \"#utility.yul\":1997:2006   */\n      dup5\n        /* \"#utility.yul\":1988:1995   */\n      dup7\n        /* \"#utility.yul\":1984:2007   */\n      sub\n        /* \"#utility.yul\":1980:2012   */\n      slt\n        /* \"#utility.yul\":1977:2096   */\n      iszero\n      tag_80\n      jumpi\n        /* \"#utility.yul\":2015:2094   */\n      tag_81\n      tag_82\n      jump\t// in\n    tag_81:\n        /* \"#utility.yul\":1977:2096   */\n    tag_80:\n        /* \"#utility.yul\":2135:2136   */\n      0x00\n        /* \"#utility.yul\":2160:2213   */\n      tag_83\n        /* \"#utility.yul\":2205:2212   */\n      dup7\n        /* \"#utility.yul\":2196:2202   */\n      dup3\n        /* \"#utility.yul\":2185:2194   */\n      dup8\n        /* \"#utility.yul\":2181:2203   */\n      add\n        /* \"#utility.yul\":2160:2213   */\n      tag_60\n      jump\t// in\n    tag_83:\n        /* \"#utility.yul\":2150:2213   */\n      swap4\n      pop\n        /* \"#utility.yul\":2106:2223   */\n      pop\n        /* \"#utility.yul\":2290:2292   */\n      0x20\n        /* \"#utility.yul\":2279:2288   */\n      dup5\n        /* \"#utility.yul\":2275:2293   */\n      add\n        /* \"#utility.yul\":2262:2294   */\n      calldataload\n        /* \"#utility.yul\":2321:2339   */\n      0xffffffffffffffff\n        /* \"#utility.yul\":2313:2319   */\n      dup2\n        /* \"#utility.yul\":2310:2340   */\n      gt\n        /* \"#utility.yul\":2307:2424   */\n      iszero\n      tag_84\n      jumpi\n        /* \"#utility.yul\":2343:2422   */\n      tag_85\n      tag_86\n      jump\t// in\n    tag_85:\n        /* \"#utility.yul\":2307:2424   */\n    tag_84:\n        /* \"#utility.yul\":2448:2511   */\n      tag_87\n        /* \"#utility.yul\":2503:2510   */\n      dup7\n        /* \"#utility.yul\":2494:2500   */\n      dup3\n        /* \"#utility.yul\":2483:2492   */\n      dup8\n        /* \"#utility.yul\":2479:2501   */\n      add\n        /* \"#utility.yul\":2448:2511   */\n      tag_74\n      jump\t// in\n    tag_87:\n        /* \"#utility.yul\":2438:2511   */\n      swap3\n      pop\n        /* \"#utility.yul\":2233:2521   */\n      pop\n        /* \"#utility.yul\":2588:2590   */\n      0x40\n        /* \"#utility.yul\":2577:2586   */\n      dup5\n        /* \"#utility.yul\":2573:2591   */\n      add\n        /* \"#utility.yul\":2560:2592   */\n      calldataload\n        /* \"#utility.yul\":2619:2637   */\n      0xffffffffffffffff\n        /* \"#utility.yul\":2611:2617   */\n      dup2\n        /* \"#utility.yul\":2608:2638   */\n      gt\n        /* \"#utility.yul\":2605:2722   */\n      iszero\n      tag_88\n      jumpi\n        /* \"#utility.yul\":2641:2720   */\n      tag_89\n      tag_86\n      jump\t// in\n    tag_89:\n        /* \"#utility.yul\":2605:2722   */\n    tag_88:\n        /* \"#utility.yul\":2746:2808   */\n      tag_90\n        /* \"#utility.yul\":2800:2807   */\n      dup7\n        /* \"#utility.yul\":2791:2797   */\n      dup3\n        /* \"#utility.yul\":2780:2789   */\n      dup8\n        /* \"#utility.yul\":2776:2798   */\n      add\n        /* \"#utility.yul\":2746:2808   */\n      tag_68\n      jump\t// in\n    tag_90:\n        /* \"#utility.yul\":2736:2808   */\n      swap2\n      pop\n        /* \"#utility.yul\":2531:2818   */\n      pop\n        /* \"#utility.yul\":1848:2825   */\n      swap3\n      pop\n      swap3\n      pop\n      swap3\n      jump\t// out\n        /* \"#utility.yul\":2831:3483   */\n    tag_7:\n        /* \"#utility.yul\":2908:2914   */\n      0x00\n        /* \"#utility.yul\":2916:2922   */\n      dup1\n        /* \"#utility.yul\":2965:2967   */\n      0x40\n        /* \"#utility.yul\":2953:2962   */\n      dup4\n        /* \"#utility.yul\":2944:2951   */\n      dup6\n        /* \"#utility.yul\":2940:2963   */\n      sub\n        /* \"#utility.yul\":2936:2968   */\n      slt\n        /* \"#utility.yul\":2933:3052   */\n      iszero\n      tag_92\n      jumpi\n        /* \"#utility.yul\":2971:3050   */\n      tag_93\n      tag_82\n      jump\t// in\n    tag_93:\n        /* \"#utility.yul\":2933:3052   */\n    tag_92:\n        /* \"#utility.yul\":3091:3092   */\n      0x00\n        /* \"#utility.yul\":3116:3169   */\n      tag_94\n        /* \"#utility.yul\":3161:3168   */\n      dup6\n        /* \"#utility.yul\":3152:3158   */\n      dup3\n        /* \"#utility.yul\":3141:3150   */\n      dup7\n        /* \"#utility.yul\":3137:3159   */\n      add\n        /* \"#utility.yul\":3116:3169   */\n      tag_64\n      jump\t// in\n    tag_94:\n        /* \"#utility.yul\":3106:3169   */\n      swap3\n      pop\n        /* \"#utility.yul\":3062:3179   */\n      pop\n        /* \"#utility.yul\":3246:3248   */\n      0x20\n        /* \"#utility.yul\":3235:3244   */\n      dup4\n        /* \"#utility.yul\":3231:3249   */\n      add\n        /* \"#utility.yul\":3218:3250   */\n      calldataload\n        /* \"#utility.yul\":3277:3295   */\n      0xffffffffffffffff\n        /* \"#utility.yul\":3269:3275   */\n      dup2\n        /* \"#utility.yul\":3266:3296   */\n      gt\n        /* \"#utility.yul\":3263:3380   */\n      iszero\n      tag_95\n      jumpi\n        /* \"#utility.yul\":3299:3378   */\n      tag_96\n      tag_86\n      jump\t// in\n    tag_96:\n        /* \"#utility.yul\":3263:3380   */\n    tag_95:\n        /* \"#utility.yul\":3404:3466   */\n      tag_97\n        /* \"#utility.yul\":3458:3465   */\n      dup6\n        /* \"#utility.yul\":3449:3455   */\n      dup3\n        /* \"#utility.yul\":3438:3447   */\n      dup7\n        /* \"#utility.yul\":3434:3456   */\n      add\n        /* \"#utility.yul\":3404:3466   */\n      tag_68\n      jump\t// in\n    tag_97:\n        /* \"#utility.yul\":3394:3466   */\n      swap2\n      pop\n        /* \"#utility.yul\":3189:3476   */\n      pop\n        /* \"#utility.yul\":2831:3483   */\n      swap3\n      pop\n      swap3\n      swap1\n      pop\n      jump\t// out\n        /* \"#utility.yul\":3489:3607   */\n    tag_98:\n        /* \"#utility.yul\":3576:3600   */\n      tag_100\n        /* \"#utility.yul\":3594:3599   */\n      dup2\n        /* \"#utility.yul\":3576:3600   */\n      tag_101\n      jump\t// in\n    tag_100:\n        /* \"#utility.yul\":3571:3574   */\n      dup3\n        /* \"#utility.yul\":3564:3601   */\n      mstore\n        /* \"#utility.yul\":3489:3607   */\n      pop\n      pop\n      jump\t// out\n        /* \"#utility.yul\":3613:3722   */\n    tag_102:\n        /* \"#utility.yul\":3694:3715   */\n      tag_104\n        /* \"#utility.yul\":3709:3714   */\n      dup2\n        /* \"#utility.yul\":3694:3715   */\n      tag_105\n      jump\t// in\n    tag_104:\n        /* \"#utility.yul\":3689:3692   */\n      dup3\n        /* \"#utility.yul\":3682:3716   */\n      mstore\n        /* \"#utility.yul\":3613:3722   */\n      pop\n      pop\n      jump\t// out\n        /* \"#utility.yul\":3728:3846   */\n    tag_106:\n        /* \"#utility.yul\":3815:3839   */\n      tag_108\n        /* \"#utility.yul\":3833:3838   */\n      dup2\n        /* \"#utility.yul\":3815:3839   */\n      tag_109\n      jump\t// in\n    tag_108:\n        /* \"#utility.yul\":3810:3813   */\n      dup3\n        /* \"#utility.yul\":3803:3840   */\n      mstore\n        /* \"#utility.yul\":3728:3846   */\n      pop\n      pop\n      jump\t// out\n        /* \"#utility.yul\":3852:4009   */\n    tag_110:\n        /* \"#utility.yul\":3957:4002   */\n      tag_112\n        /* \"#utility.yul\":3977:4001   */\n      tag_113\n        /* \"#utility.yul\":3995:4000   */\n      dup3\n        /* \"#utility.yul\":3977:4001   */\n      tag_109\n      jump\t// in\n    tag_113:\n        /* \"#utility.yul\":3957:4002   */\n      tag_114\n      jump\t// in\n    tag_112:\n        /* \"#utility.yul\":3952:3955   */\n      dup3\n        /* \"#utility.yul\":3945:4003   */\n      mstore\n        /* \"#utility.yul\":3852:4009   */\n      pop\n      pop\n      jump\t// out\n        /* \"#utility.yul\":4015:4392   */\n    tag_115:\n        /* \"#utility.yul\":4121:4124   */\n      0x00\n        /* \"#utility.yul\":4149:4188   */\n      tag_117\n        /* \"#utility.yul\":4182:4187   */\n      dup3\n        /* \"#utility.yul\":4149:4188   */\n      tag_118\n      jump\t// in\n    tag_117:\n        /* \"#utility.yul\":4204:4293   */\n      tag_119\n        /* \"#utility.yul\":4286:4292   */\n      dup2\n        /* \"#utility.yul\":4281:4284   */\n      dup6\n        /* \"#utility.yul\":4204:4293   */\n      tag_120\n      jump\t// in\n    tag_119:\n        /* \"#utility.yul\":4197:4293   */\n      swap4\n      pop\n        /* \"#utility.yul\":4302:4354   */\n      tag_121\n        /* \"#utility.yul\":4347:4353   */\n      dup2\n        /* \"#utility.yul\":4342:4345   */\n      dup6\n        /* \"#utility.yul\":4335:4339   */\n      0x20\n        /* \"#utility.yul\":4328:4333   */\n      dup7\n        /* \"#utility.yul\":4324:4340   */\n      add\n        /* \"#utility.yul\":4302:4354   */\n      tag_122\n      jump\t// in\n    tag_121:\n        /* \"#utility.yul\":4379:4385   */\n      dup1\n        /* \"#utility.yul\":4374:4377   */\n      dup5\n        /* \"#utility.yul\":4370:4386   */\n      add\n        /* \"#utility.yul\":4363:4386   */\n      swap2\n      pop\n        /* \"#utility.yul\":4125:4392   */\n      pop\n        /* \"#utility.yul\":4015:4392   */\n      swap3\n      swap2\n      pop\n      pop\n      jump\t// out\n        /* \"#utility.yul\":4398:4800   */\n    tag_123:\n        /* \"#utility.yul\":4558:4561   */\n      0x00\n        /* \"#utility.yul\":4579:4664   */\n      tag_125\n        /* \"#utility.yul\":4661:4663   */\n      0x1c\n        /* \"#utility.yul\":4656:4659   */\n      dup4\n        /* \"#utility.yul\":4579:4664   */\n      tag_120\n      jump\t// in\n    tag_125:\n        /* \"#utility.yul\":4572:4664   */\n      swap2\n      pop\n        /* \"#utility.yul\":4673:4766   */\n      tag_126\n        /* \"#utility.yul\":4762:4765   */\n      dup3\n        /* \"#utility.yul\":4673:4766   */\n      tag_127\n      jump\t// in\n    tag_126:\n        /* \"#utility.yul\":4791:4793   */\n      0x1c\n        /* \"#utility.yul\":4786:4789   */\n      dup3\n        /* \"#utility.yul\":4782:4794   */\n      add\n        /* \"#utility.yul\":4775:4794   */\n      swap1\n      pop\n        /* \"#utility.yul\":4398:4800   */\n      swap2\n      swap1\n      pop\n      jump\t// out\n        /* \"#utility.yul\":4806:5172   */\n    tag_128:\n        /* \"#utility.yul\":4948:4951   */\n      0x00\n        /* \"#utility.yul\":4969:5036   */\n      tag_130\n        /* \"#utility.yul\":5033:5035   */\n      0x18\n        /* \"#utility.yul\":5028:5031   */\n      dup4\n        /* \"#utility.yul\":4969:5036   */\n      tag_131\n      jump\t// in\n    tag_130:\n        /* \"#utility.yul\":4962:5036   */\n      swap2\n      pop\n        /* \"#utility.yul\":5045:5138   */\n      tag_132\n        /* \"#utility.yul\":5134:5137   */\n      dup3\n        /* \"#utility.yul\":5045:5138   */\n      tag_133\n      jump\t// in\n    tag_132:\n        /* \"#utility.yul\":5163:5165   */\n      0x20\n        /* \"#utility.yul\":5158:5161   */\n      dup3\n        /* \"#utility.yul\":5154:5166   */\n      add\n        /* \"#utility.yul\":5147:5166   */\n      swap1\n      pop\n        /* \"#utility.yul\":4806:5172   */\n      swap2\n      swap1\n      pop\n      jump\t// out\n        /* \"#utility.yul\":5178:5290   */\n    tag_134:\n        /* \"#utility.yul\":5261:5283   */\n      tag_136\n        /* \"#utility.yul\":5277:5282   */\n      dup2\n        /* \"#utility.yul\":5261:5283   */\n      tag_137\n      jump\t// in\n    tag_136:\n        /* \"#utility.yul\":5256:5259   */\n      dup3\n        /* \"#utility.yul\":5249:5284   */\n      mstore\n        /* \"#utility.yul\":5178:5290   */\n      pop\n      pop\n      jump\t// out\n        /* \"#utility.yul\":5296:5571   */\n    tag_36:\n        /* \"#utility.yul\":5428:5431   */\n      0x00\n        /* \"#utility.yul\":5450:5545   */\n      tag_139\n        /* \"#utility.yul\":5541:5544   */\n      dup3\n        /* \"#utility.yul\":5532:5538   */\n      dup5\n        /* \"#utility.yul\":5450:5545   */\n      tag_115\n      jump\t// in\n    tag_139:\n        /* \"#utility.yul\":5443:5545   */\n      swap2\n      pop\n        /* \"#utility.yul\":5562:5565   */\n      dup2\n        /* \"#utility.yul\":5555:5565   */\n      swap1\n      pop\n        /* \"#utility.yul\":5296:5571   */\n      swap3\n      swap2\n      pop\n      pop\n      jump\t// out\n        /* \"#utility.yul\":5577:6099   */\n    tag_39:\n        /* \"#utility.yul\":5790:5793   */\n      0x00\n        /* \"#utility.yul\":5812:5960   */\n      tag_141\n        /* \"#utility.yul\":5956:5959   */\n      dup3\n        /* \"#utility.yul\":5812:5960   */\n      tag_123\n      jump\t// in\n    tag_141:\n        /* \"#utility.yul\":5805:5960   */\n      swap2\n      pop\n        /* \"#utility.yul\":5970:6045   */\n      tag_142\n        /* \"#utility.yul\":6041:6044   */\n      dup3\n        /* \"#utility.yul\":6032:6038   */\n      dup5\n        /* \"#utility.yul\":5970:6045   */\n      tag_110\n      jump\t// in\n    tag_142:\n        /* \"#utility.yul\":6070:6072   */\n      0x20\n        /* \"#utility.yul\":6065:6068   */\n      dup3\n        /* \"#utility.yul\":6061:6073   */\n      add\n        /* \"#utility.yul\":6054:6073   */\n      swap2\n      pop\n        /* \"#utility.yul\":6090:6093   */\n      dup2\n        /* \"#utility.yul\":6083:6093   */\n      swap1\n      pop\n        /* \"#utility.yul\":5577:6099   */\n      swap3\n      swap2\n      pop\n      pop\n      jump\t// out\n        /* \"#utility.yul\":6105:6327   */\n    tag_10:\n        /* \"#utility.yul\":6198:6202   */\n      0x00\n        /* \"#utility.yul\":6236:6238   */\n      0x20\n        /* \"#utility.yul\":6225:6234   */\n      dup3\n        /* \"#utility.yul\":6221:6239   */\n      add\n        /* \"#utility.yul\":6213:6239   */\n      swap1\n      pop\n        /* \"#utility.yul\":6249:6320   */\n      tag_144\n        /* \"#utility.yul\":6317:6318   */\n      0x00\n        /* \"#utility.yul\":6306:6315   */\n      dup4\n        /* \"#utility.yul\":6302:6319   */\n      add\n        /* \"#utility.yul\":6293:6299   */\n      dup5\n        /* \"#utility.yul\":6249:6320   */\n      tag_98\n      jump\t// in\n    tag_144:\n        /* \"#utility.yul\":6105:6327   */\n      swap3\n      swap2\n      pop\n      pop\n      jump\t// out\n        /* \"#utility.yul\":6333:6543   */\n    tag_16:\n        /* \"#utility.yul\":6420:6424   */\n      0x00\n        /* \"#utility.yul\":6458:6460   */\n      0x20\n        /* \"#utility.yul\":6447:6456   */\n      dup3\n        /* \"#utility.yul\":6443:6461   */\n      add\n        /* \"#utility.yul\":6435:6461   */\n      swap1\n      pop\n        /* \"#utility.yul\":6471:6536   */\n      tag_146\n        /* \"#utility.yul\":6533:6534   */\n      0x00\n        /* \"#utility.yul\":6522:6531   */\n      dup4\n        /* \"#utility.yul\":6518:6535   */\n      add\n        /* \"#utility.yul\":6509:6515   */\n      dup5\n        /* \"#utility.yul\":6471:6536   */\n      tag_102\n      jump\t// in\n    tag_146:\n        /* \"#utility.yul\":6333:6543   */\n      swap3\n      swap2\n      pop\n      pop\n      jump\t// out\n        /* \"#utility.yul\":6549:7094   */\n    tag_21:\n        /* \"#utility.yul\":6722:6726   */\n      0x00\n        /* \"#utility.yul\":6760:6763   */\n      0x80\n        /* \"#utility.yul\":6749:6758   */\n      dup3\n        /* \"#utility.yul\":6745:6764   */\n      add\n        /* \"#utility.yul\":6737:6764   */\n      swap1\n      pop\n        /* \"#utility.yul\":6774:6845   */\n      tag_148\n        /* \"#utility.yul\":6842:6843   */\n      0x00\n        /* \"#utility.yul\":6831:6840   */\n      dup4\n        /* \"#utility.yul\":6827:6844   */\n      add\n        /* \"#utility.yul\":6818:6824   */\n      dup8\n        /* \"#utility.yul\":6774:6845   */\n      tag_106\n      jump\t// in\n    tag_148:\n        /* \"#utility.yul\":6855:6923   */\n      tag_149\n        /* \"#utility.yul\":6919:6921   */\n      0x20\n        /* \"#utility.yul\":6908:6917   */\n      dup4\n        /* \"#utility.yul\":6904:6922   */\n      add\n        /* \"#utility.yul\":6895:6901   */\n      dup7\n        /* \"#utility.yul\":6855:6923   */\n      tag_134\n      jump\t// in\n    tag_149:\n        /* \"#utility.yul\":6933:7005   */\n      tag_150\n        /* \"#utility.yul\":7001:7003   */\n      0x40\n        /* \"#utility.yul\":6990:6999   */\n      dup4\n        /* \"#utility.yul\":6986:7004   */\n      add\n        /* \"#utility.yul\":6977:6983   */\n      dup6\n        /* \"#utility.yul\":6933:7005   */\n      tag_106\n      jump\t// in\n    tag_150:\n        /* \"#utility.yul\":7015:7087   */\n      tag_151\n        /* \"#utility.yul\":7083:7085   */\n      0x60\n        /* \"#utility.yul\":7072:7081   */\n      dup4\n        /* \"#utility.yul\":7068:7086   */\n      add\n        /* \"#utility.yul\":7059:7065   */\n      dup5\n        /* \"#utility.yul\":7015:7087   */\n      tag_106\n      jump\t// in\n    tag_151:\n        /* \"#utility.yul\":6549:7094   */\n      swap6\n      swap5\n      pop\n      pop\n      pop\n      pop\n      pop\n      jump\t// out\n        /* \"#utility.yul\":7100:7519   */\n    tag_33:\n        /* \"#utility.yul\":7266:7270   */\n      0x00\n        /* \"#utility.yul\":7304:7306   */\n      0x20\n        /* \"#utility.yul\":7293:7302   */\n      dup3\n        /* \"#utility.yul\":7289:7307   */\n      add\n        /* \"#utility.yul\":7281:7307   */\n      swap1\n      pop\n        /* \"#utility.yul\":7353:7362   */\n      dup2\n        /* \"#utility.yul\":7347:7351   */\n      dup2\n        /* \"#utility.yul\":7343:7363   */\n      sub\n        /* \"#utility.yul\":7339:7340   */\n      0x00\n        /* \"#utility.yul\":7328:7337   */\n      dup4\n        /* \"#utility.yul\":7324:7341   */\n      add\n        /* \"#utility.yul\":7317:7364   */\n      mstore\n        /* \"#utility.yul\":7381:7512   */\n      tag_153\n        /* \"#utility.yul\":7507:7511   */\n      dup2\n        /* \"#utility.yul\":7381:7512   */\n      tag_128\n      jump\t// in\n    tag_153:\n        /* \"#utility.yul\":7373:7512   */\n      swap1\n      pop\n        /* \"#utility.yul\":7100:7519   */\n      swap2\n      swap1\n      pop\n      jump\t// out\n        /* \"#utility.yul\":7525:7654   */\n    tag_46:\n        /* \"#utility.yul\":7559:7565   */\n      0x00\n        /* \"#utility.yul\":7586:7606   */\n      tag_155\n      tag_156\n      jump\t// in\n    tag_155:\n        /* \"#utility.yul\":7576:7606   */\n      swap1\n      pop\n        /* \"#utility.yul\":7615:7648   */\n      tag_157\n        /* \"#utility.yul\":7643:7647   */\n      dup3\n        /* \"#utility.yul\":7635:7641   */\n      dup3\n        /* \"#utility.yul\":7615:7648   */\n      tag_158\n      jump\t// in\n    tag_157:\n        /* \"#utility.yul\":7525:7654   */\n      swap2\n      swap1\n      pop\n      jump\t// out\n        /* \"#utility.yul\":7660:7735   */\n    tag_156:\n        /* \"#utility.yul\":7693:7699   */\n      0x00\n        /* \"#utility.yul\":7726:7728   */\n      0x40\n        /* \"#utility.yul\":7720:7729   */\n      mload\n        /* \"#utility.yul\":7710:7729   */\n      swap1\n      pop\n        /* \"#utility.yul\":7660:7735   */\n      swap1\n      jump\t// out\n        /* \"#utility.yul\":7741:8048   */\n    tag_45:\n        /* \"#utility.yul\":7802:7806   */\n      0x00\n        /* \"#utility.yul\":7892:7910   */\n      0xffffffffffffffff\n        /* \"#utility.yul\":7884:7890   */\n      dup3\n        /* \"#utility.yul\":7881:7911   */\n      gt\n        /* \"#utility.yul\":7878:7934   */\n      iszero\n      tag_161\n      jumpi\n        /* \"#utility.yul\":7914:7932   */\n      tag_162\n      tag_163\n      jump\t// in\n    tag_162:\n        /* \"#utility.yul\":7878:7934   */\n    tag_161:\n        /* \"#utility.yul\":7952:7981   */\n      tag_164\n        /* \"#utility.yul\":7974:7980   */\n      dup3\n        /* \"#utility.yul\":7952:7981   */\n      tag_165\n      jump\t// in\n    tag_164:\n        /* \"#utility.yul\":7944:7981   */\n      swap1\n      pop\n        /* \"#utility.yul\":8036:8040   */\n      0x20\n        /* \"#utility.yul\":8030:8034   */\n      dup2\n        /* \"#utility.yul\":8026:8041   */\n      add\n        /* \"#utility.yul\":8018:8041   */\n      swap1\n      pop\n        /* \"#utility.yul\":7741:8048   */\n      swap2\n      swap1\n      pop\n      jump\t// out\n        /* \"#utility.yul\":8054:8362   */\n    tag_56:\n        /* \"#utility.yul\":8116:8120   */\n      0x00\n        /* \"#utility.yul\":8206:8224   */\n      0xffffffffffffffff\n        /* \"#utility.yul\":8198:8204   */\n      dup3\n        /* \"#utility.yul\":8195:8225   */\n      gt\n        /* \"#utility.yul\":8192:8248   */\n      iszero\n      tag_167\n      jumpi\n        /* \"#utility.yul\":8228:8246   */\n      tag_168\n      tag_163\n      jump\t// in\n    tag_168:\n        /* \"#utility.yul\":8192:8248   */\n    tag_167:\n        /* \"#utility.yul\":8266:8295   */\n      tag_169\n        /* \"#utility.yul\":8288:8294   */\n      dup3\n        /* \"#utility.yul\":8266:8295   */\n      tag_165\n      jump\t// in\n    tag_169:\n        /* \"#utility.yul\":8258:8295   */\n      swap1\n      pop\n        /* \"#utility.yul\":8350:8354   */\n      0x20\n        /* \"#utility.yul\":8344:8348   */\n      dup2\n        /* \"#utility.yul\":8340:8355   */\n      add\n        /* \"#utility.yul\":8332:8355   */\n      swap1\n      pop\n        /* \"#utility.yul\":8054:8362   */\n      swap2\n      swap1\n      pop\n      jump\t// out\n        /* \"#utility.yul\":8368:8467   */\n    tag_118:\n        /* \"#utility.yul\":8420:8426   */\n      0x00\n        /* \"#utility.yul\":8454:8459   */\n      dup2\n        /* \"#utility.yul\":8448:8460   */\n      mload\n        /* \"#utility.yul\":8438:8460   */\n      swap1\n      pop\n        /* \"#utility.yul\":8368:8467   */\n      swap2\n      swap1\n      pop\n      jump\t// out\n        /* \"#utility.yul\":8473:8642   */\n    tag_131:\n        /* \"#utility.yul\":8557:8568   */\n      0x00\n        /* \"#utility.yul\":8591:8597   */\n      dup3\n        /* \"#utility.yul\":8586:8589   */\n      dup3\n        /* \"#utility.yul\":8579:8598   */\n      mstore\n        /* \"#utility.yul\":8631:8635   */\n      0x20\n        /* \"#utility.yul\":8626:8629   */\n      dup3\n        /* \"#utility.yul\":8622:8636   */\n      add\n        /* \"#utility.yul\":8607:8636   */\n      swap1\n      pop\n        /* \"#utility.yul\":8473:8642   */\n      swap3\n      swap2\n      pop\n      pop\n      jump\t// out\n        /* \"#utility.yul\":8648:8796   */\n    tag_120:\n        /* \"#utility.yul\":8750:8761   */\n      0x00\n        /* \"#utility.yul\":8787:8790   */\n      dup2\n        /* \"#utility.yul\":8772:8790   */\n      swap1\n      pop\n        /* \"#utility.yul\":8648:8796   */\n      swap3\n      swap2\n      pop\n      pop\n      jump\t// out\n        /* \"#utility.yul\":8802:8898   */\n    tag_101:\n        /* \"#utility.yul\":8839:8846   */\n      0x00\n        /* \"#utility.yul\":8868:8892   */\n      tag_174\n        /* \"#utility.yul\":8886:8891   */\n      dup3\n        /* \"#utility.yul\":8868:8892   */\n      tag_175\n      jump\t// in\n    tag_174:\n        /* \"#utility.yul\":8857:8892   */\n      swap1\n      pop\n        /* \"#utility.yul\":8802:8898   */\n      swap2\n      swap1\n      pop\n      jump\t// out\n        /* \"#utility.yul\":8904:8994   */\n    tag_105:\n        /* \"#utility.yul\":8938:8945   */\n      0x00\n        /* \"#utility.yul\":8981:8986   */\n      dup2\n        /* \"#utility.yul\":8974:8987   */\n      iszero\n        /* \"#utility.yul\":8967:8988   */\n      iszero\n        /* \"#utility.yul\":8956:8988   */\n      swap1\n      pop\n        /* \"#utility.yul\":8904:8994   */\n      swap2\n      swap1\n      pop\n      jump\t// out\n        /* \"#utility.yul\":9000:9077   */\n    tag_109:\n        /* \"#utility.yul\":9037:9044   */\n      0x00\n        /* \"#utility.yul\":9066:9071   */\n      dup2\n        /* \"#utility.yul\":9055:9071   */\n      swap1\n      pop\n        /* \"#utility.yul\":9000:9077   */\n      swap2\n      swap1\n      pop\n      jump\t// out\n        /* \"#utility.yul\":9083:9209   */\n    tag_175:\n        /* \"#utility.yul\":9120:9127   */\n      0x00\n        /* \"#utility.yul\":9160:9202   */\n      0xffffffffffffffffffffffffffffffffffffffff\n        /* \"#utility.yul\":9153:9158   */\n      dup3\n        /* \"#utility.yul\":9149:9203   */\n      and\n        /* \"#utility.yul\":9138:9203   */\n      swap1\n      pop\n        /* \"#utility.yul\":9083:9209   */\n      swap2\n      swap1\n      pop\n      jump\t// out\n        /* \"#utility.yul\":9215:9301   */\n    tag_137:\n        /* \"#utility.yul\":9250:9257   */\n      0x00\n        /* \"#utility.yul\":9290:9294   */\n      0xff\n        /* \"#utility.yul\":9283:9288   */\n      dup3\n        /* \"#utility.yul\":9279:9295   */\n      and\n        /* \"#utility.yul\":9268:9295   */\n      swap1\n      pop\n        /* \"#utility.yul\":9215:9301   */\n      swap2\n      swap1\n      pop\n      jump\t// out\n        /* \"#utility.yul\":9307:9461   */\n    tag_51:\n        /* \"#utility.yul\":9391:9397   */\n      dup3\n        /* \"#utility.yul\":9386:9389   */\n      dup2\n        /* \"#utility.yul\":9381:9384   */\n      dup4\n        /* \"#utility.yul\":9368:9398   */\n      calldatacopy\n        /* \"#utility.yul\":9453:9454   */\n      0x00\n        /* \"#utility.yul\":9444:9450   */\n      dup4\n        /* \"#utility.yul\":9439:9442   */\n      dup4\n        /* \"#utility.yul\":9435:9451   */\n      add\n        /* \"#utility.yul\":9428:9455   */\n      mstore\n        /* \"#utility.yul\":9307:9461   */\n      pop\n      pop\n      pop\n      jump\t// out\n        /* \"#utility.yul\":9467:9774   */\n    tag_122:\n        /* \"#utility.yul\":9535:9536   */\n      0x00\n        /* \"#utility.yul\":9545:9658   */\n    tag_182:\n        /* \"#utility.yul\":9559:9565   */\n      dup4\n        /* \"#utility.yul\":9556:9557   */\n      dup2\n        /* \"#utility.yul\":9553:9566   */\n      lt\n        /* \"#utility.yul\":9545:9658   */\n      iszero\n      tag_184\n      jumpi\n        /* \"#utility.yul\":9644:9645   */\n      dup1\n        /* \"#utility.yul\":9639:9642   */\n      dup3\n        /* \"#utility.yul\":9635:9646   */\n      add\n        /* \"#utility.yul\":9629:9647   */\n      mload\n        /* \"#utility.yul\":9625:9626   */\n      dup2\n        /* \"#utility.yul\":9620:9623   */\n      dup5\n        /* \"#utility.yul\":9616:9627   */\n      add\n        /* \"#utility.yul\":9609:9648   */\n      mstore\n        /* \"#utility.yul\":9581:9583   */\n      0x20\n        /* \"#utility.yul\":9578:9579   */\n      dup2\n        /* \"#utility.yul\":9574:9584   */\n      add\n        /* \"#utility.yul\":9569:9584   */\n      swap1\n      pop\n        /* \"#utility.yul\":9545:9658   */\n      jump(tag_182)\n    tag_184:\n        /* \"#utility.yul\":9676:9682   */\n      dup4\n        /* \"#utility.yul\":9673:9674   */\n      dup2\n        /* \"#utility.yul\":9670:9683   */\n      gt\n        /* \"#utility.yul\":9667:9768   */\n      iszero\n      tag_185\n      jumpi\n        /* \"#utility.yul\":9756:9757   */\n      0x00\n        /* \"#utility.yul\":9747:9753   */\n      dup5\n        /* \"#utility.yul\":9742:9745   */\n      dup5\n        /* \"#utility.yul\":9738:9754   */\n      add\n        /* \"#utility.yul\":9731:9758   */\n      mstore\n        /* \"#utility.yul\":9667:9768   */\n    tag_185:\n        /* \"#utility.yul\":9516:9774   */\n      pop\n        /* \"#utility.yul\":9467:9774   */\n      pop\n      pop\n      pop\n      jump\t// out\n        /* \"#utility.yul\":9780:10061   */\n    tag_158:\n        /* \"#utility.yul\":9863:9890   */\n      tag_187\n        /* \"#utility.yul\":9885:9889   */\n      dup3\n        /* \"#utility.yul\":9863:9890   */\n      tag_165\n      jump\t// in\n    tag_187:\n        /* \"#utility.yul\":9855:9861   */\n      dup2\n        /* \"#utility.yul\":9851:9891   */\n      add\n        /* \"#utility.yul\":9993:9999   */\n      dup2\n        /* \"#utility.yul\":9981:9991   */\n      dup2\n        /* \"#utility.yul\":9978:10000   */\n      lt\n        /* \"#utility.yul\":9957:9975   */\n      0xffffffffffffffff\n        /* \"#utility.yul\":9945:9955   */\n      dup3\n        /* \"#utility.yul\":9942:9976   */\n      gt\n        /* \"#utility.yul\":9939:10001   */\n      or\n        /* \"#utility.yul\":9936:10024   */\n      iszero\n      tag_188\n      jumpi\n        /* \"#utility.yul\":10004:10022   */\n      tag_189\n      tag_163\n      jump\t// in\n    tag_189:\n        /* \"#utility.yul\":9936:10024   */\n    tag_188:\n        /* \"#utility.yul\":10044:10054   */\n      dup1\n        /* \"#utility.yul\":10040:10042   */\n      0x40\n        /* \"#utility.yul\":10033:10055   */\n      mstore\n        /* \"#utility.yul\":9823:10061   */\n      pop\n        /* \"#utility.yul\":9780:10061   */\n      pop\n      pop\n      jump\t// out\n        /* \"#utility.yul\":10067:10146   */\n    tag_114:\n        /* \"#utility.yul\":10106:10113   */\n      0x00\n        /* \"#utility.yul\":10135:10140   */\n      dup2\n        /* \"#utility.yul\":10124:10140   */\n      swap1\n      pop\n        /* \"#utility.yul\":10067:10146   */\n      swap2\n      swap1\n      pop\n      jump\t// out\n        /* \"#utility.yul\":10152:10332   */\n    tag_163:\n        /* \"#utility.yul\":10200:10277   */\n      0x4e487b7100000000000000000000000000000000000000000000000000000000\n        /* \"#utility.yul\":10197:10198   */\n      0x00\n        /* \"#utility.yul\":10190:10278   */\n      mstore\n        /* \"#utility.yul\":10297:10301   */\n      0x41\n        /* \"#utility.yul\":10294:10295   */\n      0x04\n        /* \"#utility.yul\":10287:10302   */\n      mstore\n        /* \"#utility.yul\":10321:10325   */\n      0x24\n        /* \"#utility.yul\":10318:10319   */\n      0x00\n        /* \"#utility.yul\":10311:10326   */\n      revert\n        /* \"#utility.yul\":10338:10455   */\n    tag_72:\n        /* \"#utility.yul\":10447:10448   */\n      0x00\n        /* \"#utility.yul\":10444:10445   */\n      dup1\n        /* \"#utility.yul\":10437:10449   */\n      revert\n        /* \"#utility.yul\":10461:10578   */\n    tag_49:\n        /* \"#utility.yul\":10570:10571   */\n      0x00\n        /* \"#utility.yul\":10567:10568   */\n      dup1\n        /* \"#utility.yul\":10560:10572   */\n      revert\n        /* \"#utility.yul\":10584:10701   */\n    tag_86:\n        /* \"#utility.yul\":10693:10694   */\n      0x00\n        /* \"#utility.yul\":10690:10691   */\n      dup1\n        /* \"#utility.yul\":10683:10695   */\n      revert\n        /* \"#utility.yul\":10707:10824   */\n    tag_82:\n        /* \"#utility.yul\":10816:10817   */\n      0x00\n        /* \"#utility.yul\":10813:10814   */\n      dup1\n        /* \"#utility.yul\":10806:10818   */\n      revert\n        /* \"#utility.yul\":10830:10932   */\n    tag_165:\n        /* \"#utility.yul\":10871:10877   */\n      0x00\n        /* \"#utility.yul\":10922:10924   */\n      0x1f\n        /* \"#utility.yul\":10918:10925   */\n      not\n        /* \"#utility.yul\":10913:10915   */\n      0x1f\n        /* \"#utility.yul\":10906:10911   */\n      dup4\n        /* \"#utility.yul\":10902:10916   */\n      add\n        /* \"#utility.yul\":10898:10926   */\n      and\n        /* \"#utility.yul\":10888:10926   */\n      swap1\n      pop\n        /* \"#utility.yul\":10830:10932   */\n      swap2\n      swap1\n      pop\n      jump\t// out\n        /* \"#utility.yul\":10938:11152   */\n    tag_127:\n        /* \"#utility.yul\":11078:11144   */\n      0x19457468657265756d205369676e6564204d6573736167653a0a333200000000\n        /* \"#utility.yul\":11074:11075   */\n      0x00\n        /* \"#utility.yul\":11066:11072   */\n      dup3\n        /* \"#utility.yul\":11062:11076   */\n      add\n        /* \"#utility.yul\":11055:11145   */\n      mstore\n        /* \"#utility.yul\":10938:11152   */\n      pop\n      jump\t// out\n        /* \"#utility.yul\":11158:11332   */\n    tag_133:\n        /* \"#utility.yul\":11298:11324   */\n      0x696e76616c6964207369676e6174757265206c656e6774680000000000000000\n        /* \"#utility.yul\":11294:11295   */\n      0x00\n        /* \"#utility.yul\":11286:11292   */\n      dup3\n        /* \"#utility.yul\":11282:11296   */\n      add\n        /* \"#utility.yul\":11275:11325   */\n      mstore\n        /* \"#utility.yul\":11158:11332   */\n      pop\n      jump\t// out\n        /* \"#utility.yul\":11338:11460   */\n    tag_63:\n        /* \"#utility.yul\":11411:11435   */\n      tag_200\n        /* \"#utility.yul\":11429:11434   */\n      dup2\n        /* \"#utility.yul\":11411:11435   */\n      tag_101\n      jump\t// in\n    tag_200:\n        /* \"#utility.yul\":11404:11409   */\n      dup2\n        /* \"#utility.yul\":11401:11436   */\n      eq\n        /* \"#utility.yul\":11391:11454   */\n      tag_201\n      jumpi\n        /* \"#utility.yul\":11450:11451   */\n      0x00\n        /* \"#utility.yul\":11447:11448   */\n      dup1\n        /* \"#utility.yul\":11440:11452   */\n      revert\n        /* \"#utility.yul\":11391:11454   */\n    tag_201:\n        /* \"#utility.yul\":11338:11460   */\n      pop\n      jump\t// out\n        /* \"#utility.yul\":11466:11588   */\n    tag_67:\n        /* \"#utility.yul\":11539:11563   */\n      tag_203\n        /* \"#utility.yul\":11557:11562   */\n      dup2\n        /* \"#utility.yul\":11539:11563   */\n      tag_109\n      jump\t// in\n    tag_203:\n        /* \"#utility.yul\":11532:11537   */\n      dup2\n        /* \"#utility.yul\":11529:11564   */\n      eq\n        /* \"#utility.yul\":11519:11582   */\n      tag_204\n      jumpi\n        /* \"#utility.yul\":11578:11579   */\n      0x00\n        /* \"#utility.yul\":11575:11576   */\n      dup1\n        /* \"#utility.yul\":11568:11580   */\n      revert\n        /* \"#utility.yul\":11519:11582   */\n    tag_204:\n        /* \"#utility.yul\":11466:11588   */\n      pop\n      jump\t// out\n\n    auxdata: 0xa264697066735822122009f5fe68e5ed0614d2171fd97abfb67c863b38bfde07a87197a60f0e3cbabe3064736f6c63430008070033\n}\n",
				"bytecode": {
					"linkReferences": {},
					"object": "608060405234801561001057600080fd5b5061084d806100206000396000f3fe608060405234801561001057600080fd5b50600436106100365760003560e01c806319045a251461003b5780632dd34f0f1461006b575b600080fd5b610055600480360381019061005091906103c5565b61009b565b6040516100629190610528565b60405180910390f35b6100856004803603810190610080919061033a565b61010a565b6040516100929190610543565b60405180910390f35b6000806000806100aa85610168565b925092509250600186828585604051600081526020016040526040516100d3949392919061055e565b6020604051602081039080840390855afa1580156100f5573d6000803e3d6000fd5b50505060206040510351935050505092915050565b600080610116846101d0565b9050600061012382610200565b90508573ffffffffffffffffffffffffffffffffffffffff16610146828661009b565b73ffffffffffffffffffffffffffffffffffffffff1614925050509392505050565b600080600060418451146101b1576040517f08c379a00000000000000000000000000000000000000000000000000000000081526004016101a8906105a3565b60405180910390fd5b6020840151925060408401519150606084015160001a90509193909250565b6000816040516020016101e391906104eb565b604051602081830303815290604052805190602001209050919050565b6000816040516020016102139190610502565b604051602081830303815290604052805190602001209050919050565b600061024361023e846105e8565b6105c3565b90508281526020810184848401111561025f5761025e610777565b5b61026a8482856106c6565b509392505050565b600061028561028084610619565b6105c3565b9050828152602081018484840111156102a1576102a0610777565b5b6102ac8482856106c6565b509392505050565b6000813590506102c3816107e9565b92915050565b6000813590506102d881610800565b92915050565b600082601f8301126102f3576102f2610772565b5b8135610303848260208601610230565b91505092915050565b600082601f83011261032157610320610772565b5b8135610331848260208601610272565b91505092915050565b60008060006060848603121561035357610352610781565b5b6000610361868287016102b4565b935050602084013567ffffffffffffffff8111156103825761038161077c565b5b61038e8682870161030c565b925050604084013567ffffffffffffffff8111156103af576103ae61077c565b5b6103bb868287016102de565b9150509250925092565b600080604083850312156103dc576103db610781565b5b60006103ea858286016102c9565b925050602083013567ffffffffffffffff81111561040b5761040a61077c565b5b610417858286016102de565b9150509250929050565b61042a81610671565b82525050565b61043981610683565b82525050565b6104488161068f565b82525050565b61045f61045a8261068f565b610739565b82525050565b60006104708261064a565b61047a8185610666565b935061048a8185602086016106d5565b80840191505092915050565b60006104a3601c83610666565b91506104ae82610797565b601c82019050919050565b60006104c6601883610655565b91506104d1826107c0565b602082019050919050565b6104e5816106b9565b82525050565b60006104f78284610465565b915081905092915050565b600061050d82610496565b9150610519828461044e565b60208201915081905092915050565b600060208201905061053d6000830184610421565b92915050565b60006020820190506105586000830184610430565b92915050565b6000608082019050610573600083018761043f565b61058060208301866104dc565b61058d604083018561043f565b61059a606083018461043f565b95945050505050565b600060208201905081810360008301526105bc816104b9565b9050919050565b60006105cd6105de565b90506105d98282610708565b919050565b6000604051905090565b600067ffffffffffffffff82111561060357610602610743565b5b61060c82610786565b9050602081019050919050565b600067ffffffffffffffff82111561063457610633610743565b5b61063d82610786565b9050602081019050919050565b600081519050919050565b600082825260208201905092915050565b600081905092915050565b600061067c82610699565b9050919050565b60008115159050919050565b6000819050919050565b600073ffffffffffffffffffffffffffffffffffffffff82169050919050565b600060ff82169050919050565b82818337600083830152505050565b60005b838110156106f35780820151818401526020810190506106d8565b83811115610702576000848401525b50505050565b61071182610786565b810181811067ffffffffffffffff821117156107305761072f610743565b5b80604052505050565b6000819050919050565b7f4e487b7100000000000000000000000000000000000000000000000000000000600052604160045260246000fd5b600080fd5b600080fd5b600080fd5b600080fd5b6000601f19601f8301169050919050565b7f19457468657265756d205369676e6564204d6573736167653a0a333200000000600082015250565b7f696e76616c6964207369676e6174757265206c656e6774680000000000000000600082015250565b6107f281610671565b81146107fd57600080fd5b50565b6108098161068f565b811461081457600080fd5b5056fea264697066735822122009f5fe68e5ed0614d2171fd97abfb67c863b38bfde07a87197a60f0e3cbabe3064736f6c63430008070033",
					"opcodes": "PUSH1 0x80 PUSH1 0x40 MSTORE CALLVALUE DUP1 ISZERO PUSH2 0x10 JUMPI PUSH1 0x0 DUP1 REVERT JUMPDEST POP PUSH2 0x84D DUP1 PUSH2 0x20 PUSH1 0x0 CODECOPY PUSH1 0x0 RETURN INVALID PUSH1 0x80 PUSH1 0x40 MSTORE CALLVALUE DUP1 ISZERO PUSH2 0x10 JUMPI PUSH1 0x0 DUP1 REVERT JUMPDEST POP PUSH1 0x4 CALLDATASIZE LT PUSH2 0x36 JUMPI PUSH1 0x0 CALLDATALOAD PUSH1 0xE0 SHR DUP1 PUSH4 0x19045A25 EQ PUSH2 0x3B JUMPI DUP1 PUSH4 0x2DD34F0F EQ PUSH2 0x6B JUMPI JUMPDEST PUSH1 0x0 DUP1 REVERT JUMPDEST PUSH2 0x55 PUSH1 0x4 DUP1 CALLDATASIZE SUB DUP2 ADD SWAP1 PUSH2 0x50 SWAP2 SWAP1 PUSH2 0x3C5 JUMP JUMPDEST PUSH2 0x9B JUMP JUMPDEST PUSH1 0x40 MLOAD PUSH2 0x62 SWAP2 SWAP1 PUSH2 0x528 JUMP JUMPDEST PUSH1 0x40 MLOAD DUP1 SWAP2 SUB SWAP1 RETURN JUMPDEST PUSH2 0x85 PUSH1 0x4 DUP1 CALLDATASIZE SUB DUP2 ADD SWAP1 PUSH2 0x80 SWAP2 SWAP1 PUSH2 0x33A JUMP JUMPDEST PUSH2 0x10A JUMP JUMPDEST PUSH1 0x40 MLOAD PUSH2 0x92 SWAP2 SWAP1 PUSH2 0x543 JUMP JUMPDEST PUSH1 0x40 MLOAD DUP1 SWAP2 SUB SWAP1 RETURN JUMPDEST PUSH1 0x0 DUP1 PUSH1 0x0 DUP1 PUSH2 0xAA DUP6 PUSH2 0x168 JUMP JUMPDEST SWAP3 POP SWAP3 POP SWAP3 POP PUSH1 0x1 DUP7 DUP3 DUP6 DUP6 PUSH1 0x40 MLOAD PUSH1 0x0 DUP2 MSTORE PUSH1 0x20 ADD PUSH1 0x40 MSTORE PUSH1 0x40 MLOAD PUSH2 0xD3 SWAP5 SWAP4 SWAP3 SWAP2 SWAP1 PUSH2 0x55E JUMP JUMPDEST PUSH1 0x20 PUSH1 0x40 MLOAD PUSH1 0x20 DUP2 SUB SWAP1 DUP1 DUP5 SUB SWAP1 DUP6 GAS STATICCALL ISZERO DUP1 ISZERO PUSH2 0xF5 JUMPI RETURNDATASIZE PUSH1 0x0 DUP1 RETURNDATACOPY RETURNDATASIZE PUSH1 0x0 REVERT JUMPDEST POP POP POP PUSH1 0x20 PUSH1 0x40 MLOAD SUB MLOAD SWAP4 POP POP POP POP SWAP3 SWAP2 POP POP JUMP JUMPDEST PUSH1 0x0 DUP1 PUSH2 0x116 DUP5 PUSH2 0x1D0 JUMP JUMPDEST SWAP1 POP PUSH1 0x0 PUSH2 0x123 DUP3 PUSH2 0x200 JUMP JUMPDEST SWAP1 POP DUP6 PUSH20 0xFFFFFFFFFFFFFFFFFFFFFFFFFFFFFFFFFFFFFFFF AND PUSH2 0x146 DUP3 DUP7 PUSH2 0x9B JUMP JUMPDEST PUSH20 0xFFFFFFFFFFFFFFFFFFFFFFFFFFFFFFFFFFFFFFFF AND EQ SWAP3 POP POP POP SWAP4 SWAP3 POP POP POP JUMP JUMPDEST PUSH1 0x0 DUP1 PUSH1 0x0 PUSH1 0x41 DUP5 MLOAD EQ PUSH2 0x1B1 JUMPI PUSH1 0x40 MLOAD PUSH32 0x8C379A000000000000000000000000000000000000000000000000000000000 DUP2 MSTORE PUSH1 0x4 ADD PUSH2 0x1A8 SWAP1 PUSH2 0x5A3 JUMP JUMPDEST PUSH1 0x40 MLOAD DUP1 SWAP2 SUB SWAP1 REVERT JUMPDEST PUSH1 0x20 DUP5 ADD MLOAD SWAP3 POP PUSH1 0x40 DUP5 ADD MLOAD SWAP2 POP PUSH1 0x60 DUP5 ADD MLOAD PUSH1 0x0 BYTE SWAP1 POP SWAP2 SWAP4 SWAP1 SWAP3 POP JUMP JUMPDEST PUSH1 0x0 DUP2 PUSH1 0x40 MLOAD PUSH1 0x20 ADD PUSH2 0x1E3 SWAP2 SWAP1 PUSH2 0x4EB JUMP JUMPDEST PUSH1 0x40 MLOAD PUSH1 0x20 DUP2 DUP4 SUB SUB DUP2 MSTORE SWAP1 PUSH1 0x40 MSTORE DUP1 MLOAD SWAP1 PUSH1 0x20 ADD KECCAK256 SWAP1 POP SWAP2 SWAP1 POP JUMP JUMPDEST PUSH1 0x0 DUP2 PUSH1 0x40 MLOAD PUSH1 0x20 ADD PUSH2 0x213 SWAP2 SWAP1 PUSH2 0x502 JUMP JUMPDEST PUSH1 0x40 MLOAD PUSH1 0x20 DUP2 DUP4 SUB SUB DUP2 MSTORE SWAP1 PUSH1 0x40 MSTORE DUP1 MLOAD SWAP1 PUSH1 0x20 ADD KECCAK256 SWAP1 POP SWAP2 SWAP1 POP JUMP JUMPDEST PUSH1 0x0 PUSH2 0x243 PUSH2 0x23E DUP5 PUSH2 0x5E8 JUMP JUMPDEST PUSH2 0x5C3 JUMP JUMPDEST SWAP1 POP DUP3 DUP2 MSTORE PUSH1 0x20 DUP2 ADD DUP5 DUP5 DUP5 ADD GT ISZERO PUSH2 0x25F JUMPI PUSH2 0x25E PUSH2 0x777 JUMP JUMPDEST JUMPDEST PUSH2 0x26A DUP5 DUP3 DUP6 PUSH2 0x6C6 JUMP JUMPDEST POP SWAP4 SWAP3 POP POP POP JUMP JUMPDEST PUSH1 0x0 PUSH2 0x285 PUSH2 0x280 DUP5 PUSH2 0x619 JUMP JUMPDEST PUSH2 0x5C3 JUMP JUMPDEST SWAP1 POP DUP3 DUP2 MSTORE PUSH1 0x20 DUP2 ADD DUP5 DUP5 DUP5 ADD GT ISZERO PUSH2 0x2A1 JUMPI PUSH2 0x2A0 PUSH2 0x777 JUMP JUMPDEST JUMPDEST PUSH2 0x2AC DUP5 DUP3 DUP6 PUSH2 0x6C6 JUMP JUMPDEST POP SWAP4 SWAP3 POP POP POP JUMP JUMPDEST PUSH1 0x0 DUP2 CALLDATALOAD SWAP1 POP PUSH2 0x2C3 DUP2 PUSH2 0x7E9 JUMP JUMPDEST SWAP3 SWAP2 POP POP JUMP JUMPDEST PUSH1 0x0 DUP2 CALLDATALOAD SWAP1 POP PUSH2 0x2D8 DUP2 PUSH2 0x800 JUMP JUMPDEST SWAP3 SWAP2 POP POP JUMP JUMPDEST PUSH1 0x0 DUP3 PUSH1 0x1F DUP4 ADD SLT PUSH2 0x2F3 JUMPI PUSH2 0x2F2 PUSH2 0x772 JUMP JUMPDEST JUMPDEST DUP2 CALLDATALOAD PUSH2 0x303 DUP5 DUP3 PUSH1 0x20 DUP7 ADD PUSH2 0x230 JUMP JUMPDEST SWAP2 POP POP SWAP3 SWAP2 POP POP JUMP JUMPDEST PUSH1 0x0 DUP3 PUSH1 0x1F DUP4 ADD SLT PUSH2 0x321 JUMPI PUSH2 0x320 PUSH2 0x772 JUMP JUMPDEST JUMPDEST DUP2 CALLDATALOAD PUSH2 0x331 DUP5 DUP3 PUSH1 0x20 DUP7 ADD PUSH2 0x272 JUMP JUMPDEST SWAP2 POP POP SWAP3 SWAP2 POP POP JUMP JUMPDEST PUSH1 0x0 DUP1 PUSH1 0x0 PUSH1 0x60 DUP5 DUP7 SUB SLT ISZERO PUSH2 0x353 JUMPI PUSH2 0x352 PUSH2 0x781 JUMP JUMPDEST JUMPDEST PUSH1 0x0 PUSH2 0x361 DUP7 DUP3 DUP8 ADD PUSH2 0x2B4 JUMP JUMPDEST SWAP4 POP POP PUSH1 0x20 DUP5 ADD CALLDATALOAD PUSH8 0xFFFFFFFFFFFFFFFF DUP2 GT ISZERO PUSH2 0x382 JUMPI PUSH2 0x381 PUSH2 0x77C JUMP JUMPDEST JUMPDEST PUSH2 0x38E DUP7 DUP3 DUP8 ADD PUSH2 0x30C JUMP JUMPDEST SWAP3 POP POP PUSH1 0x40 DUP5 ADD CALLDATALOAD PUSH8 0xFFFFFFFFFFFFFFFF DUP2 GT ISZERO PUSH2 0x3AF JUMPI PUSH2 0x3AE PUSH2 0x77C JUMP JUMPDEST JUMPDEST PUSH2 0x3BB DUP7 DUP3 DUP8 ADD PUSH2 0x2DE JUMP JUMPDEST SWAP2 POP POP SWAP3 POP SWAP3 POP SWAP3 JUMP JUMPDEST PUSH1 0x0 DUP1 PUSH1 0x40 DUP4 DUP6 SUB SLT ISZERO PUSH2 0x3DC JUMPI PUSH2 0x3DB PUSH2 0x781 JUMP JUMPDEST JUMPDEST PUSH1 0x0 PUSH2 0x3EA DUP6 DUP3 DUP7 ADD PUSH2 0x2C9 JUMP JUMPDEST SWAP3 POP POP PUSH1 0x20 DUP4 ADD CALLDATALOAD PUSH8 0xFFFFFFFFFFFFFFFF DUP2 GT ISZERO PUSH2 0x40B JUMPI PUSH2 0x40A PUSH2 0x77C JUMP JUMPDEST JUMPDEST PUSH2 0x417 DUP6 DUP3 DUP7 ADD PUSH2 0x2DE JUMP JUMPDEST SWAP2 POP POP SWAP3 POP SWAP3 SWAP1 POP JUMP JUMPDEST PUSH2 0x42A DUP2 PUSH2 0x671 JUMP JUMPDEST DUP3 MSTORE POP POP JUMP JUMPDEST PUSH2 0x439 DUP2 PUSH2 0x683 JUMP JUMPDEST DUP3 MSTORE POP POP JUMP JUMPDEST PUSH2 0x448 DUP2 PUSH2 0x68F JUMP JUMPDEST DUP3 MSTORE POP POP JUMP JUMPDEST PUSH2 0x45F PUSH2 0x45A DUP3 PUSH2 0x68F JUMP JUMPDEST PUSH2 0x739 JUMP JUMPDEST DUP3 MSTORE POP POP JUMP JUMPDEST PUSH1 0x0 PUSH2 0x470 DUP3 PUSH2 0x64A JUMP JUMPDEST PUSH2 0x47A DUP2 DUP6 PUSH2 0x666 JUMP JUMPDEST SWAP4 POP PUSH2 0x48A DUP2 DUP6 PUSH1 0x20 DUP7 ADD PUSH2 0x6D5 JUMP JUMPDEST DUP1 DUP5 ADD SWAP2 POP POP SWAP3 SWAP2 POP POP JUMP JUMPDEST PUSH1 0x0 PUSH2 0x4A3 PUSH1 0x1C DUP4 PUSH2 0x666 JUMP JUMPDEST SWAP2 POP PUSH2 0x4AE DUP3 PUSH2 0x797 JUMP JUMPDEST PUSH1 0x1C DUP3 ADD SWAP1 POP SWAP2 SWAP1 POP JUMP JUMPDEST PUSH1 0x0 PUSH2 0x4C6 PUSH1 0x18 DUP4 PUSH2 0x655 JUMP JUMPDEST SWAP2 POP PUSH2 0x4D1 DUP3 PUSH2 0x7C0 JUMP JUMPDEST PUSH1 0x20 DUP3 ADD SWAP1 POP SWAP2 SWAP1 POP JUMP JUMPDEST PUSH2 0x4E5 DUP2 PUSH2 0x6B9 JUMP JUMPDEST DUP3 MSTORE POP POP JUMP JUMPDEST PUSH1 0x0 PUSH2 0x4F7 DUP3 DUP5 PUSH2 0x465 JUMP JUMPDEST SWAP2 POP DUP2 SWAP1 POP SWAP3 SWAP2 POP POP JUMP JUMPDEST PUSH1 0x0 PUSH2 0x50D DUP3 PUSH2 0x496 JUMP JUMPDEST SWAP2 POP PUSH2 0x519 DUP3 DUP5 PUSH2 0x44E JUMP JUMPDEST PUSH1 0x20 DUP3 ADD SWAP2 POP DUP2 SWAP1 POP SWAP3 SWAP2 POP POP JUMP JUMPDEST PUSH1 0x0 PUSH1 0x20 DUP3 ADD SWAP1 POP PUSH2 0x53D PUSH1 0x0 DUP4 ADD DUP5 PUSH2 0x421 JUMP JUMPDEST SWAP3 SWAP2 POP POP JUMP JUMPDEST PUSH1 0x0 PUSH1 0x20 DUP3 ADD SWAP1 POP PUSH2 0x558 PUSH1 0x0 DUP4 ADD DUP5 PUSH2 0x430 JUMP JUMPDEST SWAP3 SWAP2 POP POP JUMP JUMPDEST PUSH1 0x0 PUSH1 0x80 DUP3 ADD SWAP1 POP PUSH2 0x573 PUSH1 0x0 DUP4 ADD DUP8 PUSH2 0x43F JUMP JUMPDEST PUSH2 0x580 PUSH1 0x20 DUP4 ADD DUP7 PUSH2 0x4DC JUMP JUMPDEST PUSH2 0x58D PUSH1 0x40 DUP4 ADD DUP6 PUSH2 0x43F JUMP JUMPDEST PUSH2 0x59A PUSH1 0x60 DUP4 ADD DUP5 PUSH2 0x43F JUMP JUMPDEST SWAP6 SWAP5 POP POP POP POP POP JUMP JUMPDEST PUSH1 0x0 PUSH1 0x20 DUP3 ADD SWAP1 POP DUP2 DUP2 SUB PUSH1 0x0 DUP4 ADD MSTORE PUSH2 0x5BC DUP2 PUSH2 0x4B9 JUMP JUMPDEST SWAP1 POP SWAP2 SWAP1 POP JUMP JUMPDEST PUSH1 0x0 PUSH2 0x5CD PUSH2 0x5DE JUMP JUMPDEST SWAP1 POP PUSH2 0x5D9 DUP3 DUP3 PUSH2 0x708 JUMP JUMPDEST SWAP2 SWAP1 POP JUMP JUMPDEST PUSH1 0x0 PUSH1 0x40 MLOAD SWAP1 POP SWAP1 JUMP JUMPDEST PUSH1 0x0 PUSH8 0xFFFFFFFFFFFFFFFF DUP3 GT ISZERO PUSH2 0x603 JUMPI PUSH2 0x602 PUSH2 0x743 JUMP JUMPDEST JUMPDEST PUSH2 0x60C DUP3 PUSH2 0x786 JUMP JUMPDEST SWAP1 POP PUSH1 0x20 DUP2 ADD SWAP1 POP SWAP2 SWAP1 POP JUMP JUMPDEST PUSH1 0x0 PUSH8 0xFFFFFFFFFFFFFFFF DUP3 GT ISZERO PUSH2 0x634 JUMPI PUSH2 0x633 PUSH2 0x743 JUMP JUMPDEST JUMPDEST PUSH2 0x63D DUP3 PUSH2 0x786 JUMP JUMPDEST SWAP1 POP PUSH1 0x20 DUP2 ADD SWAP1 POP SWAP2 SWAP1 POP JUMP JUMPDEST PUSH1 0x0 DUP2 MLOAD SWAP1 POP SWAP2 SWAP1 POP JUMP JUMPDEST PUSH1 0x0 DUP3 DUP3 MSTORE PUSH1 0x20 DUP3 ADD SWAP1 POP SWAP3 SWAP2 POP POP JUMP JUMPDEST PUSH1 0x0 DUP2 SWAP1 POP SWAP3 SWAP2 POP POP JUMP JUMPDEST PUSH1 0x0 PUSH2 0x67C DUP3 PUSH2 0x699 JUMP JUMPDEST SWAP1 POP SWAP2 SWAP1 POP JUMP JUMPDEST PUSH1 0x0 DUP2 ISZERO ISZERO SWAP1 POP SWAP2 SWAP1 POP JUMP JUMPDEST PUSH1 0x0 DUP2 SWAP1 POP SWAP2 SWAP1 POP JUMP JUMPDEST PUSH1 0x0 PUSH20 0xFFFFFFFFFFFFFFFFFFFFFFFFFFFFFFFFFFFFFFFF DUP3 AND SWAP1 POP SWAP2 SWAP1 POP JUMP JUMPDEST PUSH1 0x0 PUSH1 0xFF DUP3 AND SWAP1 POP SWAP2 SWAP1 POP JUMP JUMPDEST DUP3 DUP2 DUP4 CALLDATACOPY PUSH1 0x0 DUP4 DUP4 ADD MSTORE POP POP POP JUMP JUMPDEST PUSH1 0x0 JUMPDEST DUP4 DUP2 LT ISZERO PUSH2 0x6F3 JUMPI DUP1 DUP3 ADD MLOAD DUP2 DUP5 ADD MSTORE PUSH1 0x20 DUP2 ADD SWAP1 POP PUSH2 0x6D8 JUMP JUMPDEST DUP4 DUP2 GT ISZERO PUSH2 0x702 JUMPI PUSH1 0x0 DUP5 DUP5 ADD MSTORE JUMPDEST POP POP POP POP JUMP JUMPDEST PUSH2 0x711 DUP3 PUSH2 0x786 JUMP JUMPDEST DUP2 ADD DUP2 DUP2 LT PUSH8 0xFFFFFFFFFFFFFFFF DUP3 GT OR ISZERO PUSH2 0x730 JUMPI PUSH2 0x72F PUSH2 0x743 JUMP JUMPDEST JUMPDEST DUP1 PUSH1 0x40 MSTORE POP POP POP JUMP JUMPDEST PUSH1 0x0 DUP2 SWAP1 POP SWAP2 SWAP1 POP JUMP JUMPDEST PUSH32 0x4E487B7100000000000000000000000000000000000000000000000000000000 PUSH1 0x0 MSTORE PUSH1 0x41 PUSH1 0x4 MSTORE PUSH1 0x24 PUSH1 0x0 REVERT JUMPDEST PUSH1 0x0 DUP1 REVERT JUMPDEST PUSH1 0x0 DUP1 REVERT JUMPDEST PUSH1 0x0 DUP1 REVERT JUMPDEST PUSH1 0x0 DUP1 REVERT JUMPDEST PUSH1 0x0 PUSH1 0x1F NOT PUSH1 0x1F DUP4 ADD AND SWAP1 POP SWAP2 SWAP1 POP JUMP JUMPDEST PUSH32 0x19457468657265756D205369676E6564204D6573736167653A0A333200000000 PUSH1 0x0 DUP3 ADD MSTORE POP JUMP JUMPDEST PUSH32 0x696E76616C6964207369676E6174757265206C656E6774680000000000000000 PUSH1 0x0 DUP3 ADD MSTORE POP JUMP JUMPDEST PUSH2 0x7F2 DUP2 PUSH2 0x671 JUMP JUMPDEST DUP2 EQ PUSH2 0x7FD JUMPI PUSH1 0x0 DUP1 REVERT JUMPDEST POP JUMP JUMPDEST PUSH2 0x809 DUP2 PUSH2 0x68F JUMP JUMPDEST DUP2 EQ PUSH2 0x814 JUMPI PUSH1 0x0 DUP1 REVERT JUMPDEST POP JUMP INVALID LOG2 PUSH5 0x6970667358 0x22 SLT KECCAK256 MULMOD CREATE2 INVALID PUSH9 0xE5ED0614D2171FD97A 0xBF 0xB6 PUSH29 0x863B38BFDE07A87197A60F0E3CBABE3064736F6C634300080700330000 "
				},
				"gasEstimates": {
					"creation": {
						"codeDepositCost": "425000",
						"executionCost": "461",
						"totalCost": "425461"
					},
					"external": {
						"recover(bytes32,bytes)": "infinite",
						"verify(address,string,bytes)": "infinite"
					},
					"internal": {
						"_split(bytes memory)": "infinite",
						"getEthSignedMessage(bytes32)": "infinite",
						"getMessageHash(string memory)": "infinite"
					}
				},
				"methodIdentifiers": {
					"recover(bytes32,bytes)": "19045a25",
					"verify(address,string,bytes)": "2dd34f0f"
				}
			},
			"storageLayout": {
				"storage": [],
				"types": null
			},
			"userdoc": {
				"kind": "user",
				"methods": {},
				"notice": "0. message to sign 1. hash(message) 2. sign(hash(message),private key) offchain 3. ecrecover(hash(message),signature) == signer",
				"version": 1
			}
		}
	}
}