{
	"13_Array.sol": {
		"TestArray": {
			"abi": [
				{
					"inputs": [],
					"name": "example",
					"outputs": [
						{
							"internalType": "uint256",
							"name": "",
							"type": "uint256"
						},
						{
							"internalType": "uint256",
							"name": "",
							"type": "uint256"
						}
					],
					"stateMutability": "nonpayable",
					"type": "function"
				},
				{
					"inputs": [
						{
							"internalType": "uint256",
							"name": "",
							"type": "uint256"
						}
					],
					"name": "nums",
					"outputs": [
						{
							"internalType": "uint256",
							"name": "",
							"type": "uint256"
						}
					],
					"stateMutability": "view",
					"type": "function"
				},
				{
					"inputs": [
						{
							"internalType": "uint256",
							"name": "",
							"type": "uint256"
						}
					],
					"name": "numsFixed",
					"outputs": [
						{
							"internalType": "uint256",
							"name": "",
							"type": "uint256"
						}
					],
					"stateMutability": "view",
					"type": "function"
				},
				{
					"inputs": [
						{
							"internalType": "uint256",
							"name": "_index",
							"type": "uint256"
						}
					],
					"name": "removeArrayelement",
					"outputs": [],
					"stateMutability": "nonpayable",
					"type": "function"
				},
				{
					"inputs": [],
					"name": "returnArray",
					"outputs": [
						{
							"internalType": "uint256[]",
							"name": "",
							"type": "uint256[]"
						}
					],
					"stateMutability": "view",
					"type": "function"
				},
				{
					"inputs": [],
					"name": "returnFixedArray",
					"outputs": [
						{
							"internalType": "uint256[3]",
							"name": "",
							"type": "uint256[3]"
						}
					],
					"stateMutability": "view",
					"type": "function"
				},
				{
					"inputs": [],
					"name": "testRemove",
					"outputs": [],
					"stateMutability": "nonpayable",
					"type": "function"
				}
			],
			"devdoc": {
				"kind": "dev",
				"methods": {},
				"version": 1
			},
			"evm": {
				"assembly": "    /* \"13_Array.sol\":228:1774  contract TestArray{... */\n  mstore(0x40, 0x80)\n    /* \"13_Array.sol\":276:310  uint[3] public numsFixed = [1,2,3] */\n  mload(0x40)\n  dup1\n  0x60\n  add\n  0x40\n  mstore\n  dup1\n    /* \"13_Array.sol\":304:305  1 */\n  0x01\n    /* \"13_Array.sol\":276:310  uint[3] public numsFixed = [1,2,3] */\n  0xff\n  and\n  dup2\n  mstore\n  0x20\n  add\n    /* \"13_Array.sol\":306:307  2 */\n  0x02\n    /* \"13_Array.sol\":276:310  uint[3] public numsFixed = [1,2,3] */\n  0xff\n  and\n  dup2\n  mstore\n  0x20\n  add\n    /* \"13_Array.sol\":308:309  3 */\n  0x03\n    /* \"13_Array.sol\":276:310  uint[3] public numsFixed = [1,2,3] */\n  0xff\n  and\n  dup2\n  mstore\n  pop\n  0x01\n  swap1\n  0x03\n  tag_1\n  swap3\n  swap2\n  swap1\n  tag_2\n  jump\t// in\ntag_1:\n  pop\n    /* \"13_Array.sol\":228:1774  contract TestArray{... */\n  callvalue\n  dup1\n  iszero\n  tag_3\n  jumpi\n  0x00\n  dup1\n  revert\ntag_3:\n  pop\n  jump(tag_4)\ntag_2:\n  dup3\n  0x03\n  dup2\n  add\n  swap3\n  dup3\n  iszero\n  tag_5\n  jumpi\n  swap2\n  0x20\n  mul\n  dup3\n  add\ntag_6:\n  dup3\n  dup2\n  gt\n  iszero\n  tag_7\n  jumpi\n  dup3\n  mload\n  dup3\n  swap1\n  0xff\n  and\n  swap1\n  sstore\n  swap2\n  0x20\n  add\n  swap2\n  swap1\n  0x01\n  add\n  swap1\n  jump(tag_6)\ntag_7:\ntag_5:\n  pop\n  swap1\n  pop\n  tag_8\n  swap2\n  swap1\n  tag_9\n  jump\t// in\ntag_8:\n  pop\n  swap1\n  jump\t// out\ntag_9:\ntag_10:\n  dup1\n  dup3\n  gt\n  iszero\n  tag_11\n  jumpi\n  0x00\n  dup2\n  0x00\n  swap1\n  sstore\n  pop\n  0x01\n  add\n  jump(tag_10)\ntag_11:\n  pop\n  swap1\n  jump\t// out\ntag_4:\n  dataSize(sub_0)\n  dup1\n  dataOffset(sub_0)\n  0x00\n  codecopy\n  0x00\n  return\nstop\n\nsub_0: assembly {\n        /* \"13_Array.sol\":228:1774  contract TestArray{... */\n      mstore(0x40, 0x80)\n      callvalue\n      dup1\n      iszero\n      tag_1\n      jumpi\n      0x00\n      dup1\n      revert\n    tag_1:\n      pop\n      jumpi(tag_2, lt(calldatasize, 0x04))\n      shr(0xe0, calldataload(0x00))\n      dup1\n      0x44395769\n      gt\n      tag_10\n      jumpi\n      dup1\n      0x44395769\n      eq\n      tag_6\n      jumpi\n      dup1\n      0x54353f2f\n      eq\n      tag_7\n      jumpi\n      dup1\n      0xc9373396\n      eq\n      tag_8\n      jumpi\n      dup1\n      0xfd1ee54c\n      eq\n      tag_9\n      jumpi\n      jump(tag_2)\n    tag_10:\n      dup1\n      0x315a6c89\n      eq\n      tag_3\n      jumpi\n      dup1\n      0x39cfea4a\n      eq\n      tag_4\n      jumpi\n      dup1\n      0x3cac14c8\n      eq\n      tag_5\n      jumpi\n    tag_2:\n      0x00\n      dup1\n      revert\n        /* \"13_Array.sol\":990:1090  function returnFixedArray() external view returns (uint[3] memory) {... */\n    tag_3:\n      tag_11\n      tag_12\n      jump\t// in\n    tag_11:\n      mload(0x40)\n      tag_13\n      swap2\n      swap1\n      tag_14\n      jump\t// in\n    tag_13:\n      mload(0x40)\n      dup1\n      swap2\n      sub\n      swap1\n      return\n        /* \"13_Array.sol\":1554:1772  function testRemove() external{... */\n    tag_4:\n      tag_15\n      tag_16\n      jump\t// in\n    tag_15:\n      stop\n        /* \"13_Array.sol\":895:984  function returnArray() external view returns (uint[] memory) {... */\n    tag_5:\n      tag_17\n      tag_18\n      jump\t// in\n    tag_17:\n      mload(0x40)\n      tag_19\n      swap2\n      swap1\n      tag_20\n      jump\t// in\n    tag_19:\n      mload(0x40)\n      dup1\n      swap2\n      sub\n      swap1\n      return\n        /* \"13_Array.sol\":276:310  uint[3] public numsFixed = [1,2,3] */\n    tag_6:\n      tag_21\n      0x04\n      dup1\n      calldatasize\n      sub\n      dup2\n      add\n      swap1\n      tag_22\n      swap2\n      swap1\n      tag_23\n      jump\t// in\n    tag_22:\n      tag_24\n      jump\t// in\n    tag_21:\n      mload(0x40)\n      tag_25\n      swap2\n      swap1\n      tag_26\n      jump\t// in\n    tag_25:\n      mload(0x40)\n      dup1\n      swap2\n      sub\n      swap1\n      return\n        /* \"13_Array.sol\":321:869  function example() external returns (uint,uint){... */\n    tag_7:\n      tag_27\n      tag_28\n      jump\t// in\n    tag_27:\n      mload(0x40)\n      tag_29\n      swap3\n      swap2\n      swap1\n      tag_30\n      jump\t// in\n    tag_29:\n      mload(0x40)\n      dup1\n      swap2\n      sub\n      swap1\n      return\n        /* \"13_Array.sol\":1292:1548  function removeArrayelement(uint _index) public {... */\n    tag_8:\n      tag_31\n      0x04\n      dup1\n      calldatasize\n      sub\n      dup2\n      add\n      swap1\n      tag_32\n      swap2\n      swap1\n      tag_23\n      jump\t// in\n    tag_32:\n      tag_33\n      jump\t// in\n    tag_31:\n      stop\n        /* \"13_Array.sol\":252:270  uint[] public nums */\n    tag_9:\n      tag_34\n      0x04\n      dup1\n      calldatasize\n      sub\n      dup2\n      add\n      swap1\n      tag_35\n      swap2\n      swap1\n      tag_23\n      jump\t// in\n    tag_35:\n      tag_36\n      jump\t// in\n    tag_34:\n      mload(0x40)\n      tag_37\n      swap2\n      swap1\n      tag_26\n      jump\t// in\n    tag_37:\n      mload(0x40)\n      dup1\n      swap2\n      sub\n      swap1\n      return\n        /* \"13_Array.sol\":990:1090  function returnFixedArray() external view returns (uint[3] memory) {... */\n    tag_12:\n        /* \"13_Array.sol\":1041:1055  uint[3] memory */\n      tag_38\n      tag_39\n      jump\t// in\n    tag_38:\n        /* \"13_Array.sol\":1074:1083  numsFixed */\n      0x01\n        /* \"13_Array.sol\":1067:1083  return numsFixed */\n      0x03\n      dup1\n      0x20\n      mul\n      mload(0x40)\n      swap1\n      dup2\n      add\n      0x40\n      mstore\n      dup1\n      swap3\n      swap2\n      swap1\n      dup3\n      0x03\n      dup1\n      iszero\n      tag_41\n      jumpi\n      0x20\n      mul\n      dup3\n      add\n      swap2\n    tag_42:\n      dup2\n      sload\n      dup2\n      mstore\n      0x20\n      add\n      swap1\n      0x01\n      add\n      swap1\n      dup1\n      dup4\n      gt\n      tag_42\n      jumpi\n    tag_41:\n      pop\n      pop\n      pop\n      pop\n      pop\n      swap1\n      pop\n        /* \"13_Array.sol\":990:1090  function returnFixedArray() external view returns (uint[3] memory) {... */\n      swap1\n      jump\t// out\n        /* \"13_Array.sol\":1554:1772  function testRemove() external{... */\n    tag_16:\n        /* \"13_Array.sol\":1594:1614  nums = [1,2,3,4,5,6] */\n      mload(0x40)\n      dup1\n      0xc0\n      add\n      0x40\n      mstore\n      dup1\n        /* \"13_Array.sol\":1602:1603  1 */\n      0x01\n        /* \"13_Array.sol\":1594:1614  nums = [1,2,3,4,5,6] */\n      0xff\n      and\n      dup2\n      mstore\n      0x20\n      add\n        /* \"13_Array.sol\":1604:1605  2 */\n      0x02\n        /* \"13_Array.sol\":1594:1614  nums = [1,2,3,4,5,6] */\n      0xff\n      and\n      dup2\n      mstore\n      0x20\n      add\n        /* \"13_Array.sol\":1606:1607  3 */\n      0x03\n        /* \"13_Array.sol\":1594:1614  nums = [1,2,3,4,5,6] */\n      0xff\n      and\n      dup2\n      mstore\n      0x20\n      add\n        /* \"13_Array.sol\":1608:1609  4 */\n      0x04\n        /* \"13_Array.sol\":1594:1614  nums = [1,2,3,4,5,6] */\n      0xff\n      and\n      dup2\n      mstore\n      0x20\n      add\n        /* \"13_Array.sol\":1610:1611  5 */\n      0x05\n        /* \"13_Array.sol\":1594:1614  nums = [1,2,3,4,5,6] */\n      0xff\n      and\n      dup2\n      mstore\n      0x20\n      add\n        /* \"13_Array.sol\":1612:1613  6 */\n      0x06\n        /* \"13_Array.sol\":1594:1614  nums = [1,2,3,4,5,6] */\n      0xff\n      and\n      dup2\n      mstore\n      pop\n        /* \"13_Array.sol\":1594:1598  nums */\n      0x00\n        /* \"13_Array.sol\":1594:1614  nums = [1,2,3,4,5,6] */\n      swap1\n      0x06\n      tag_44\n      swap3\n      swap2\n      swap1\n      tag_45\n      jump\t// in\n    tag_44:\n      pop\n        /* \"13_Array.sol\":1624:1645  removeArrayelement(3) */\n      tag_46\n        /* \"13_Array.sol\":1643:1644  3 */\n      0x03\n        /* \"13_Array.sol\":1624:1642  removeArrayelement */\n      tag_33\n        /* \"13_Array.sol\":1624:1645  removeArrayelement(3) */\n      jump\t// in\n    tag_46:\n        /* \"13_Array.sol\":1677:1678  5 */\n      0x05\n        /* \"13_Array.sol\":1662:1666  nums */\n      0x00\n        /* \"13_Array.sol\":1662:1673  nums.length */\n      dup1\n      sload\n      swap1\n      pop\n        /* \"13_Array.sol\":1662:1678  nums.length == 5 */\n      eq\n        /* \"13_Array.sol\":1655:1679  assert(nums.length == 5) */\n      tag_47\n      jumpi\n      tag_48\n      tag_49\n      jump\t// in\n    tag_48:\n    tag_47:\n        /* \"13_Array.sol\":1690:1700  nums = [1] */\n      mload(0x40)\n      dup1\n      0x20\n      add\n      0x40\n      mstore\n      dup1\n        /* \"13_Array.sol\":1698:1699  1 */\n      0x01\n        /* \"13_Array.sol\":1690:1700  nums = [1] */\n      0xff\n      and\n      dup2\n      mstore\n      pop\n        /* \"13_Array.sol\":1690:1694  nums */\n      0x00\n        /* \"13_Array.sol\":1690:1700  nums = [1] */\n      swap1\n      0x01\n      tag_50\n      swap3\n      swap2\n      swap1\n      tag_51\n      jump\t// in\n    tag_50:\n      pop\n        /* \"13_Array.sol\":1710:1731  removeArrayelement(0) */\n      tag_52\n        /* \"13_Array.sol\":1729:1730  0 */\n      0x00\n        /* \"13_Array.sol\":1710:1728  removeArrayelement */\n      tag_33\n        /* \"13_Array.sol\":1710:1731  removeArrayelement(0) */\n      jump\t// in\n    tag_52:\n        /* \"13_Array.sol\":1763:1764  0 */\n      0x00\n        /* \"13_Array.sol\":1748:1752  nums */\n      dup1\n        /* \"13_Array.sol\":1748:1759  nums.length */\n      dup1\n      sload\n      swap1\n      pop\n        /* \"13_Array.sol\":1748:1764  nums.length == 0 */\n      eq\n        /* \"13_Array.sol\":1741:1765  assert(nums.length == 0) */\n      tag_53\n      jumpi\n      tag_54\n      tag_49\n      jump\t// in\n    tag_54:\n    tag_53:\n        /* \"13_Array.sol\":1554:1772  function testRemove() external{... */\n      jump\t// out\n        /* \"13_Array.sol\":895:984  function returnArray() external view returns (uint[] memory) {... */\n    tag_18:\n        /* \"13_Array.sol\":941:954  uint[] memory */\n      0x60\n        /* \"13_Array.sol\":973:977  nums */\n      0x00\n        /* \"13_Array.sol\":966:977  return nums */\n      dup1\n      sload\n      dup1\n      0x20\n      mul\n      0x20\n      add\n      mload(0x40)\n      swap1\n      dup2\n      add\n      0x40\n      mstore\n      dup1\n      swap3\n      swap2\n      swap1\n      dup2\n      dup2\n      mstore\n      0x20\n      add\n      dup3\n      dup1\n      sload\n      dup1\n      iszero\n      tag_56\n      jumpi\n      0x20\n      mul\n      dup3\n      add\n      swap2\n      swap1\n      0x00\n      mstore\n      keccak256(0x00, 0x20)\n      swap1\n    tag_57:\n      dup2\n      sload\n      dup2\n      mstore\n      0x20\n      add\n      swap1\n      0x01\n      add\n      swap1\n      dup1\n      dup4\n      gt\n      tag_57\n      jumpi\n    tag_56:\n      pop\n      pop\n      pop\n      pop\n      pop\n      swap1\n      pop\n        /* \"13_Array.sol\":895:984  function returnArray() external view returns (uint[] memory) {... */\n      swap1\n      jump\t// out\n        /* \"13_Array.sol\":276:310  uint[3] public numsFixed = [1,2,3] */\n    tag_24:\n      0x01\n      dup2\n      0x03\n      dup2\n      lt\n      tag_58\n      jumpi\n      0x00\n      dup1\n      revert\n    tag_58:\n      add\n      0x00\n      swap2\n      pop\n      swap1\n      pop\n      sload\n      dup2\n      jump\t// out\n        /* \"13_Array.sol\":321:869  function example() external returns (uint,uint){... */\n    tag_28:\n        /* \"13_Array.sol\":358:362  uint */\n      0x00\n        /* \"13_Array.sol\":363:367  uint */\n      dup1\n        /* \"13_Array.sol\":378:394  nums = [1,2,3,4] */\n      mload(0x40)\n      dup1\n      0x80\n      add\n      0x40\n      mstore\n      dup1\n        /* \"13_Array.sol\":386:387  1 */\n      0x01\n        /* \"13_Array.sol\":378:394  nums = [1,2,3,4] */\n      0xff\n      and\n      dup2\n      mstore\n      0x20\n      add\n        /* \"13_Array.sol\":388:389  2 */\n      0x02\n        /* \"13_Array.sol\":378:394  nums = [1,2,3,4] */\n      0xff\n      and\n      dup2\n      mstore\n      0x20\n      add\n        /* \"13_Array.sol\":390:391  3 */\n      0x03\n        /* \"13_Array.sol\":378:394  nums = [1,2,3,4] */\n      0xff\n      and\n      dup2\n      mstore\n      0x20\n      add\n        /* \"13_Array.sol\":392:393  4 */\n      0x04\n        /* \"13_Array.sol\":378:394  nums = [1,2,3,4] */\n      0xff\n      and\n      dup2\n      mstore\n      pop\n        /* \"13_Array.sol\":378:382  nums */\n      0x00\n        /* \"13_Array.sol\":378:394  nums = [1,2,3,4] */\n      swap1\n      0x04\n      tag_61\n      swap3\n      swap2\n      swap1\n      tag_62\n      jump\t// in\n    tag_61:\n      pop\n        /* \"13_Array.sol\":404:408  nums */\n      0x00\n        /* \"13_Array.sol\":414:415  5 */\n      0x05\n        /* \"13_Array.sol\":404:416  nums.push(5) */\n      swap1\n      dup1\n      0x01\n      dup2\n      sload\n      add\n      dup1\n      dup3\n      sstore\n      dup1\n      swap2\n      pop\n      pop\n      0x01\n      swap1\n      sub\n      swap1\n      0x00\n      mstore\n      keccak256(0x00, 0x20)\n      add\n      0x00\n      swap1\n      swap2\n      swap1\n      swap2\n      swap1\n      swap2\n      pop\n      sstore\n        /* \"13_Array.sol\":441:447  uint x */\n      0x00\n        /* \"13_Array.sol\":450:454  nums */\n      dup1\n        /* \"13_Array.sol\":455:456  1 */\n      0x01\n        /* \"13_Array.sol\":450:457  nums[1] */\n      dup2\n      sload\n      dup2\n      lt\n      tag_64\n      jumpi\n      tag_65\n      tag_66\n      jump\t// in\n    tag_65:\n    tag_64:\n      swap1\n      0x00\n      mstore\n      keccak256(0x00, 0x20)\n      add\n      sload\n        /* \"13_Array.sol\":441:457  uint x = nums[1] */\n      swap1\n      pop\n        /* \"13_Array.sol\":486:487  6 */\n      0x06\n        /* \"13_Array.sol\":476:480  nums */\n      0x00\n        /* \"13_Array.sol\":481:482  2 */\n      0x02\n        /* \"13_Array.sol\":476:483  nums[2] */\n      dup2\n      sload\n      dup2\n      lt\n      tag_68\n      jumpi\n      tag_69\n      tag_66\n      jump\t// in\n    tag_69:\n    tag_68:\n      swap1\n      0x00\n      mstore\n      keccak256(0x00, 0x20)\n      add\n        /* \"13_Array.sol\":476:487  nums[2] = 6 */\n      dup2\n      swap1\n      sstore\n      pop\n        /* \"13_Array.sol\":580:584  nums */\n      0x00\n        /* \"13_Array.sol\":585:586  2 */\n      0x02\n        /* \"13_Array.sol\":580:587  nums[2] */\n      dup2\n      sload\n      dup2\n      lt\n      tag_71\n      jumpi\n      tag_72\n      tag_66\n      jump\t// in\n    tag_72:\n    tag_71:\n      swap1\n      0x00\n      mstore\n      keccak256(0x00, 0x20)\n      add\n        /* \"13_Array.sol\":573:587  delete nums[2] */\n      0x00\n      swap1\n      sstore\n        /* \"13_Array.sol\":612:616  nums */\n      0x00\n        /* \"13_Array.sol\":612:622  nums.pop() */\n      dup1\n      sload\n      dup1\n      tag_74\n      jumpi\n      tag_75\n      tag_76\n      jump\t// in\n    tag_75:\n    tag_74:\n      0x01\n      swap1\n      sub\n      dup2\n      dup2\n      swap1\n      0x00\n      mstore\n      keccak256(0x00, 0x20)\n      add\n      0x00\n      swap1\n      sstore\n      swap1\n      sstore\n        /* \"13_Array.sol\":645:653  uint len */\n      0x00\n        /* \"13_Array.sol\":656:660  nums */\n      dup1\n        /* \"13_Array.sol\":656:667  nums.length */\n      dup1\n      sload\n      swap1\n      pop\n        /* \"13_Array.sol\":645:667  uint len = nums.length */\n      swap1\n      pop\n        /* \"13_Array.sol\":745:764  uint[] memory mnums */\n      0x00\n        /* \"13_Array.sol\":778:779  5 */\n      0x05\n        /* \"13_Array.sol\":767:780  new uint[](5) */\n      0xffffffffffffffff\n      dup2\n      gt\n      iszero\n      tag_78\n      jumpi\n      tag_79\n      tag_80\n      jump\t// in\n    tag_79:\n    tag_78:\n      mload(0x40)\n      swap1\n      dup1\n      dup3\n      mstore\n      dup1\n      0x20\n      mul\n      0x20\n      add\n      dup3\n      add\n      0x40\n      mstore\n      dup1\n      iszero\n      tag_81\n      jumpi\n      dup2\n      0x20\n      add\n      0x20\n      dup3\n      mul\n      dup1\n      calldatasize\n      dup4\n      calldatacopy\n      dup1\n      dup3\n      add\n      swap2\n      pop\n      pop\n      swap1\n      pop\n    tag_81:\n      pop\n        /* \"13_Array.sol\":745:780  uint[] memory mnums = new uint[](5) */\n      swap1\n      pop\n        /* \"13_Array.sol\":836:838  10 */\n      0x0a\n        /* \"13_Array.sol\":825:830  mnums */\n      dup2\n        /* \"13_Array.sol\":831:832  1 */\n      0x01\n        /* \"13_Array.sol\":825:833  mnums[1] */\n      dup2\n      mload\n      dup2\n      lt\n      tag_82\n      jumpi\n      tag_83\n      tag_66\n      jump\t// in\n    tag_83:\n    tag_82:\n      0x20\n      mul\n      0x20\n      add\n      add\n        /* \"13_Array.sol\":825:838  mnums[1] = 10 */\n      dup2\n      dup2\n      mstore\n      pop\n      pop\n        /* \"13_Array.sol\":856:857  x */\n      dup3\n        /* \"13_Array.sol\":858:861  len */\n      dup3\n        /* \"13_Array.sol\":848:862  return (x,len) */\n      swap5\n      pop\n      swap5\n      pop\n      pop\n      pop\n      pop\n        /* \"13_Array.sol\":321:869  function example() external returns (uint,uint){... */\n      swap1\n      swap2\n      jump\t// out\n        /* \"13_Array.sol\":1292:1548  function removeArrayelement(uint _index) public {... */\n    tag_33:\n        /* \"13_Array.sol\":1393:1397  nums */\n      0x00\n        /* \"13_Array.sol\":1393:1404  nums.length */\n      dup1\n      sload\n      swap1\n      pop\n        /* \"13_Array.sol\":1384:1390  _index */\n      dup2\n        /* \"13_Array.sol\":1384:1404  _index < nums.length */\n      lt\n        /* \"13_Array.sol\":1376:1428  require(_index < nums.length, \"_index out of bound\") */\n      tag_85\n      jumpi\n      mload(0x40)\n      0x08c379a000000000000000000000000000000000000000000000000000000000\n      dup2\n      mstore\n      0x04\n      add\n      tag_86\n      swap1\n      tag_87\n      jump\t// in\n    tag_86:\n      mload(0x40)\n      dup1\n      swap2\n      sub\n      swap1\n      revert\n    tag_85:\n        /* \"13_Array.sol\":1442:1448  uint i */\n      0x00\n        /* \"13_Array.sol\":1451:1457  _index */\n      dup2\n        /* \"13_Array.sol\":1442:1457  uint i = _index */\n      swap1\n      pop\n        /* \"13_Array.sol\":1438:1522  for(uint i = _index; i<nums.length; i++){... */\n    tag_88:\n        /* \"13_Array.sol\":1461:1465  nums */\n      0x00\n        /* \"13_Array.sol\":1461:1472  nums.length */\n      dup1\n      sload\n      swap1\n      pop\n        /* \"13_Array.sol\":1459:1460  i */\n      dup2\n        /* \"13_Array.sol\":1459:1472  i<nums.length */\n      lt\n        /* \"13_Array.sol\":1438:1522  for(uint i = _index; i<nums.length; i++){... */\n      iszero\n      tag_89\n      jumpi\n        /* \"13_Array.sol\":1502:1506  nums */\n      0x00\n        /* \"13_Array.sol\":1509:1510  1 */\n      0x01\n        /* \"13_Array.sol\":1507:1508  i */\n      dup3\n        /* \"13_Array.sol\":1507:1510  i+1 */\n      tag_91\n      swap2\n      swap1\n      tag_92\n      jump\t// in\n    tag_91:\n        /* \"13_Array.sol\":1502:1511  nums[i+1] */\n      dup2\n      sload\n      dup2\n      lt\n      tag_93\n      jumpi\n      tag_94\n      tag_66\n      jump\t// in\n    tag_94:\n    tag_93:\n      swap1\n      0x00\n      mstore\n      keccak256(0x00, 0x20)\n      add\n      sload\n        /* \"13_Array.sol\":1492:1496  nums */\n      0x00\n        /* \"13_Array.sol\":1497:1498  i */\n      dup3\n        /* \"13_Array.sol\":1492:1499  nums[i] */\n      dup2\n      sload\n      dup2\n      lt\n      tag_96\n      jumpi\n      tag_97\n      tag_66\n      jump\t// in\n    tag_97:\n    tag_96:\n      swap1\n      0x00\n      mstore\n      keccak256(0x00, 0x20)\n      add\n        /* \"13_Array.sol\":1492:1511  nums[i] = nums[i+1] */\n      dup2\n      swap1\n      sstore\n      pop\n        /* \"13_Array.sol\":1474:1477  i++ */\n      dup1\n      dup1\n      tag_99\n      swap1\n      tag_100\n      jump\t// in\n    tag_99:\n      swap2\n      pop\n      pop\n        /* \"13_Array.sol\":1438:1522  for(uint i = _index; i<nums.length; i++){... */\n      jump(tag_88)\n    tag_89:\n      pop\n        /* \"13_Array.sol\":1531:1535  nums */\n      0x00\n        /* \"13_Array.sol\":1531:1541  nums.pop() */\n      dup1\n      sload\n      dup1\n      tag_101\n      jumpi\n      tag_102\n      tag_76\n      jump\t// in\n    tag_102:\n    tag_101:\n      0x01\n      swap1\n      sub\n      dup2\n      dup2\n      swap1\n      0x00\n      mstore\n      keccak256(0x00, 0x20)\n      add\n      0x00\n      swap1\n      sstore\n      swap1\n      sstore\n        /* \"13_Array.sol\":1292:1548  function removeArrayelement(uint _index) public {... */\n      pop\n      jump\t// out\n        /* \"13_Array.sol\":252:270  uint[] public nums */\n    tag_36:\n      0x00\n      dup2\n      dup2\n      sload\n      dup2\n      lt\n      tag_104\n      jumpi\n      0x00\n      dup1\n      revert\n    tag_104:\n      swap1\n      0x00\n      mstore\n      keccak256(0x00, 0x20)\n      add\n      0x00\n      swap2\n      pop\n      swap1\n      pop\n      sload\n      dup2\n      jump\t// out\n    tag_39:\n      mload(0x40)\n      dup1\n      0x60\n      add\n      0x40\n      mstore\n      dup1\n      0x03\n      swap1\n      0x20\n      dup3\n      mul\n      dup1\n      calldatasize\n      dup4\n      calldatacopy\n      dup1\n      dup3\n      add\n      swap2\n      pop\n      pop\n      swap1\n      pop\n      pop\n      swap1\n      jump\t// out\n    tag_45:\n      dup3\n      dup1\n      sload\n      dup3\n      dup3\n      sstore\n      swap1\n      0x00\n      mstore\n      keccak256(0x00, 0x20)\n      swap1\n      dup2\n      add\n      swap3\n      dup3\n      iszero\n      tag_106\n      jumpi\n      swap2\n      0x20\n      mul\n      dup3\n      add\n    tag_107:\n      dup3\n      dup2\n      gt\n      iszero\n      tag_108\n      jumpi\n      dup3\n      mload\n      dup3\n      swap1\n      0xff\n      and\n      swap1\n      sstore\n      swap2\n      0x20\n      add\n      swap2\n      swap1\n      0x01\n      add\n      swap1\n      jump(tag_107)\n    tag_108:\n    tag_106:\n      pop\n      swap1\n      pop\n      tag_109\n      swap2\n      swap1\n      tag_110\n      jump\t// in\n    tag_109:\n      pop\n      swap1\n      jump\t// out\n    tag_51:\n      dup3\n      dup1\n      sload\n      dup3\n      dup3\n      sstore\n      swap1\n      0x00\n      mstore\n      keccak256(0x00, 0x20)\n      swap1\n      dup2\n      add\n      swap3\n      dup3\n      iszero\n      tag_111\n      jumpi\n      swap2\n      0x20\n      mul\n      dup3\n      add\n    tag_112:\n      dup3\n      dup2\n      gt\n      iszero\n      tag_113\n      jumpi\n      dup3\n      mload\n      dup3\n      swap1\n      0xff\n      and\n      swap1\n      sstore\n      swap2\n      0x20\n      add\n      swap2\n      swap1\n      0x01\n      add\n      swap1\n      jump(tag_112)\n    tag_113:\n    tag_111:\n      pop\n      swap1\n      pop\n      tag_114\n      swap2\n      swap1\n      tag_110\n      jump\t// in\n    tag_114:\n      pop\n      swap1\n      jump\t// out\n    tag_62:\n      dup3\n      dup1\n      sload\n      dup3\n      dup3\n      sstore\n      swap1\n      0x00\n      mstore\n      keccak256(0x00, 0x20)\n      swap1\n      dup2\n      add\n      swap3\n      dup3\n      iszero\n      tag_115\n      jumpi\n      swap2\n      0x20\n      mul\n      dup3\n      add\n    tag_116:\n      dup3\n      dup2\n      gt\n      iszero\n      tag_117\n      jumpi\n      dup3\n      mload\n      dup3\n      swap1\n      0xff\n      and\n      swap1\n      sstore\n      swap2\n      0x20\n      add\n      swap2\n      swap1\n      0x01\n      add\n      swap1\n      jump(tag_116)\n    tag_117:\n    tag_115:\n      pop\n      swap1\n      pop\n      tag_118\n      swap2\n      swap1\n      tag_110\n      jump\t// in\n    tag_118:\n      pop\n      swap1\n      jump\t// out\n    tag_110:\n    tag_119:\n      dup1\n      dup3\n      gt\n      iszero\n      tag_120\n      jumpi\n      0x00\n      dup2\n      0x00\n      swap1\n      sstore\n      pop\n      0x01\n      add\n      jump(tag_119)\n    tag_120:\n      pop\n      swap1\n      jump\t// out\n        /* \"#utility.yul\":7:146   */\n    tag_122:\n        /* \"#utility.yul\":53:58   */\n      0x00\n        /* \"#utility.yul\":91:97   */\n      dup2\n        /* \"#utility.yul\":78:98   */\n      calldataload\n        /* \"#utility.yul\":69:98   */\n      swap1\n      pop\n        /* \"#utility.yul\":107:140   */\n      tag_124\n        /* \"#utility.yul\":134:139   */\n      dup2\n        /* \"#utility.yul\":107:140   */\n      tag_125\n      jump\t// in\n    tag_124:\n        /* \"#utility.yul\":7:146   */\n      swap3\n      swap2\n      pop\n      pop\n      jump\t// out\n        /* \"#utility.yul\":152:481   */\n    tag_23:\n        /* \"#utility.yul\":211:217   */\n      0x00\n        /* \"#utility.yul\":260:262   */\n      0x20\n        /* \"#utility.yul\":248:257   */\n      dup3\n        /* \"#utility.yul\":239:246   */\n      dup5\n        /* \"#utility.yul\":235:258   */\n      sub\n        /* \"#utility.yul\":231:263   */\n      slt\n        /* \"#utility.yul\":228:347   */\n      iszero\n      tag_127\n      jumpi\n        /* \"#utility.yul\":266:345   */\n      tag_128\n      tag_129\n      jump\t// in\n    tag_128:\n        /* \"#utility.yul\":228:347   */\n    tag_127:\n        /* \"#utility.yul\":386:387   */\n      0x00\n        /* \"#utility.yul\":411:464   */\n      tag_130\n        /* \"#utility.yul\":456:463   */\n      dup5\n        /* \"#utility.yul\":447:453   */\n      dup3\n        /* \"#utility.yul\":436:445   */\n      dup6\n        /* \"#utility.yul\":432:454   */\n      add\n        /* \"#utility.yul\":411:464   */\n      tag_122\n      jump\t// in\n    tag_130:\n        /* \"#utility.yul\":401:464   */\n      swap2\n      pop\n        /* \"#utility.yul\":357:474   */\n      pop\n        /* \"#utility.yul\":152:481   */\n      swap3\n      swap2\n      pop\n      pop\n      jump\t// out\n        /* \"#utility.yul\":487:666   */\n    tag_131:\n        /* \"#utility.yul\":556:566   */\n      0x00\n        /* \"#utility.yul\":577:623   */\n      tag_133\n        /* \"#utility.yul\":619:622   */\n      dup4\n        /* \"#utility.yul\":611:617   */\n      dup4\n        /* \"#utility.yul\":577:623   */\n      tag_134\n      jump\t// in\n    tag_133:\n        /* \"#utility.yul\":655:659   */\n      0x20\n        /* \"#utility.yul\":650:653   */\n      dup4\n        /* \"#utility.yul\":646:660   */\n      add\n        /* \"#utility.yul\":632:660   */\n      swap1\n      pop\n        /* \"#utility.yul\":487:666   */\n      swap3\n      swap2\n      pop\n      pop\n      jump\t// out\n        /* \"#utility.yul\":704:1398   */\n    tag_135:\n        /* \"#utility.yul\":840:892   */\n      tag_137\n        /* \"#utility.yul\":886:891   */\n      dup2\n        /* \"#utility.yul\":840:892   */\n      tag_138\n      jump\t// in\n    tag_137:\n        /* \"#utility.yul\":908:992   */\n      tag_139\n        /* \"#utility.yul\":985:991   */\n      dup2\n        /* \"#utility.yul\":980:983   */\n      dup5\n        /* \"#utility.yul\":908:992   */\n      tag_140\n      jump\t// in\n    tag_139:\n        /* \"#utility.yul\":901:992   */\n      swap3\n      pop\n        /* \"#utility.yul\":1016:1070   */\n      tag_141\n        /* \"#utility.yul\":1064:1069   */\n      dup3\n        /* \"#utility.yul\":1016:1070   */\n      tag_142\n      jump\t// in\n    tag_141:\n        /* \"#utility.yul\":1093:1100   */\n      dup1\n        /* \"#utility.yul\":1124:1125   */\n      0x00\n        /* \"#utility.yul\":1109:1391   */\n    tag_143:\n        /* \"#utility.yul\":1134:1140   */\n      dup4\n        /* \"#utility.yul\":1131:1132   */\n      dup2\n        /* \"#utility.yul\":1128:1141   */\n      lt\n        /* \"#utility.yul\":1109:1391   */\n      iszero\n      tag_145\n      jumpi\n        /* \"#utility.yul\":1210:1216   */\n      dup2\n        /* \"#utility.yul\":1204:1217   */\n      mload\n        /* \"#utility.yul\":1237:1300   */\n      tag_146\n        /* \"#utility.yul\":1296:1299   */\n      dup8\n        /* \"#utility.yul\":1281:1294   */\n      dup3\n        /* \"#utility.yul\":1237:1300   */\n      tag_131\n      jump\t// in\n    tag_146:\n        /* \"#utility.yul\":1230:1300   */\n      swap7\n      pop\n        /* \"#utility.yul\":1323:1381   */\n      tag_147\n        /* \"#utility.yul\":1374:1380   */\n      dup4\n        /* \"#utility.yul\":1323:1381   */\n      tag_148\n      jump\t// in\n    tag_147:\n        /* \"#utility.yul\":1313:1381   */\n      swap3\n      pop\n        /* \"#utility.yul\":1169:1391   */\n      pop\n        /* \"#utility.yul\":1156:1157   */\n      0x01\n        /* \"#utility.yul\":1153:1154   */\n      dup2\n        /* \"#utility.yul\":1149:1158   */\n      add\n        /* \"#utility.yul\":1144:1158   */\n      swap1\n      pop\n        /* \"#utility.yul\":1109:1391   */\n      jump(tag_143)\n    tag_145:\n        /* \"#utility.yul\":1113:1127   */\n      pop\n        /* \"#utility.yul\":816:1398   */\n      pop\n      pop\n      pop\n        /* \"#utility.yul\":704:1398   */\n      pop\n      pop\n      jump\t// out\n        /* \"#utility.yul\":1434:2166   */\n    tag_149:\n        /* \"#utility.yul\":1553:1556   */\n      0x00\n        /* \"#utility.yul\":1582:1636   */\n      tag_151\n        /* \"#utility.yul\":1630:1635   */\n      dup3\n        /* \"#utility.yul\":1582:1636   */\n      tag_152\n      jump\t// in\n    tag_151:\n        /* \"#utility.yul\":1652:1738   */\n      tag_153\n        /* \"#utility.yul\":1731:1737   */\n      dup2\n        /* \"#utility.yul\":1726:1729   */\n      dup6\n        /* \"#utility.yul\":1652:1738   */\n      tag_154\n      jump\t// in\n    tag_153:\n        /* \"#utility.yul\":1645:1738   */\n      swap4\n      pop\n        /* \"#utility.yul\":1762:1818   */\n      tag_155\n        /* \"#utility.yul\":1812:1817   */\n      dup4\n        /* \"#utility.yul\":1762:1818   */\n      tag_156\n      jump\t// in\n    tag_155:\n        /* \"#utility.yul\":1841:1848   */\n      dup1\n        /* \"#utility.yul\":1872:1873   */\n      0x00\n        /* \"#utility.yul\":1857:2141   */\n    tag_157:\n        /* \"#utility.yul\":1882:1888   */\n      dup4\n        /* \"#utility.yul\":1879:1880   */\n      dup2\n        /* \"#utility.yul\":1876:1889   */\n      lt\n        /* \"#utility.yul\":1857:2141   */\n      iszero\n      tag_159\n      jumpi\n        /* \"#utility.yul\":1958:1964   */\n      dup2\n        /* \"#utility.yul\":1952:1965   */\n      mload\n        /* \"#utility.yul\":1985:2048   */\n      tag_160\n        /* \"#utility.yul\":2044:2047   */\n      dup9\n        /* \"#utility.yul\":2029:2042   */\n      dup3\n        /* \"#utility.yul\":1985:2048   */\n      tag_131\n      jump\t// in\n    tag_160:\n        /* \"#utility.yul\":1978:2048   */\n      swap8\n      pop\n        /* \"#utility.yul\":2071:2131   */\n      tag_161\n        /* \"#utility.yul\":2124:2130   */\n      dup4\n        /* \"#utility.yul\":2071:2131   */\n      tag_162\n      jump\t// in\n    tag_161:\n        /* \"#utility.yul\":2061:2131   */\n      swap3\n      pop\n        /* \"#utility.yul\":1917:2141   */\n      pop\n        /* \"#utility.yul\":1904:1905   */\n      0x01\n        /* \"#utility.yul\":1901:1902   */\n      dup2\n        /* \"#utility.yul\":1897:1906   */\n      add\n        /* \"#utility.yul\":1892:1906   */\n      swap1\n      pop\n        /* \"#utility.yul\":1857:2141   */\n      jump(tag_157)\n    tag_159:\n        /* \"#utility.yul\":1861:1875   */\n      pop\n        /* \"#utility.yul\":2157:2160   */\n      dup6\n        /* \"#utility.yul\":2150:2160   */\n      swap4\n      pop\n        /* \"#utility.yul\":1558:2166   */\n      pop\n      pop\n      pop\n        /* \"#utility.yul\":1434:2166   */\n      swap3\n      swap2\n      pop\n      pop\n      jump\t// out\n        /* \"#utility.yul\":2172:2538   */\n    tag_163:\n        /* \"#utility.yul\":2314:2317   */\n      0x00\n        /* \"#utility.yul\":2335:2402   */\n      tag_165\n        /* \"#utility.yul\":2399:2401   */\n      0x13\n        /* \"#utility.yul\":2394:2397   */\n      dup4\n        /* \"#utility.yul\":2335:2402   */\n      tag_166\n      jump\t// in\n    tag_165:\n        /* \"#utility.yul\":2328:2402   */\n      swap2\n      pop\n        /* \"#utility.yul\":2411:2504   */\n      tag_167\n        /* \"#utility.yul\":2500:2503   */\n      dup3\n        /* \"#utility.yul\":2411:2504   */\n      tag_168\n      jump\t// in\n    tag_167:\n        /* \"#utility.yul\":2529:2531   */\n      0x20\n        /* \"#utility.yul\":2524:2527   */\n      dup3\n        /* \"#utility.yul\":2520:2532   */\n      add\n        /* \"#utility.yul\":2513:2532   */\n      swap1\n      pop\n        /* \"#utility.yul\":2172:2538   */\n      swap2\n      swap1\n      pop\n      jump\t// out\n        /* \"#utility.yul\":2544:2652   */\n    tag_134:\n        /* \"#utility.yul\":2621:2645   */\n      tag_170\n        /* \"#utility.yul\":2639:2644   */\n      dup2\n        /* \"#utility.yul\":2621:2645   */\n      tag_171\n      jump\t// in\n    tag_170:\n        /* \"#utility.yul\":2616:2619   */\n      dup3\n        /* \"#utility.yul\":2609:2646   */\n      mstore\n        /* \"#utility.yul\":2544:2652   */\n      pop\n      pop\n      jump\t// out\n        /* \"#utility.yul\":2658:2776   */\n    tag_172:\n        /* \"#utility.yul\":2745:2769   */\n      tag_174\n        /* \"#utility.yul\":2763:2768   */\n      dup2\n        /* \"#utility.yul\":2745:2769   */\n      tag_171\n      jump\t// in\n    tag_174:\n        /* \"#utility.yul\":2740:2743   */\n      dup3\n        /* \"#utility.yul\":2733:2770   */\n      mstore\n        /* \"#utility.yul\":2658:2776   */\n      pop\n      pop\n      jump\t// out\n        /* \"#utility.yul\":2782:3096   */\n    tag_14:\n        /* \"#utility.yul\":2921:2925   */\n      0x00\n        /* \"#utility.yul\":2959:2961   */\n      0x60\n        /* \"#utility.yul\":2948:2957   */\n      dup3\n        /* \"#utility.yul\":2944:2962   */\n      add\n        /* \"#utility.yul\":2936:2962   */\n      swap1\n      pop\n        /* \"#utility.yul\":2972:3089   */\n      tag_176\n        /* \"#utility.yul\":3086:3087   */\n      0x00\n        /* \"#utility.yul\":3075:3084   */\n      dup4\n        /* \"#utility.yul\":3071:3088   */\n      add\n        /* \"#utility.yul\":3062:3068   */\n      dup5\n        /* \"#utility.yul\":2972:3089   */\n      tag_135\n      jump\t// in\n    tag_176:\n        /* \"#utility.yul\":2782:3096   */\n      swap3\n      swap2\n      pop\n      pop\n      jump\t// out\n        /* \"#utility.yul\":3102:3475   */\n    tag_20:\n        /* \"#utility.yul\":3245:3249   */\n      0x00\n        /* \"#utility.yul\":3283:3285   */\n      0x20\n        /* \"#utility.yul\":3272:3281   */\n      dup3\n        /* \"#utility.yul\":3268:3286   */\n      add\n        /* \"#utility.yul\":3260:3286   */\n      swap1\n      pop\n        /* \"#utility.yul\":3332:3341   */\n      dup2\n        /* \"#utility.yul\":3326:3330   */\n      dup2\n        /* \"#utility.yul\":3322:3342   */\n      sub\n        /* \"#utility.yul\":3318:3319   */\n      0x00\n        /* \"#utility.yul\":3307:3316   */\n      dup4\n        /* \"#utility.yul\":3303:3320   */\n      add\n        /* \"#utility.yul\":3296:3343   */\n      mstore\n        /* \"#utility.yul\":3360:3468   */\n      tag_178\n        /* \"#utility.yul\":3463:3467   */\n      dup2\n        /* \"#utility.yul\":3454:3460   */\n      dup5\n        /* \"#utility.yul\":3360:3468   */\n      tag_149\n      jump\t// in\n    tag_178:\n        /* \"#utility.yul\":3352:3468   */\n      swap1\n      pop\n        /* \"#utility.yul\":3102:3475   */\n      swap3\n      swap2\n      pop\n      pop\n      jump\t// out\n        /* \"#utility.yul\":3481:3900   */\n    tag_87:\n        /* \"#utility.yul\":3647:3651   */\n      0x00\n        /* \"#utility.yul\":3685:3687   */\n      0x20\n        /* \"#utility.yul\":3674:3683   */\n      dup3\n        /* \"#utility.yul\":3670:3688   */\n      add\n        /* \"#utility.yul\":3662:3688   */\n      swap1\n      pop\n        /* \"#utility.yul\":3734:3743   */\n      dup2\n        /* \"#utility.yul\":3728:3732   */\n      dup2\n        /* \"#utility.yul\":3724:3744   */\n      sub\n        /* \"#utility.yul\":3720:3721   */\n      0x00\n        /* \"#utility.yul\":3709:3718   */\n      dup4\n        /* \"#utility.yul\":3705:3722   */\n      add\n        /* \"#utility.yul\":3698:3745   */\n      mstore\n        /* \"#utility.yul\":3762:3893   */\n      tag_180\n        /* \"#utility.yul\":3888:3892   */\n      dup2\n        /* \"#utility.yul\":3762:3893   */\n      tag_163\n      jump\t// in\n    tag_180:\n        /* \"#utility.yul\":3754:3893   */\n      swap1\n      pop\n        /* \"#utility.yul\":3481:3900   */\n      swap2\n      swap1\n      pop\n      jump\t// out\n        /* \"#utility.yul\":3906:4128   */\n    tag_26:\n        /* \"#utility.yul\":3999:4003   */\n      0x00\n        /* \"#utility.yul\":4037:4039   */\n      0x20\n        /* \"#utility.yul\":4026:4035   */\n      dup3\n        /* \"#utility.yul\":4022:4040   */\n      add\n        /* \"#utility.yul\":4014:4040   */\n      swap1\n      pop\n        /* \"#utility.yul\":4050:4121   */\n      tag_182\n        /* \"#utility.yul\":4118:4119   */\n      0x00\n        /* \"#utility.yul\":4107:4116   */\n      dup4\n        /* \"#utility.yul\":4103:4120   */\n      add\n        /* \"#utility.yul\":4094:4100   */\n      dup5\n        /* \"#utility.yul\":4050:4121   */\n      tag_172\n      jump\t// in\n    tag_182:\n        /* \"#utility.yul\":3906:4128   */\n      swap3\n      swap2\n      pop\n      pop\n      jump\t// out\n        /* \"#utility.yul\":4134:4466   */\n    tag_30:\n        /* \"#utility.yul\":4255:4259   */\n      0x00\n        /* \"#utility.yul\":4293:4295   */\n      0x40\n        /* \"#utility.yul\":4282:4291   */\n      dup3\n        /* \"#utility.yul\":4278:4296   */\n      add\n        /* \"#utility.yul\":4270:4296   */\n      swap1\n      pop\n        /* \"#utility.yul\":4306:4377   */\n      tag_184\n        /* \"#utility.yul\":4374:4375   */\n      0x00\n        /* \"#utility.yul\":4363:4372   */\n      dup4\n        /* \"#utility.yul\":4359:4376   */\n      add\n        /* \"#utility.yul\":4350:4356   */\n      dup6\n        /* \"#utility.yul\":4306:4377   */\n      tag_172\n      jump\t// in\n    tag_184:\n        /* \"#utility.yul\":4387:4459   */\n      tag_185\n        /* \"#utility.yul\":4455:4457   */\n      0x20\n        /* \"#utility.yul\":4444:4453   */\n      dup4\n        /* \"#utility.yul\":4440:4458   */\n      add\n        /* \"#utility.yul\":4431:4437   */\n      dup5\n        /* \"#utility.yul\":4387:4459   */\n      tag_172\n      jump\t// in\n    tag_185:\n        /* \"#utility.yul\":4134:4466   */\n      swap4\n      swap3\n      pop\n      pop\n      pop\n      jump\t// out\n        /* \"#utility.yul\":4553:4651   */\n    tag_142:\n        /* \"#utility.yul\":4618:4622   */\n      0x00\n        /* \"#utility.yul\":4641:4644   */\n      dup2\n        /* \"#utility.yul\":4633:4644   */\n      swap1\n      pop\n        /* \"#utility.yul\":4553:4651   */\n      swap2\n      swap1\n      pop\n      jump\t// out\n        /* \"#utility.yul\":4657:4789   */\n    tag_156:\n        /* \"#utility.yul\":4724:4728   */\n      0x00\n        /* \"#utility.yul\":4747:4750   */\n      dup2\n        /* \"#utility.yul\":4739:4750   */\n      swap1\n      pop\n        /* \"#utility.yul\":4777:4781   */\n      0x20\n        /* \"#utility.yul\":4772:4775   */\n      dup3\n        /* \"#utility.yul\":4768:4782   */\n      add\n        /* \"#utility.yul\":4760:4782   */\n      swap1\n      pop\n        /* \"#utility.yul\":4657:4789   */\n      swap2\n      swap1\n      pop\n      jump\t// out\n        /* \"#utility.yul\":4795:4899   */\n    tag_138:\n        /* \"#utility.yul\":4860:4866   */\n      0x00\n        /* \"#utility.yul\":4888:4892   */\n      0x03\n        /* \"#utility.yul\":4878:4892   */\n      swap1\n      pop\n        /* \"#utility.yul\":4795:4899   */\n      swap2\n      swap1\n      pop\n      jump\t// out\n        /* \"#utility.yul\":4905:5019   */\n    tag_152:\n        /* \"#utility.yul\":4972:4978   */\n      0x00\n        /* \"#utility.yul\":5006:5011   */\n      dup2\n        /* \"#utility.yul\":5000:5012   */\n      mload\n        /* \"#utility.yul\":4990:5012   */\n      swap1\n      pop\n        /* \"#utility.yul\":4905:5019   */\n      swap2\n      swap1\n      pop\n      jump\t// out\n        /* \"#utility.yul\":5025:5136   */\n    tag_148:\n        /* \"#utility.yul\":5093:5097   */\n      0x00\n        /* \"#utility.yul\":5125:5129   */\n      0x20\n        /* \"#utility.yul\":5120:5123   */\n      dup3\n        /* \"#utility.yul\":5116:5130   */\n      add\n        /* \"#utility.yul\":5108:5130   */\n      swap1\n      pop\n        /* \"#utility.yul\":5025:5136   */\n      swap2\n      swap1\n      pop\n      jump\t// out\n        /* \"#utility.yul\":5142:5255   */\n    tag_162:\n        /* \"#utility.yul\":5212:5216   */\n      0x00\n        /* \"#utility.yul\":5244:5248   */\n      0x20\n        /* \"#utility.yul\":5239:5242   */\n      dup3\n        /* \"#utility.yul\":5235:5249   */\n      add\n        /* \"#utility.yul\":5227:5249   */\n      swap1\n      pop\n        /* \"#utility.yul\":5142:5255   */\n      swap2\n      swap1\n      pop\n      jump\t// out\n        /* \"#utility.yul\":5261:5404   */\n    tag_140:\n        /* \"#utility.yul\":5358:5369   */\n      0x00\n        /* \"#utility.yul\":5395:5398   */\n      dup2\n        /* \"#utility.yul\":5380:5398   */\n      swap1\n      pop\n        /* \"#utility.yul\":5261:5404   */\n      swap3\n      swap2\n      pop\n      pop\n      jump\t// out\n        /* \"#utility.yul\":5410:5594   */\n    tag_154:\n        /* \"#utility.yul\":5509:5520   */\n      0x00\n        /* \"#utility.yul\":5543:5549   */\n      dup3\n        /* \"#utility.yul\":5538:5541   */\n      dup3\n        /* \"#utility.yul\":5531:5550   */\n      mstore\n        /* \"#utility.yul\":5583:5587   */\n      0x20\n        /* \"#utility.yul\":5578:5581   */\n      dup3\n        /* \"#utility.yul\":5574:5588   */\n      add\n        /* \"#utility.yul\":5559:5588   */\n      swap1\n      pop\n        /* \"#utility.yul\":5410:5594   */\n      swap3\n      swap2\n      pop\n      pop\n      jump\t// out\n        /* \"#utility.yul\":5600:5769   */\n    tag_166:\n        /* \"#utility.yul\":5684:5695   */\n      0x00\n        /* \"#utility.yul\":5718:5724   */\n      dup3\n        /* \"#utility.yul\":5713:5716   */\n      dup3\n        /* \"#utility.yul\":5706:5725   */\n      mstore\n        /* \"#utility.yul\":5758:5762   */\n      0x20\n        /* \"#utility.yul\":5753:5756   */\n      dup3\n        /* \"#utility.yul\":5749:5763   */\n      add\n        /* \"#utility.yul\":5734:5763   */\n      swap1\n      pop\n        /* \"#utility.yul\":5600:5769   */\n      swap3\n      swap2\n      pop\n      pop\n      jump\t// out\n        /* \"#utility.yul\":5775:6080   */\n    tag_92:\n        /* \"#utility.yul\":5815:5818   */\n      0x00\n        /* \"#utility.yul\":5834:5854   */\n      tag_198\n        /* \"#utility.yul\":5852:5853   */\n      dup3\n        /* \"#utility.yul\":5834:5854   */\n      tag_171\n      jump\t// in\n    tag_198:\n        /* \"#utility.yul\":5829:5854   */\n      swap2\n      pop\n        /* \"#utility.yul\":5868:5888   */\n      tag_199\n        /* \"#utility.yul\":5886:5887   */\n      dup4\n        /* \"#utility.yul\":5868:5888   */\n      tag_171\n      jump\t// in\n    tag_199:\n        /* \"#utility.yul\":5863:5888   */\n      swap3\n      pop\n        /* \"#utility.yul\":6022:6023   */\n      dup3\n        /* \"#utility.yul\":5954:6020   */\n      0xffffffffffffffffffffffffffffffffffffffffffffffffffffffffffffffff\n        /* \"#utility.yul\":5950:6024   */\n      sub\n        /* \"#utility.yul\":5947:5948   */\n      dup3\n        /* \"#utility.yul\":5944:6025   */\n      gt\n        /* \"#utility.yul\":5941:6048   */\n      iszero\n      tag_200\n      jumpi\n        /* \"#utility.yul\":6028:6046   */\n      tag_201\n      tag_202\n      jump\t// in\n    tag_201:\n        /* \"#utility.yul\":5941:6048   */\n    tag_200:\n        /* \"#utility.yul\":6072:6073   */\n      dup3\n        /* \"#utility.yul\":6069:6070   */\n      dup3\n        /* \"#utility.yul\":6065:6074   */\n      add\n        /* \"#utility.yul\":6058:6074   */\n      swap1\n      pop\n        /* \"#utility.yul\":5775:6080   */\n      swap3\n      swap2\n      pop\n      pop\n      jump\t// out\n        /* \"#utility.yul\":6086:6163   */\n    tag_171:\n        /* \"#utility.yul\":6123:6130   */\n      0x00\n        /* \"#utility.yul\":6152:6157   */\n      dup2\n        /* \"#utility.yul\":6141:6157   */\n      swap1\n      pop\n        /* \"#utility.yul\":6086:6163   */\n      swap2\n      swap1\n      pop\n      jump\t// out\n        /* \"#utility.yul\":6169:6402   */\n    tag_100:\n        /* \"#utility.yul\":6208:6211   */\n      0x00\n        /* \"#utility.yul\":6231:6255   */\n      tag_205\n        /* \"#utility.yul\":6249:6254   */\n      dup3\n        /* \"#utility.yul\":6231:6255   */\n      tag_171\n      jump\t// in\n    tag_205:\n        /* \"#utility.yul\":6222:6255   */\n      swap2\n      pop\n        /* \"#utility.yul\":6277:6343   */\n      0xffffffffffffffffffffffffffffffffffffffffffffffffffffffffffffffff\n        /* \"#utility.yul\":6270:6275   */\n      dup3\n        /* \"#utility.yul\":6267:6344   */\n      eq\n        /* \"#utility.yul\":6264:6367   */\n      iszero\n      tag_206\n      jumpi\n        /* \"#utility.yul\":6347:6365   */\n      tag_207\n      tag_202\n      jump\t// in\n    tag_207:\n        /* \"#utility.yul\":6264:6367   */\n    tag_206:\n        /* \"#utility.yul\":6394:6395   */\n      0x01\n        /* \"#utility.yul\":6387:6392   */\n      dup3\n        /* \"#utility.yul\":6383:6396   */\n      add\n        /* \"#utility.yul\":6376:6396   */\n      swap1\n      pop\n        /* \"#utility.yul\":6169:6402   */\n      swap2\n      swap1\n      pop\n      jump\t// out\n        /* \"#utility.yul\":6408:6588   */\n    tag_49:\n        /* \"#utility.yul\":6456:6533   */\n      0x4e487b7100000000000000000000000000000000000000000000000000000000\n        /* \"#utility.yul\":6453:6454   */\n      0x00\n        /* \"#utility.yul\":6446:6534   */\n      mstore\n        /* \"#utility.yul\":6553:6557   */\n      0x01\n        /* \"#utility.yul\":6550:6551   */\n      0x04\n        /* \"#utility.yul\":6543:6558   */\n      mstore\n        /* \"#utility.yul\":6577:6581   */\n      0x24\n        /* \"#utility.yul\":6574:6575   */\n      0x00\n        /* \"#utility.yul\":6567:6582   */\n      revert\n        /* \"#utility.yul\":6594:6774   */\n    tag_202:\n        /* \"#utility.yul\":6642:6719   */\n      0x4e487b7100000000000000000000000000000000000000000000000000000000\n        /* \"#utility.yul\":6639:6640   */\n      0x00\n        /* \"#utility.yul\":6632:6720   */\n      mstore\n        /* \"#utility.yul\":6739:6743   */\n      0x11\n        /* \"#utility.yul\":6736:6737   */\n      0x04\n        /* \"#utility.yul\":6729:6744   */\n      mstore\n        /* \"#utility.yul\":6763:6767   */\n      0x24\n        /* \"#utility.yul\":6760:6761   */\n      0x00\n        /* \"#utility.yul\":6753:6768   */\n      revert\n        /* \"#utility.yul\":6780:6960   */\n    tag_76:\n        /* \"#utility.yul\":6828:6905   */\n      0x4e487b7100000000000000000000000000000000000000000000000000000000\n        /* \"#utility.yul\":6825:6826   */\n      0x00\n        /* \"#utility.yul\":6818:6906   */\n      mstore\n        /* \"#utility.yul\":6925:6929   */\n      0x31\n        /* \"#utility.yul\":6922:6923   */\n      0x04\n        /* \"#utility.yul\":6915:6930   */\n      mstore\n        /* \"#utility.yul\":6949:6953   */\n      0x24\n        /* \"#utility.yul\":6946:6947   */\n      0x00\n        /* \"#utility.yul\":6939:6954   */\n      revert\n        /* \"#utility.yul\":6966:7146   */\n    tag_66:\n        /* \"#utility.yul\":7014:7091   */\n      0x4e487b7100000000000000000000000000000000000000000000000000000000\n        /* \"#utility.yul\":7011:7012   */\n      0x00\n        /* \"#utility.yul\":7004:7092   */\n      mstore\n        /* \"#utility.yul\":7111:7115   */\n      0x32\n        /* \"#utility.yul\":7108:7109   */\n      0x04\n        /* \"#utility.yul\":7101:7116   */\n      mstore\n        /* \"#utility.yul\":7135:7139   */\n      0x24\n        /* \"#utility.yul\":7132:7133   */\n      0x00\n        /* \"#utility.yul\":7125:7140   */\n      revert\n        /* \"#utility.yul\":7152:7332   */\n    tag_80:\n        /* \"#utility.yul\":7200:7277   */\n      0x4e487b7100000000000000000000000000000000000000000000000000000000\n        /* \"#utility.yul\":7197:7198   */\n      0x00\n        /* \"#utility.yul\":7190:7278   */\n      mstore\n        /* \"#utility.yul\":7297:7301   */\n      0x41\n        /* \"#utility.yul\":7294:7295   */\n      0x04\n        /* \"#utility.yul\":7287:7302   */\n      mstore\n        /* \"#utility.yul\":7321:7325   */\n      0x24\n        /* \"#utility.yul\":7318:7319   */\n      0x00\n        /* \"#utility.yul\":7311:7326   */\n      revert\n        /* \"#utility.yul\":7461:7578   */\n    tag_129:\n        /* \"#utility.yul\":7570:7571   */\n      0x00\n        /* \"#utility.yul\":7567:7568   */\n      dup1\n        /* \"#utility.yul\":7560:7572   */\n      revert\n        /* \"#utility.yul\":7584:7753   */\n    tag_168:\n        /* \"#utility.yul\":7724:7745   */\n      0x5f696e646578206f7574206f6620626f756e6400000000000000000000000000\n        /* \"#utility.yul\":7720:7721   */\n      0x00\n        /* \"#utility.yul\":7712:7718   */\n      dup3\n        /* \"#utility.yul\":7708:7722   */\n      add\n        /* \"#utility.yul\":7701:7746   */\n      mstore\n        /* \"#utility.yul\":7584:7753   */\n      pop\n      jump\t// out\n        /* \"#utility.yul\":7759:7881   */\n    tag_125:\n        /* \"#utility.yul\":7832:7856   */\n      tag_218\n        /* \"#utility.yul\":7850:7855   */\n      dup2\n        /* \"#utility.yul\":7832:7856   */\n      tag_171\n      jump\t// in\n    tag_218:\n        /* \"#utility.yul\":7825:7830   */\n      dup2\n        /* \"#utility.yul\":7822:7857   */\n      eq\n        /* \"#utility.yul\":7812:7875   */\n      tag_219\n      jumpi\n        /* \"#utility.yul\":7871:7872   */\n      0x00\n        /* \"#utility.yul\":7868:7869   */\n      dup1\n        /* \"#utility.yul\":7861:7873   */\n      revert\n        /* \"#utility.yul\":7812:7875   */\n    tag_219:\n        /* \"#utility.yul\":7759:7881   */\n      pop\n      jump\t// out\n\n    auxdata: 0xa2646970667358221220f6dd13afa625e4bd4c053636fd86528462ff395cb641c676929f1a40889b1bdc64736f6c63430008070033\n}\n",
				"bytecode": {
					"linkReferences": {},
					"object": "60806040526040518060600160405280600160ff168152602001600260ff168152602001600360ff16815250600190600361003b92919061004e565b5034801561004857600080fd5b506100b0565b8260038101928215610082579160200282015b82811115610081578251829060ff16905591602001919060010190610061565b5b50905061008f9190610093565b5090565b5b808211156100ac576000816000905550600101610094565b5090565b610b1a806100bf6000396000f3fe608060405234801561001057600080fd5b506004361061007d5760003560e01c8063443957691161005b57806344395769146100c857806354353f2f146100f8578063c937339614610117578063fd1ee54c146101335761007d565b8063315a6c891461008257806339cfea4a146100a05780633cac14c8146100aa575b600080fd5b61008a610163565b60405161009791906107f3565b60405180910390f35b6100a86101ae565b005b6100b2610269565b6040516100bf919061080e565b60405180910390f35b6100e260048036038101906100dd91906106b8565b6102c1565b6040516100ef9190610850565b60405180910390f35b6101006102dc565b60405161010e92919061086b565b60405180910390f35b610131600480360381019061012c91906106b8565b610464565b005b61014d600480360381019061014891906106b8565b61054a565b60405161015a9190610850565b60405180910390f35b61016b61056e565b60016003806020026040519081016040528092919082600380156101a4576020028201915b815481526020019060010190808311610190575b5050505050905090565b6040518060c00160405280600160ff168152602001600260ff168152602001600360ff168152602001600460ff168152602001600560ff168152602001600660ff168152506000906006610203929190610590565b5061020e6003610464565b600560008054905014610224576102236109b4565b5b6040518060200160405280600160ff1681525060009060016102479291906105e2565b506102526000610464565b6000808054905014610267576102666109b4565b5b565b606060008054806020026020016040519081016040528092919081815260200182805480156102b757602002820191906000526020600020905b8154815260200190600101908083116102a3575b5050505050905090565b600181600381106102d157600080fd5b016000915090505481565b6000806040518060800160405280600160ff168152602001600260ff168152602001600360ff168152602001600460ff168152506000906004610320929190610634565b5060006005908060018154018082558091505060019003906000526020600020016000909190919091505560008060018154811061036157610360610a41565b5b906000526020600020015490506006600060028154811061038557610384610a41565b5b906000526020600020018190555060006002815481106103a8576103a7610a41565b5b906000526020600020016000905560008054806103c8576103c7610a12565b5b600190038181906000526020600020016000905590556000808054905090506000600567ffffffffffffffff81111561040457610403610a70565b5b6040519080825280602002602001820160405280156104325781602001602082028036833780820191505090505b509050600a8160018151811061044b5761044a610a41565b5b6020026020010181815250508282945094505050509091565b60008054905081106104ab576040517f08c379a00000000000000000000000000000000000000000000000000000000081526004016104a290610830565b60405180910390fd5b60008190505b60008054905081101561051e5760006001826104cd919061090b565b815481106104de576104dd610a41565b5b9060005260206000200154600082815481106104fd576104fc610a41565b5b906000526020600020018190555080806105169061096b565b9150506104b1565b50600080548061053157610530610a12565b5b6001900381819060005260206000200160009055905550565b6000818154811061055a57600080fd5b906000526020600020016000915090505481565b6040518060600160405280600390602082028036833780820191505090505090565b8280548282559060005260206000209081019282156105d1579160200282015b828111156105d0578251829060ff169055916020019190600101906105b0565b5b5090506105de9190610686565b5090565b828054828255906000526020600020908101928215610623579160200282015b82811115610622578251829060ff16905591602001919060010190610602565b5b5090506106309190610686565b5090565b828054828255906000526020600020908101928215610675579160200282015b82811115610674578251829060ff16905591602001919060010190610654565b5b5090506106829190610686565b5090565b5b8082111561069f576000816000905550600101610687565b5090565b6000813590506106b281610acd565b92915050565b6000602082840312156106ce576106cd610a9f565b5b60006106dc848285016106a3565b91505092915050565b60006106f183836107d5565b60208301905092915050565b610706816108ae565b61071081846108de565b925061071b82610894565b8060005b8381101561074c57815161073387826106e5565b965061073e836108c4565b92505060018101905061071f565b505050505050565b600061075f826108b9565b61076981856108e9565b93506107748361089e565b8060005b838110156107a557815161078c88826106e5565b9750610797836108d1565b925050600181019050610778565b5085935050505092915050565b60006107bf6013836108fa565b91506107ca82610aa4565b602082019050919050565b6107de81610961565b82525050565b6107ed81610961565b82525050565b600060608201905061080860008301846106fd565b92915050565b600060208201905081810360008301526108288184610754565b905092915050565b60006020820190508181036000830152610849816107b2565b9050919050565b600060208201905061086560008301846107e4565b92915050565b600060408201905061088060008301856107e4565b61088d60208301846107e4565b9392505050565b6000819050919050565b6000819050602082019050919050565b600060039050919050565b600081519050919050565b6000602082019050919050565b6000602082019050919050565b600081905092915050565b600082825260208201905092915050565b600082825260208201905092915050565b600061091682610961565b915061092183610961565b9250827fffffffffffffffffffffffffffffffffffffffffffffffffffffffffffffffff03821115610956576109556109e3565b5b828201905092915050565b6000819050919050565b600061097682610961565b91507fffffffffffffffffffffffffffffffffffffffffffffffffffffffffffffffff8214156109a9576109a86109e3565b5b600182019050919050565b7f4e487b7100000000000000000000000000000000000000000000000000000000600052600160045260246000fd5b7f4e487b7100000000000000000000000000000000000000000000000000000000600052601160045260246000fd5b7f4e487b7100000000000000000000000000000000000000000000000000000000600052603160045260246000fd5b7f4e487b7100000000000000000000000000000000000000000000000000000000600052603260045260246000fd5b7f4e487b7100000000000000000000000000000000000000000000000000000000600052604160045260246000fd5b600080fd5b7f5f696e646578206f7574206f6620626f756e6400000000000000000000000000600082015250565b610ad681610961565b8114610ae157600080fd5b5056fea2646970667358221220f6dd13afa625e4bd4c053636fd86528462ff395cb641c676929f1a40889b1bdc64736f6c63430008070033",
					"opcodes": "PUSH1 0x80 PUSH1 0x40 MSTORE PUSH1 0x40 MLOAD DUP1 PUSH1 0x60 ADD PUSH1 0x40 MSTORE DUP1 PUSH1 0x1 PUSH1 0xFF AND DUP2 MSTORE PUSH1 0x20 ADD PUSH1 0x2 PUSH1 0xFF AND DUP2 MSTORE PUSH1 0x20 ADD PUSH1 0x3 PUSH1 0xFF AND DUP2 MSTORE POP PUSH1 0x1 SWAP1 PUSH1 0x3 PUSH2 0x3B SWAP3 SWAP2 SWAP1 PUSH2 0x4E JUMP JUMPDEST POP CALLVALUE DUP1 ISZERO PUSH2 0x48 JUMPI PUSH1 0x0 DUP1 REVERT JUMPDEST POP PUSH2 0xB0 JUMP JUMPDEST DUP3 PUSH1 0x3 DUP2 ADD SWAP3 DUP3 ISZERO PUSH2 0x82 JUMPI SWAP2 PUSH1 0x20 MUL DUP3 ADD JUMPDEST DUP3 DUP2 GT ISZERO PUSH2 0x81 JUMPI DUP3 MLOAD DUP3 SWAP1 PUSH1 0xFF AND SWAP1 SSTORE SWAP2 PUSH1 0x20 ADD SWAP2 SWAP1 PUSH1 0x1 ADD SWAP1 PUSH2 0x61 JUMP JUMPDEST JUMPDEST POP SWAP1 POP PUSH2 0x8F SWAP2 SWAP1 PUSH2 0x93 JUMP JUMPDEST POP SWAP1 JUMP JUMPDEST JUMPDEST DUP1 DUP3 GT ISZERO PUSH2 0xAC JUMPI PUSH1 0x0 DUP2 PUSH1 0x0 SWAP1 SSTORE POP PUSH1 0x1 ADD PUSH2 0x94 JUMP JUMPDEST POP SWAP1 JUMP JUMPDEST PUSH2 0xB1A DUP1 PUSH2 0xBF PUSH1 0x0 CODECOPY PUSH1 0x0 RETURN INVALID PUSH1 0x80 PUSH1 0x40 MSTORE CALLVALUE DUP1 ISZERO PUSH2 0x10 JUMPI PUSH1 0x0 DUP1 REVERT JUMPDEST POP PUSH1 0x4 CALLDATASIZE LT PUSH2 0x7D JUMPI PUSH1 0x0 CALLDATALOAD PUSH1 0xE0 SHR DUP1 PUSH4 0x44395769 GT PUSH2 0x5B JUMPI DUP1 PUSH4 0x44395769 EQ PUSH2 0xC8 JUMPI DUP1 PUSH4 0x54353F2F EQ PUSH2 0xF8 JUMPI DUP1 PUSH4 0xC9373396 EQ PUSH2 0x117 JUMPI DUP1 PUSH4 0xFD1EE54C EQ PUSH2 0x133 JUMPI PUSH2 0x7D JUMP JUMPDEST DUP1 PUSH4 0x315A6C89 EQ PUSH2 0x82 JUMPI DUP1 PUSH4 0x39CFEA4A EQ PUSH2 0xA0 JUMPI DUP1 PUSH4 0x3CAC14C8 EQ PUSH2 0xAA JUMPI JUMPDEST PUSH1 0x0 DUP1 REVERT JUMPDEST PUSH2 0x8A PUSH2 0x163 JUMP JUMPDEST PUSH1 0x40 MLOAD PUSH2 0x97 SWAP2 SWAP1 PUSH2 0x7F3 JUMP JUMPDEST PUSH1 0x40 MLOAD DUP1 SWAP2 SUB SWAP1 RETURN JUMPDEST PUSH2 0xA8 PUSH2 0x1AE JUMP JUMPDEST STOP JUMPDEST PUSH2 0xB2 PUSH2 0x269 JUMP JUMPDEST PUSH1 0x40 MLOAD PUSH2 0xBF SWAP2 SWAP1 PUSH2 0x80E JUMP JUMPDEST PUSH1 0x40 MLOAD DUP1 SWAP2 SUB SWAP1 RETURN JUMPDEST PUSH2 0xE2 PUSH1 0x4 DUP1 CALLDATASIZE SUB DUP2 ADD SWAP1 PUSH2 0xDD SWAP2 SWAP1 PUSH2 0x6B8 JUMP JUMPDEST PUSH2 0x2C1 JUMP JUMPDEST PUSH1 0x40 MLOAD PUSH2 0xEF SWAP2 SWAP1 PUSH2 0x850 JUMP JUMPDEST PUSH1 0x40 MLOAD DUP1 SWAP2 SUB SWAP1 RETURN JUMPDEST PUSH2 0x100 PUSH2 0x2DC JUMP JUMPDEST PUSH1 0x40 MLOAD PUSH2 0x10E SWAP3 SWAP2 SWAP1 PUSH2 0x86B JUMP JUMPDEST PUSH1 0x40 MLOAD DUP1 SWAP2 SUB SWAP1 RETURN JUMPDEST PUSH2 0x131 PUSH1 0x4 DUP1 CALLDATASIZE SUB DUP2 ADD SWAP1 PUSH2 0x12C SWAP2 SWAP1 PUSH2 0x6B8 JUMP JUMPDEST PUSH2 0x464 JUMP JUMPDEST STOP JUMPDEST PUSH2 0x14D PUSH1 0x4 DUP1 CALLDATASIZE SUB DUP2 ADD SWAP1 PUSH2 0x148 SWAP2 SWAP1 PUSH2 0x6B8 JUMP JUMPDEST PUSH2 0x54A JUMP JUMPDEST PUSH1 0x40 MLOAD PUSH2 0x15A SWAP2 SWAP1 PUSH2 0x850 JUMP JUMPDEST PUSH1 0x40 MLOAD DUP1 SWAP2 SUB SWAP1 RETURN JUMPDEST PUSH2 0x16B PUSH2 0x56E JUMP JUMPDEST PUSH1 0x1 PUSH1 0x3 DUP1 PUSH1 0x20 MUL PUSH1 0x40 MLOAD SWAP1 DUP2 ADD PUSH1 0x40 MSTORE DUP1 SWAP3 SWAP2 SWAP1 DUP3 PUSH1 0x3 DUP1 ISZERO PUSH2 0x1A4 JUMPI PUSH1 0x20 MUL DUP3 ADD SWAP2 JUMPDEST DUP2 SLOAD DUP2 MSTORE PUSH1 0x20 ADD SWAP1 PUSH1 0x1 ADD SWAP1 DUP1 DUP4 GT PUSH2 0x190 JUMPI JUMPDEST POP POP POP POP POP SWAP1 POP SWAP1 JUMP JUMPDEST PUSH1 0x40 MLOAD DUP1 PUSH1 0xC0 ADD PUSH1 0x40 MSTORE DUP1 PUSH1 0x1 PUSH1 0xFF AND DUP2 MSTORE PUSH1 0x20 ADD PUSH1 0x2 PUSH1 0xFF AND DUP2 MSTORE PUSH1 0x20 ADD PUSH1 0x3 PUSH1 0xFF AND DUP2 MSTORE PUSH1 0x20 ADD PUSH1 0x4 PUSH1 0xFF AND DUP2 MSTORE PUSH1 0x20 ADD PUSH1 0x5 PUSH1 0xFF AND DUP2 MSTORE PUSH1 0x20 ADD PUSH1 0x6 PUSH1 0xFF AND DUP2 MSTORE POP PUSH1 0x0 SWAP1 PUSH1 0x6 PUSH2 0x203 SWAP3 SWAP2 SWAP1 PUSH2 0x590 JUMP JUMPDEST POP PUSH2 0x20E PUSH1 0x3 PUSH2 0x464 JUMP JUMPDEST PUSH1 0x5 PUSH1 0x0 DUP1 SLOAD SWAP1 POP EQ PUSH2 0x224 JUMPI PUSH2 0x223 PUSH2 0x9B4 JUMP JUMPDEST JUMPDEST PUSH1 0x40 MLOAD DUP1 PUSH1 0x20 ADD PUSH1 0x40 MSTORE DUP1 PUSH1 0x1 PUSH1 0xFF AND DUP2 MSTORE POP PUSH1 0x0 SWAP1 PUSH1 0x1 PUSH2 0x247 SWAP3 SWAP2 SWAP1 PUSH2 0x5E2 JUMP JUMPDEST POP PUSH2 0x252 PUSH1 0x0 PUSH2 0x464 JUMP JUMPDEST PUSH1 0x0 DUP1 DUP1 SLOAD SWAP1 POP EQ PUSH2 0x267 JUMPI PUSH2 0x266 PUSH2 0x9B4 JUMP JUMPDEST JUMPDEST JUMP JUMPDEST PUSH1 0x60 PUSH1 0x0 DUP1 SLOAD DUP1 PUSH1 0x20 MUL PUSH1 0x20 ADD PUSH1 0x40 MLOAD SWAP1 DUP2 ADD PUSH1 0x40 MSTORE DUP1 SWAP3 SWAP2 SWAP1 DUP2 DUP2 MSTORE PUSH1 0x20 ADD DUP3 DUP1 SLOAD DUP1 ISZERO PUSH2 0x2B7 JUMPI PUSH1 0x20 MUL DUP3 ADD SWAP2 SWAP1 PUSH1 0x0 MSTORE PUSH1 0x20 PUSH1 0x0 KECCAK256 SWAP1 JUMPDEST DUP2 SLOAD DUP2 MSTORE PUSH1 0x20 ADD SWAP1 PUSH1 0x1 ADD SWAP1 DUP1 DUP4 GT PUSH2 0x2A3 JUMPI JUMPDEST POP POP POP POP POP SWAP1 POP SWAP1 JUMP JUMPDEST PUSH1 0x1 DUP2 PUSH1 0x3 DUP2 LT PUSH2 0x2D1 JUMPI PUSH1 0x0 DUP1 REVERT JUMPDEST ADD PUSH1 0x0 SWAP2 POP SWAP1 POP SLOAD DUP2 JUMP JUMPDEST PUSH1 0x0 DUP1 PUSH1 0x40 MLOAD DUP1 PUSH1 0x80 ADD PUSH1 0x40 MSTORE DUP1 PUSH1 0x1 PUSH1 0xFF AND DUP2 MSTORE PUSH1 0x20 ADD PUSH1 0x2 PUSH1 0xFF AND DUP2 MSTORE PUSH1 0x20 ADD PUSH1 0x3 PUSH1 0xFF AND DUP2 MSTORE PUSH1 0x20 ADD PUSH1 0x4 PUSH1 0xFF AND DUP2 MSTORE POP PUSH1 0x0 SWAP1 PUSH1 0x4 PUSH2 0x320 SWAP3 SWAP2 SWAP1 PUSH2 0x634 JUMP JUMPDEST POP PUSH1 0x0 PUSH1 0x5 SWAP1 DUP1 PUSH1 0x1 DUP2 SLOAD ADD DUP1 DUP3 SSTORE DUP1 SWAP2 POP POP PUSH1 0x1 SWAP1 SUB SWAP1 PUSH1 0x0 MSTORE PUSH1 0x20 PUSH1 0x0 KECCAK256 ADD PUSH1 0x0 SWAP1 SWAP2 SWAP1 SWAP2 SWAP1 SWAP2 POP SSTORE PUSH1 0x0 DUP1 PUSH1 0x1 DUP2 SLOAD DUP2 LT PUSH2 0x361 JUMPI PUSH2 0x360 PUSH2 0xA41 JUMP JUMPDEST JUMPDEST SWAP1 PUSH1 0x0 MSTORE PUSH1 0x20 PUSH1 0x0 KECCAK256 ADD SLOAD SWAP1 POP PUSH1 0x6 PUSH1 0x0 PUSH1 0x2 DUP2 SLOAD DUP2 LT PUSH2 0x385 JUMPI PUSH2 0x384 PUSH2 0xA41 JUMP JUMPDEST JUMPDEST SWAP1 PUSH1 0x0 MSTORE PUSH1 0x20 PUSH1 0x0 KECCAK256 ADD DUP2 SWAP1 SSTORE POP PUSH1 0x0 PUSH1 0x2 DUP2 SLOAD DUP2 LT PUSH2 0x3A8 JUMPI PUSH2 0x3A7 PUSH2 0xA41 JUMP JUMPDEST JUMPDEST SWAP1 PUSH1 0x0 MSTORE PUSH1 0x20 PUSH1 0x0 KECCAK256 ADD PUSH1 0x0 SWAP1 SSTORE PUSH1 0x0 DUP1 SLOAD DUP1 PUSH2 0x3C8 JUMPI PUSH2 0x3C7 PUSH2 0xA12 JUMP JUMPDEST JUMPDEST PUSH1 0x1 SWAP1 SUB DUP2 DUP2 SWAP1 PUSH1 0x0 MSTORE PUSH1 0x20 PUSH1 0x0 KECCAK256 ADD PUSH1 0x0 SWAP1 SSTORE SWAP1 SSTORE PUSH1 0x0 DUP1 DUP1 SLOAD SWAP1 POP SWAP1 POP PUSH1 0x0 PUSH1 0x5 PUSH8 0xFFFFFFFFFFFFFFFF DUP2 GT ISZERO PUSH2 0x404 JUMPI PUSH2 0x403 PUSH2 0xA70 JUMP JUMPDEST JUMPDEST PUSH1 0x40 MLOAD SWAP1 DUP1 DUP3 MSTORE DUP1 PUSH1 0x20 MUL PUSH1 0x20 ADD DUP3 ADD PUSH1 0x40 MSTORE DUP1 ISZERO PUSH2 0x432 JUMPI DUP2 PUSH1 0x20 ADD PUSH1 0x20 DUP3 MUL DUP1 CALLDATASIZE DUP4 CALLDATACOPY DUP1 DUP3 ADD SWAP2 POP POP SWAP1 POP JUMPDEST POP SWAP1 POP PUSH1 0xA DUP2 PUSH1 0x1 DUP2 MLOAD DUP2 LT PUSH2 0x44B JUMPI PUSH2 0x44A PUSH2 0xA41 JUMP JUMPDEST JUMPDEST PUSH1 0x20 MUL PUSH1 0x20 ADD ADD DUP2 DUP2 MSTORE POP POP DUP3 DUP3 SWAP5 POP SWAP5 POP POP POP POP SWAP1 SWAP2 JUMP JUMPDEST PUSH1 0x0 DUP1 SLOAD SWAP1 POP DUP2 LT PUSH2 0x4AB JUMPI PUSH1 0x40 MLOAD PUSH32 0x8C379A000000000000000000000000000000000000000000000000000000000 DUP2 MSTORE PUSH1 0x4 ADD PUSH2 0x4A2 SWAP1 PUSH2 0x830 JUMP JUMPDEST PUSH1 0x40 MLOAD DUP1 SWAP2 SUB SWAP1 REVERT JUMPDEST PUSH1 0x0 DUP2 SWAP1 POP JUMPDEST PUSH1 0x0 DUP1 SLOAD SWAP1 POP DUP2 LT ISZERO PUSH2 0x51E JUMPI PUSH1 0x0 PUSH1 0x1 DUP3 PUSH2 0x4CD SWAP2 SWAP1 PUSH2 0x90B JUMP JUMPDEST DUP2 SLOAD DUP2 LT PUSH2 0x4DE JUMPI PUSH2 0x4DD PUSH2 0xA41 JUMP JUMPDEST JUMPDEST SWAP1 PUSH1 0x0 MSTORE PUSH1 0x20 PUSH1 0x0 KECCAK256 ADD SLOAD PUSH1 0x0 DUP3 DUP2 SLOAD DUP2 LT PUSH2 0x4FD JUMPI PUSH2 0x4FC PUSH2 0xA41 JUMP JUMPDEST JUMPDEST SWAP1 PUSH1 0x0 MSTORE PUSH1 0x20 PUSH1 0x0 KECCAK256 ADD DUP2 SWAP1 SSTORE POP DUP1 DUP1 PUSH2 0x516 SWAP1 PUSH2 0x96B JUMP JUMPDEST SWAP2 POP POP PUSH2 0x4B1 JUMP JUMPDEST POP PUSH1 0x0 DUP1 SLOAD DUP1 PUSH2 0x531 JUMPI PUSH2 0x530 PUSH2 0xA12 JUMP JUMPDEST JUMPDEST PUSH1 0x1 SWAP1 SUB DUP2 DUP2 SWAP1 PUSH1 0x0 MSTORE PUSH1 0x20 PUSH1 0x0 KECCAK256 ADD PUSH1 0x0 SWAP1 SSTORE SWAP1 SSTORE POP JUMP JUMPDEST PUSH1 0x0 DUP2 DUP2 SLOAD DUP2 LT PUSH2 0x55A JUMPI PUSH1 0x0 DUP1 REVERT JUMPDEST SWAP1 PUSH1 0x0 MSTORE PUSH1 0x20 PUSH1 0x0 KECCAK256 ADD PUSH1 0x0 SWAP2 POP SWAP1 POP SLOAD DUP2 JUMP JUMPDEST PUSH1 0x40 MLOAD DUP1 PUSH1 0x60 ADD PUSH1 0x40 MSTORE DUP1 PUSH1 0x3 SWAP1 PUSH1 0x20 DUP3 MUL DUP1 CALLDATASIZE DUP4 CALLDATACOPY DUP1 DUP3 ADD SWAP2 POP POP SWAP1 POP POP SWAP1 JUMP JUMPDEST DUP3 DUP1 SLOAD DUP3 DUP3 SSTORE SWAP1 PUSH1 0x0 MSTORE PUSH1 0x20 PUSH1 0x0 KECCAK256 SWAP1 DUP2 ADD SWAP3 DUP3 ISZERO PUSH2 0x5D1 JUMPI SWAP2 PUSH1 0x20 MUL DUP3 ADD JUMPDEST DUP3 DUP2 GT ISZERO PUSH2 0x5D0 JUMPI DUP3 MLOAD DUP3 SWAP1 PUSH1 0xFF AND SWAP1 SSTORE SWAP2 PUSH1 0x20 ADD SWAP2 SWAP1 PUSH1 0x1 ADD SWAP1 PUSH2 0x5B0 JUMP JUMPDEST JUMPDEST POP SWAP1 POP PUSH2 0x5DE SWAP2 SWAP1 PUSH2 0x686 JUMP JUMPDEST POP SWAP1 JUMP JUMPDEST DUP3 DUP1 SLOAD DUP3 DUP3 SSTORE SWAP1 PUSH1 0x0 MSTORE PUSH1 0x20 PUSH1 0x0 KECCAK256 SWAP1 DUP2 ADD SWAP3 DUP3 ISZERO PUSH2 0x623 JUMPI SWAP2 PUSH1 0x20 MUL DUP3 ADD JUMPDEST DUP3 DUP2 GT ISZERO PUSH2 0x622 JUMPI DUP3 MLOAD DUP3 SWAP1 PUSH1 0xFF AND SWAP1 SSTORE SWAP2 PUSH1 0x20 ADD SWAP2 SWAP1 PUSH1 0x1 ADD SWAP1 PUSH2 0x602 JUMP JUMPDEST JUMPDEST POP SWAP1 POP PUSH2 0x630 SWAP2 SWAP1 PUSH2 0x686 JUMP JUMPDEST POP SWAP1 JUMP JUMPDEST DUP3 DUP1 SLOAD DUP3 DUP3 SSTORE SWAP1 PUSH1 0x0 MSTORE PUSH1 0x20 PUSH1 0x0 KECCAK256 SWAP1 DUP2 ADD SWAP3 DUP3 ISZERO PUSH2 0x675 JUMPI SWAP2 PUSH1 0x20 MUL DUP3 ADD JUMPDEST DUP3 DUP2 GT ISZERO PUSH2 0x674 JUMPI DUP3 MLOAD DUP3 SWAP1 PUSH1 0xFF AND SWAP1 SSTORE SWAP2 PUSH1 0x20 ADD SWAP2 SWAP1 PUSH1 0x1 ADD SWAP1 PUSH2 0x654 JUMP JUMPDEST JUMPDEST POP SWAP1 POP PUSH2 0x682 SWAP2 SWAP1 PUSH2 0x686 JUMP JUMPDEST POP SWAP1 JUMP JUMPDEST JUMPDEST DUP1 DUP3 GT ISZERO PUSH2 0x69F JUMPI PUSH1 0x0 DUP2 PUSH1 0x0 SWAP1 SSTORE POP PUSH1 0x1 ADD PUSH2 0x687 JUMP JUMPDEST POP SWAP1 JUMP JUMPDEST PUSH1 0x0 DUP2 CALLDATALOAD SWAP1 POP PUSH2 0x6B2 DUP2 PUSH2 0xACD JUMP JUMPDEST SWAP3 SWAP2 POP POP JUMP JUMPDEST PUSH1 0x0 PUSH1 0x20 DUP3 DUP5 SUB SLT ISZERO PUSH2 0x6CE JUMPI PUSH2 0x6CD PUSH2 0xA9F JUMP JUMPDEST JUMPDEST PUSH1 0x0 PUSH2 0x6DC DUP5 DUP3 DUP6 ADD PUSH2 0x6A3 JUMP JUMPDEST SWAP2 POP POP SWAP3 SWAP2 POP POP JUMP JUMPDEST PUSH1 0x0 PUSH2 0x6F1 DUP4 DUP4 PUSH2 0x7D5 JUMP JUMPDEST PUSH1 0x20 DUP4 ADD SWAP1 POP SWAP3 SWAP2 POP POP JUMP JUMPDEST PUSH2 0x706 DUP2 PUSH2 0x8AE JUMP JUMPDEST PUSH2 0x710 DUP2 DUP5 PUSH2 0x8DE JUMP JUMPDEST SWAP3 POP PUSH2 0x71B DUP3 PUSH2 0x894 JUMP JUMPDEST DUP1 PUSH1 0x0 JUMPDEST DUP4 DUP2 LT ISZERO PUSH2 0x74C JUMPI DUP2 MLOAD PUSH2 0x733 DUP8 DUP3 PUSH2 0x6E5 JUMP JUMPDEST SWAP7 POP PUSH2 0x73E DUP4 PUSH2 0x8C4 JUMP JUMPDEST SWAP3 POP POP PUSH1 0x1 DUP2 ADD SWAP1 POP PUSH2 0x71F JUMP JUMPDEST POP POP POP POP POP POP JUMP JUMPDEST PUSH1 0x0 PUSH2 0x75F DUP3 PUSH2 0x8B9 JUMP JUMPDEST PUSH2 0x769 DUP2 DUP6 PUSH2 0x8E9 JUMP JUMPDEST SWAP4 POP PUSH2 0x774 DUP4 PUSH2 0x89E JUMP JUMPDEST DUP1 PUSH1 0x0 JUMPDEST DUP4 DUP2 LT ISZERO PUSH2 0x7A5 JUMPI DUP2 MLOAD PUSH2 0x78C DUP9 DUP3 PUSH2 0x6E5 JUMP JUMPDEST SWAP8 POP PUSH2 0x797 DUP4 PUSH2 0x8D1 JUMP JUMPDEST SWAP3 POP POP PUSH1 0x1 DUP2 ADD SWAP1 POP PUSH2 0x778 JUMP JUMPDEST POP DUP6 SWAP4 POP POP POP POP SWAP3 SWAP2 POP POP JUMP JUMPDEST PUSH1 0x0 PUSH2 0x7BF PUSH1 0x13 DUP4 PUSH2 0x8FA JUMP JUMPDEST SWAP2 POP PUSH2 0x7CA DUP3 PUSH2 0xAA4 JUMP JUMPDEST PUSH1 0x20 DUP3 ADD SWAP1 POP SWAP2 SWAP1 POP JUMP JUMPDEST PUSH2 0x7DE DUP2 PUSH2 0x961 JUMP JUMPDEST DUP3 MSTORE POP POP JUMP JUMPDEST PUSH2 0x7ED DUP2 PUSH2 0x961 JUMP JUMPDEST DUP3 MSTORE POP POP JUMP JUMPDEST PUSH1 0x0 PUSH1 0x60 DUP3 ADD SWAP1 POP PUSH2 0x808 PUSH1 0x0 DUP4 ADD DUP5 PUSH2 0x6FD JUMP JUMPDEST SWAP3 SWAP2 POP POP JUMP JUMPDEST PUSH1 0x0 PUSH1 0x20 DUP3 ADD SWAP1 POP DUP2 DUP2 SUB PUSH1 0x0 DUP4 ADD MSTORE PUSH2 0x828 DUP2 DUP5 PUSH2 0x754 JUMP JUMPDEST SWAP1 POP SWAP3 SWAP2 POP POP JUMP JUMPDEST PUSH1 0x0 PUSH1 0x20 DUP3 ADD SWAP1 POP DUP2 DUP2 SUB PUSH1 0x0 DUP4 ADD MSTORE PUSH2 0x849 DUP2 PUSH2 0x7B2 JUMP JUMPDEST SWAP1 POP SWAP2 SWAP1 POP JUMP JUMPDEST PUSH1 0x0 PUSH1 0x20 DUP3 ADD SWAP1 POP PUSH2 0x865 PUSH1 0x0 DUP4 ADD DUP5 PUSH2 0x7E4 JUMP JUMPDEST SWAP3 SWAP2 POP POP JUMP JUMPDEST PUSH1 0x0 PUSH1 0x40 DUP3 ADD SWAP1 POP PUSH2 0x880 PUSH1 0x0 DUP4 ADD DUP6 PUSH2 0x7E4 JUMP JUMPDEST PUSH2 0x88D PUSH1 0x20 DUP4 ADD DUP5 PUSH2 0x7E4 JUMP JUMPDEST SWAP4 SWAP3 POP POP POP JUMP JUMPDEST PUSH1 0x0 DUP2 SWAP1 POP SWAP2 SWAP1 POP JUMP JUMPDEST PUSH1 0x0 DUP2 SWAP1 POP PUSH1 0x20 DUP3 ADD SWAP1 POP SWAP2 SWAP1 POP JUMP JUMPDEST PUSH1 0x0 PUSH1 0x3 SWAP1 POP SWAP2 SWAP1 POP JUMP JUMPDEST PUSH1 0x0 DUP2 MLOAD SWAP1 POP SWAP2 SWAP1 POP JUMP JUMPDEST PUSH1 0x0 PUSH1 0x20 DUP3 ADD SWAP1 POP SWAP2 SWAP1 POP JUMP JUMPDEST PUSH1 0x0 PUSH1 0x20 DUP3 ADD SWAP1 POP SWAP2 SWAP1 POP JUMP JUMPDEST PUSH1 0x0 DUP2 SWAP1 POP SWAP3 SWAP2 POP POP JUMP JUMPDEST PUSH1 0x0 DUP3 DUP3 MSTORE PUSH1 0x20 DUP3 ADD SWAP1 POP SWAP3 SWAP2 POP POP JUMP JUMPDEST PUSH1 0x0 DUP3 DUP3 MSTORE PUSH1 0x20 DUP3 ADD SWAP1 POP SWAP3 SWAP2 POP POP JUMP JUMPDEST PUSH1 0x0 PUSH2 0x916 DUP3 PUSH2 0x961 JUMP JUMPDEST SWAP2 POP PUSH2 0x921 DUP4 PUSH2 0x961 JUMP JUMPDEST SWAP3 POP DUP3 PUSH32 0xFFFFFFFFFFFFFFFFFFFFFFFFFFFFFFFFFFFFFFFFFFFFFFFFFFFFFFFFFFFFFFFF SUB DUP3 GT ISZERO PUSH2 0x956 JUMPI PUSH2 0x955 PUSH2 0x9E3 JUMP JUMPDEST JUMPDEST DUP3 DUP3 ADD SWAP1 POP SWAP3 SWAP2 POP POP JUMP JUMPDEST PUSH1 0x0 DUP2 SWAP1 POP SWAP2 SWAP1 POP JUMP JUMPDEST PUSH1 0x0 PUSH2 0x976 DUP3 PUSH2 0x961 JUMP JUMPDEST SWAP2 POP PUSH32 0xFFFFFFFFFFFFFFFFFFFFFFFFFFFFFFFFFFFFFFFFFFFFFFFFFFFFFFFFFFFFFFFF DUP3 EQ ISZERO PUSH2 0x9A9 JUMPI PUSH2 0x9A8 PUSH2 0x9E3 JUMP JUMPDEST JUMPDEST PUSH1 0x1 DUP3 ADD SWAP1 POP SWAP2 SWAP1 POP JUMP JUMPDEST PUSH32 0x4E487B7100000000000000000000000000000000000000000000000000000000 PUSH1 0x0 MSTORE PUSH1 0x1 PUSH1 0x4 MSTORE PUSH1 0x24 PUSH1 0x0 REVERT JUMPDEST PUSH32 0x4E487B7100000000000000000000000000000000000000000000000000000000 PUSH1 0x0 MSTORE PUSH1 0x11 PUSH1 0x4 MSTORE PUSH1 0x24 PUSH1 0x0 REVERT JUMPDEST PUSH32 0x4E487B7100000000000000000000000000000000000000000000000000000000 PUSH1 0x0 MSTORE PUSH1 0x31 PUSH1 0x4 MSTORE PUSH1 0x24 PUSH1 0x0 REVERT JUMPDEST PUSH32 0x4E487B7100000000000000000000000000000000000000000000000000000000 PUSH1 0x0 MSTORE PUSH1 0x32 PUSH1 0x4 MSTORE PUSH1 0x24 PUSH1 0x0 REVERT JUMPDEST PUSH32 0x4E487B7100000000000000000000000000000000000000000000000000000000 PUSH1 0x0 MSTORE PUSH1 0x41 PUSH1 0x4 MSTORE PUSH1 0x24 PUSH1 0x0 REVERT JUMPDEST PUSH1 0x0 DUP1 REVERT JUMPDEST PUSH32 0x5F696E646578206F7574206F6620626F756E6400000000000000000000000000 PUSH1 0x0 DUP3 ADD MSTORE POP JUMP JUMPDEST PUSH2 0xAD6 DUP2 PUSH2 0x961 JUMP JUMPDEST DUP2 EQ PUSH2 0xAE1 JUMPI PUSH1 0x0 DUP1 REVERT JUMPDEST POP JUMP INVALID LOG2 PUSH5 0x6970667358 0x22 SLT KECCAK256 0xF6 0xDD SGT 0xAF 0xA6 0x25 0xE4 0xBD 0x4C SDIV CALLDATASIZE CALLDATASIZE REVERT DUP7 MSTORE DUP5 PUSH3 0xFF395C 0xB6 COINBASE 0xC6 PUSH23 0x929F1A40889B1BDC64736F6C6343000807003300000000 "
				},
				"gasEstimates": {
					"creation": {
						"codeDepositCost": "568400",
						"executionCost": "infinite",
						"totalCost": "infinite"
					},
					"external": {
						"example()": "infinite",
						"nums(uint256)": "infinite",
						"numsFixed(uint256)": "infinite",
						"removeArrayelement(uint256)": "infinite",
						"returnArray()": "infinite",
						"returnFixedArray()": "infinite",
						"testRemove()": "infinite"
					}
				},
				"methodIdentifiers": {
					"example()": "54353f2f",
					"nums(uint256)": "fd1ee54c",
					"numsFixed(uint256)": "44395769",
					"removeArrayelement(uint256)": "c9373396",
					"returnArray()": "3cac14c8",
					"returnFixedArray()": "315a6c89",
					"testRemove()": "39cfea4a"
				}
			},
			"storageLayout": {
				"storage": [
					{
						"astId": 4,
						"contract": "13_Array.sol:TestArray",
						"label": "nums",
						"offset": 0,
						"slot": "0",
						"type": "t_array(t_uint256)dyn_storage"
					},
					{
						"astId": 12,
						"contract": "13_Array.sol:TestArray",
						"label": "numsFixed",
						"offset": 0,
						"slot": "1",
						"type": "t_array(t_uint256)3_storage"
					}
				],
				"types": {
					"t_array(t_uint256)3_storage": {
						"base": "t_uint256",
						"encoding": "inplace",
						"label": "uint256[3]",
						"numberOfBytes": "96"
					},
					"t_array(t_uint256)dyn_storage": {
						"base": "t_uint256",
						"encoding": "dynamic_array",
						"label": "uint256[]",
						"numberOfBytes": "32"
					},
					"t_uint256": {
						"encoding": "inplace",
						"label": "uint256",
						"numberOfBytes": "32"
					}
				}
			},
			"userdoc": {
				"kind": "user",
				"methods": {},
				"version": 1
			}
		}
	}
}