{
	"13_Array.sol": {
		"TestArray": {
			"abi": [
				{
					"inputs": [],
					"name": "example",
					"outputs": [
						{
							"internalType": "uint256",
							"name": "",
							"type": "uint256"
						},
						{
							"internalType": "uint256",
							"name": "",
							"type": "uint256"
						}
					],
					"stateMutability": "nonpayable",
					"type": "function"
				},
				{
					"inputs": [
						{
							"internalType": "uint256",
							"name": "",
							"type": "uint256"
						}
					],
					"name": "nums",
					"outputs": [
						{
							"internalType": "uint256",
							"name": "",
							"type": "uint256"
						}
					],
					"stateMutability": "view",
					"type": "function"
				},
				{
					"inputs": [
						{
							"internalType": "uint256",
							"name": "",
							"type": "uint256"
						}
					],
					"name": "numsFixed",
					"outputs": [
						{
							"internalType": "uint256",
							"name": "",
							"type": "uint256"
						}
					],
					"stateMutability": "view",
					"type": "function"
				},
				{
					"inputs": [
						{
							"internalType": "uint256",
							"name": "_index",
							"type": "uint256"
						}
					],
					"name": "removeArrayelement",
					"outputs": [],
					"stateMutability": "nonpayable",
					"type": "function"
				},
				{
					"inputs": [],
					"name": "returnArray",
					"outputs": [
						{
							"internalType": "uint256[]",
							"name": "",
							"type": "uint256[]"
						}
					],
					"stateMutability": "view",
					"type": "function"
				},
				{
					"inputs": [],
					"name": "returnFixedArray",
					"outputs": [
						{
							"internalType": "uint256[3]",
							"name": "",
							"type": "uint256[3]"
						}
					],
					"stateMutability": "view",
					"type": "function"
				},
				{
					"inputs": [],
					"name": "testRemove",
					"outputs": [],
					"stateMutability": "nonpayable",
					"type": "function"
				}
			],
			"devdoc": {
				"kind": "dev",
				"methods": {},
				"version": 1
			},
			"evm": {
				"assembly": "    /* \"13_Array.sol\":228:1791  contract TestArray{... */\n  mstore(0x40, 0x80)\n    /* \"13_Array.sol\":276:310  uint[3] public numsFixed = [1,2,3] */\n  mload(0x40)\n  dup1\n  0x60\n  add\n  0x40\n  mstore\n  dup1\n    /* \"13_Array.sol\":304:305  1 */\n  0x01\n    /* \"13_Array.sol\":276:310  uint[3] public numsFixed = [1,2,3] */\n  0xff\n  and\n  dup2\n  mstore\n  0x20\n  add\n    /* \"13_Array.sol\":306:307  2 */\n  0x02\n    /* \"13_Array.sol\":276:310  uint[3] public numsFixed = [1,2,3] */\n  0xff\n  and\n  dup2\n  mstore\n  0x20\n  add\n    /* \"13_Array.sol\":308:309  3 */\n  0x03\n    /* \"13_Array.sol\":276:310  uint[3] public numsFixed = [1,2,3] */\n  0xff\n  and\n  dup2\n  mstore\n  pop\n  0x01\n  swap1\n  0x03\n  tag_1\n  swap3\n  swap2\n  swap1\n  tag_2\n  jump\t// in\ntag_1:\n  pop\n    /* \"13_Array.sol\":228:1791  contract TestArray{... */\n  callvalue\n  dup1\n  iszero\n  tag_3\n  jumpi\n  0x00\n  dup1\n  revert\ntag_3:\n  pop\n  jump(tag_4)\ntag_2:\n  dup3\n  0x03\n  dup2\n  add\n  swap3\n  dup3\n  iszero\n  tag_5\n  jumpi\n  swap2\n  0x20\n  mul\n  dup3\n  add\ntag_6:\n  dup3\n  dup2\n  gt\n  iszero\n  tag_7\n  jumpi\n  dup3\n  mload\n  dup3\n  swap1\n  0xff\n  and\n  swap1\n  sstore\n  swap2\n  0x20\n  add\n  swap2\n  swap1\n  0x01\n  add\n  swap1\n  jump(tag_6)\ntag_7:\ntag_5:\n  pop\n  swap1\n  pop\n  tag_8\n  swap2\n  swap1\n  tag_9\n  jump\t// in\ntag_8:\n  pop\n  swap1\n  jump\t// out\ntag_9:\ntag_10:\n  dup1\n  dup3\n  gt\n  iszero\n  tag_11\n  jumpi\n  0x00\n  dup2\n  0x00\n  swap1\n  sstore\n  pop\n  0x01\n  add\n  jump(tag_10)\ntag_11:\n  pop\n  swap1\n  jump\t// out\ntag_4:\n  dataSize(sub_0)\n  dup1\n  dataOffset(sub_0)\n  0x00\n  codecopy\n  0x00\n  return\nstop\n\nsub_0: assembly {\n        /* \"13_Array.sol\":228:1791  contract TestArray{... */\n      mstore(0x40, 0x80)\n      callvalue\n      dup1\n      iszero\n      tag_1\n      jumpi\n      0x00\n      dup1\n      revert\n    tag_1:\n      pop\n      jumpi(tag_2, lt(calldatasize, 0x04))\n      shr(0xe0, calldataload(0x00))\n      dup1\n      0x44395769\n      gt\n      tag_10\n      jumpi\n      dup1\n      0x44395769\n      eq\n      tag_6\n      jumpi\n      dup1\n      0x54353f2f\n      eq\n      tag_7\n      jumpi\n      dup1\n      0xc9373396\n      eq\n      tag_8\n      jumpi\n      dup1\n      0xfd1ee54c\n      eq\n      tag_9\n      jumpi\n      jump(tag_2)\n    tag_10:\n      dup1\n      0x315a6c89\n      eq\n      tag_3\n      jumpi\n      dup1\n      0x39cfea4a\n      eq\n      tag_4\n      jumpi\n      dup1\n      0x3cac14c8\n      eq\n      tag_5\n      jumpi\n    tag_2:\n      0x00\n      dup1\n      revert\n        /* \"13_Array.sol\":990:1090  function returnFixedArray() external view returns (uint[3] memory) {... */\n    tag_3:\n      tag_11\n      tag_12\n      jump\t// in\n    tag_11:\n      mload(0x40)\n      tag_13\n      swap2\n      swap1\n      tag_14\n      jump\t// in\n    tag_13:\n      mload(0x40)\n      dup1\n      swap2\n      sub\n      swap1\n      return\n        /* \"13_Array.sol\":1558:1789  function testRemove() external {... */\n    tag_4:\n      tag_15\n      tag_16\n      jump\t// in\n    tag_15:\n      stop\n        /* \"13_Array.sol\":895:984  function returnArray() external view returns (uint[] memory) {... */\n    tag_5:\n      tag_17\n      tag_18\n      jump\t// in\n    tag_17:\n      mload(0x40)\n      tag_19\n      swap2\n      swap1\n      tag_20\n      jump\t// in\n    tag_19:\n      mload(0x40)\n      dup1\n      swap2\n      sub\n      swap1\n      return\n        /* \"13_Array.sol\":276:310  uint[3] public numsFixed = [1,2,3] */\n    tag_6:\n      tag_21\n      0x04\n      dup1\n      calldatasize\n      sub\n      dup2\n      add\n      swap1\n      tag_22\n      swap2\n      swap1\n      tag_23\n      jump\t// in\n    tag_22:\n      tag_24\n      jump\t// in\n    tag_21:\n      mload(0x40)\n      tag_25\n      swap2\n      swap1\n      tag_26\n      jump\t// in\n    tag_25:\n      mload(0x40)\n      dup1\n      swap2\n      sub\n      swap1\n      return\n        /* \"13_Array.sol\":321:869  function example() external returns (uint,uint){... */\n    tag_7:\n      tag_27\n      tag_28\n      jump\t// in\n    tag_27:\n      mload(0x40)\n      tag_29\n      swap3\n      swap2\n      swap1\n      tag_30\n      jump\t// in\n    tag_29:\n      mload(0x40)\n      dup1\n      swap2\n      sub\n      swap1\n      return\n        /* \"13_Array.sol\":1292:1552  function removeArrayelement(uint _index) public  {... */\n    tag_8:\n      tag_31\n      0x04\n      dup1\n      calldatasize\n      sub\n      dup2\n      add\n      swap1\n      tag_32\n      swap2\n      swap1\n      tag_23\n      jump\t// in\n    tag_32:\n      tag_33\n      jump\t// in\n    tag_31:\n      stop\n        /* \"13_Array.sol\":252:270  uint[] public nums */\n    tag_9:\n      tag_34\n      0x04\n      dup1\n      calldatasize\n      sub\n      dup2\n      add\n      swap1\n      tag_35\n      swap2\n      swap1\n      tag_23\n      jump\t// in\n    tag_35:\n      tag_36\n      jump\t// in\n    tag_34:\n      mload(0x40)\n      tag_37\n      swap2\n      swap1\n      tag_26\n      jump\t// in\n    tag_37:\n      mload(0x40)\n      dup1\n      swap2\n      sub\n      swap1\n      return\n        /* \"13_Array.sol\":990:1090  function returnFixedArray() external view returns (uint[3] memory) {... */\n    tag_12:\n        /* \"13_Array.sol\":1041:1055  uint[3] memory */\n      tag_38\n      tag_39\n      jump\t// in\n    tag_38:\n        /* \"13_Array.sol\":1074:1083  numsFixed */\n      0x01\n        /* \"13_Array.sol\":1067:1083  return numsFixed */\n      0x03\n      dup1\n      0x20\n      mul\n      mload(0x40)\n      swap1\n      dup2\n      add\n      0x40\n      mstore\n      dup1\n      swap3\n      swap2\n      swap1\n      dup3\n      0x03\n      dup1\n      iszero\n      tag_41\n      jumpi\n      0x20\n      mul\n      dup3\n      add\n      swap2\n    tag_42:\n      dup2\n      sload\n      dup2\n      mstore\n      0x20\n      add\n      swap1\n      0x01\n      add\n      swap1\n      dup1\n      dup4\n      gt\n      tag_42\n      jumpi\n    tag_41:\n      pop\n      pop\n      pop\n      pop\n      pop\n      swap1\n      pop\n        /* \"13_Array.sol\":990:1090  function returnFixedArray() external view returns (uint[3] memory) {... */\n      swap1\n      jump\t// out\n        /* \"13_Array.sol\":1558:1789  function testRemove() external {... */\n    tag_16:\n        /* \"13_Array.sol\":1599:1619  nums = [1,2,3,4,5,6] */\n      mload(0x40)\n      dup1\n      0xc0\n      add\n      0x40\n      mstore\n      dup1\n        /* \"13_Array.sol\":1607:1608  1 */\n      0x01\n        /* \"13_Array.sol\":1599:1619  nums = [1,2,3,4,5,6] */\n      0xff\n      and\n      dup2\n      mstore\n      0x20\n      add\n        /* \"13_Array.sol\":1609:1610  2 */\n      0x02\n        /* \"13_Array.sol\":1599:1619  nums = [1,2,3,4,5,6] */\n      0xff\n      and\n      dup2\n      mstore\n      0x20\n      add\n        /* \"13_Array.sol\":1611:1612  3 */\n      0x03\n        /* \"13_Array.sol\":1599:1619  nums = [1,2,3,4,5,6] */\n      0xff\n      and\n      dup2\n      mstore\n      0x20\n      add\n        /* \"13_Array.sol\":1613:1614  4 */\n      0x04\n        /* \"13_Array.sol\":1599:1619  nums = [1,2,3,4,5,6] */\n      0xff\n      and\n      dup2\n      mstore\n      0x20\n      add\n        /* \"13_Array.sol\":1615:1616  5 */\n      0x05\n        /* \"13_Array.sol\":1599:1619  nums = [1,2,3,4,5,6] */\n      0xff\n      and\n      dup2\n      mstore\n      0x20\n      add\n        /* \"13_Array.sol\":1617:1618  6 */\n      0x06\n        /* \"13_Array.sol\":1599:1619  nums = [1,2,3,4,5,6] */\n      0xff\n      and\n      dup2\n      mstore\n      pop\n        /* \"13_Array.sol\":1599:1603  nums */\n      0x00\n        /* \"13_Array.sol\":1599:1619  nums = [1,2,3,4,5,6] */\n      swap1\n      0x06\n      tag_44\n      swap3\n      swap2\n      swap1\n      tag_45\n      jump\t// in\n    tag_44:\n      pop\n        /* \"13_Array.sol\":1629:1650  removeArrayelement(1) */\n      tag_46\n        /* \"13_Array.sol\":1648:1649  1 */\n      0x01\n        /* \"13_Array.sol\":1629:1647  removeArrayelement */\n      tag_33\n        /* \"13_Array.sol\":1629:1650  removeArrayelement(1) */\n      jump\t// in\n    tag_46:\n        /* \"13_Array.sol\":1558:1789  function testRemove() external {... */\n      jump\t// out\n        /* \"13_Array.sol\":895:984  function returnArray() external view returns (uint[] memory) {... */\n    tag_18:\n        /* \"13_Array.sol\":941:954  uint[] memory */\n      0x60\n        /* \"13_Array.sol\":973:977  nums */\n      0x00\n        /* \"13_Array.sol\":966:977  return nums */\n      dup1\n      sload\n      dup1\n      0x20\n      mul\n      0x20\n      add\n      mload(0x40)\n      swap1\n      dup2\n      add\n      0x40\n      mstore\n      dup1\n      swap3\n      swap2\n      swap1\n      dup2\n      dup2\n      mstore\n      0x20\n      add\n      dup3\n      dup1\n      sload\n      dup1\n      iszero\n      tag_48\n      jumpi\n      0x20\n      mul\n      dup3\n      add\n      swap2\n      swap1\n      0x00\n      mstore\n      keccak256(0x00, 0x20)\n      swap1\n    tag_49:\n      dup2\n      sload\n      dup2\n      mstore\n      0x20\n      add\n      swap1\n      0x01\n      add\n      swap1\n      dup1\n      dup4\n      gt\n      tag_49\n      jumpi\n    tag_48:\n      pop\n      pop\n      pop\n      pop\n      pop\n      swap1\n      pop\n        /* \"13_Array.sol\":895:984  function returnArray() external view returns (uint[] memory) {... */\n      swap1\n      jump\t// out\n        /* \"13_Array.sol\":276:310  uint[3] public numsFixed = [1,2,3] */\n    tag_24:\n      0x01\n      dup2\n      0x03\n      dup2\n      lt\n      tag_50\n      jumpi\n      0x00\n      dup1\n      revert\n    tag_50:\n      add\n      0x00\n      swap2\n      pop\n      swap1\n      pop\n      sload\n      dup2\n      jump\t// out\n        /* \"13_Array.sol\":321:869  function example() external returns (uint,uint){... */\n    tag_28:\n        /* \"13_Array.sol\":358:362  uint */\n      0x00\n        /* \"13_Array.sol\":363:367  uint */\n      dup1\n        /* \"13_Array.sol\":378:394  nums = [1,2,3,4] */\n      mload(0x40)\n      dup1\n      0x80\n      add\n      0x40\n      mstore\n      dup1\n        /* \"13_Array.sol\":386:387  1 */\n      0x01\n        /* \"13_Array.sol\":378:394  nums = [1,2,3,4] */\n      0xff\n      and\n      dup2\n      mstore\n      0x20\n      add\n        /* \"13_Array.sol\":388:389  2 */\n      0x02\n        /* \"13_Array.sol\":378:394  nums = [1,2,3,4] */\n      0xff\n      and\n      dup2\n      mstore\n      0x20\n      add\n        /* \"13_Array.sol\":390:391  3 */\n      0x03\n        /* \"13_Array.sol\":378:394  nums = [1,2,3,4] */\n      0xff\n      and\n      dup2\n      mstore\n      0x20\n      add\n        /* \"13_Array.sol\":392:393  4 */\n      0x04\n        /* \"13_Array.sol\":378:394  nums = [1,2,3,4] */\n      0xff\n      and\n      dup2\n      mstore\n      pop\n        /* \"13_Array.sol\":378:382  nums */\n      0x00\n        /* \"13_Array.sol\":378:394  nums = [1,2,3,4] */\n      swap1\n      0x04\n      tag_53\n      swap3\n      swap2\n      swap1\n      tag_54\n      jump\t// in\n    tag_53:\n      pop\n        /* \"13_Array.sol\":404:408  nums */\n      0x00\n        /* \"13_Array.sol\":414:415  5 */\n      0x05\n        /* \"13_Array.sol\":404:416  nums.push(5) */\n      swap1\n      dup1\n      0x01\n      dup2\n      sload\n      add\n      dup1\n      dup3\n      sstore\n      dup1\n      swap2\n      pop\n      pop\n      0x01\n      swap1\n      sub\n      swap1\n      0x00\n      mstore\n      keccak256(0x00, 0x20)\n      add\n      0x00\n      swap1\n      swap2\n      swap1\n      swap2\n      swap1\n      swap2\n      pop\n      sstore\n        /* \"13_Array.sol\":441:447  uint x */\n      0x00\n        /* \"13_Array.sol\":450:454  nums */\n      dup1\n        /* \"13_Array.sol\":455:456  1 */\n      0x01\n        /* \"13_Array.sol\":450:457  nums[1] */\n      dup2\n      sload\n      dup2\n      lt\n      tag_56\n      jumpi\n      tag_57\n      tag_58\n      jump\t// in\n    tag_57:\n    tag_56:\n      swap1\n      0x00\n      mstore\n      keccak256(0x00, 0x20)\n      add\n      sload\n        /* \"13_Array.sol\":441:457  uint x = nums[1] */\n      swap1\n      pop\n        /* \"13_Array.sol\":486:487  6 */\n      0x06\n        /* \"13_Array.sol\":476:480  nums */\n      0x00\n        /* \"13_Array.sol\":481:482  2 */\n      0x02\n        /* \"13_Array.sol\":476:483  nums[2] */\n      dup2\n      sload\n      dup2\n      lt\n      tag_60\n      jumpi\n      tag_61\n      tag_58\n      jump\t// in\n    tag_61:\n    tag_60:\n      swap1\n      0x00\n      mstore\n      keccak256(0x00, 0x20)\n      add\n        /* \"13_Array.sol\":476:487  nums[2] = 6 */\n      dup2\n      swap1\n      sstore\n      pop\n        /* \"13_Array.sol\":580:584  nums */\n      0x00\n        /* \"13_Array.sol\":585:586  2 */\n      0x02\n        /* \"13_Array.sol\":580:587  nums[2] */\n      dup2\n      sload\n      dup2\n      lt\n      tag_63\n      jumpi\n      tag_64\n      tag_58\n      jump\t// in\n    tag_64:\n    tag_63:\n      swap1\n      0x00\n      mstore\n      keccak256(0x00, 0x20)\n      add\n        /* \"13_Array.sol\":573:587  delete nums[2] */\n      0x00\n      swap1\n      sstore\n        /* \"13_Array.sol\":612:616  nums */\n      0x00\n        /* \"13_Array.sol\":612:622  nums.pop() */\n      dup1\n      sload\n      dup1\n      tag_66\n      jumpi\n      tag_67\n      tag_68\n      jump\t// in\n    tag_67:\n    tag_66:\n      0x01\n      swap1\n      sub\n      dup2\n      dup2\n      swap1\n      0x00\n      mstore\n      keccak256(0x00, 0x20)\n      add\n      0x00\n      swap1\n      sstore\n      swap1\n      sstore\n        /* \"13_Array.sol\":645:653  uint len */\n      0x00\n        /* \"13_Array.sol\":656:660  nums */\n      dup1\n        /* \"13_Array.sol\":656:667  nums.length */\n      dup1\n      sload\n      swap1\n      pop\n        /* \"13_Array.sol\":645:667  uint len = nums.length */\n      swap1\n      pop\n        /* \"13_Array.sol\":745:764  uint[] memory mnums */\n      0x00\n        /* \"13_Array.sol\":778:779  5 */\n      0x05\n        /* \"13_Array.sol\":767:780  new uint[](5) */\n      0xffffffffffffffff\n      dup2\n      gt\n      iszero\n      tag_70\n      jumpi\n      tag_71\n      tag_72\n      jump\t// in\n    tag_71:\n    tag_70:\n      mload(0x40)\n      swap1\n      dup1\n      dup3\n      mstore\n      dup1\n      0x20\n      mul\n      0x20\n      add\n      dup3\n      add\n      0x40\n      mstore\n      dup1\n      iszero\n      tag_73\n      jumpi\n      dup2\n      0x20\n      add\n      0x20\n      dup3\n      mul\n      dup1\n      calldatasize\n      dup4\n      calldatacopy\n      dup1\n      dup3\n      add\n      swap2\n      pop\n      pop\n      swap1\n      pop\n    tag_73:\n      pop\n        /* \"13_Array.sol\":745:780  uint[] memory mnums = new uint[](5) */\n      swap1\n      pop\n        /* \"13_Array.sol\":836:838  10 */\n      0x0a\n        /* \"13_Array.sol\":825:830  mnums */\n      dup2\n        /* \"13_Array.sol\":831:832  1 */\n      0x01\n        /* \"13_Array.sol\":825:833  mnums[1] */\n      dup2\n      mload\n      dup2\n      lt\n      tag_74\n      jumpi\n      tag_75\n      tag_58\n      jump\t// in\n    tag_75:\n    tag_74:\n      0x20\n      mul\n      0x20\n      add\n      add\n        /* \"13_Array.sol\":825:838  mnums[1] = 10 */\n      dup2\n      dup2\n      mstore\n      pop\n      pop\n        /* \"13_Array.sol\":856:857  x */\n      dup3\n        /* \"13_Array.sol\":858:861  len */\n      dup3\n        /* \"13_Array.sol\":848:862  return (x,len) */\n      swap5\n      pop\n      swap5\n      pop\n      pop\n      pop\n      pop\n        /* \"13_Array.sol\":321:869  function example() external returns (uint,uint){... */\n      swap1\n      swap2\n      jump\t// out\n        /* \"13_Array.sol\":1292:1552  function removeArrayelement(uint _index) public  {... */\n    tag_33:\n        /* \"13_Array.sol\":1394:1398  nums */\n      0x00\n        /* \"13_Array.sol\":1394:1405  nums.length */\n      dup1\n      sload\n      swap1\n      pop\n        /* \"13_Array.sol\":1385:1391  _index */\n      dup2\n        /* \"13_Array.sol\":1385:1405  _index < nums.length */\n      lt\n        /* \"13_Array.sol\":1377:1429  require(_index < nums.length, \"_index out of bound\") */\n      tag_77\n      jumpi\n      mload(0x40)\n      0x08c379a000000000000000000000000000000000000000000000000000000000\n      dup2\n      mstore\n      0x04\n      add\n      tag_78\n      swap1\n      tag_79\n      jump\t// in\n    tag_78:\n      mload(0x40)\n      dup1\n      swap2\n      sub\n      swap1\n      revert\n    tag_77:\n        /* \"13_Array.sol\":1444:1450  uint i */\n      0x00\n        /* \"13_Array.sol\":1453:1459  _index */\n      dup2\n        /* \"13_Array.sol\":1444:1459  uint i = _index */\n      swap1\n      pop\n        /* \"13_Array.sol\":1440:1526  for(uint i = _index; i<nums.length-1; i++){... */\n    tag_80:\n        /* \"13_Array.sol\":1475:1476  1 */\n      0x01\n        /* \"13_Array.sol\":1463:1467  nums */\n      0x00\n        /* \"13_Array.sol\":1463:1474  nums.length */\n      dup1\n      sload\n      swap1\n      pop\n        /* \"13_Array.sol\":1463:1476  nums.length-1 */\n      tag_83\n      swap2\n      swap1\n      tag_84\n      jump\t// in\n    tag_83:\n        /* \"13_Array.sol\":1461:1462  i */\n      dup2\n        /* \"13_Array.sol\":1461:1476  i<nums.length-1 */\n      lt\n        /* \"13_Array.sol\":1440:1526  for(uint i = _index; i<nums.length-1; i++){... */\n      iszero\n      tag_81\n      jumpi\n        /* \"13_Array.sol\":1506:1510  nums */\n      0x00\n        /* \"13_Array.sol\":1513:1514  1 */\n      0x01\n        /* \"13_Array.sol\":1511:1512  i */\n      dup3\n        /* \"13_Array.sol\":1511:1514  i+1 */\n      tag_85\n      swap2\n      swap1\n      tag_86\n      jump\t// in\n    tag_85:\n        /* \"13_Array.sol\":1506:1515  nums[i+1] */\n      dup2\n      sload\n      dup2\n      lt\n      tag_87\n      jumpi\n      tag_88\n      tag_58\n      jump\t// in\n    tag_88:\n    tag_87:\n      swap1\n      0x00\n      mstore\n      keccak256(0x00, 0x20)\n      add\n      sload\n        /* \"13_Array.sol\":1496:1500  nums */\n      0x00\n        /* \"13_Array.sol\":1501:1502  i */\n      dup3\n        /* \"13_Array.sol\":1496:1503  nums[i] */\n      dup2\n      sload\n      dup2\n      lt\n      tag_90\n      jumpi\n      tag_91\n      tag_58\n      jump\t// in\n    tag_91:\n    tag_90:\n      swap1\n      0x00\n      mstore\n      keccak256(0x00, 0x20)\n      add\n        /* \"13_Array.sol\":1496:1515  nums[i] = nums[i+1] */\n      dup2\n      swap1\n      sstore\n      pop\n        /* \"13_Array.sol\":1478:1481  i++ */\n      dup1\n      dup1\n      tag_93\n      swap1\n      tag_94\n      jump\t// in\n    tag_93:\n      swap2\n      pop\n      pop\n        /* \"13_Array.sol\":1440:1526  for(uint i = _index; i<nums.length-1; i++){... */\n      jump(tag_80)\n    tag_81:\n      pop\n        /* \"13_Array.sol\":1535:1539  nums */\n      0x00\n        /* \"13_Array.sol\":1535:1545  nums.pop() */\n      dup1\n      sload\n      dup1\n      tag_95\n      jumpi\n      tag_96\n      tag_68\n      jump\t// in\n    tag_96:\n    tag_95:\n      0x01\n      swap1\n      sub\n      dup2\n      dup2\n      swap1\n      0x00\n      mstore\n      keccak256(0x00, 0x20)\n      add\n      0x00\n      swap1\n      sstore\n      swap1\n      sstore\n        /* \"13_Array.sol\":1292:1552  function removeArrayelement(uint _index) public  {... */\n      pop\n      jump\t// out\n        /* \"13_Array.sol\":252:270  uint[] public nums */\n    tag_36:\n      0x00\n      dup2\n      dup2\n      sload\n      dup2\n      lt\n      tag_98\n      jumpi\n      0x00\n      dup1\n      revert\n    tag_98:\n      swap1\n      0x00\n      mstore\n      keccak256(0x00, 0x20)\n      add\n      0x00\n      swap2\n      pop\n      swap1\n      pop\n      sload\n      dup2\n      jump\t// out\n    tag_39:\n      mload(0x40)\n      dup1\n      0x60\n      add\n      0x40\n      mstore\n      dup1\n      0x03\n      swap1\n      0x20\n      dup3\n      mul\n      dup1\n      calldatasize\n      dup4\n      calldatacopy\n      dup1\n      dup3\n      add\n      swap2\n      pop\n      pop\n      swap1\n      pop\n      pop\n      swap1\n      jump\t// out\n    tag_45:\n      dup3\n      dup1\n      sload\n      dup3\n      dup3\n      sstore\n      swap1\n      0x00\n      mstore\n      keccak256(0x00, 0x20)\n      swap1\n      dup2\n      add\n      swap3\n      dup3\n      iszero\n      tag_100\n      jumpi\n      swap2\n      0x20\n      mul\n      dup3\n      add\n    tag_101:\n      dup3\n      dup2\n      gt\n      iszero\n      tag_102\n      jumpi\n      dup3\n      mload\n      dup3\n      swap1\n      0xff\n      and\n      swap1\n      sstore\n      swap2\n      0x20\n      add\n      swap2\n      swap1\n      0x01\n      add\n      swap1\n      jump(tag_101)\n    tag_102:\n    tag_100:\n      pop\n      swap1\n      pop\n      tag_103\n      swap2\n      swap1\n      tag_104\n      jump\t// in\n    tag_103:\n      pop\n      swap1\n      jump\t// out\n    tag_54:\n      dup3\n      dup1\n      sload\n      dup3\n      dup3\n      sstore\n      swap1\n      0x00\n      mstore\n      keccak256(0x00, 0x20)\n      swap1\n      dup2\n      add\n      swap3\n      dup3\n      iszero\n      tag_105\n      jumpi\n      swap2\n      0x20\n      mul\n      dup3\n      add\n    tag_106:\n      dup3\n      dup2\n      gt\n      iszero\n      tag_107\n      jumpi\n      dup3\n      mload\n      dup3\n      swap1\n      0xff\n      and\n      swap1\n      sstore\n      swap2\n      0x20\n      add\n      swap2\n      swap1\n      0x01\n      add\n      swap1\n      jump(tag_106)\n    tag_107:\n    tag_105:\n      pop\n      swap1\n      pop\n      tag_108\n      swap2\n      swap1\n      tag_104\n      jump\t// in\n    tag_108:\n      pop\n      swap1\n      jump\t// out\n    tag_104:\n    tag_109:\n      dup1\n      dup3\n      gt\n      iszero\n      tag_110\n      jumpi\n      0x00\n      dup2\n      0x00\n      swap1\n      sstore\n      pop\n      0x01\n      add\n      jump(tag_109)\n    tag_110:\n      pop\n      swap1\n      jump\t// out\n        /* \"#utility.yul\":7:146   */\n    tag_112:\n        /* \"#utility.yul\":53:58   */\n      0x00\n        /* \"#utility.yul\":91:97   */\n      dup2\n        /* \"#utility.yul\":78:98   */\n      calldataload\n        /* \"#utility.yul\":69:98   */\n      swap1\n      pop\n        /* \"#utility.yul\":107:140   */\n      tag_114\n        /* \"#utility.yul\":134:139   */\n      dup2\n        /* \"#utility.yul\":107:140   */\n      tag_115\n      jump\t// in\n    tag_114:\n        /* \"#utility.yul\":7:146   */\n      swap3\n      swap2\n      pop\n      pop\n      jump\t// out\n        /* \"#utility.yul\":152:481   */\n    tag_23:\n        /* \"#utility.yul\":211:217   */\n      0x00\n        /* \"#utility.yul\":260:262   */\n      0x20\n        /* \"#utility.yul\":248:257   */\n      dup3\n        /* \"#utility.yul\":239:246   */\n      dup5\n        /* \"#utility.yul\":235:258   */\n      sub\n        /* \"#utility.yul\":231:263   */\n      slt\n        /* \"#utility.yul\":228:347   */\n      iszero\n      tag_117\n      jumpi\n        /* \"#utility.yul\":266:345   */\n      tag_118\n      tag_119\n      jump\t// in\n    tag_118:\n        /* \"#utility.yul\":228:347   */\n    tag_117:\n        /* \"#utility.yul\":386:387   */\n      0x00\n        /* \"#utility.yul\":411:464   */\n      tag_120\n        /* \"#utility.yul\":456:463   */\n      dup5\n        /* \"#utility.yul\":447:453   */\n      dup3\n        /* \"#utility.yul\":436:445   */\n      dup6\n        /* \"#utility.yul\":432:454   */\n      add\n        /* \"#utility.yul\":411:464   */\n      tag_112\n      jump\t// in\n    tag_120:\n        /* \"#utility.yul\":401:464   */\n      swap2\n      pop\n        /* \"#utility.yul\":357:474   */\n      pop\n        /* \"#utility.yul\":152:481   */\n      swap3\n      swap2\n      pop\n      pop\n      jump\t// out\n        /* \"#utility.yul\":487:666   */\n    tag_121:\n        /* \"#utility.yul\":556:566   */\n      0x00\n        /* \"#utility.yul\":577:623   */\n      tag_123\n        /* \"#utility.yul\":619:622   */\n      dup4\n        /* \"#utility.yul\":611:617   */\n      dup4\n        /* \"#utility.yul\":577:623   */\n      tag_124\n      jump\t// in\n    tag_123:\n        /* \"#utility.yul\":655:659   */\n      0x20\n        /* \"#utility.yul\":650:653   */\n      dup4\n        /* \"#utility.yul\":646:660   */\n      add\n        /* \"#utility.yul\":632:660   */\n      swap1\n      pop\n        /* \"#utility.yul\":487:666   */\n      swap3\n      swap2\n      pop\n      pop\n      jump\t// out\n        /* \"#utility.yul\":704:1398   */\n    tag_125:\n        /* \"#utility.yul\":840:892   */\n      tag_127\n        /* \"#utility.yul\":886:891   */\n      dup2\n        /* \"#utility.yul\":840:892   */\n      tag_128\n      jump\t// in\n    tag_127:\n        /* \"#utility.yul\":908:992   */\n      tag_129\n        /* \"#utility.yul\":985:991   */\n      dup2\n        /* \"#utility.yul\":980:983   */\n      dup5\n        /* \"#utility.yul\":908:992   */\n      tag_130\n      jump\t// in\n    tag_129:\n        /* \"#utility.yul\":901:992   */\n      swap3\n      pop\n        /* \"#utility.yul\":1016:1070   */\n      tag_131\n        /* \"#utility.yul\":1064:1069   */\n      dup3\n        /* \"#utility.yul\":1016:1070   */\n      tag_132\n      jump\t// in\n    tag_131:\n        /* \"#utility.yul\":1093:1100   */\n      dup1\n        /* \"#utility.yul\":1124:1125   */\n      0x00\n        /* \"#utility.yul\":1109:1391   */\n    tag_133:\n        /* \"#utility.yul\":1134:1140   */\n      dup4\n        /* \"#utility.yul\":1131:1132   */\n      dup2\n        /* \"#utility.yul\":1128:1141   */\n      lt\n        /* \"#utility.yul\":1109:1391   */\n      iszero\n      tag_135\n      jumpi\n        /* \"#utility.yul\":1210:1216   */\n      dup2\n        /* \"#utility.yul\":1204:1217   */\n      mload\n        /* \"#utility.yul\":1237:1300   */\n      tag_136\n        /* \"#utility.yul\":1296:1299   */\n      dup8\n        /* \"#utility.yul\":1281:1294   */\n      dup3\n        /* \"#utility.yul\":1237:1300   */\n      tag_121\n      jump\t// in\n    tag_136:\n        /* \"#utility.yul\":1230:1300   */\n      swap7\n      pop\n        /* \"#utility.yul\":1323:1381   */\n      tag_137\n        /* \"#utility.yul\":1374:1380   */\n      dup4\n        /* \"#utility.yul\":1323:1381   */\n      tag_138\n      jump\t// in\n    tag_137:\n        /* \"#utility.yul\":1313:1381   */\n      swap3\n      pop\n        /* \"#utility.yul\":1169:1391   */\n      pop\n        /* \"#utility.yul\":1156:1157   */\n      0x01\n        /* \"#utility.yul\":1153:1154   */\n      dup2\n        /* \"#utility.yul\":1149:1158   */\n      add\n        /* \"#utility.yul\":1144:1158   */\n      swap1\n      pop\n        /* \"#utility.yul\":1109:1391   */\n      jump(tag_133)\n    tag_135:\n        /* \"#utility.yul\":1113:1127   */\n      pop\n        /* \"#utility.yul\":816:1398   */\n      pop\n      pop\n      pop\n        /* \"#utility.yul\":704:1398   */\n      pop\n      pop\n      jump\t// out\n        /* \"#utility.yul\":1434:2166   */\n    tag_139:\n        /* \"#utility.yul\":1553:1556   */\n      0x00\n        /* \"#utility.yul\":1582:1636   */\n      tag_141\n        /* \"#utility.yul\":1630:1635   */\n      dup3\n        /* \"#utility.yul\":1582:1636   */\n      tag_142\n      jump\t// in\n    tag_141:\n        /* \"#utility.yul\":1652:1738   */\n      tag_143\n        /* \"#utility.yul\":1731:1737   */\n      dup2\n        /* \"#utility.yul\":1726:1729   */\n      dup6\n        /* \"#utility.yul\":1652:1738   */\n      tag_144\n      jump\t// in\n    tag_143:\n        /* \"#utility.yul\":1645:1738   */\n      swap4\n      pop\n        /* \"#utility.yul\":1762:1818   */\n      tag_145\n        /* \"#utility.yul\":1812:1817   */\n      dup4\n        /* \"#utility.yul\":1762:1818   */\n      tag_146\n      jump\t// in\n    tag_145:\n        /* \"#utility.yul\":1841:1848   */\n      dup1\n        /* \"#utility.yul\":1872:1873   */\n      0x00\n        /* \"#utility.yul\":1857:2141   */\n    tag_147:\n        /* \"#utility.yul\":1882:1888   */\n      dup4\n        /* \"#utility.yul\":1879:1880   */\n      dup2\n        /* \"#utility.yul\":1876:1889   */\n      lt\n        /* \"#utility.yul\":1857:2141   */\n      iszero\n      tag_149\n      jumpi\n        /* \"#utility.yul\":1958:1964   */\n      dup2\n        /* \"#utility.yul\":1952:1965   */\n      mload\n        /* \"#utility.yul\":1985:2048   */\n      tag_150\n        /* \"#utility.yul\":2044:2047   */\n      dup9\n        /* \"#utility.yul\":2029:2042   */\n      dup3\n        /* \"#utility.yul\":1985:2048   */\n      tag_121\n      jump\t// in\n    tag_150:\n        /* \"#utility.yul\":1978:2048   */\n      swap8\n      pop\n        /* \"#utility.yul\":2071:2131   */\n      tag_151\n        /* \"#utility.yul\":2124:2130   */\n      dup4\n        /* \"#utility.yul\":2071:2131   */\n      tag_152\n      jump\t// in\n    tag_151:\n        /* \"#utility.yul\":2061:2131   */\n      swap3\n      pop\n        /* \"#utility.yul\":1917:2141   */\n      pop\n        /* \"#utility.yul\":1904:1905   */\n      0x01\n        /* \"#utility.yul\":1901:1902   */\n      dup2\n        /* \"#utility.yul\":1897:1906   */\n      add\n        /* \"#utility.yul\":1892:1906   */\n      swap1\n      pop\n        /* \"#utility.yul\":1857:2141   */\n      jump(tag_147)\n    tag_149:\n        /* \"#utility.yul\":1861:1875   */\n      pop\n        /* \"#utility.yul\":2157:2160   */\n      dup6\n        /* \"#utility.yul\":2150:2160   */\n      swap4\n      pop\n        /* \"#utility.yul\":1558:2166   */\n      pop\n      pop\n      pop\n        /* \"#utility.yul\":1434:2166   */\n      swap3\n      swap2\n      pop\n      pop\n      jump\t// out\n        /* \"#utility.yul\":2172:2538   */\n    tag_153:\n        /* \"#utility.yul\":2314:2317   */\n      0x00\n        /* \"#utility.yul\":2335:2402   */\n      tag_155\n        /* \"#utility.yul\":2399:2401   */\n      0x13\n        /* \"#utility.yul\":2394:2397   */\n      dup4\n        /* \"#utility.yul\":2335:2402   */\n      tag_156\n      jump\t// in\n    tag_155:\n        /* \"#utility.yul\":2328:2402   */\n      swap2\n      pop\n        /* \"#utility.yul\":2411:2504   */\n      tag_157\n        /* \"#utility.yul\":2500:2503   */\n      dup3\n        /* \"#utility.yul\":2411:2504   */\n      tag_158\n      jump\t// in\n    tag_157:\n        /* \"#utility.yul\":2529:2531   */\n      0x20\n        /* \"#utility.yul\":2524:2527   */\n      dup3\n        /* \"#utility.yul\":2520:2532   */\n      add\n        /* \"#utility.yul\":2513:2532   */\n      swap1\n      pop\n        /* \"#utility.yul\":2172:2538   */\n      swap2\n      swap1\n      pop\n      jump\t// out\n        /* \"#utility.yul\":2544:2652   */\n    tag_124:\n        /* \"#utility.yul\":2621:2645   */\n      tag_160\n        /* \"#utility.yul\":2639:2644   */\n      dup2\n        /* \"#utility.yul\":2621:2645   */\n      tag_161\n      jump\t// in\n    tag_160:\n        /* \"#utility.yul\":2616:2619   */\n      dup3\n        /* \"#utility.yul\":2609:2646   */\n      mstore\n        /* \"#utility.yul\":2544:2652   */\n      pop\n      pop\n      jump\t// out\n        /* \"#utility.yul\":2658:2776   */\n    tag_162:\n        /* \"#utility.yul\":2745:2769   */\n      tag_164\n        /* \"#utility.yul\":2763:2768   */\n      dup2\n        /* \"#utility.yul\":2745:2769   */\n      tag_161\n      jump\t// in\n    tag_164:\n        /* \"#utility.yul\":2740:2743   */\n      dup3\n        /* \"#utility.yul\":2733:2770   */\n      mstore\n        /* \"#utility.yul\":2658:2776   */\n      pop\n      pop\n      jump\t// out\n        /* \"#utility.yul\":2782:3096   */\n    tag_14:\n        /* \"#utility.yul\":2921:2925   */\n      0x00\n        /* \"#utility.yul\":2959:2961   */\n      0x60\n        /* \"#utility.yul\":2948:2957   */\n      dup3\n        /* \"#utility.yul\":2944:2962   */\n      add\n        /* \"#utility.yul\":2936:2962   */\n      swap1\n      pop\n        /* \"#utility.yul\":2972:3089   */\n      tag_166\n        /* \"#utility.yul\":3086:3087   */\n      0x00\n        /* \"#utility.yul\":3075:3084   */\n      dup4\n        /* \"#utility.yul\":3071:3088   */\n      add\n        /* \"#utility.yul\":3062:3068   */\n      dup5\n        /* \"#utility.yul\":2972:3089   */\n      tag_125\n      jump\t// in\n    tag_166:\n        /* \"#utility.yul\":2782:3096   */\n      swap3\n      swap2\n      pop\n      pop\n      jump\t// out\n        /* \"#utility.yul\":3102:3475   */\n    tag_20:\n        /* \"#utility.yul\":3245:3249   */\n      0x00\n        /* \"#utility.yul\":3283:3285   */\n      0x20\n        /* \"#utility.yul\":3272:3281   */\n      dup3\n        /* \"#utility.yul\":3268:3286   */\n      add\n        /* \"#utility.yul\":3260:3286   */\n      swap1\n      pop\n        /* \"#utility.yul\":3332:3341   */\n      dup2\n        /* \"#utility.yul\":3326:3330   */\n      dup2\n        /* \"#utility.yul\":3322:3342   */\n      sub\n        /* \"#utility.yul\":3318:3319   */\n      0x00\n        /* \"#utility.yul\":3307:3316   */\n      dup4\n        /* \"#utility.yul\":3303:3320   */\n      add\n        /* \"#utility.yul\":3296:3343   */\n      mstore\n        /* \"#utility.yul\":3360:3468   */\n      tag_168\n        /* \"#utility.yul\":3463:3467   */\n      dup2\n        /* \"#utility.yul\":3454:3460   */\n      dup5\n        /* \"#utility.yul\":3360:3468   */\n      tag_139\n      jump\t// in\n    tag_168:\n        /* \"#utility.yul\":3352:3468   */\n      swap1\n      pop\n        /* \"#utility.yul\":3102:3475   */\n      swap3\n      swap2\n      pop\n      pop\n      jump\t// out\n        /* \"#utility.yul\":3481:3900   */\n    tag_79:\n        /* \"#utility.yul\":3647:3651   */\n      0x00\n        /* \"#utility.yul\":3685:3687   */\n      0x20\n        /* \"#utility.yul\":3674:3683   */\n      dup3\n        /* \"#utility.yul\":3670:3688   */\n      add\n        /* \"#utility.yul\":3662:3688   */\n      swap1\n      pop\n        /* \"#utility.yul\":3734:3743   */\n      dup2\n        /* \"#utility.yul\":3728:3732   */\n      dup2\n        /* \"#utility.yul\":3724:3744   */\n      sub\n        /* \"#utility.yul\":3720:3721   */\n      0x00\n        /* \"#utility.yul\":3709:3718   */\n      dup4\n        /* \"#utility.yul\":3705:3722   */\n      add\n        /* \"#utility.yul\":3698:3745   */\n      mstore\n        /* \"#utility.yul\":3762:3893   */\n      tag_170\n        /* \"#utility.yul\":3888:3892   */\n      dup2\n        /* \"#utility.yul\":3762:3893   */\n      tag_153\n      jump\t// in\n    tag_170:\n        /* \"#utility.yul\":3754:3893   */\n      swap1\n      pop\n        /* \"#utility.yul\":3481:3900   */\n      swap2\n      swap1\n      pop\n      jump\t// out\n        /* \"#utility.yul\":3906:4128   */\n    tag_26:\n        /* \"#utility.yul\":3999:4003   */\n      0x00\n        /* \"#utility.yul\":4037:4039   */\n      0x20\n        /* \"#utility.yul\":4026:4035   */\n      dup3\n        /* \"#utility.yul\":4022:4040   */\n      add\n        /* \"#utility.yul\":4014:4040   */\n      swap1\n      pop\n        /* \"#utility.yul\":4050:4121   */\n      tag_172\n        /* \"#utility.yul\":4118:4119   */\n      0x00\n        /* \"#utility.yul\":4107:4116   */\n      dup4\n        /* \"#utility.yul\":4103:4120   */\n      add\n        /* \"#utility.yul\":4094:4100   */\n      dup5\n        /* \"#utility.yul\":4050:4121   */\n      tag_162\n      jump\t// in\n    tag_172:\n        /* \"#utility.yul\":3906:4128   */\n      swap3\n      swap2\n      pop\n      pop\n      jump\t// out\n        /* \"#utility.yul\":4134:4466   */\n    tag_30:\n        /* \"#utility.yul\":4255:4259   */\n      0x00\n        /* \"#utility.yul\":4293:4295   */\n      0x40\n        /* \"#utility.yul\":4282:4291   */\n      dup3\n        /* \"#utility.yul\":4278:4296   */\n      add\n        /* \"#utility.yul\":4270:4296   */\n      swap1\n      pop\n        /* \"#utility.yul\":4306:4377   */\n      tag_174\n        /* \"#utility.yul\":4374:4375   */\n      0x00\n        /* \"#utility.yul\":4363:4372   */\n      dup4\n        /* \"#utility.yul\":4359:4376   */\n      add\n        /* \"#utility.yul\":4350:4356   */\n      dup6\n        /* \"#utility.yul\":4306:4377   */\n      tag_162\n      jump\t// in\n    tag_174:\n        /* \"#utility.yul\":4387:4459   */\n      tag_175\n        /* \"#utility.yul\":4455:4457   */\n      0x20\n        /* \"#utility.yul\":4444:4453   */\n      dup4\n        /* \"#utility.yul\":4440:4458   */\n      add\n        /* \"#utility.yul\":4431:4437   */\n      dup5\n        /* \"#utility.yul\":4387:4459   */\n      tag_162\n      jump\t// in\n    tag_175:\n        /* \"#utility.yul\":4134:4466   */\n      swap4\n      swap3\n      pop\n      pop\n      pop\n      jump\t// out\n        /* \"#utility.yul\":4553:4651   */\n    tag_132:\n        /* \"#utility.yul\":4618:4622   */\n      0x00\n        /* \"#utility.yul\":4641:4644   */\n      dup2\n        /* \"#utility.yul\":4633:4644   */\n      swap1\n      pop\n        /* \"#utility.yul\":4553:4651   */\n      swap2\n      swap1\n      pop\n      jump\t// out\n        /* \"#utility.yul\":4657:4789   */\n    tag_146:\n        /* \"#utility.yul\":4724:4728   */\n      0x00\n        /* \"#utility.yul\":4747:4750   */\n      dup2\n        /* \"#utility.yul\":4739:4750   */\n      swap1\n      pop\n        /* \"#utility.yul\":4777:4781   */\n      0x20\n        /* \"#utility.yul\":4772:4775   */\n      dup3\n        /* \"#utility.yul\":4768:4782   */\n      add\n        /* \"#utility.yul\":4760:4782   */\n      swap1\n      pop\n        /* \"#utility.yul\":4657:4789   */\n      swap2\n      swap1\n      pop\n      jump\t// out\n        /* \"#utility.yul\":4795:4899   */\n    tag_128:\n        /* \"#utility.yul\":4860:4866   */\n      0x00\n        /* \"#utility.yul\":4888:4892   */\n      0x03\n        /* \"#utility.yul\":4878:4892   */\n      swap1\n      pop\n        /* \"#utility.yul\":4795:4899   */\n      swap2\n      swap1\n      pop\n      jump\t// out\n        /* \"#utility.yul\":4905:5019   */\n    tag_142:\n        /* \"#utility.yul\":4972:4978   */\n      0x00\n        /* \"#utility.yul\":5006:5011   */\n      dup2\n        /* \"#utility.yul\":5000:5012   */\n      mload\n        /* \"#utility.yul\":4990:5012   */\n      swap1\n      pop\n        /* \"#utility.yul\":4905:5019   */\n      swap2\n      swap1\n      pop\n      jump\t// out\n        /* \"#utility.yul\":5025:5136   */\n    tag_138:\n        /* \"#utility.yul\":5093:5097   */\n      0x00\n        /* \"#utility.yul\":5125:5129   */\n      0x20\n        /* \"#utility.yul\":5120:5123   */\n      dup3\n        /* \"#utility.yul\":5116:5130   */\n      add\n        /* \"#utility.yul\":5108:5130   */\n      swap1\n      pop\n        /* \"#utility.yul\":5025:5136   */\n      swap2\n      swap1\n      pop\n      jump\t// out\n        /* \"#utility.yul\":5142:5255   */\n    tag_152:\n        /* \"#utility.yul\":5212:5216   */\n      0x00\n        /* \"#utility.yul\":5244:5248   */\n      0x20\n        /* \"#utility.yul\":5239:5242   */\n      dup3\n        /* \"#utility.yul\":5235:5249   */\n      add\n        /* \"#utility.yul\":5227:5249   */\n      swap1\n      pop\n        /* \"#utility.yul\":5142:5255   */\n      swap2\n      swap1\n      pop\n      jump\t// out\n        /* \"#utility.yul\":5261:5404   */\n    tag_130:\n        /* \"#utility.yul\":5358:5369   */\n      0x00\n        /* \"#utility.yul\":5395:5398   */\n      dup2\n        /* \"#utility.yul\":5380:5398   */\n      swap1\n      pop\n        /* \"#utility.yul\":5261:5404   */\n      swap3\n      swap2\n      pop\n      pop\n      jump\t// out\n        /* \"#utility.yul\":5410:5594   */\n    tag_144:\n        /* \"#utility.yul\":5509:5520   */\n      0x00\n        /* \"#utility.yul\":5543:5549   */\n      dup3\n        /* \"#utility.yul\":5538:5541   */\n      dup3\n        /* \"#utility.yul\":5531:5550   */\n      mstore\n        /* \"#utility.yul\":5583:5587   */\n      0x20\n        /* \"#utility.yul\":5578:5581   */\n      dup3\n        /* \"#utility.yul\":5574:5588   */\n      add\n        /* \"#utility.yul\":5559:5588   */\n      swap1\n      pop\n        /* \"#utility.yul\":5410:5594   */\n      swap3\n      swap2\n      pop\n      pop\n      jump\t// out\n        /* \"#utility.yul\":5600:5769   */\n    tag_156:\n        /* \"#utility.yul\":5684:5695   */\n      0x00\n        /* \"#utility.yul\":5718:5724   */\n      dup3\n        /* \"#utility.yul\":5713:5716   */\n      dup3\n        /* \"#utility.yul\":5706:5725   */\n      mstore\n        /* \"#utility.yul\":5758:5762   */\n      0x20\n        /* \"#utility.yul\":5753:5756   */\n      dup3\n        /* \"#utility.yul\":5749:5763   */\n      add\n        /* \"#utility.yul\":5734:5763   */\n      swap1\n      pop\n        /* \"#utility.yul\":5600:5769   */\n      swap3\n      swap2\n      pop\n      pop\n      jump\t// out\n        /* \"#utility.yul\":5775:6080   */\n    tag_86:\n        /* \"#utility.yul\":5815:5818   */\n      0x00\n        /* \"#utility.yul\":5834:5854   */\n      tag_188\n        /* \"#utility.yul\":5852:5853   */\n      dup3\n        /* \"#utility.yul\":5834:5854   */\n      tag_161\n      jump\t// in\n    tag_188:\n        /* \"#utility.yul\":5829:5854   */\n      swap2\n      pop\n        /* \"#utility.yul\":5868:5888   */\n      tag_189\n        /* \"#utility.yul\":5886:5887   */\n      dup4\n        /* \"#utility.yul\":5868:5888   */\n      tag_161\n      jump\t// in\n    tag_189:\n        /* \"#utility.yul\":5863:5888   */\n      swap3\n      pop\n        /* \"#utility.yul\":6022:6023   */\n      dup3\n        /* \"#utility.yul\":5954:6020   */\n      0xffffffffffffffffffffffffffffffffffffffffffffffffffffffffffffffff\n        /* \"#utility.yul\":5950:6024   */\n      sub\n        /* \"#utility.yul\":5947:5948   */\n      dup3\n        /* \"#utility.yul\":5944:6025   */\n      gt\n        /* \"#utility.yul\":5941:6048   */\n      iszero\n      tag_190\n      jumpi\n        /* \"#utility.yul\":6028:6046   */\n      tag_191\n      tag_192\n      jump\t// in\n    tag_191:\n        /* \"#utility.yul\":5941:6048   */\n    tag_190:\n        /* \"#utility.yul\":6072:6073   */\n      dup3\n        /* \"#utility.yul\":6069:6070   */\n      dup3\n        /* \"#utility.yul\":6065:6074   */\n      add\n        /* \"#utility.yul\":6058:6074   */\n      swap1\n      pop\n        /* \"#utility.yul\":5775:6080   */\n      swap3\n      swap2\n      pop\n      pop\n      jump\t// out\n        /* \"#utility.yul\":6086:6277   */\n    tag_84:\n        /* \"#utility.yul\":6126:6130   */\n      0x00\n        /* \"#utility.yul\":6146:6166   */\n      tag_194\n        /* \"#utility.yul\":6164:6165   */\n      dup3\n        /* \"#utility.yul\":6146:6166   */\n      tag_161\n      jump\t// in\n    tag_194:\n        /* \"#utility.yul\":6141:6166   */\n      swap2\n      pop\n        /* \"#utility.yul\":6180:6200   */\n      tag_195\n        /* \"#utility.yul\":6198:6199   */\n      dup4\n        /* \"#utility.yul\":6180:6200   */\n      tag_161\n      jump\t// in\n    tag_195:\n        /* \"#utility.yul\":6175:6200   */\n      swap3\n      pop\n        /* \"#utility.yul\":6219:6220   */\n      dup3\n        /* \"#utility.yul\":6216:6217   */\n      dup3\n        /* \"#utility.yul\":6213:6221   */\n      lt\n        /* \"#utility.yul\":6210:6244   */\n      iszero\n      tag_196\n      jumpi\n        /* \"#utility.yul\":6224:6242   */\n      tag_197\n      tag_192\n      jump\t// in\n    tag_197:\n        /* \"#utility.yul\":6210:6244   */\n    tag_196:\n        /* \"#utility.yul\":6269:6270   */\n      dup3\n        /* \"#utility.yul\":6266:6267   */\n      dup3\n        /* \"#utility.yul\":6262:6271   */\n      sub\n        /* \"#utility.yul\":6254:6271   */\n      swap1\n      pop\n        /* \"#utility.yul\":6086:6277   */\n      swap3\n      swap2\n      pop\n      pop\n      jump\t// out\n        /* \"#utility.yul\":6283:6360   */\n    tag_161:\n        /* \"#utility.yul\":6320:6327   */\n      0x00\n        /* \"#utility.yul\":6349:6354   */\n      dup2\n        /* \"#utility.yul\":6338:6354   */\n      swap1\n      pop\n        /* \"#utility.yul\":6283:6360   */\n      swap2\n      swap1\n      pop\n      jump\t// out\n        /* \"#utility.yul\":6366:6599   */\n    tag_94:\n        /* \"#utility.yul\":6405:6408   */\n      0x00\n        /* \"#utility.yul\":6428:6452   */\n      tag_200\n        /* \"#utility.yul\":6446:6451   */\n      dup3\n        /* \"#utility.yul\":6428:6452   */\n      tag_161\n      jump\t// in\n    tag_200:\n        /* \"#utility.yul\":6419:6452   */\n      swap2\n      pop\n        /* \"#utility.yul\":6474:6540   */\n      0xffffffffffffffffffffffffffffffffffffffffffffffffffffffffffffffff\n        /* \"#utility.yul\":6467:6472   */\n      dup3\n        /* \"#utility.yul\":6464:6541   */\n      eq\n        /* \"#utility.yul\":6461:6564   */\n      iszero\n      tag_201\n      jumpi\n        /* \"#utility.yul\":6544:6562   */\n      tag_202\n      tag_192\n      jump\t// in\n    tag_202:\n        /* \"#utility.yul\":6461:6564   */\n    tag_201:\n        /* \"#utility.yul\":6591:6592   */\n      0x01\n        /* \"#utility.yul\":6584:6589   */\n      dup3\n        /* \"#utility.yul\":6580:6593   */\n      add\n        /* \"#utility.yul\":6573:6593   */\n      swap1\n      pop\n        /* \"#utility.yul\":6366:6599   */\n      swap2\n      swap1\n      pop\n      jump\t// out\n        /* \"#utility.yul\":6605:6785   */\n    tag_192:\n        /* \"#utility.yul\":6653:6730   */\n      0x4e487b7100000000000000000000000000000000000000000000000000000000\n        /* \"#utility.yul\":6650:6651   */\n      0x00\n        /* \"#utility.yul\":6643:6731   */\n      mstore\n        /* \"#utility.yul\":6750:6754   */\n      0x11\n        /* \"#utility.yul\":6747:6748   */\n      0x04\n        /* \"#utility.yul\":6740:6755   */\n      mstore\n        /* \"#utility.yul\":6774:6778   */\n      0x24\n        /* \"#utility.yul\":6771:6772   */\n      0x00\n        /* \"#utility.yul\":6764:6779   */\n      revert\n        /* \"#utility.yul\":6791:6971   */\n    tag_68:\n        /* \"#utility.yul\":6839:6916   */\n      0x4e487b7100000000000000000000000000000000000000000000000000000000\n        /* \"#utility.yul\":6836:6837   */\n      0x00\n        /* \"#utility.yul\":6829:6917   */\n      mstore\n        /* \"#utility.yul\":6936:6940   */\n      0x31\n        /* \"#utility.yul\":6933:6934   */\n      0x04\n        /* \"#utility.yul\":6926:6941   */\n      mstore\n        /* \"#utility.yul\":6960:6964   */\n      0x24\n        /* \"#utility.yul\":6957:6958   */\n      0x00\n        /* \"#utility.yul\":6950:6965   */\n      revert\n        /* \"#utility.yul\":6977:7157   */\n    tag_58:\n        /* \"#utility.yul\":7025:7102   */\n      0x4e487b7100000000000000000000000000000000000000000000000000000000\n        /* \"#utility.yul\":7022:7023   */\n      0x00\n        /* \"#utility.yul\":7015:7103   */\n      mstore\n        /* \"#utility.yul\":7122:7126   */\n      0x32\n        /* \"#utility.yul\":7119:7120   */\n      0x04\n        /* \"#utility.yul\":7112:7127   */\n      mstore\n        /* \"#utility.yul\":7146:7150   */\n      0x24\n        /* \"#utility.yul\":7143:7144   */\n      0x00\n        /* \"#utility.yul\":7136:7151   */\n      revert\n        /* \"#utility.yul\":7163:7343   */\n    tag_72:\n        /* \"#utility.yul\":7211:7288   */\n      0x4e487b7100000000000000000000000000000000000000000000000000000000\n        /* \"#utility.yul\":7208:7209   */\n      0x00\n        /* \"#utility.yul\":7201:7289   */\n      mstore\n        /* \"#utility.yul\":7308:7312   */\n      0x41\n        /* \"#utility.yul\":7305:7306   */\n      0x04\n        /* \"#utility.yul\":7298:7313   */\n      mstore\n        /* \"#utility.yul\":7332:7336   */\n      0x24\n        /* \"#utility.yul\":7329:7330   */\n      0x00\n        /* \"#utility.yul\":7322:7337   */\n      revert\n        /* \"#utility.yul\":7472:7589   */\n    tag_119:\n        /* \"#utility.yul\":7581:7582   */\n      0x00\n        /* \"#utility.yul\":7578:7579   */\n      dup1\n        /* \"#utility.yul\":7571:7583   */\n      revert\n        /* \"#utility.yul\":7595:7764   */\n    tag_158:\n        /* \"#utility.yul\":7735:7756   */\n      0x5f696e646578206f7574206f6620626f756e6400000000000000000000000000\n        /* \"#utility.yul\":7731:7732   */\n      0x00\n        /* \"#utility.yul\":7723:7729   */\n      dup3\n        /* \"#utility.yul\":7719:7733   */\n      add\n        /* \"#utility.yul\":7712:7757   */\n      mstore\n        /* \"#utility.yul\":7595:7764   */\n      pop\n      jump\t// out\n        /* \"#utility.yul\":7770:7892   */\n    tag_115:\n        /* \"#utility.yul\":7843:7867   */\n      tag_212\n        /* \"#utility.yul\":7861:7866   */\n      dup2\n        /* \"#utility.yul\":7843:7867   */\n      tag_161\n      jump\t// in\n    tag_212:\n        /* \"#utility.yul\":7836:7841   */\n      dup2\n        /* \"#utility.yul\":7833:7868   */\n      eq\n        /* \"#utility.yul\":7823:7886   */\n      tag_213\n      jumpi\n        /* \"#utility.yul\":7882:7883   */\n      0x00\n        /* \"#utility.yul\":7879:7880   */\n      dup1\n        /* \"#utility.yul\":7872:7884   */\n      revert\n        /* \"#utility.yul\":7823:7886   */\n    tag_213:\n        /* \"#utility.yul\":7770:7892   */\n      pop\n      jump\t// out\n\n    auxdata: 0xa2646970667358221220dfe7131bc3a4d2271d4f217994e557d4b01ef0c83e80e39ff7fdb1838c42913a64736f6c63430008070033\n}\n",
				"bytecode": {
					"linkReferences": {},
					"object": "60806040526040518060600160405280600160ff168152602001600260ff168152602001600360ff16815250600190600361003b92919061004e565b5034801561004857600080fd5b506100b0565b8260038101928215610082579160200282015b82811115610081578251829060ff16905591602001919060010190610061565b5b50905061008f9190610093565b5090565b5b808211156100ac576000816000905550600101610094565b5090565b610a80806100bf6000396000f3fe608060405234801561001057600080fd5b506004361061007d5760003560e01c8063443957691161005b57806344395769146100c857806354353f2f146100f8578063c937339614610117578063fd1ee54c146101335761007d565b8063315a6c891461008257806339cfea4a146100a05780633cac14c8146100aa575b600080fd5b61008a610163565b6040516100979190610754565b60405180910390f35b6100a86101ae565b005b6100b2610210565b6040516100bf919061076f565b60405180910390f35b6100e260048036038101906100dd9190610619565b610268565b6040516100ef91906107b1565b60405180910390f35b610100610283565b60405161010e9291906107cc565b60405180910390f35b610131600480360381019061012c9190610619565b61040b565b005b61014d60048036038101906101489190610619565b6104fd565b60405161015a91906107b1565b60405180910390f35b61016b610521565b60016003806020026040519081016040528092919082600380156101a4576020028201915b815481526020019060010190808311610190575b5050505050905090565b6040518060c00160405280600160ff168152602001600260ff168152602001600360ff168152602001600460ff168152602001600560ff168152602001600660ff168152506000906006610203929190610543565b5061020e600161040b565b565b6060600080548060200260200160405190810160405280929190818152602001828054801561025e57602002820191906000526020600020905b81548152602001906001019080831161024a575b5050505050905090565b6001816003811061027857600080fd5b016000915090505481565b6000806040518060800160405280600160ff168152602001600260ff168152602001600360ff168152602001600460ff1681525060009060046102c7929190610595565b50600060059080600181540180825580915050600190039060005260206000200160009091909190915055600080600181548110610308576103076109a7565b5b906000526020600020015490506006600060028154811061032c5761032b6109a7565b5b9060005260206000200181905550600060028154811061034f5761034e6109a7565b5b9060005260206000200160009055600080548061036f5761036e610978565b5b600190038181906000526020600020016000905590556000808054905090506000600567ffffffffffffffff8111156103ab576103aa6109d6565b5b6040519080825280602002602001820160405280156103d95781602001602082028036833780820191505090505b509050600a816001815181106103f2576103f16109a7565b5b6020026020010181815250508282945094505050509091565b6000805490508110610452576040517f08c379a000000000000000000000000000000000000000000000000000000000815260040161044990610791565b60405180910390fd5b60008190505b600160008054905061046a91906108c2565b8110156104d1576000600182610480919061086c565b81548110610491576104906109a7565b5b9060005260206000200154600082815481106104b0576104af6109a7565b5b906000526020600020018190555080806104c990610900565b915050610458565b5060008054806104e4576104e3610978565b5b6001900381819060005260206000200160009055905550565b6000818154811061050d57600080fd5b906000526020600020016000915090505481565b6040518060600160405280600390602082028036833780820191505090505090565b828054828255906000526020600020908101928215610584579160200282015b82811115610583578251829060ff16905591602001919060010190610563565b5b50905061059191906105e7565b5090565b8280548282559060005260206000209081019282156105d6579160200282015b828111156105d5578251829060ff169055916020019190600101906105b5565b5b5090506105e391906105e7565b5090565b5b808211156106005760008160009055506001016105e8565b5090565b60008135905061061381610a33565b92915050565b60006020828403121561062f5761062e610a05565b5b600061063d84828501610604565b91505092915050565b60006106528383610736565b60208301905092915050565b6106678161080f565b610671818461083f565b925061067c826107f5565b8060005b838110156106ad5781516106948782610646565b965061069f83610825565b925050600181019050610680565b505050505050565b60006106c08261081a565b6106ca818561084a565b93506106d5836107ff565b8060005b838110156107065781516106ed8882610646565b97506106f883610832565b9250506001810190506106d9565b5085935050505092915050565b600061072060138361085b565b915061072b82610a0a565b602082019050919050565b61073f816108f6565b82525050565b61074e816108f6565b82525050565b6000606082019050610769600083018461065e565b92915050565b6000602082019050818103600083015261078981846106b5565b905092915050565b600060208201905081810360008301526107aa81610713565b9050919050565b60006020820190506107c66000830184610745565b92915050565b60006040820190506107e16000830185610745565b6107ee6020830184610745565b9392505050565b6000819050919050565b6000819050602082019050919050565b600060039050919050565b600081519050919050565b6000602082019050919050565b6000602082019050919050565b600081905092915050565b600082825260208201905092915050565b600082825260208201905092915050565b6000610877826108f6565b9150610882836108f6565b9250827fffffffffffffffffffffffffffffffffffffffffffffffffffffffffffffffff038211156108b7576108b6610949565b5b828201905092915050565b60006108cd826108f6565b91506108d8836108f6565b9250828210156108eb576108ea610949565b5b828203905092915050565b6000819050919050565b600061090b826108f6565b91507fffffffffffffffffffffffffffffffffffffffffffffffffffffffffffffffff82141561093e5761093d610949565b5b600182019050919050565b7f4e487b7100000000000000000000000000000000000000000000000000000000600052601160045260246000fd5b7f4e487b7100000000000000000000000000000000000000000000000000000000600052603160045260246000fd5b7f4e487b7100000000000000000000000000000000000000000000000000000000600052603260045260246000fd5b7f4e487b7100000000000000000000000000000000000000000000000000000000600052604160045260246000fd5b600080fd5b7f5f696e646578206f7574206f6620626f756e6400000000000000000000000000600082015250565b610a3c816108f6565b8114610a4757600080fd5b5056fea2646970667358221220dfe7131bc3a4d2271d4f217994e557d4b01ef0c83e80e39ff7fdb1838c42913a64736f6c63430008070033",
					"opcodes": "PUSH1 0x80 PUSH1 0x40 MSTORE PUSH1 0x40 MLOAD DUP1 PUSH1 0x60 ADD PUSH1 0x40 MSTORE DUP1 PUSH1 0x1 PUSH1 0xFF AND DUP2 MSTORE PUSH1 0x20 ADD PUSH1 0x2 PUSH1 0xFF AND DUP2 MSTORE PUSH1 0x20 ADD PUSH1 0x3 PUSH1 0xFF AND DUP2 MSTORE POP PUSH1 0x1 SWAP1 PUSH1 0x3 PUSH2 0x3B SWAP3 SWAP2 SWAP1 PUSH2 0x4E JUMP JUMPDEST POP CALLVALUE DUP1 ISZERO PUSH2 0x48 JUMPI PUSH1 0x0 DUP1 REVERT JUMPDEST POP PUSH2 0xB0 JUMP JUMPDEST DUP3 PUSH1 0x3 DUP2 ADD SWAP3 DUP3 ISZERO PUSH2 0x82 JUMPI SWAP2 PUSH1 0x20 MUL DUP3 ADD JUMPDEST DUP3 DUP2 GT ISZERO PUSH2 0x81 JUMPI DUP3 MLOAD DUP3 SWAP1 PUSH1 0xFF AND SWAP1 SSTORE SWAP2 PUSH1 0x20 ADD SWAP2 SWAP1 PUSH1 0x1 ADD SWAP1 PUSH2 0x61 JUMP JUMPDEST JUMPDEST POP SWAP1 POP PUSH2 0x8F SWAP2 SWAP1 PUSH2 0x93 JUMP JUMPDEST POP SWAP1 JUMP JUMPDEST JUMPDEST DUP1 DUP3 GT ISZERO PUSH2 0xAC JUMPI PUSH1 0x0 DUP2 PUSH1 0x0 SWAP1 SSTORE POP PUSH1 0x1 ADD PUSH2 0x94 JUMP JUMPDEST POP SWAP1 JUMP JUMPDEST PUSH2 0xA80 DUP1 PUSH2 0xBF PUSH1 0x0 CODECOPY PUSH1 0x0 RETURN INVALID PUSH1 0x80 PUSH1 0x40 MSTORE CALLVALUE DUP1 ISZERO PUSH2 0x10 JUMPI PUSH1 0x0 DUP1 REVERT JUMPDEST POP PUSH1 0x4 CALLDATASIZE LT PUSH2 0x7D JUMPI PUSH1 0x0 CALLDATALOAD PUSH1 0xE0 SHR DUP1 PUSH4 0x44395769 GT PUSH2 0x5B JUMPI DUP1 PUSH4 0x44395769 EQ PUSH2 0xC8 JUMPI DUP1 PUSH4 0x54353F2F EQ PUSH2 0xF8 JUMPI DUP1 PUSH4 0xC9373396 EQ PUSH2 0x117 JUMPI DUP1 PUSH4 0xFD1EE54C EQ PUSH2 0x133 JUMPI PUSH2 0x7D JUMP JUMPDEST DUP1 PUSH4 0x315A6C89 EQ PUSH2 0x82 JUMPI DUP1 PUSH4 0x39CFEA4A EQ PUSH2 0xA0 JUMPI DUP1 PUSH4 0x3CAC14C8 EQ PUSH2 0xAA JUMPI JUMPDEST PUSH1 0x0 DUP1 REVERT JUMPDEST PUSH2 0x8A PUSH2 0x163 JUMP JUMPDEST PUSH1 0x40 MLOAD PUSH2 0x97 SWAP2 SWAP1 PUSH2 0x754 JUMP JUMPDEST PUSH1 0x40 MLOAD DUP1 SWAP2 SUB SWAP1 RETURN JUMPDEST PUSH2 0xA8 PUSH2 0x1AE JUMP JUMPDEST STOP JUMPDEST PUSH2 0xB2 PUSH2 0x210 JUMP JUMPDEST PUSH1 0x40 MLOAD PUSH2 0xBF SWAP2 SWAP1 PUSH2 0x76F JUMP JUMPDEST PUSH1 0x40 MLOAD DUP1 SWAP2 SUB SWAP1 RETURN JUMPDEST PUSH2 0xE2 PUSH1 0x4 DUP1 CALLDATASIZE SUB DUP2 ADD SWAP1 PUSH2 0xDD SWAP2 SWAP1 PUSH2 0x619 JUMP JUMPDEST PUSH2 0x268 JUMP JUMPDEST PUSH1 0x40 MLOAD PUSH2 0xEF SWAP2 SWAP1 PUSH2 0x7B1 JUMP JUMPDEST PUSH1 0x40 MLOAD DUP1 SWAP2 SUB SWAP1 RETURN JUMPDEST PUSH2 0x100 PUSH2 0x283 JUMP JUMPDEST PUSH1 0x40 MLOAD PUSH2 0x10E SWAP3 SWAP2 SWAP1 PUSH2 0x7CC JUMP JUMPDEST PUSH1 0x40 MLOAD DUP1 SWAP2 SUB SWAP1 RETURN JUMPDEST PUSH2 0x131 PUSH1 0x4 DUP1 CALLDATASIZE SUB DUP2 ADD SWAP1 PUSH2 0x12C SWAP2 SWAP1 PUSH2 0x619 JUMP JUMPDEST PUSH2 0x40B JUMP JUMPDEST STOP JUMPDEST PUSH2 0x14D PUSH1 0x4 DUP1 CALLDATASIZE SUB DUP2 ADD SWAP1 PUSH2 0x148 SWAP2 SWAP1 PUSH2 0x619 JUMP JUMPDEST PUSH2 0x4FD JUMP JUMPDEST PUSH1 0x40 MLOAD PUSH2 0x15A SWAP2 SWAP1 PUSH2 0x7B1 JUMP JUMPDEST PUSH1 0x40 MLOAD DUP1 SWAP2 SUB SWAP1 RETURN JUMPDEST PUSH2 0x16B PUSH2 0x521 JUMP JUMPDEST PUSH1 0x1 PUSH1 0x3 DUP1 PUSH1 0x20 MUL PUSH1 0x40 MLOAD SWAP1 DUP2 ADD PUSH1 0x40 MSTORE DUP1 SWAP3 SWAP2 SWAP1 DUP3 PUSH1 0x3 DUP1 ISZERO PUSH2 0x1A4 JUMPI PUSH1 0x20 MUL DUP3 ADD SWAP2 JUMPDEST DUP2 SLOAD DUP2 MSTORE PUSH1 0x20 ADD SWAP1 PUSH1 0x1 ADD SWAP1 DUP1 DUP4 GT PUSH2 0x190 JUMPI JUMPDEST POP POP POP POP POP SWAP1 POP SWAP1 JUMP JUMPDEST PUSH1 0x40 MLOAD DUP1 PUSH1 0xC0 ADD PUSH1 0x40 MSTORE DUP1 PUSH1 0x1 PUSH1 0xFF AND DUP2 MSTORE PUSH1 0x20 ADD PUSH1 0x2 PUSH1 0xFF AND DUP2 MSTORE PUSH1 0x20 ADD PUSH1 0x3 PUSH1 0xFF AND DUP2 MSTORE PUSH1 0x20 ADD PUSH1 0x4 PUSH1 0xFF AND DUP2 MSTORE PUSH1 0x20 ADD PUSH1 0x5 PUSH1 0xFF AND DUP2 MSTORE PUSH1 0x20 ADD PUSH1 0x6 PUSH1 0xFF AND DUP2 MSTORE POP PUSH1 0x0 SWAP1 PUSH1 0x6 PUSH2 0x203 SWAP3 SWAP2 SWAP1 PUSH2 0x543 JUMP JUMPDEST POP PUSH2 0x20E PUSH1 0x1 PUSH2 0x40B JUMP JUMPDEST JUMP JUMPDEST PUSH1 0x60 PUSH1 0x0 DUP1 SLOAD DUP1 PUSH1 0x20 MUL PUSH1 0x20 ADD PUSH1 0x40 MLOAD SWAP1 DUP2 ADD PUSH1 0x40 MSTORE DUP1 SWAP3 SWAP2 SWAP1 DUP2 DUP2 MSTORE PUSH1 0x20 ADD DUP3 DUP1 SLOAD DUP1 ISZERO PUSH2 0x25E JUMPI PUSH1 0x20 MUL DUP3 ADD SWAP2 SWAP1 PUSH1 0x0 MSTORE PUSH1 0x20 PUSH1 0x0 KECCAK256 SWAP1 JUMPDEST DUP2 SLOAD DUP2 MSTORE PUSH1 0x20 ADD SWAP1 PUSH1 0x1 ADD SWAP1 DUP1 DUP4 GT PUSH2 0x24A JUMPI JUMPDEST POP POP POP POP POP SWAP1 POP SWAP1 JUMP JUMPDEST PUSH1 0x1 DUP2 PUSH1 0x3 DUP2 LT PUSH2 0x278 JUMPI PUSH1 0x0 DUP1 REVERT JUMPDEST ADD PUSH1 0x0 SWAP2 POP SWAP1 POP SLOAD DUP2 JUMP JUMPDEST PUSH1 0x0 DUP1 PUSH1 0x40 MLOAD DUP1 PUSH1 0x80 ADD PUSH1 0x40 MSTORE DUP1 PUSH1 0x1 PUSH1 0xFF AND DUP2 MSTORE PUSH1 0x20 ADD PUSH1 0x2 PUSH1 0xFF AND DUP2 MSTORE PUSH1 0x20 ADD PUSH1 0x3 PUSH1 0xFF AND DUP2 MSTORE PUSH1 0x20 ADD PUSH1 0x4 PUSH1 0xFF AND DUP2 MSTORE POP PUSH1 0x0 SWAP1 PUSH1 0x4 PUSH2 0x2C7 SWAP3 SWAP2 SWAP1 PUSH2 0x595 JUMP JUMPDEST POP PUSH1 0x0 PUSH1 0x5 SWAP1 DUP1 PUSH1 0x1 DUP2 SLOAD ADD DUP1 DUP3 SSTORE DUP1 SWAP2 POP POP PUSH1 0x1 SWAP1 SUB SWAP1 PUSH1 0x0 MSTORE PUSH1 0x20 PUSH1 0x0 KECCAK256 ADD PUSH1 0x0 SWAP1 SWAP2 SWAP1 SWAP2 SWAP1 SWAP2 POP SSTORE PUSH1 0x0 DUP1 PUSH1 0x1 DUP2 SLOAD DUP2 LT PUSH2 0x308 JUMPI PUSH2 0x307 PUSH2 0x9A7 JUMP JUMPDEST JUMPDEST SWAP1 PUSH1 0x0 MSTORE PUSH1 0x20 PUSH1 0x0 KECCAK256 ADD SLOAD SWAP1 POP PUSH1 0x6 PUSH1 0x0 PUSH1 0x2 DUP2 SLOAD DUP2 LT PUSH2 0x32C JUMPI PUSH2 0x32B PUSH2 0x9A7 JUMP JUMPDEST JUMPDEST SWAP1 PUSH1 0x0 MSTORE PUSH1 0x20 PUSH1 0x0 KECCAK256 ADD DUP2 SWAP1 SSTORE POP PUSH1 0x0 PUSH1 0x2 DUP2 SLOAD DUP2 LT PUSH2 0x34F JUMPI PUSH2 0x34E PUSH2 0x9A7 JUMP JUMPDEST JUMPDEST SWAP1 PUSH1 0x0 MSTORE PUSH1 0x20 PUSH1 0x0 KECCAK256 ADD PUSH1 0x0 SWAP1 SSTORE PUSH1 0x0 DUP1 SLOAD DUP1 PUSH2 0x36F JUMPI PUSH2 0x36E PUSH2 0x978 JUMP JUMPDEST JUMPDEST PUSH1 0x1 SWAP1 SUB DUP2 DUP2 SWAP1 PUSH1 0x0 MSTORE PUSH1 0x20 PUSH1 0x0 KECCAK256 ADD PUSH1 0x0 SWAP1 SSTORE SWAP1 SSTORE PUSH1 0x0 DUP1 DUP1 SLOAD SWAP1 POP SWAP1 POP PUSH1 0x0 PUSH1 0x5 PUSH8 0xFFFFFFFFFFFFFFFF DUP2 GT ISZERO PUSH2 0x3AB JUMPI PUSH2 0x3AA PUSH2 0x9D6 JUMP JUMPDEST JUMPDEST PUSH1 0x40 MLOAD SWAP1 DUP1 DUP3 MSTORE DUP1 PUSH1 0x20 MUL PUSH1 0x20 ADD DUP3 ADD PUSH1 0x40 MSTORE DUP1 ISZERO PUSH2 0x3D9 JUMPI DUP2 PUSH1 0x20 ADD PUSH1 0x20 DUP3 MUL DUP1 CALLDATASIZE DUP4 CALLDATACOPY DUP1 DUP3 ADD SWAP2 POP POP SWAP1 POP JUMPDEST POP SWAP1 POP PUSH1 0xA DUP2 PUSH1 0x1 DUP2 MLOAD DUP2 LT PUSH2 0x3F2 JUMPI PUSH2 0x3F1 PUSH2 0x9A7 JUMP JUMPDEST JUMPDEST PUSH1 0x20 MUL PUSH1 0x20 ADD ADD DUP2 DUP2 MSTORE POP POP DUP3 DUP3 SWAP5 POP SWAP5 POP POP POP POP SWAP1 SWAP2 JUMP JUMPDEST PUSH1 0x0 DUP1 SLOAD SWAP1 POP DUP2 LT PUSH2 0x452 JUMPI PUSH1 0x40 MLOAD PUSH32 0x8C379A000000000000000000000000000000000000000000000000000000000 DUP2 MSTORE PUSH1 0x4 ADD PUSH2 0x449 SWAP1 PUSH2 0x791 JUMP JUMPDEST PUSH1 0x40 MLOAD DUP1 SWAP2 SUB SWAP1 REVERT JUMPDEST PUSH1 0x0 DUP2 SWAP1 POP JUMPDEST PUSH1 0x1 PUSH1 0x0 DUP1 SLOAD SWAP1 POP PUSH2 0x46A SWAP2 SWAP1 PUSH2 0x8C2 JUMP JUMPDEST DUP2 LT ISZERO PUSH2 0x4D1 JUMPI PUSH1 0x0 PUSH1 0x1 DUP3 PUSH2 0x480 SWAP2 SWAP1 PUSH2 0x86C JUMP JUMPDEST DUP2 SLOAD DUP2 LT PUSH2 0x491 JUMPI PUSH2 0x490 PUSH2 0x9A7 JUMP JUMPDEST JUMPDEST SWAP1 PUSH1 0x0 MSTORE PUSH1 0x20 PUSH1 0x0 KECCAK256 ADD SLOAD PUSH1 0x0 DUP3 DUP2 SLOAD DUP2 LT PUSH2 0x4B0 JUMPI PUSH2 0x4AF PUSH2 0x9A7 JUMP JUMPDEST JUMPDEST SWAP1 PUSH1 0x0 MSTORE PUSH1 0x20 PUSH1 0x0 KECCAK256 ADD DUP2 SWAP1 SSTORE POP DUP1 DUP1 PUSH2 0x4C9 SWAP1 PUSH2 0x900 JUMP JUMPDEST SWAP2 POP POP PUSH2 0x458 JUMP JUMPDEST POP PUSH1 0x0 DUP1 SLOAD DUP1 PUSH2 0x4E4 JUMPI PUSH2 0x4E3 PUSH2 0x978 JUMP JUMPDEST JUMPDEST PUSH1 0x1 SWAP1 SUB DUP2 DUP2 SWAP1 PUSH1 0x0 MSTORE PUSH1 0x20 PUSH1 0x0 KECCAK256 ADD PUSH1 0x0 SWAP1 SSTORE SWAP1 SSTORE POP JUMP JUMPDEST PUSH1 0x0 DUP2 DUP2 SLOAD DUP2 LT PUSH2 0x50D JUMPI PUSH1 0x0 DUP1 REVERT JUMPDEST SWAP1 PUSH1 0x0 MSTORE PUSH1 0x20 PUSH1 0x0 KECCAK256 ADD PUSH1 0x0 SWAP2 POP SWAP1 POP SLOAD DUP2 JUMP JUMPDEST PUSH1 0x40 MLOAD DUP1 PUSH1 0x60 ADD PUSH1 0x40 MSTORE DUP1 PUSH1 0x3 SWAP1 PUSH1 0x20 DUP3 MUL DUP1 CALLDATASIZE DUP4 CALLDATACOPY DUP1 DUP3 ADD SWAP2 POP POP SWAP1 POP POP SWAP1 JUMP JUMPDEST DUP3 DUP1 SLOAD DUP3 DUP3 SSTORE SWAP1 PUSH1 0x0 MSTORE PUSH1 0x20 PUSH1 0x0 KECCAK256 SWAP1 DUP2 ADD SWAP3 DUP3 ISZERO PUSH2 0x584 JUMPI SWAP2 PUSH1 0x20 MUL DUP3 ADD JUMPDEST DUP3 DUP2 GT ISZERO PUSH2 0x583 JUMPI DUP3 MLOAD DUP3 SWAP1 PUSH1 0xFF AND SWAP1 SSTORE SWAP2 PUSH1 0x20 ADD SWAP2 SWAP1 PUSH1 0x1 ADD SWAP1 PUSH2 0x563 JUMP JUMPDEST JUMPDEST POP SWAP1 POP PUSH2 0x591 SWAP2 SWAP1 PUSH2 0x5E7 JUMP JUMPDEST POP SWAP1 JUMP JUMPDEST DUP3 DUP1 SLOAD DUP3 DUP3 SSTORE SWAP1 PUSH1 0x0 MSTORE PUSH1 0x20 PUSH1 0x0 KECCAK256 SWAP1 DUP2 ADD SWAP3 DUP3 ISZERO PUSH2 0x5D6 JUMPI SWAP2 PUSH1 0x20 MUL DUP3 ADD JUMPDEST DUP3 DUP2 GT ISZERO PUSH2 0x5D5 JUMPI DUP3 MLOAD DUP3 SWAP1 PUSH1 0xFF AND SWAP1 SSTORE SWAP2 PUSH1 0x20 ADD SWAP2 SWAP1 PUSH1 0x1 ADD SWAP1 PUSH2 0x5B5 JUMP JUMPDEST JUMPDEST POP SWAP1 POP PUSH2 0x5E3 SWAP2 SWAP1 PUSH2 0x5E7 JUMP JUMPDEST POP SWAP1 JUMP JUMPDEST JUMPDEST DUP1 DUP3 GT ISZERO PUSH2 0x600 JUMPI PUSH1 0x0 DUP2 PUSH1 0x0 SWAP1 SSTORE POP PUSH1 0x1 ADD PUSH2 0x5E8 JUMP JUMPDEST POP SWAP1 JUMP JUMPDEST PUSH1 0x0 DUP2 CALLDATALOAD SWAP1 POP PUSH2 0x613 DUP2 PUSH2 0xA33 JUMP JUMPDEST SWAP3 SWAP2 POP POP JUMP JUMPDEST PUSH1 0x0 PUSH1 0x20 DUP3 DUP5 SUB SLT ISZERO PUSH2 0x62F JUMPI PUSH2 0x62E PUSH2 0xA05 JUMP JUMPDEST JUMPDEST PUSH1 0x0 PUSH2 0x63D DUP5 DUP3 DUP6 ADD PUSH2 0x604 JUMP JUMPDEST SWAP2 POP POP SWAP3 SWAP2 POP POP JUMP JUMPDEST PUSH1 0x0 PUSH2 0x652 DUP4 DUP4 PUSH2 0x736 JUMP JUMPDEST PUSH1 0x20 DUP4 ADD SWAP1 POP SWAP3 SWAP2 POP POP JUMP JUMPDEST PUSH2 0x667 DUP2 PUSH2 0x80F JUMP JUMPDEST PUSH2 0x671 DUP2 DUP5 PUSH2 0x83F JUMP JUMPDEST SWAP3 POP PUSH2 0x67C DUP3 PUSH2 0x7F5 JUMP JUMPDEST DUP1 PUSH1 0x0 JUMPDEST DUP4 DUP2 LT ISZERO PUSH2 0x6AD JUMPI DUP2 MLOAD PUSH2 0x694 DUP8 DUP3 PUSH2 0x646 JUMP JUMPDEST SWAP7 POP PUSH2 0x69F DUP4 PUSH2 0x825 JUMP JUMPDEST SWAP3 POP POP PUSH1 0x1 DUP2 ADD SWAP1 POP PUSH2 0x680 JUMP JUMPDEST POP POP POP POP POP POP JUMP JUMPDEST PUSH1 0x0 PUSH2 0x6C0 DUP3 PUSH2 0x81A JUMP JUMPDEST PUSH2 0x6CA DUP2 DUP6 PUSH2 0x84A JUMP JUMPDEST SWAP4 POP PUSH2 0x6D5 DUP4 PUSH2 0x7FF JUMP JUMPDEST DUP1 PUSH1 0x0 JUMPDEST DUP4 DUP2 LT ISZERO PUSH2 0x706 JUMPI DUP2 MLOAD PUSH2 0x6ED DUP9 DUP3 PUSH2 0x646 JUMP JUMPDEST SWAP8 POP PUSH2 0x6F8 DUP4 PUSH2 0x832 JUMP JUMPDEST SWAP3 POP POP PUSH1 0x1 DUP2 ADD SWAP1 POP PUSH2 0x6D9 JUMP JUMPDEST POP DUP6 SWAP4 POP POP POP POP SWAP3 SWAP2 POP POP JUMP JUMPDEST PUSH1 0x0 PUSH2 0x720 PUSH1 0x13 DUP4 PUSH2 0x85B JUMP JUMPDEST SWAP2 POP PUSH2 0x72B DUP3 PUSH2 0xA0A JUMP JUMPDEST PUSH1 0x20 DUP3 ADD SWAP1 POP SWAP2 SWAP1 POP JUMP JUMPDEST PUSH2 0x73F DUP2 PUSH2 0x8F6 JUMP JUMPDEST DUP3 MSTORE POP POP JUMP JUMPDEST PUSH2 0x74E DUP2 PUSH2 0x8F6 JUMP JUMPDEST DUP3 MSTORE POP POP JUMP JUMPDEST PUSH1 0x0 PUSH1 0x60 DUP3 ADD SWAP1 POP PUSH2 0x769 PUSH1 0x0 DUP4 ADD DUP5 PUSH2 0x65E JUMP JUMPDEST SWAP3 SWAP2 POP POP JUMP JUMPDEST PUSH1 0x0 PUSH1 0x20 DUP3 ADD SWAP1 POP DUP2 DUP2 SUB PUSH1 0x0 DUP4 ADD MSTORE PUSH2 0x789 DUP2 DUP5 PUSH2 0x6B5 JUMP JUMPDEST SWAP1 POP SWAP3 SWAP2 POP POP JUMP JUMPDEST PUSH1 0x0 PUSH1 0x20 DUP3 ADD SWAP1 POP DUP2 DUP2 SUB PUSH1 0x0 DUP4 ADD MSTORE PUSH2 0x7AA DUP2 PUSH2 0x713 JUMP JUMPDEST SWAP1 POP SWAP2 SWAP1 POP JUMP JUMPDEST PUSH1 0x0 PUSH1 0x20 DUP3 ADD SWAP1 POP PUSH2 0x7C6 PUSH1 0x0 DUP4 ADD DUP5 PUSH2 0x745 JUMP JUMPDEST SWAP3 SWAP2 POP POP JUMP JUMPDEST PUSH1 0x0 PUSH1 0x40 DUP3 ADD SWAP1 POP PUSH2 0x7E1 PUSH1 0x0 DUP4 ADD DUP6 PUSH2 0x745 JUMP JUMPDEST PUSH2 0x7EE PUSH1 0x20 DUP4 ADD DUP5 PUSH2 0x745 JUMP JUMPDEST SWAP4 SWAP3 POP POP POP JUMP JUMPDEST PUSH1 0x0 DUP2 SWAP1 POP SWAP2 SWAP1 POP JUMP JUMPDEST PUSH1 0x0 DUP2 SWAP1 POP PUSH1 0x20 DUP3 ADD SWAP1 POP SWAP2 SWAP1 POP JUMP JUMPDEST PUSH1 0x0 PUSH1 0x3 SWAP1 POP SWAP2 SWAP1 POP JUMP JUMPDEST PUSH1 0x0 DUP2 MLOAD SWAP1 POP SWAP2 SWAP1 POP JUMP JUMPDEST PUSH1 0x0 PUSH1 0x20 DUP3 ADD SWAP1 POP SWAP2 SWAP1 POP JUMP JUMPDEST PUSH1 0x0 PUSH1 0x20 DUP3 ADD SWAP1 POP SWAP2 SWAP1 POP JUMP JUMPDEST PUSH1 0x0 DUP2 SWAP1 POP SWAP3 SWAP2 POP POP JUMP JUMPDEST PUSH1 0x0 DUP3 DUP3 MSTORE PUSH1 0x20 DUP3 ADD SWAP1 POP SWAP3 SWAP2 POP POP JUMP JUMPDEST PUSH1 0x0 DUP3 DUP3 MSTORE PUSH1 0x20 DUP3 ADD SWAP1 POP SWAP3 SWAP2 POP POP JUMP JUMPDEST PUSH1 0x0 PUSH2 0x877 DUP3 PUSH2 0x8F6 JUMP JUMPDEST SWAP2 POP PUSH2 0x882 DUP4 PUSH2 0x8F6 JUMP JUMPDEST SWAP3 POP DUP3 PUSH32 0xFFFFFFFFFFFFFFFFFFFFFFFFFFFFFFFFFFFFFFFFFFFFFFFFFFFFFFFFFFFFFFFF SUB DUP3 GT ISZERO PUSH2 0x8B7 JUMPI PUSH2 0x8B6 PUSH2 0x949 JUMP JUMPDEST JUMPDEST DUP3 DUP3 ADD SWAP1 POP SWAP3 SWAP2 POP POP JUMP JUMPDEST PUSH1 0x0 PUSH2 0x8CD DUP3 PUSH2 0x8F6 JUMP JUMPDEST SWAP2 POP PUSH2 0x8D8 DUP4 PUSH2 0x8F6 JUMP JUMPDEST SWAP3 POP DUP3 DUP3 LT ISZERO PUSH2 0x8EB JUMPI PUSH2 0x8EA PUSH2 0x949 JUMP JUMPDEST JUMPDEST DUP3 DUP3 SUB SWAP1 POP SWAP3 SWAP2 POP POP JUMP JUMPDEST PUSH1 0x0 DUP2 SWAP1 POP SWAP2 SWAP1 POP JUMP JUMPDEST PUSH1 0x0 PUSH2 0x90B DUP3 PUSH2 0x8F6 JUMP JUMPDEST SWAP2 POP PUSH32 0xFFFFFFFFFFFFFFFFFFFFFFFFFFFFFFFFFFFFFFFFFFFFFFFFFFFFFFFFFFFFFFFF DUP3 EQ ISZERO PUSH2 0x93E JUMPI PUSH2 0x93D PUSH2 0x949 JUMP JUMPDEST JUMPDEST PUSH1 0x1 DUP3 ADD SWAP1 POP SWAP2 SWAP1 POP JUMP JUMPDEST PUSH32 0x4E487B7100000000000000000000000000000000000000000000000000000000 PUSH1 0x0 MSTORE PUSH1 0x11 PUSH1 0x4 MSTORE PUSH1 0x24 PUSH1 0x0 REVERT JUMPDEST PUSH32 0x4E487B7100000000000000000000000000000000000000000000000000000000 PUSH1 0x0 MSTORE PUSH1 0x31 PUSH1 0x4 MSTORE PUSH1 0x24 PUSH1 0x0 REVERT JUMPDEST PUSH32 0x4E487B7100000000000000000000000000000000000000000000000000000000 PUSH1 0x0 MSTORE PUSH1 0x32 PUSH1 0x4 MSTORE PUSH1 0x24 PUSH1 0x0 REVERT JUMPDEST PUSH32 0x4E487B7100000000000000000000000000000000000000000000000000000000 PUSH1 0x0 MSTORE PUSH1 0x41 PUSH1 0x4 MSTORE PUSH1 0x24 PUSH1 0x0 REVERT JUMPDEST PUSH1 0x0 DUP1 REVERT JUMPDEST PUSH32 0x5F696E646578206F7574206F6620626F756E6400000000000000000000000000 PUSH1 0x0 DUP3 ADD MSTORE POP JUMP JUMPDEST PUSH2 0xA3C DUP2 PUSH2 0x8F6 JUMP JUMPDEST DUP2 EQ PUSH2 0xA47 JUMPI PUSH1 0x0 DUP1 REVERT JUMPDEST POP JUMP INVALID LOG2 PUSH5 0x6970667358 0x22 SLT KECCAK256 0xDF 0xE7 SGT SHL 0xC3 LOG4 0xD2 0x27 SAR 0x4F 0x21 PUSH26 0x94E557D4B01EF0C83E80E39FF7FDB1838C42913A64736F6C6343 STOP ADDMOD SMOD STOP CALLER "
				},
				"gasEstimates": {
					"creation": {
						"codeDepositCost": "537600",
						"executionCost": "infinite",
						"totalCost": "infinite"
					},
					"external": {
						"example()": "infinite",
						"nums(uint256)": "infinite",
						"numsFixed(uint256)": "infinite",
						"removeArrayelement(uint256)": "infinite",
						"returnArray()": "infinite",
						"returnFixedArray()": "infinite",
						"testRemove()": "infinite"
					}
				},
				"methodIdentifiers": {
					"example()": "54353f2f",
					"nums(uint256)": "fd1ee54c",
					"numsFixed(uint256)": "44395769",
					"removeArrayelement(uint256)": "c9373396",
					"returnArray()": "3cac14c8",
					"returnFixedArray()": "315a6c89",
					"testRemove()": "39cfea4a"
				}
			},
			"storageLayout": {
				"storage": [
					{
						"astId": 4,
						"contract": "13_Array.sol:TestArray",
						"label": "nums",
						"offset": 0,
						"slot": "0",
						"type": "t_array(t_uint256)dyn_storage"
					},
					{
						"astId": 12,
						"contract": "13_Array.sol:TestArray",
						"label": "numsFixed",
						"offset": 0,
						"slot": "1",
						"type": "t_array(t_uint256)3_storage"
					}
				],
				"types": {
					"t_array(t_uint256)3_storage": {
						"base": "t_uint256",
						"encoding": "inplace",
						"label": "uint256[3]",
						"numberOfBytes": "96"
					},
					"t_array(t_uint256)dyn_storage": {
						"base": "t_uint256",
						"encoding": "dynamic_array",
						"label": "uint256[]",
						"numberOfBytes": "32"
					},
					"t_uint256": {
						"encoding": "inplace",
						"label": "uint256",
						"numberOfBytes": "32"
					}
				}
			},
			"userdoc": {
				"kind": "user",
				"methods": {},
				"version": 1
			}
		}
	}
}