{
	"36_SelfDestruct.sol": {
		"Helper": {
			"abi": [
				{
					"inputs": [],
					"stateMutability": "payable",
					"type": "constructor"
				},
				{
					"inputs": [],
					"name": "getBalance",
					"outputs": [
						{
							"internalType": "uint256",
							"name": "",
							"type": "uint256"
						}
					],
					"stateMutability": "view",
					"type": "function"
				},
				{
					"inputs": [
						{
							"internalType": "contract Kill",
							"name": "_kill",
							"type": "address"
						}
					],
					"name": "invokeKill",
					"outputs": [],
					"stateMutability": "nonpayable",
					"type": "function"
				}
			],
			"devdoc": {
				"kind": "dev",
				"methods": {},
				"version": 1
			},
			"evm": {
				"assembly": "    /* \"36_SelfDestruct.sol\":390:613  contract Helper{... */\n  mstore(0x40, 0x80)\n  dataSize(sub_0)\n  dup1\n  dataOffset(sub_0)\n  0x00\n  codecopy\n  0x00\n  return\nstop\n\nsub_0: assembly {\n        /* \"36_SelfDestruct.sol\":390:613  contract Helper{... */\n      mstore(0x40, 0x80)\n      callvalue\n      dup1\n      iszero\n      tag_1\n      jumpi\n      0x00\n      dup1\n      revert\n    tag_1:\n      pop\n      jumpi(tag_2, lt(calldatasize, 0x04))\n      shr(0xe0, calldataload(0x00))\n      dup1\n      0x12065fe0\n      eq\n      tag_3\n      jumpi\n      dup1\n      0xfd5d8428\n      eq\n      tag_4\n      jumpi\n    tag_2:\n      0x00\n      dup1\n      revert\n        /* \"36_SelfDestruct.sol\":441:536  function getBalance() external view returns (uint){... */\n    tag_3:\n      tag_5\n      tag_6\n      jump\t// in\n    tag_5:\n      mload(0x40)\n      tag_7\n      swap2\n      swap1\n      tag_8\n      jump\t// in\n    tag_7:\n      mload(0x40)\n      dup1\n      swap2\n      sub\n      swap1\n      return\n        /* \"36_SelfDestruct.sol\":542:611  function invokeKill(Kill _kill) external{... */\n    tag_4:\n      tag_9\n      0x04\n      dup1\n      calldatasize\n      sub\n      dup2\n      add\n      swap1\n      tag_10\n      swap2\n      swap1\n      tag_11\n      jump\t// in\n    tag_10:\n      tag_12\n      jump\t// in\n    tag_9:\n      stop\n        /* \"36_SelfDestruct.sol\":441:536  function getBalance() external view returns (uint){... */\n    tag_6:\n        /* \"36_SelfDestruct.sol\":486:490  uint */\n      0x00\n        /* \"36_SelfDestruct.sol\":508:529  address(this).balance */\n      selfbalance\n        /* \"36_SelfDestruct.sol\":501:529  return address(this).balance */\n      swap1\n      pop\n        /* \"36_SelfDestruct.sol\":441:536  function getBalance() external view returns (uint){... */\n      swap1\n      jump\t// out\n        /* \"36_SelfDestruct.sol\":542:611  function invokeKill(Kill _kill) external{... */\n    tag_12:\n        /* \"36_SelfDestruct.sol\":592:597  _kill */\n      dup1\n        /* \"36_SelfDestruct.sol\":592:602  _kill.kill */\n      0xffffffffffffffffffffffffffffffffffffffff\n      and\n      0x41c0e1b5\n        /* \"36_SelfDestruct.sol\":592:604  _kill.kill() */\n      mload(0x40)\n      dup2\n      0xffffffff\n      and\n      0xe0\n      shl\n      dup2\n      mstore\n      0x04\n      add\n      0x00\n      mload(0x40)\n      dup1\n      dup4\n      sub\n      dup2\n      0x00\n      dup8\n      dup1\n      extcodesize\n      iszero\n      dup1\n      iszero\n      tag_15\n      jumpi\n      0x00\n      dup1\n      revert\n    tag_15:\n      pop\n      gas\n      call\n      iszero\n      dup1\n      iszero\n      tag_17\n      jumpi\n      returndatasize\n      0x00\n      dup1\n      returndatacopy\n      revert(0x00, returndatasize)\n    tag_17:\n      pop\n      pop\n      pop\n      pop\n        /* \"36_SelfDestruct.sol\":542:611  function invokeKill(Kill _kill) external{... */\n      pop\n      jump\t// out\n        /* \"#utility.yul\":7:168   */\n    tag_19:\n        /* \"#utility.yul\":64:69   */\n      0x00\n        /* \"#utility.yul\":102:108   */\n      dup2\n        /* \"#utility.yul\":89:109   */\n      calldataload\n        /* \"#utility.yul\":80:109   */\n      swap1\n      pop\n        /* \"#utility.yul\":118:162   */\n      tag_21\n        /* \"#utility.yul\":156:161   */\n      dup2\n        /* \"#utility.yul\":118:162   */\n      tag_22\n      jump\t// in\n    tag_21:\n        /* \"#utility.yul\":7:168   */\n      swap3\n      swap2\n      pop\n      pop\n      jump\t// out\n        /* \"#utility.yul\":174:525   */\n    tag_11:\n        /* \"#utility.yul\":244:250   */\n      0x00\n        /* \"#utility.yul\":293:295   */\n      0x20\n        /* \"#utility.yul\":281:290   */\n      dup3\n        /* \"#utility.yul\":272:279   */\n      dup5\n        /* \"#utility.yul\":268:291   */\n      sub\n        /* \"#utility.yul\":264:296   */\n      slt\n        /* \"#utility.yul\":261:380   */\n      iszero\n      tag_24\n      jumpi\n        /* \"#utility.yul\":299:378   */\n      tag_25\n      tag_26\n      jump\t// in\n    tag_25:\n        /* \"#utility.yul\":261:380   */\n    tag_24:\n        /* \"#utility.yul\":419:420   */\n      0x00\n        /* \"#utility.yul\":444:508   */\n      tag_27\n        /* \"#utility.yul\":500:507   */\n      dup5\n        /* \"#utility.yul\":491:497   */\n      dup3\n        /* \"#utility.yul\":480:489   */\n      dup6\n        /* \"#utility.yul\":476:498   */\n      add\n        /* \"#utility.yul\":444:508   */\n      tag_19\n      jump\t// in\n    tag_27:\n        /* \"#utility.yul\":434:508   */\n      swap2\n      pop\n        /* \"#utility.yul\":390:518   */\n      pop\n        /* \"#utility.yul\":174:525   */\n      swap3\n      swap2\n      pop\n      pop\n      jump\t// out\n        /* \"#utility.yul\":531:649   */\n    tag_28:\n        /* \"#utility.yul\":618:642   */\n      tag_30\n        /* \"#utility.yul\":636:641   */\n      dup2\n        /* \"#utility.yul\":618:642   */\n      tag_31\n      jump\t// in\n    tag_30:\n        /* \"#utility.yul\":613:616   */\n      dup3\n        /* \"#utility.yul\":606:643   */\n      mstore\n        /* \"#utility.yul\":531:649   */\n      pop\n      pop\n      jump\t// out\n        /* \"#utility.yul\":655:877   */\n    tag_8:\n        /* \"#utility.yul\":748:752   */\n      0x00\n        /* \"#utility.yul\":786:788   */\n      0x20\n        /* \"#utility.yul\":775:784   */\n      dup3\n        /* \"#utility.yul\":771:789   */\n      add\n        /* \"#utility.yul\":763:789   */\n      swap1\n      pop\n        /* \"#utility.yul\":799:870   */\n      tag_33\n        /* \"#utility.yul\":867:868   */\n      0x00\n        /* \"#utility.yul\":856:865   */\n      dup4\n        /* \"#utility.yul\":852:869   */\n      add\n        /* \"#utility.yul\":843:849   */\n      dup5\n        /* \"#utility.yul\":799:870   */\n      tag_28\n      jump\t// in\n    tag_33:\n        /* \"#utility.yul\":655:877   */\n      swap3\n      swap2\n      pop\n      pop\n      jump\t// out\n        /* \"#utility.yul\":964:1060   */\n    tag_36:\n        /* \"#utility.yul\":1001:1008   */\n      0x00\n        /* \"#utility.yul\":1030:1054   */\n      tag_38\n        /* \"#utility.yul\":1048:1053   */\n      dup3\n        /* \"#utility.yul\":1030:1054   */\n      tag_39\n      jump\t// in\n    tag_38:\n        /* \"#utility.yul\":1019:1054   */\n      swap1\n      pop\n        /* \"#utility.yul\":964:1060   */\n      swap2\n      swap1\n      pop\n      jump\t// out\n        /* \"#utility.yul\":1066:1173   */\n    tag_40:\n        /* \"#utility.yul\":1114:1121   */\n      0x00\n        /* \"#utility.yul\":1143:1167   */\n      tag_42\n        /* \"#utility.yul\":1161:1166   */\n      dup3\n        /* \"#utility.yul\":1143:1167   */\n      tag_36\n      jump\t// in\n    tag_42:\n        /* \"#utility.yul\":1132:1167   */\n      swap1\n      pop\n        /* \"#utility.yul\":1066:1173   */\n      swap2\n      swap1\n      pop\n      jump\t// out\n        /* \"#utility.yul\":1179:1305   */\n    tag_39:\n        /* \"#utility.yul\":1216:1223   */\n      0x00\n        /* \"#utility.yul\":1256:1298   */\n      0xffffffffffffffffffffffffffffffffffffffff\n        /* \"#utility.yul\":1249:1254   */\n      dup3\n        /* \"#utility.yul\":1245:1299   */\n      and\n        /* \"#utility.yul\":1234:1299   */\n      swap1\n      pop\n        /* \"#utility.yul\":1179:1305   */\n      swap2\n      swap1\n      pop\n      jump\t// out\n        /* \"#utility.yul\":1311:1388   */\n    tag_31:\n        /* \"#utility.yul\":1348:1355   */\n      0x00\n        /* \"#utility.yul\":1377:1382   */\n      dup2\n        /* \"#utility.yul\":1366:1382   */\n      swap1\n      pop\n        /* \"#utility.yul\":1311:1388   */\n      swap2\n      swap1\n      pop\n      jump\t// out\n        /* \"#utility.yul\":1517:1634   */\n    tag_26:\n        /* \"#utility.yul\":1626:1627   */\n      0x00\n        /* \"#utility.yul\":1623:1624   */\n      dup1\n        /* \"#utility.yul\":1616:1628   */\n      revert\n        /* \"#utility.yul\":1640:1784   */\n    tag_22:\n        /* \"#utility.yul\":1724:1759   */\n      tag_49\n        /* \"#utility.yul\":1753:1758   */\n      dup2\n        /* \"#utility.yul\":1724:1759   */\n      tag_40\n      jump\t// in\n    tag_49:\n        /* \"#utility.yul\":1717:1722   */\n      dup2\n        /* \"#utility.yul\":1714:1760   */\n      eq\n        /* \"#utility.yul\":1704:1778   */\n      tag_50\n      jumpi\n        /* \"#utility.yul\":1774:1775   */\n      0x00\n        /* \"#utility.yul\":1771:1772   */\n      dup1\n        /* \"#utility.yul\":1764:1776   */\n      revert\n        /* \"#utility.yul\":1704:1778   */\n    tag_50:\n        /* \"#utility.yul\":1640:1784   */\n      pop\n      jump\t// out\n\n    auxdata: 0xa26469706673582212201246aac9e5846548569ea91359288caa3659208fd745166a11b871beacba691364736f6c63430008070033\n}\n",
				"bytecode": {
					"linkReferences": {},
					"object": "60806040526101ec806100136000396000f3fe608060405234801561001057600080fd5b50600436106100365760003560e01c806312065fe01461003b578063fd5d842814610059575b600080fd5b610043610075565b6040516100509190610131565b60405180910390f35b610073600480360381019061006e91906100f5565b61007d565b005b600047905090565b8073ffffffffffffffffffffffffffffffffffffffff166341c0e1b56040518163ffffffff1660e01b8152600401600060405180830381600087803b1580156100c557600080fd5b505af11580156100d9573d6000803e3d6000fd5b5050505050565b6000813590506100ef8161019f565b92915050565b60006020828403121561010b5761010a61019a565b5b6000610119848285016100e0565b91505092915050565b61012b81610190565b82525050565b60006020820190506101466000830184610122565b92915050565b600061015782610170565b9050919050565b60006101698261014c565b9050919050565b600073ffffffffffffffffffffffffffffffffffffffff82169050919050565b6000819050919050565b600080fd5b6101a88161015e565b81146101b357600080fd5b5056fea26469706673582212201246aac9e5846548569ea91359288caa3659208fd745166a11b871beacba691364736f6c63430008070033",
					"opcodes": "PUSH1 0x80 PUSH1 0x40 MSTORE PUSH2 0x1EC DUP1 PUSH2 0x13 PUSH1 0x0 CODECOPY PUSH1 0x0 RETURN INVALID PUSH1 0x80 PUSH1 0x40 MSTORE CALLVALUE DUP1 ISZERO PUSH2 0x10 JUMPI PUSH1 0x0 DUP1 REVERT JUMPDEST POP PUSH1 0x4 CALLDATASIZE LT PUSH2 0x36 JUMPI PUSH1 0x0 CALLDATALOAD PUSH1 0xE0 SHR DUP1 PUSH4 0x12065FE0 EQ PUSH2 0x3B JUMPI DUP1 PUSH4 0xFD5D8428 EQ PUSH2 0x59 JUMPI JUMPDEST PUSH1 0x0 DUP1 REVERT JUMPDEST PUSH2 0x43 PUSH2 0x75 JUMP JUMPDEST PUSH1 0x40 MLOAD PUSH2 0x50 SWAP2 SWAP1 PUSH2 0x131 JUMP JUMPDEST PUSH1 0x40 MLOAD DUP1 SWAP2 SUB SWAP1 RETURN JUMPDEST PUSH2 0x73 PUSH1 0x4 DUP1 CALLDATASIZE SUB DUP2 ADD SWAP1 PUSH2 0x6E SWAP2 SWAP1 PUSH2 0xF5 JUMP JUMPDEST PUSH2 0x7D JUMP JUMPDEST STOP JUMPDEST PUSH1 0x0 SELFBALANCE SWAP1 POP SWAP1 JUMP JUMPDEST DUP1 PUSH20 0xFFFFFFFFFFFFFFFFFFFFFFFFFFFFFFFFFFFFFFFF AND PUSH4 0x41C0E1B5 PUSH1 0x40 MLOAD DUP2 PUSH4 0xFFFFFFFF AND PUSH1 0xE0 SHL DUP2 MSTORE PUSH1 0x4 ADD PUSH1 0x0 PUSH1 0x40 MLOAD DUP1 DUP4 SUB DUP2 PUSH1 0x0 DUP8 DUP1 EXTCODESIZE ISZERO DUP1 ISZERO PUSH2 0xC5 JUMPI PUSH1 0x0 DUP1 REVERT JUMPDEST POP GAS CALL ISZERO DUP1 ISZERO PUSH2 0xD9 JUMPI RETURNDATASIZE PUSH1 0x0 DUP1 RETURNDATACOPY RETURNDATASIZE PUSH1 0x0 REVERT JUMPDEST POP POP POP POP POP JUMP JUMPDEST PUSH1 0x0 DUP2 CALLDATALOAD SWAP1 POP PUSH2 0xEF DUP2 PUSH2 0x19F JUMP JUMPDEST SWAP3 SWAP2 POP POP JUMP JUMPDEST PUSH1 0x0 PUSH1 0x20 DUP3 DUP5 SUB SLT ISZERO PUSH2 0x10B JUMPI PUSH2 0x10A PUSH2 0x19A JUMP JUMPDEST JUMPDEST PUSH1 0x0 PUSH2 0x119 DUP5 DUP3 DUP6 ADD PUSH2 0xE0 JUMP JUMPDEST SWAP2 POP POP SWAP3 SWAP2 POP POP JUMP JUMPDEST PUSH2 0x12B DUP2 PUSH2 0x190 JUMP JUMPDEST DUP3 MSTORE POP POP JUMP JUMPDEST PUSH1 0x0 PUSH1 0x20 DUP3 ADD SWAP1 POP PUSH2 0x146 PUSH1 0x0 DUP4 ADD DUP5 PUSH2 0x122 JUMP JUMPDEST SWAP3 SWAP2 POP POP JUMP JUMPDEST PUSH1 0x0 PUSH2 0x157 DUP3 PUSH2 0x170 JUMP JUMPDEST SWAP1 POP SWAP2 SWAP1 POP JUMP JUMPDEST PUSH1 0x0 PUSH2 0x169 DUP3 PUSH2 0x14C JUMP JUMPDEST SWAP1 POP SWAP2 SWAP1 POP JUMP JUMPDEST PUSH1 0x0 PUSH20 0xFFFFFFFFFFFFFFFFFFFFFFFFFFFFFFFFFFFFFFFF DUP3 AND SWAP1 POP SWAP2 SWAP1 POP JUMP JUMPDEST PUSH1 0x0 DUP2 SWAP1 POP SWAP2 SWAP1 POP JUMP JUMPDEST PUSH1 0x0 DUP1 REVERT JUMPDEST PUSH2 0x1A8 DUP2 PUSH2 0x15E JUMP JUMPDEST DUP2 EQ PUSH2 0x1B3 JUMPI PUSH1 0x0 DUP1 REVERT JUMPDEST POP JUMP INVALID LOG2 PUSH5 0x6970667358 0x22 SLT KECCAK256 SLT CHAINID 0xAA 0xC9 0xE5 DUP5 PUSH6 0x48569EA91359 0x28 DUP13 0xAA CALLDATASIZE MSIZE KECCAK256 DUP16 0xD7 GASLIMIT AND PUSH11 0x11B871BEACBA691364736F PUSH13 0x63430008070033000000000000 "
				},
				"gasEstimates": {
					"creation": {
						"codeDepositCost": "98400",
						"executionCost": "123",
						"totalCost": "98523"
					},
					"external": {
						"getBalance()": "317",
						"invokeKill(address)": "infinite"
					}
				},
				"methodIdentifiers": {
					"getBalance()": "12065fe0",
					"invokeKill(address)": "fd5d8428"
				}
			},
			"storageLayout": {
				"storage": [],
				"types": null
			},
			"userdoc": {
				"kind": "user",
				"methods": {},
				"version": 1
			}
		}
	}
}