{
	"11_OwnableCase.sol": {
		"Ownable": {
			"abi": [
				{
					"inputs": [],
					"stateMutability": "nonpayable",
					"type": "constructor"
				},
				{
					"inputs": [],
					"name": "anyCallThisFunc",
					"outputs": [],
					"stateMutability": "nonpayable",
					"type": "function"
				},
				{
					"inputs": [],
					"name": "onlyOwnerCallThisFunc",
					"outputs": [],
					"stateMutability": "nonpayable",
					"type": "function"
				},
				{
					"inputs": [],
					"name": "owner",
					"outputs": [
						{
							"internalType": "address",
							"name": "",
							"type": "address"
						}
					],
					"stateMutability": "view",
					"type": "function"
				},
				{
					"inputs": [
						{
							"internalType": "address",
							"name": "_owner",
							"type": "address"
						}
					],
					"name": "setOwner",
					"outputs": [],
					"stateMutability": "nonpayable",
					"type": "function"
				}
			],
			"devdoc": {
				"kind": "dev",
				"methods": {},
				"version": 1
			},
			"evm": {
				"assembly": "    /* \"11_OwnableCase.sol\":200:683  contract Ownable{... */\n  mstore(0x40, 0x80)\n    /* \"11_OwnableCase.sol\":249:297  constructor(){... */\n  callvalue\n  dup1\n  iszero\n  tag_1\n  jumpi\n  0x00\n  dup1\n  revert\ntag_1:\n  pop\n    /* \"11_OwnableCase.sol\":280:290  msg.sender */\n  caller\n    /* \"11_OwnableCase.sol\":272:277  owner */\n  0x00\n  dup1\n    /* \"11_OwnableCase.sol\":272:290  owner = msg.sender */\n  0x0100\n  exp\n  dup2\n  sload\n  dup2\n  0xffffffffffffffffffffffffffffffffffffffff\n  mul\n  not\n  and\n  swap1\n  dup4\n  0xffffffffffffffffffffffffffffffffffffffff\n  and\n  mul\n  or\n  swap1\n  sstore\n  pop\n    /* \"11_OwnableCase.sol\":200:683  contract Ownable{... */\n  dataSize(sub_0)\n  dup1\n  dataOffset(sub_0)\n  0x00\n  codecopy\n  0x00\n  return\nstop\n\nsub_0: assembly {\n        /* \"11_OwnableCase.sol\":200:683  contract Ownable{... */\n      mstore(0x40, 0x80)\n      callvalue\n      dup1\n      iszero\n      tag_1\n      jumpi\n      0x00\n      dup1\n      revert\n    tag_1:\n      pop\n      jumpi(tag_2, lt(calldatasize, 0x04))\n      shr(0xe0, calldataload(0x00))\n      dup1\n      0x0cfc86d6\n      eq\n      tag_3\n      jumpi\n      dup1\n      0x13af4035\n      eq\n      tag_4\n      jumpi\n      dup1\n      0x196e0a1a\n      eq\n      tag_5\n      jumpi\n      dup1\n      0x8da5cb5b\n      eq\n      tag_6\n      jumpi\n    tag_2:\n      0x00\n      dup1\n      revert\n        /* \"11_OwnableCase.sol\":533:612  function onlyOwnerCallThisFunc() external onlyOwner{... */\n    tag_3:\n      tag_7\n      tag_8\n      jump\t// in\n    tag_7:\n      stop\n        /* \"11_OwnableCase.sol\":303:432  function setOwner(address _owner) external {... */\n    tag_4:\n      tag_9\n      0x04\n      dup1\n      calldatasize\n      sub\n      dup2\n      add\n      swap1\n      tag_10\n      swap2\n      swap1\n      tag_11\n      jump\t// in\n    tag_10:\n      tag_12\n      jump\t// in\n    tag_9:\n      stop\n        /* \"11_OwnableCase.sol\":618:681  function anyCallThisFunc() external{... */\n    tag_5:\n      tag_13\n      tag_14\n      jump\t// in\n    tag_13:\n      stop\n        /* \"11_OwnableCase.sol\":222:242  address public owner */\n    tag_6:\n      tag_15\n      tag_16\n      jump\t// in\n    tag_15:\n      mload(0x40)\n      tag_17\n      swap2\n      swap1\n      tag_18\n      jump\t// in\n    tag_17:\n      mload(0x40)\n      dup1\n      swap2\n      sub\n      swap1\n      return\n        /* \"11_OwnableCase.sol\":533:612  function onlyOwnerCallThisFunc() external onlyOwner{... */\n    tag_8:\n        /* \"11_OwnableCase.sol\":491:496  owner */\n      0x00\n      dup1\n      sload\n      swap1\n      0x0100\n      exp\n      swap1\n      div\n      0xffffffffffffffffffffffffffffffffffffffff\n      and\n        /* \"11_OwnableCase.sol\":477:496  msg.sender != owner */\n      0xffffffffffffffffffffffffffffffffffffffff\n      and\n        /* \"11_OwnableCase.sol\":477:487  msg.sender */\n      caller\n        /* \"11_OwnableCase.sol\":477:496  msg.sender != owner */\n      0xffffffffffffffffffffffffffffffffffffffff\n      and\n      eq\n      iszero\n        /* \"11_OwnableCase.sol\":469:509  require(msg.sender != owner,\"not owner\") */\n      tag_20\n      jumpi\n      mload(0x40)\n      0x08c379a000000000000000000000000000000000000000000000000000000000\n      dup2\n      mstore\n      0x04\n      add\n      tag_21\n      swap1\n      tag_22\n      jump\t// in\n    tag_21:\n      mload(0x40)\n      dup1\n      swap2\n      sub\n      swap1\n      revert\n    tag_20:\n        /* \"11_OwnableCase.sol\":533:612  function onlyOwnerCallThisFunc() external onlyOwner{... */\n      jump\t// out\n        /* \"11_OwnableCase.sol\":303:432  function setOwner(address _owner) external {... */\n    tag_12:\n        /* \"11_OwnableCase.sol\":380:381  0 */\n      0x00\n        /* \"11_OwnableCase.sol\":364:382  _owner!=address(0) */\n      0xffffffffffffffffffffffffffffffffffffffff\n      and\n        /* \"11_OwnableCase.sol\":364:370  _owner */\n      dup2\n        /* \"11_OwnableCase.sol\":364:382  _owner!=address(0) */\n      0xffffffffffffffffffffffffffffffffffffffff\n      and\n      eq\n      iszero\n        /* \"11_OwnableCase.sol\":356:401  require(_owner!=address(0),\"invaild address\") */\n      tag_25\n      jumpi\n      mload(0x40)\n      0x08c379a000000000000000000000000000000000000000000000000000000000\n      dup2\n      mstore\n      0x04\n      add\n      tag_26\n      swap1\n      tag_27\n      jump\t// in\n    tag_26:\n      mload(0x40)\n      dup1\n      swap2\n      sub\n      swap1\n      revert\n    tag_25:\n        /* \"11_OwnableCase.sol\":419:425  _owner */\n      dup1\n        /* \"11_OwnableCase.sol\":411:416  owner */\n      0x00\n      dup1\n        /* \"11_OwnableCase.sol\":411:425  owner = _owner */\n      0x0100\n      exp\n      dup2\n      sload\n      dup2\n      0xffffffffffffffffffffffffffffffffffffffff\n      mul\n      not\n      and\n      swap1\n      dup4\n      0xffffffffffffffffffffffffffffffffffffffff\n      and\n      mul\n      or\n      swap1\n      sstore\n      pop\n        /* \"11_OwnableCase.sol\":303:432  function setOwner(address _owner) external {... */\n      pop\n      jump\t// out\n        /* \"11_OwnableCase.sol\":618:681  function anyCallThisFunc() external{... */\n    tag_14:\n      jump\t// out\n        /* \"11_OwnableCase.sol\":222:242  address public owner */\n    tag_16:\n      0x00\n      dup1\n      sload\n      swap1\n      0x0100\n      exp\n      swap1\n      div\n      0xffffffffffffffffffffffffffffffffffffffff\n      and\n      dup2\n      jump\t// out\n        /* \"#utility.yul\":7:146   */\n    tag_30:\n        /* \"#utility.yul\":53:58   */\n      0x00\n        /* \"#utility.yul\":91:97   */\n      dup2\n        /* \"#utility.yul\":78:98   */\n      calldataload\n        /* \"#utility.yul\":69:98   */\n      swap1\n      pop\n        /* \"#utility.yul\":107:140   */\n      tag_32\n        /* \"#utility.yul\":134:139   */\n      dup2\n        /* \"#utility.yul\":107:140   */\n      tag_33\n      jump\t// in\n    tag_32:\n        /* \"#utility.yul\":7:146   */\n      swap3\n      swap2\n      pop\n      pop\n      jump\t// out\n        /* \"#utility.yul\":152:481   */\n    tag_11:\n        /* \"#utility.yul\":211:217   */\n      0x00\n        /* \"#utility.yul\":260:262   */\n      0x20\n        /* \"#utility.yul\":248:257   */\n      dup3\n        /* \"#utility.yul\":239:246   */\n      dup5\n        /* \"#utility.yul\":235:258   */\n      sub\n        /* \"#utility.yul\":231:263   */\n      slt\n        /* \"#utility.yul\":228:347   */\n      iszero\n      tag_35\n      jumpi\n        /* \"#utility.yul\":266:345   */\n      tag_36\n      tag_37\n      jump\t// in\n    tag_36:\n        /* \"#utility.yul\":228:347   */\n    tag_35:\n        /* \"#utility.yul\":386:387   */\n      0x00\n        /* \"#utility.yul\":411:464   */\n      tag_38\n        /* \"#utility.yul\":456:463   */\n      dup5\n        /* \"#utility.yul\":447:453   */\n      dup3\n        /* \"#utility.yul\":436:445   */\n      dup6\n        /* \"#utility.yul\":432:454   */\n      add\n        /* \"#utility.yul\":411:464   */\n      tag_30\n      jump\t// in\n    tag_38:\n        /* \"#utility.yul\":401:464   */\n      swap2\n      pop\n        /* \"#utility.yul\":357:474   */\n      pop\n        /* \"#utility.yul\":152:481   */\n      swap3\n      swap2\n      pop\n      pop\n      jump\t// out\n        /* \"#utility.yul\":487:605   */\n    tag_39:\n        /* \"#utility.yul\":574:598   */\n      tag_41\n        /* \"#utility.yul\":592:597   */\n      dup2\n        /* \"#utility.yul\":574:598   */\n      tag_42\n      jump\t// in\n    tag_41:\n        /* \"#utility.yul\":569:572   */\n      dup3\n        /* \"#utility.yul\":562:599   */\n      mstore\n        /* \"#utility.yul\":487:605   */\n      pop\n      pop\n      jump\t// out\n        /* \"#utility.yul\":611:977   */\n    tag_43:\n        /* \"#utility.yul\":753:756   */\n      0x00\n        /* \"#utility.yul\":774:841   */\n      tag_45\n        /* \"#utility.yul\":838:840   */\n      0x0f\n        /* \"#utility.yul\":833:836   */\n      dup4\n        /* \"#utility.yul\":774:841   */\n      tag_46\n      jump\t// in\n    tag_45:\n        /* \"#utility.yul\":767:841   */\n      swap2\n      pop\n        /* \"#utility.yul\":850:943   */\n      tag_47\n        /* \"#utility.yul\":939:942   */\n      dup3\n        /* \"#utility.yul\":850:943   */\n      tag_48\n      jump\t// in\n    tag_47:\n        /* \"#utility.yul\":968:970   */\n      0x20\n        /* \"#utility.yul\":963:966   */\n      dup3\n        /* \"#utility.yul\":959:971   */\n      add\n        /* \"#utility.yul\":952:971   */\n      swap1\n      pop\n        /* \"#utility.yul\":611:977   */\n      swap2\n      swap1\n      pop\n      jump\t// out\n        /* \"#utility.yul\":983:1348   */\n    tag_49:\n        /* \"#utility.yul\":1125:1128   */\n      0x00\n        /* \"#utility.yul\":1146:1212   */\n      tag_51\n        /* \"#utility.yul\":1210:1211   */\n      0x09\n        /* \"#utility.yul\":1205:1208   */\n      dup4\n        /* \"#utility.yul\":1146:1212   */\n      tag_46\n      jump\t// in\n    tag_51:\n        /* \"#utility.yul\":1139:1212   */\n      swap2\n      pop\n        /* \"#utility.yul\":1221:1314   */\n      tag_52\n        /* \"#utility.yul\":1310:1313   */\n      dup3\n        /* \"#utility.yul\":1221:1314   */\n      tag_53\n      jump\t// in\n    tag_52:\n        /* \"#utility.yul\":1339:1341   */\n      0x20\n        /* \"#utility.yul\":1334:1337   */\n      dup3\n        /* \"#utility.yul\":1330:1342   */\n      add\n        /* \"#utility.yul\":1323:1342   */\n      swap1\n      pop\n        /* \"#utility.yul\":983:1348   */\n      swap2\n      swap1\n      pop\n      jump\t// out\n        /* \"#utility.yul\":1354:1576   */\n    tag_18:\n        /* \"#utility.yul\":1447:1451   */\n      0x00\n        /* \"#utility.yul\":1485:1487   */\n      0x20\n        /* \"#utility.yul\":1474:1483   */\n      dup3\n        /* \"#utility.yul\":1470:1488   */\n      add\n        /* \"#utility.yul\":1462:1488   */\n      swap1\n      pop\n        /* \"#utility.yul\":1498:1569   */\n      tag_55\n        /* \"#utility.yul\":1566:1567   */\n      0x00\n        /* \"#utility.yul\":1555:1564   */\n      dup4\n        /* \"#utility.yul\":1551:1568   */\n      add\n        /* \"#utility.yul\":1542:1548   */\n      dup5\n        /* \"#utility.yul\":1498:1569   */\n      tag_39\n      jump\t// in\n    tag_55:\n        /* \"#utility.yul\":1354:1576   */\n      swap3\n      swap2\n      pop\n      pop\n      jump\t// out\n        /* \"#utility.yul\":1582:2001   */\n    tag_27:\n        /* \"#utility.yul\":1748:1752   */\n      0x00\n        /* \"#utility.yul\":1786:1788   */\n      0x20\n        /* \"#utility.yul\":1775:1784   */\n      dup3\n        /* \"#utility.yul\":1771:1789   */\n      add\n        /* \"#utility.yul\":1763:1789   */\n      swap1\n      pop\n        /* \"#utility.yul\":1835:1844   */\n      dup2\n        /* \"#utility.yul\":1829:1833   */\n      dup2\n        /* \"#utility.yul\":1825:1845   */\n      sub\n        /* \"#utility.yul\":1821:1822   */\n      0x00\n        /* \"#utility.yul\":1810:1819   */\n      dup4\n        /* \"#utility.yul\":1806:1823   */\n      add\n        /* \"#utility.yul\":1799:1846   */\n      mstore\n        /* \"#utility.yul\":1863:1994   */\n      tag_57\n        /* \"#utility.yul\":1989:1993   */\n      dup2\n        /* \"#utility.yul\":1863:1994   */\n      tag_43\n      jump\t// in\n    tag_57:\n        /* \"#utility.yul\":1855:1994   */\n      swap1\n      pop\n        /* \"#utility.yul\":1582:2001   */\n      swap2\n      swap1\n      pop\n      jump\t// out\n        /* \"#utility.yul\":2007:2426   */\n    tag_22:\n        /* \"#utility.yul\":2173:2177   */\n      0x00\n        /* \"#utility.yul\":2211:2213   */\n      0x20\n        /* \"#utility.yul\":2200:2209   */\n      dup3\n        /* \"#utility.yul\":2196:2214   */\n      add\n        /* \"#utility.yul\":2188:2214   */\n      swap1\n      pop\n        /* \"#utility.yul\":2260:2269   */\n      dup2\n        /* \"#utility.yul\":2254:2258   */\n      dup2\n        /* \"#utility.yul\":2250:2270   */\n      sub\n        /* \"#utility.yul\":2246:2247   */\n      0x00\n        /* \"#utility.yul\":2235:2244   */\n      dup4\n        /* \"#utility.yul\":2231:2248   */\n      add\n        /* \"#utility.yul\":2224:2271   */\n      mstore\n        /* \"#utility.yul\":2288:2419   */\n      tag_59\n        /* \"#utility.yul\":2414:2418   */\n      dup2\n        /* \"#utility.yul\":2288:2419   */\n      tag_49\n      jump\t// in\n    tag_59:\n        /* \"#utility.yul\":2280:2419   */\n      swap1\n      pop\n        /* \"#utility.yul\":2007:2426   */\n      swap2\n      swap1\n      pop\n      jump\t// out\n        /* \"#utility.yul\":2513:2682   */\n    tag_46:\n        /* \"#utility.yul\":2597:2608   */\n      0x00\n        /* \"#utility.yul\":2631:2637   */\n      dup3\n        /* \"#utility.yul\":2626:2629   */\n      dup3\n        /* \"#utility.yul\":2619:2638   */\n      mstore\n        /* \"#utility.yul\":2671:2675   */\n      0x20\n        /* \"#utility.yul\":2666:2669   */\n      dup3\n        /* \"#utility.yul\":2662:2676   */\n      add\n        /* \"#utility.yul\":2647:2676   */\n      swap1\n      pop\n        /* \"#utility.yul\":2513:2682   */\n      swap3\n      swap2\n      pop\n      pop\n      jump\t// out\n        /* \"#utility.yul\":2688:2784   */\n    tag_42:\n        /* \"#utility.yul\":2725:2732   */\n      0x00\n        /* \"#utility.yul\":2754:2778   */\n      tag_64\n        /* \"#utility.yul\":2772:2777   */\n      dup3\n        /* \"#utility.yul\":2754:2778   */\n      tag_65\n      jump\t// in\n    tag_64:\n        /* \"#utility.yul\":2743:2778   */\n      swap1\n      pop\n        /* \"#utility.yul\":2688:2784   */\n      swap2\n      swap1\n      pop\n      jump\t// out\n        /* \"#utility.yul\":2790:2916   */\n    tag_65:\n        /* \"#utility.yul\":2827:2834   */\n      0x00\n        /* \"#utility.yul\":2867:2909   */\n      0xffffffffffffffffffffffffffffffffffffffff\n        /* \"#utility.yul\":2860:2865   */\n      dup3\n        /* \"#utility.yul\":2856:2910   */\n      and\n        /* \"#utility.yul\":2845:2910   */\n      swap1\n      pop\n        /* \"#utility.yul\":2790:2916   */\n      swap2\n      swap1\n      pop\n      jump\t// out\n        /* \"#utility.yul\":3045:3162   */\n    tag_37:\n        /* \"#utility.yul\":3154:3155   */\n      0x00\n        /* \"#utility.yul\":3151:3152   */\n      dup1\n        /* \"#utility.yul\":3144:3156   */\n      revert\n        /* \"#utility.yul\":3168:3333   */\n    tag_48:\n        /* \"#utility.yul\":3308:3325   */\n      0x696e7661696c6420616464726573730000000000000000000000000000000000\n        /* \"#utility.yul\":3304:3305   */\n      0x00\n        /* \"#utility.yul\":3296:3302   */\n      dup3\n        /* \"#utility.yul\":3292:3306   */\n      add\n        /* \"#utility.yul\":3285:3326   */\n      mstore\n        /* \"#utility.yul\":3168:3333   */\n      pop\n      jump\t// out\n        /* \"#utility.yul\":3339:3498   */\n    tag_53:\n        /* \"#utility.yul\":3479:3490   */\n      0x6e6f74206f776e65720000000000000000000000000000000000000000000000\n        /* \"#utility.yul\":3475:3476   */\n      0x00\n        /* \"#utility.yul\":3467:3473   */\n      dup3\n        /* \"#utility.yul\":3463:3477   */\n      add\n        /* \"#utility.yul\":3456:3491   */\n      mstore\n        /* \"#utility.yul\":3339:3498   */\n      pop\n      jump\t// out\n        /* \"#utility.yul\":3504:3626   */\n    tag_33:\n        /* \"#utility.yul\":3577:3601   */\n      tag_73\n        /* \"#utility.yul\":3595:3600   */\n      dup2\n        /* \"#utility.yul\":3577:3601   */\n      tag_42\n      jump\t// in\n    tag_73:\n        /* \"#utility.yul\":3570:3575   */\n      dup2\n        /* \"#utility.yul\":3567:3602   */\n      eq\n        /* \"#utility.yul\":3557:3620   */\n      tag_74\n      jumpi\n        /* \"#utility.yul\":3616:3617   */\n      0x00\n        /* \"#utility.yul\":3613:3614   */\n      dup1\n        /* \"#utility.yul\":3606:3618   */\n      revert\n        /* \"#utility.yul\":3557:3620   */\n    tag_74:\n        /* \"#utility.yul\":3504:3626   */\n      pop\n      jump\t// out\n\n    auxdata: 0xa26469706673582212204f3965251e8ef7ad4541326c39871a1bf14cbc72ac1f8d7fe63f4c4cb679c70e64736f6c63430008070033\n}\n",
				"bytecode": {
					"linkReferences": {},
					"object": "608060405234801561001057600080fd5b50336000806101000a81548173ffffffffffffffffffffffffffffffffffffffff021916908373ffffffffffffffffffffffffffffffffffffffff1602179055506103e2806100606000396000f3fe608060405234801561001057600080fd5b506004361061004c5760003560e01c80630cfc86d61461005157806313af40351461005b578063196e0a1a146100775780638da5cb5b14610081575b600080fd5b61005961009f565b005b6100756004803603810190610070919061021e565b610130565b005b61007f6101e3565b005b6100896101e5565b60405161009691906102a0565b60405180910390f35b60008054906101000a900473ffffffffffffffffffffffffffffffffffffffff1673ffffffffffffffffffffffffffffffffffffffff163373ffffffffffffffffffffffffffffffffffffffff16141561012e576040517f08c379a0000000000000000000000000000000000000000000000000000000008152600401610125906102db565b60405180910390fd5b565b600073ffffffffffffffffffffffffffffffffffffffff168173ffffffffffffffffffffffffffffffffffffffff1614156101a0576040517f08c379a0000000000000000000000000000000000000000000000000000000008152600401610197906102bb565b60405180910390fd5b806000806101000a81548173ffffffffffffffffffffffffffffffffffffffff021916908373ffffffffffffffffffffffffffffffffffffffff16021790555050565b565b60008054906101000a900473ffffffffffffffffffffffffffffffffffffffff1681565b60008135905061021881610395565b92915050565b6000602082840312156102345761023361033e565b5b600061024284828501610209565b91505092915050565b6102548161030c565b82525050565b6000610267600f836102fb565b915061027282610343565b602082019050919050565b600061028a6009836102fb565b91506102958261036c565b602082019050919050565b60006020820190506102b5600083018461024b565b92915050565b600060208201905081810360008301526102d48161025a565b9050919050565b600060208201905081810360008301526102f48161027d565b9050919050565b600082825260208201905092915050565b60006103178261031e565b9050919050565b600073ffffffffffffffffffffffffffffffffffffffff82169050919050565b600080fd5b7f696e7661696c6420616464726573730000000000000000000000000000000000600082015250565b7f6e6f74206f776e65720000000000000000000000000000000000000000000000600082015250565b61039e8161030c565b81146103a957600080fd5b5056fea26469706673582212204f3965251e8ef7ad4541326c39871a1bf14cbc72ac1f8d7fe63f4c4cb679c70e64736f6c63430008070033",
					"opcodes": "PUSH1 0x80 PUSH1 0x40 MSTORE CALLVALUE DUP1 ISZERO PUSH2 0x10 JUMPI PUSH1 0x0 DUP1 REVERT JUMPDEST POP CALLER PUSH1 0x0 DUP1 PUSH2 0x100 EXP DUP2 SLOAD DUP2 PUSH20 0xFFFFFFFFFFFFFFFFFFFFFFFFFFFFFFFFFFFFFFFF MUL NOT AND SWAP1 DUP4 PUSH20 0xFFFFFFFFFFFFFFFFFFFFFFFFFFFFFFFFFFFFFFFF AND MUL OR SWAP1 SSTORE POP PUSH2 0x3E2 DUP1 PUSH2 0x60 PUSH1 0x0 CODECOPY PUSH1 0x0 RETURN INVALID PUSH1 0x80 PUSH1 0x40 MSTORE CALLVALUE DUP1 ISZERO PUSH2 0x10 JUMPI PUSH1 0x0 DUP1 REVERT JUMPDEST POP PUSH1 0x4 CALLDATASIZE LT PUSH2 0x4C JUMPI PUSH1 0x0 CALLDATALOAD PUSH1 0xE0 SHR DUP1 PUSH4 0xCFC86D6 EQ PUSH2 0x51 JUMPI DUP1 PUSH4 0x13AF4035 EQ PUSH2 0x5B JUMPI DUP1 PUSH4 0x196E0A1A EQ PUSH2 0x77 JUMPI DUP1 PUSH4 0x8DA5CB5B EQ PUSH2 0x81 JUMPI JUMPDEST PUSH1 0x0 DUP1 REVERT JUMPDEST PUSH2 0x59 PUSH2 0x9F JUMP JUMPDEST STOP JUMPDEST PUSH2 0x75 PUSH1 0x4 DUP1 CALLDATASIZE SUB DUP2 ADD SWAP1 PUSH2 0x70 SWAP2 SWAP1 PUSH2 0x21E JUMP JUMPDEST PUSH2 0x130 JUMP JUMPDEST STOP JUMPDEST PUSH2 0x7F PUSH2 0x1E3 JUMP JUMPDEST STOP JUMPDEST PUSH2 0x89 PUSH2 0x1E5 JUMP JUMPDEST PUSH1 0x40 MLOAD PUSH2 0x96 SWAP2 SWAP1 PUSH2 0x2A0 JUMP JUMPDEST PUSH1 0x40 MLOAD DUP1 SWAP2 SUB SWAP1 RETURN JUMPDEST PUSH1 0x0 DUP1 SLOAD SWAP1 PUSH2 0x100 EXP SWAP1 DIV PUSH20 0xFFFFFFFFFFFFFFFFFFFFFFFFFFFFFFFFFFFFFFFF AND PUSH20 0xFFFFFFFFFFFFFFFFFFFFFFFFFFFFFFFFFFFFFFFF AND CALLER PUSH20 0xFFFFFFFFFFFFFFFFFFFFFFFFFFFFFFFFFFFFFFFF AND EQ ISZERO PUSH2 0x12E JUMPI PUSH1 0x40 MLOAD PUSH32 0x8C379A000000000000000000000000000000000000000000000000000000000 DUP2 MSTORE PUSH1 0x4 ADD PUSH2 0x125 SWAP1 PUSH2 0x2DB JUMP JUMPDEST PUSH1 0x40 MLOAD DUP1 SWAP2 SUB SWAP1 REVERT JUMPDEST JUMP JUMPDEST PUSH1 0x0 PUSH20 0xFFFFFFFFFFFFFFFFFFFFFFFFFFFFFFFFFFFFFFFF AND DUP2 PUSH20 0xFFFFFFFFFFFFFFFFFFFFFFFFFFFFFFFFFFFFFFFF AND EQ ISZERO PUSH2 0x1A0 JUMPI PUSH1 0x40 MLOAD PUSH32 0x8C379A000000000000000000000000000000000000000000000000000000000 DUP2 MSTORE PUSH1 0x4 ADD PUSH2 0x197 SWAP1 PUSH2 0x2BB JUMP JUMPDEST PUSH1 0x40 MLOAD DUP1 SWAP2 SUB SWAP1 REVERT JUMPDEST DUP1 PUSH1 0x0 DUP1 PUSH2 0x100 EXP DUP2 SLOAD DUP2 PUSH20 0xFFFFFFFFFFFFFFFFFFFFFFFFFFFFFFFFFFFFFFFF MUL NOT AND SWAP1 DUP4 PUSH20 0xFFFFFFFFFFFFFFFFFFFFFFFFFFFFFFFFFFFFFFFF AND MUL OR SWAP1 SSTORE POP POP JUMP JUMPDEST JUMP JUMPDEST PUSH1 0x0 DUP1 SLOAD SWAP1 PUSH2 0x100 EXP SWAP1 DIV PUSH20 0xFFFFFFFFFFFFFFFFFFFFFFFFFFFFFFFFFFFFFFFF AND DUP2 JUMP JUMPDEST PUSH1 0x0 DUP2 CALLDATALOAD SWAP1 POP PUSH2 0x218 DUP2 PUSH2 0x395 JUMP JUMPDEST SWAP3 SWAP2 POP POP JUMP JUMPDEST PUSH1 0x0 PUSH1 0x20 DUP3 DUP5 SUB SLT ISZERO PUSH2 0x234 JUMPI PUSH2 0x233 PUSH2 0x33E JUMP JUMPDEST JUMPDEST PUSH1 0x0 PUSH2 0x242 DUP5 DUP3 DUP6 ADD PUSH2 0x209 JUMP JUMPDEST SWAP2 POP POP SWAP3 SWAP2 POP POP JUMP JUMPDEST PUSH2 0x254 DUP2 PUSH2 0x30C JUMP JUMPDEST DUP3 MSTORE POP POP JUMP JUMPDEST PUSH1 0x0 PUSH2 0x267 PUSH1 0xF DUP4 PUSH2 0x2FB JUMP JUMPDEST SWAP2 POP PUSH2 0x272 DUP3 PUSH2 0x343 JUMP JUMPDEST PUSH1 0x20 DUP3 ADD SWAP1 POP SWAP2 SWAP1 POP JUMP JUMPDEST PUSH1 0x0 PUSH2 0x28A PUSH1 0x9 DUP4 PUSH2 0x2FB JUMP JUMPDEST SWAP2 POP PUSH2 0x295 DUP3 PUSH2 0x36C JUMP JUMPDEST PUSH1 0x20 DUP3 ADD SWAP1 POP SWAP2 SWAP1 POP JUMP JUMPDEST PUSH1 0x0 PUSH1 0x20 DUP3 ADD SWAP1 POP PUSH2 0x2B5 PUSH1 0x0 DUP4 ADD DUP5 PUSH2 0x24B JUMP JUMPDEST SWAP3 SWAP2 POP POP JUMP JUMPDEST PUSH1 0x0 PUSH1 0x20 DUP3 ADD SWAP1 POP DUP2 DUP2 SUB PUSH1 0x0 DUP4 ADD MSTORE PUSH2 0x2D4 DUP2 PUSH2 0x25A JUMP JUMPDEST SWAP1 POP SWAP2 SWAP1 POP JUMP JUMPDEST PUSH1 0x0 PUSH1 0x20 DUP3 ADD SWAP1 POP DUP2 DUP2 SUB PUSH1 0x0 DUP4 ADD MSTORE PUSH2 0x2F4 DUP2 PUSH2 0x27D JUMP JUMPDEST SWAP1 POP SWAP2 SWAP1 POP JUMP JUMPDEST PUSH1 0x0 DUP3 DUP3 MSTORE PUSH1 0x20 DUP3 ADD SWAP1 POP SWAP3 SWAP2 POP POP JUMP JUMPDEST PUSH1 0x0 PUSH2 0x317 DUP3 PUSH2 0x31E JUMP JUMPDEST SWAP1 POP SWAP2 SWAP1 POP JUMP JUMPDEST PUSH1 0x0 PUSH20 0xFFFFFFFFFFFFFFFFFFFFFFFFFFFFFFFFFFFFFFFF DUP3 AND SWAP1 POP SWAP2 SWAP1 POP JUMP JUMPDEST PUSH1 0x0 DUP1 REVERT JUMPDEST PUSH32 0x696E7661696C6420616464726573730000000000000000000000000000000000 PUSH1 0x0 DUP3 ADD MSTORE POP JUMP JUMPDEST PUSH32 0x6E6F74206F776E65720000000000000000000000000000000000000000000000 PUSH1 0x0 DUP3 ADD MSTORE POP JUMP JUMPDEST PUSH2 0x39E DUP2 PUSH2 0x30C JUMP JUMPDEST DUP2 EQ PUSH2 0x3A9 JUMPI PUSH1 0x0 DUP1 REVERT JUMPDEST POP JUMP INVALID LOG2 PUSH5 0x6970667358 0x22 SLT KECCAK256 0x4F CODECOPY PUSH6 0x251E8EF7AD45 COINBASE ORIGIN PUSH13 0x39871A1BF14CBC72AC1F8D7FE6 EXTCODEHASH 0x4C 0x4C 0xB6 PUSH26 0xC70E64736F6C6343000807003300000000000000000000000000 "
				},
				"gasEstimates": {
					"creation": {
						"codeDepositCost": "198800",
						"executionCost": "24511",
						"totalCost": "223311"
					},
					"external": {
						"anyCallThisFunc()": "166",
						"onlyOwnerCallThisFunc()": "2581",
						"owner()": "2555",
						"setOwner(address)": "24760"
					}
				},
				"methodIdentifiers": {
					"anyCallThisFunc()": "196e0a1a",
					"onlyOwnerCallThisFunc()": "0cfc86d6",
					"owner()": "8da5cb5b",
					"setOwner(address)": "13af4035"
				}
			},
			"storageLayout": {
				"storage": [
					{
						"astId": 3,
						"contract": "11_OwnableCase.sol:Ownable",
						"label": "owner",
						"offset": 0,
						"slot": "0",
						"type": "t_address"
					}
				],
				"types": {
					"t_address": {
						"encoding": "inplace",
						"label": "address",
						"numberOfBytes": "20"
					}
				}
			},
			"userdoc": {
				"kind": "user",
				"methods": {},
				"version": 1
			}
		}
	}
}