{
	"34_VerifySign.sol": {
		"VerifySign": {
			"abi": [
				{
					"inputs": [
						{
							"internalType": "bytes32",
							"name": "_messageHash",
							"type": "bytes32"
						}
					],
					"name": "getEthSignedMessage",
					"outputs": [
						{
							"internalType": "bytes32",
							"name": "",
							"type": "bytes32"
						}
					],
					"stateMutability": "pure",
					"type": "function"
				},
				{
					"inputs": [
						{
							"internalType": "string",
							"name": "_message",
							"type": "string"
						}
					],
					"name": "getMessageHash",
					"outputs": [
						{
							"internalType": "bytes32",
							"name": "",
							"type": "bytes32"
						}
					],
					"stateMutability": "pure",
					"type": "function"
				},
				{
					"inputs": [
						{
							"internalType": "address",
							"name": "_address",
							"type": "address"
						},
						{
							"internalType": "string",
							"name": "_message",
							"type": "string"
						},
						{
							"internalType": "bytes",
							"name": "_signature",
							"type": "bytes"
						}
					],
					"name": "verify",
					"outputs": [
						{
							"internalType": "bool",
							"name": "",
							"type": "bool"
						}
					],
					"stateMutability": "pure",
					"type": "function"
				}
			],
			"devdoc": {
				"kind": "dev",
				"methods": {},
				"version": 1
			},
			"evm": {
				"assembly": "    /* \"34_VerifySign.sol\":193:1602  contract VerifySign{... */\n  mstore(0x40, 0x80)\n  callvalue\n  dup1\n  iszero\n  tag_1\n  jumpi\n  0x00\n  dup1\n  revert\ntag_1:\n  pop\n  dataSize(sub_0)\n  dup1\n  dataOffset(sub_0)\n  0x00\n  codecopy\n  0x00\n  return\nstop\n\nsub_0: assembly {\n        /* \"34_VerifySign.sol\":193:1602  contract VerifySign{... */\n      mstore(0x40, 0x80)\n      callvalue\n      dup1\n      iszero\n      tag_1\n      jumpi\n      0x00\n      dup1\n      revert\n    tag_1:\n      pop\n      jumpi(tag_2, lt(calldatasize, 0x04))\n      shr(0xe0, calldataload(0x00))\n      dup1\n      0x2dd34f0f\n      eq\n      tag_3\n      jumpi\n      dup1\n      0x861749b8\n      eq\n      tag_4\n      jumpi\n      dup1\n      0xb446f3b2\n      eq\n      tag_5\n      jumpi\n    tag_2:\n      0x00\n      dup1\n      revert\n        /* \"34_VerifySign.sol\":219:550  function verify(address _address, string memory _message, bytes memory _signature) ... */\n    tag_3:\n      tag_6\n      0x04\n      dup1\n      calldatasize\n      sub\n      dup2\n      add\n      swap1\n      tag_7\n      swap2\n      swap1\n      tag_8\n      jump\t// in\n    tag_7:\n      tag_9\n      jump\t// in\n    tag_6:\n      mload(0x40)\n      tag_10\n      swap2\n      swap1\n      tag_11\n      jump\t// in\n    tag_10:\n      mload(0x40)\n      dup1\n      swap2\n      sub\n      swap1\n      return\n        /* \"34_VerifySign.sol\":756:970  function getEthSignedMessage(bytes32 _messageHash) public pure returns(bytes32){... */\n    tag_4:\n      tag_12\n      0x04\n      dup1\n      calldatasize\n      sub\n      dup2\n      add\n      swap1\n      tag_13\n      swap2\n      swap1\n      tag_14\n      jump\t// in\n    tag_13:\n      tag_15\n      jump\t// in\n    tag_12:\n      mload(0x40)\n      tag_16\n      swap2\n      swap1\n      tag_17\n      jump\t// in\n    tag_16:\n      mload(0x40)\n      dup1\n      swap2\n      sub\n      swap1\n      return\n        /* \"34_VerifySign.sol\":556:693  function getMessageHash(string memory _message) public pure returns(bytes32){... */\n    tag_5:\n      tag_18\n      0x04\n      dup1\n      calldatasize\n      sub\n      dup2\n      add\n      swap1\n      tag_19\n      swap2\n      swap1\n      tag_20\n      jump\t// in\n    tag_19:\n      tag_21\n      jump\t// in\n    tag_18:\n      mload(0x40)\n      tag_22\n      swap2\n      swap1\n      tag_17\n      jump\t// in\n    tag_22:\n      mload(0x40)\n      dup1\n      swap2\n      sub\n      swap1\n      return\n        /* \"34_VerifySign.sol\":219:550  function verify(address _address, string memory _message, bytes memory _signature) ... */\n    tag_9:\n        /* \"34_VerifySign.sol\":334:338  bool */\n      0x00\n        /* \"34_VerifySign.sol\":354:373  bytes32 messageHash */\n      dup1\n        /* \"34_VerifySign.sol\":376:400  getMessageHash(_message) */\n      tag_24\n        /* \"34_VerifySign.sol\":391:399  _message */\n      dup5\n        /* \"34_VerifySign.sol\":376:390  getMessageHash */\n      tag_21\n        /* \"34_VerifySign.sol\":376:400  getMessageHash(_message) */\n      jump\t// in\n    tag_24:\n        /* \"34_VerifySign.sol\":354:400  bytes32 messageHash = getMessageHash(_message) */\n      swap1\n      pop\n        /* \"34_VerifySign.sol\":410:438  bytes32 ethSignedMessageHash */\n      0x00\n        /* \"34_VerifySign.sol\":441:473  getEthSignedMessage(messageHash) */\n      tag_25\n        /* \"34_VerifySign.sol\":461:472  messageHash */\n      dup3\n        /* \"34_VerifySign.sol\":441:460  getEthSignedMessage */\n      tag_15\n        /* \"34_VerifySign.sol\":441:473  getEthSignedMessage(messageHash) */\n      jump\t// in\n    tag_25:\n        /* \"34_VerifySign.sol\":410:473  bytes32 ethSignedMessageHash = getEthSignedMessage(messageHash) */\n      swap1\n      pop\n        /* \"34_VerifySign.sol\":535:543  _address */\n      dup6\n        /* \"34_VerifySign.sol\":490:543  recover(ethSignedMessageHash, _signature) == _address */\n      0xffffffffffffffffffffffffffffffffffffffff\n      and\n        /* \"34_VerifySign.sol\":490:531  recover(ethSignedMessageHash, _signature) */\n      tag_26\n        /* \"34_VerifySign.sol\":498:518  ethSignedMessageHash */\n      dup3\n        /* \"34_VerifySign.sol\":520:530  _signature */\n      dup7\n        /* \"34_VerifySign.sol\":490:497  recover */\n      tag_27\n        /* \"34_VerifySign.sol\":490:531  recover(ethSignedMessageHash, _signature) */\n      jump\t// in\n    tag_26:\n        /* \"34_VerifySign.sol\":490:543  recover(ethSignedMessageHash, _signature) == _address */\n      0xffffffffffffffffffffffffffffffffffffffff\n      and\n      eq\n        /* \"34_VerifySign.sol\":483:543  return recover(ethSignedMessageHash, _signature) == _address */\n      swap3\n      pop\n      pop\n      pop\n        /* \"34_VerifySign.sol\":219:550  function verify(address _address, string memory _message, bytes memory _signature) ... */\n      swap4\n      swap3\n      pop\n      pop\n      pop\n      jump\t// out\n        /* \"34_VerifySign.sol\":756:970  function getEthSignedMessage(bytes32 _messageHash) public pure returns(bytes32){... */\n    tag_15:\n        /* \"34_VerifySign.sol\":827:834  bytes32 */\n      0x00\n        /* \"34_VerifySign.sol\":940:952  _messageHash */\n      dup2\n        /* \"34_VerifySign.sol\":862:962  abi.encodePacked(... */\n      add(0x20, mload(0x40))\n      tag_29\n      swap2\n      swap1\n      tag_30\n      jump\t// in\n    tag_29:\n      mload(0x40)\n      0x20\n      dup2\n      dup4\n      sub\n      sub\n      dup2\n      mstore\n      swap1\n      0x40\n      mstore\n        /* \"34_VerifySign.sol\":852:963  keccak256(abi.encodePacked(... */\n      dup1\n      mload\n      swap1\n      0x20\n      add\n      keccak256\n        /* \"34_VerifySign.sol\":845:963  return keccak256(abi.encodePacked(... */\n      swap1\n      pop\n        /* \"34_VerifySign.sol\":756:970  function getEthSignedMessage(bytes32 _messageHash) public pure returns(bytes32){... */\n      swap2\n      swap1\n      pop\n      jump\t// out\n        /* \"34_VerifySign.sol\":556:693  function getMessageHash(string memory _message) public pure returns(bytes32){... */\n    tag_21:\n        /* \"34_VerifySign.sol\":624:631  bytes32 */\n      0x00\n        /* \"34_VerifySign.sol\":676:684  _message */\n      dup2\n        /* \"34_VerifySign.sol\":659:685  abi.encodePacked(_message) */\n      add(0x20, mload(0x40))\n      tag_32\n      swap2\n      swap1\n      tag_33\n      jump\t// in\n    tag_32:\n      mload(0x40)\n      0x20\n      dup2\n      dup4\n      sub\n      sub\n      dup2\n      mstore\n      swap1\n      0x40\n      mstore\n        /* \"34_VerifySign.sol\":649:686  keccak256(abi.encodePacked(_message)) */\n      dup1\n      mload\n      swap1\n      0x20\n      add\n      keccak256\n        /* \"34_VerifySign.sol\":642:686  return keccak256(abi.encodePacked(_message)) */\n      swap1\n      pop\n        /* \"34_VerifySign.sol\":556:693  function getMessageHash(string memory _message) public pure returns(bytes32){... */\n      swap2\n      swap1\n      pop\n      jump\t// out\n        /* \"34_VerifySign.sol\":977:1221  function recover(bytes32 _ethSignedMessageHash, bytes memory _signature) ... */\n    tag_27:\n        /* \"34_VerifySign.sol\":1081:1088  address */\n      0x00\n        /* \"34_VerifySign.sol\":1105:1114  bytes32 r */\n      dup1\n        /* \"34_VerifySign.sol\":1116:1125  bytes32 s */\n      0x00\n        /* \"34_VerifySign.sol\":1127:1134  uint8 v */\n      dup1\n        /* \"34_VerifySign.sol\":1138:1156  _split(_signature) */\n      tag_35\n        /* \"34_VerifySign.sol\":1145:1155  _signature */\n      dup6\n        /* \"34_VerifySign.sol\":1138:1144  _split */\n      tag_36\n        /* \"34_VerifySign.sol\":1138:1156  _split(_signature) */\n      jump\t// in\n    tag_35:\n        /* \"34_VerifySign.sol\":1104:1156  (bytes32 r, bytes32 s, uint8 v) = _split(_signature) */\n      swap3\n      pop\n      swap3\n      pop\n      swap3\n      pop\n        /* \"34_VerifySign.sol\":1173:1214  ecrecover(_ethSignedMessageHash, v, r, s) */\n      0x01\n        /* \"34_VerifySign.sol\":1183:1204  _ethSignedMessageHash */\n      dup7\n        /* \"34_VerifySign.sol\":1206:1207  v */\n      dup3\n        /* \"34_VerifySign.sol\":1209:1210  r */\n      dup6\n        /* \"34_VerifySign.sol\":1212:1213  s */\n      dup6\n        /* \"34_VerifySign.sol\":1173:1214  ecrecover(_ethSignedMessageHash, v, r, s) */\n      mload(0x40)\n      0x00\n      dup2\n      mstore\n      0x20\n      add\n      0x40\n      mstore\n      mload(0x40)\n      tag_37\n      swap5\n      swap4\n      swap3\n      swap2\n      swap1\n      tag_38\n      jump\t// in\n    tag_37:\n      0x20\n      mload(0x40)\n      0x20\n      dup2\n      sub\n      swap1\n      dup1\n      dup5\n      sub\n      swap1\n      dup6\n      gas\n      staticcall\n      iszero\n      dup1\n      iszero\n      tag_40\n      jumpi\n      returndatasize\n      0x00\n      dup1\n      returndatacopy\n      revert(0x00, returndatasize)\n    tag_40:\n      pop\n      pop\n      pop\n      mload(sub(mload(0x40), 0x20))\n        /* \"34_VerifySign.sol\":1166:1214  return ecrecover(_ethSignedMessageHash, v, r, s) */\n      swap4\n      pop\n      pop\n      pop\n      pop\n        /* \"34_VerifySign.sol\":977:1221  function recover(bytes32 _ethSignedMessageHash, bytes memory _signature) ... */\n      swap3\n      swap2\n      pop\n      pop\n      jump\t// out\n        /* \"34_VerifySign.sol\":1227:1600  function _split(bytes memory _signature) internal pure returns(bytes32 r,bytes32 s,uint8 v){... */\n    tag_36:\n        /* \"34_VerifySign.sol\":1290:1299  bytes32 r */\n      0x00\n        /* \"34_VerifySign.sol\":1300:1309  bytes32 s */\n      dup1\n        /* \"34_VerifySign.sol\":1310:1317  uint8 v */\n      0x00\n        /* \"34_VerifySign.sol\":1355:1357  65 */\n      0x41\n        /* \"34_VerifySign.sol\":1336:1346  _signature */\n      dup5\n        /* \"34_VerifySign.sol\":1336:1353  _signature.length */\n      mload\n        /* \"34_VerifySign.sol\":1336:1357  _signature.length==65 */\n      eq\n        /* \"34_VerifySign.sol\":1328:1385  require(_signature.length==65,\"invalid signature length\") */\n      tag_42\n      jumpi\n      mload(0x40)\n      0x08c379a000000000000000000000000000000000000000000000000000000000\n      dup2\n      mstore\n      0x04\n      add\n      tag_43\n      swap1\n      tag_44\n      jump\t// in\n    tag_43:\n      mload(0x40)\n      dup1\n      swap2\n      sub\n      swap1\n      revert\n    tag_42:\n        /* \"34_VerifySign.sol\":1460:1462  32 */\n      0x20\n        /* \"34_VerifySign.sol\":1449:1459  _signature */\n      dup5\n        /* \"34_VerifySign.sol\":1445:1463  add(_signature,32) */\n      add\n        /* \"34_VerifySign.sol\":1439:1464  mload(add(_signature,32)) */\n      mload\n        /* \"34_VerifySign.sol\":1434:1464  r := mload(add(_signature,32)) */\n      swap3\n      pop\n        /* \"34_VerifySign.sol\":1503:1505  64 */\n      0x40\n        /* \"34_VerifySign.sol\":1492:1502  _signature */\n      dup5\n        /* \"34_VerifySign.sol\":1488:1506  add(_signature,64) */\n      add\n        /* \"34_VerifySign.sol\":1482:1507  mload(add(_signature,64)) */\n      mload\n        /* \"34_VerifySign.sol\":1477:1507  s := mload(add(_signature,64)) */\n      swap2\n      pop\n        /* \"34_VerifySign.sol\":1553:1555  96 */\n      0x60\n        /* \"34_VerifySign.sol\":1542:1552  _signature */\n      dup5\n        /* \"34_VerifySign.sol\":1538:1556  add(_signature,96) */\n      add\n        /* \"34_VerifySign.sol\":1532:1557  mload(add(_signature,96)) */\n      mload\n        /* \"34_VerifySign.sol\":1530:1531  0 */\n      0x00\n        /* \"34_VerifySign.sol\":1525:1558  byte(0,mload(add(_signature,96))) */\n      byte\n        /* \"34_VerifySign.sol\":1520:1558  v := byte(0,mload(add(_signature,96))) */\n      swap1\n      pop\n        /* \"34_VerifySign.sol\":1227:1600  function _split(bytes memory _signature) internal pure returns(bytes32 r,bytes32 s,uint8 v){... */\n      swap2\n      swap4\n      swap1\n      swap3\n      pop\n      jump\t// out\n        /* \"#utility.yul\":7:417   */\n    tag_46:\n        /* \"#utility.yul\":84:89   */\n      0x00\n        /* \"#utility.yul\":109:174   */\n      tag_48\n        /* \"#utility.yul\":125:173   */\n      tag_49\n        /* \"#utility.yul\":166:172   */\n      dup5\n        /* \"#utility.yul\":125:173   */\n      tag_50\n      jump\t// in\n    tag_49:\n        /* \"#utility.yul\":109:174   */\n      tag_51\n      jump\t// in\n    tag_48:\n        /* \"#utility.yul\":100:174   */\n      swap1\n      pop\n        /* \"#utility.yul\":197:203   */\n      dup3\n        /* \"#utility.yul\":190:195   */\n      dup2\n        /* \"#utility.yul\":183:204   */\n      mstore\n        /* \"#utility.yul\":235:239   */\n      0x20\n        /* \"#utility.yul\":228:233   */\n      dup2\n        /* \"#utility.yul\":224:240   */\n      add\n        /* \"#utility.yul\":273:276   */\n      dup5\n        /* \"#utility.yul\":264:270   */\n      dup5\n        /* \"#utility.yul\":259:262   */\n      dup5\n        /* \"#utility.yul\":255:271   */\n      add\n        /* \"#utility.yul\":252:277   */\n      gt\n        /* \"#utility.yul\":249:361   */\n      iszero\n      tag_52\n      jumpi\n        /* \"#utility.yul\":280:359   */\n      tag_53\n      tag_54\n      jump\t// in\n    tag_53:\n        /* \"#utility.yul\":249:361   */\n    tag_52:\n        /* \"#utility.yul\":370:411   */\n      tag_55\n        /* \"#utility.yul\":404:410   */\n      dup5\n        /* \"#utility.yul\":399:402   */\n      dup3\n        /* \"#utility.yul\":394:397   */\n      dup6\n        /* \"#utility.yul\":370:411   */\n      tag_56\n      jump\t// in\n    tag_55:\n        /* \"#utility.yul\":90:417   */\n      pop\n        /* \"#utility.yul\":7:417   */\n      swap4\n      swap3\n      pop\n      pop\n      pop\n      jump\t// out\n        /* \"#utility.yul\":423:835   */\n    tag_57:\n        /* \"#utility.yul\":501:506   */\n      0x00\n        /* \"#utility.yul\":526:592   */\n      tag_59\n        /* \"#utility.yul\":542:591   */\n      tag_60\n        /* \"#utility.yul\":584:590   */\n      dup5\n        /* \"#utility.yul\":542:591   */\n      tag_61\n      jump\t// in\n    tag_60:\n        /* \"#utility.yul\":526:592   */\n      tag_51\n      jump\t// in\n    tag_59:\n        /* \"#utility.yul\":517:592   */\n      swap1\n      pop\n        /* \"#utility.yul\":615:621   */\n      dup3\n        /* \"#utility.yul\":608:613   */\n      dup2\n        /* \"#utility.yul\":601:622   */\n      mstore\n        /* \"#utility.yul\":653:657   */\n      0x20\n        /* \"#utility.yul\":646:651   */\n      dup2\n        /* \"#utility.yul\":642:658   */\n      add\n        /* \"#utility.yul\":691:694   */\n      dup5\n        /* \"#utility.yul\":682:688   */\n      dup5\n        /* \"#utility.yul\":677:680   */\n      dup5\n        /* \"#utility.yul\":673:689   */\n      add\n        /* \"#utility.yul\":670:695   */\n      gt\n        /* \"#utility.yul\":667:779   */\n      iszero\n      tag_62\n      jumpi\n        /* \"#utility.yul\":698:777   */\n      tag_63\n      tag_54\n      jump\t// in\n    tag_63:\n        /* \"#utility.yul\":667:779   */\n    tag_62:\n        /* \"#utility.yul\":788:829   */\n      tag_64\n        /* \"#utility.yul\":822:828   */\n      dup5\n        /* \"#utility.yul\":817:820   */\n      dup3\n        /* \"#utility.yul\":812:815   */\n      dup6\n        /* \"#utility.yul\":788:829   */\n      tag_56\n      jump\t// in\n    tag_64:\n        /* \"#utility.yul\":507:835   */\n      pop\n        /* \"#utility.yul\":423:835   */\n      swap4\n      swap3\n      pop\n      pop\n      pop\n      jump\t// out\n        /* \"#utility.yul\":841:980   */\n    tag_65:\n        /* \"#utility.yul\":887:892   */\n      0x00\n        /* \"#utility.yul\":925:931   */\n      dup2\n        /* \"#utility.yul\":912:932   */\n      calldataload\n        /* \"#utility.yul\":903:932   */\n      swap1\n      pop\n        /* \"#utility.yul\":941:974   */\n      tag_67\n        /* \"#utility.yul\":968:973   */\n      dup2\n        /* \"#utility.yul\":941:974   */\n      tag_68\n      jump\t// in\n    tag_67:\n        /* \"#utility.yul\":841:980   */\n      swap3\n      swap2\n      pop\n      pop\n      jump\t// out\n        /* \"#utility.yul\":986:1125   */\n    tag_69:\n        /* \"#utility.yul\":1032:1037   */\n      0x00\n        /* \"#utility.yul\":1070:1076   */\n      dup2\n        /* \"#utility.yul\":1057:1077   */\n      calldataload\n        /* \"#utility.yul\":1048:1077   */\n      swap1\n      pop\n        /* \"#utility.yul\":1086:1119   */\n      tag_71\n        /* \"#utility.yul\":1113:1118   */\n      dup2\n        /* \"#utility.yul\":1086:1119   */\n      tag_72\n      jump\t// in\n    tag_71:\n        /* \"#utility.yul\":986:1125   */\n      swap3\n      swap2\n      pop\n      pop\n      jump\t// out\n        /* \"#utility.yul\":1144:1482   */\n    tag_73:\n        /* \"#utility.yul\":1199:1204   */\n      0x00\n        /* \"#utility.yul\":1248:1251   */\n      dup3\n        /* \"#utility.yul\":1241:1245   */\n      0x1f\n        /* \"#utility.yul\":1233:1239   */\n      dup4\n        /* \"#utility.yul\":1229:1246   */\n      add\n        /* \"#utility.yul\":1225:1252   */\n      slt\n        /* \"#utility.yul\":1215:1337   */\n      tag_75\n      jumpi\n        /* \"#utility.yul\":1256:1335   */\n      tag_76\n      tag_77\n      jump\t// in\n    tag_76:\n        /* \"#utility.yul\":1215:1337   */\n    tag_75:\n        /* \"#utility.yul\":1373:1379   */\n      dup2\n        /* \"#utility.yul\":1360:1380   */\n      calldataload\n        /* \"#utility.yul\":1398:1476   */\n      tag_78\n        /* \"#utility.yul\":1472:1475   */\n      dup5\n        /* \"#utility.yul\":1464:1470   */\n      dup3\n        /* \"#utility.yul\":1457:1461   */\n      0x20\n        /* \"#utility.yul\":1449:1455   */\n      dup7\n        /* \"#utility.yul\":1445:1462   */\n      add\n        /* \"#utility.yul\":1398:1476   */\n      tag_46\n      jump\t// in\n    tag_78:\n        /* \"#utility.yul\":1389:1476   */\n      swap2\n      pop\n        /* \"#utility.yul\":1205:1482   */\n      pop\n        /* \"#utility.yul\":1144:1482   */\n      swap3\n      swap2\n      pop\n      pop\n      jump\t// out\n        /* \"#utility.yul\":1502:1842   */\n    tag_79:\n        /* \"#utility.yul\":1558:1563   */\n      0x00\n        /* \"#utility.yul\":1607:1610   */\n      dup3\n        /* \"#utility.yul\":1600:1604   */\n      0x1f\n        /* \"#utility.yul\":1592:1598   */\n      dup4\n        /* \"#utility.yul\":1588:1605   */\n      add\n        /* \"#utility.yul\":1584:1611   */\n      slt\n        /* \"#utility.yul\":1574:1696   */\n      tag_81\n      jumpi\n        /* \"#utility.yul\":1615:1694   */\n      tag_82\n      tag_77\n      jump\t// in\n    tag_82:\n        /* \"#utility.yul\":1574:1696   */\n    tag_81:\n        /* \"#utility.yul\":1732:1738   */\n      dup2\n        /* \"#utility.yul\":1719:1739   */\n      calldataload\n        /* \"#utility.yul\":1757:1836   */\n      tag_83\n        /* \"#utility.yul\":1832:1835   */\n      dup5\n        /* \"#utility.yul\":1824:1830   */\n      dup3\n        /* \"#utility.yul\":1817:1821   */\n      0x20\n        /* \"#utility.yul\":1809:1815   */\n      dup7\n        /* \"#utility.yul\":1805:1822   */\n      add\n        /* \"#utility.yul\":1757:1836   */\n      tag_57\n      jump\t// in\n    tag_83:\n        /* \"#utility.yul\":1748:1836   */\n      swap2\n      pop\n        /* \"#utility.yul\":1564:1842   */\n      pop\n        /* \"#utility.yul\":1502:1842   */\n      swap3\n      swap2\n      pop\n      pop\n      jump\t// out\n        /* \"#utility.yul\":1848:2825   */\n    tag_8:\n        /* \"#utility.yul\":1944:1950   */\n      0x00\n        /* \"#utility.yul\":1952:1958   */\n      dup1\n        /* \"#utility.yul\":1960:1966   */\n      0x00\n        /* \"#utility.yul\":2009:2011   */\n      0x60\n        /* \"#utility.yul\":1997:2006   */\n      dup5\n        /* \"#utility.yul\":1988:1995   */\n      dup7\n        /* \"#utility.yul\":1984:2007   */\n      sub\n        /* \"#utility.yul\":1980:2012   */\n      slt\n        /* \"#utility.yul\":1977:2096   */\n      iszero\n      tag_85\n      jumpi\n        /* \"#utility.yul\":2015:2094   */\n      tag_86\n      tag_87\n      jump\t// in\n    tag_86:\n        /* \"#utility.yul\":1977:2096   */\n    tag_85:\n        /* \"#utility.yul\":2135:2136   */\n      0x00\n        /* \"#utility.yul\":2160:2213   */\n      tag_88\n        /* \"#utility.yul\":2205:2212   */\n      dup7\n        /* \"#utility.yul\":2196:2202   */\n      dup3\n        /* \"#utility.yul\":2185:2194   */\n      dup8\n        /* \"#utility.yul\":2181:2203   */\n      add\n        /* \"#utility.yul\":2160:2213   */\n      tag_65\n      jump\t// in\n    tag_88:\n        /* \"#utility.yul\":2150:2213   */\n      swap4\n      pop\n        /* \"#utility.yul\":2106:2223   */\n      pop\n        /* \"#utility.yul\":2290:2292   */\n      0x20\n        /* \"#utility.yul\":2279:2288   */\n      dup5\n        /* \"#utility.yul\":2275:2293   */\n      add\n        /* \"#utility.yul\":2262:2294   */\n      calldataload\n        /* \"#utility.yul\":2321:2339   */\n      0xffffffffffffffff\n        /* \"#utility.yul\":2313:2319   */\n      dup2\n        /* \"#utility.yul\":2310:2340   */\n      gt\n        /* \"#utility.yul\":2307:2424   */\n      iszero\n      tag_89\n      jumpi\n        /* \"#utility.yul\":2343:2422   */\n      tag_90\n      tag_91\n      jump\t// in\n    tag_90:\n        /* \"#utility.yul\":2307:2424   */\n    tag_89:\n        /* \"#utility.yul\":2448:2511   */\n      tag_92\n        /* \"#utility.yul\":2503:2510   */\n      dup7\n        /* \"#utility.yul\":2494:2500   */\n      dup3\n        /* \"#utility.yul\":2483:2492   */\n      dup8\n        /* \"#utility.yul\":2479:2501   */\n      add\n        /* \"#utility.yul\":2448:2511   */\n      tag_79\n      jump\t// in\n    tag_92:\n        /* \"#utility.yul\":2438:2511   */\n      swap3\n      pop\n        /* \"#utility.yul\":2233:2521   */\n      pop\n        /* \"#utility.yul\":2588:2590   */\n      0x40\n        /* \"#utility.yul\":2577:2586   */\n      dup5\n        /* \"#utility.yul\":2573:2591   */\n      add\n        /* \"#utility.yul\":2560:2592   */\n      calldataload\n        /* \"#utility.yul\":2619:2637   */\n      0xffffffffffffffff\n        /* \"#utility.yul\":2611:2617   */\n      dup2\n        /* \"#utility.yul\":2608:2638   */\n      gt\n        /* \"#utility.yul\":2605:2722   */\n      iszero\n      tag_93\n      jumpi\n        /* \"#utility.yul\":2641:2720   */\n      tag_94\n      tag_91\n      jump\t// in\n    tag_94:\n        /* \"#utility.yul\":2605:2722   */\n    tag_93:\n        /* \"#utility.yul\":2746:2808   */\n      tag_95\n        /* \"#utility.yul\":2800:2807   */\n      dup7\n        /* \"#utility.yul\":2791:2797   */\n      dup3\n        /* \"#utility.yul\":2780:2789   */\n      dup8\n        /* \"#utility.yul\":2776:2798   */\n      add\n        /* \"#utility.yul\":2746:2808   */\n      tag_73\n      jump\t// in\n    tag_95:\n        /* \"#utility.yul\":2736:2808   */\n      swap2\n      pop\n        /* \"#utility.yul\":2531:2818   */\n      pop\n        /* \"#utility.yul\":1848:2825   */\n      swap3\n      pop\n      swap3\n      pop\n      swap3\n      jump\t// out\n        /* \"#utility.yul\":2831:3160   */\n    tag_14:\n        /* \"#utility.yul\":2890:2896   */\n      0x00\n        /* \"#utility.yul\":2939:2941   */\n      0x20\n        /* \"#utility.yul\":2927:2936   */\n      dup3\n        /* \"#utility.yul\":2918:2925   */\n      dup5\n        /* \"#utility.yul\":2914:2937   */\n      sub\n        /* \"#utility.yul\":2910:2942   */\n      slt\n        /* \"#utility.yul\":2907:3026   */\n      iszero\n      tag_97\n      jumpi\n        /* \"#utility.yul\":2945:3024   */\n      tag_98\n      tag_87\n      jump\t// in\n    tag_98:\n        /* \"#utility.yul\":2907:3026   */\n    tag_97:\n        /* \"#utility.yul\":3065:3066   */\n      0x00\n        /* \"#utility.yul\":3090:3143   */\n      tag_99\n        /* \"#utility.yul\":3135:3142   */\n      dup5\n        /* \"#utility.yul\":3126:3132   */\n      dup3\n        /* \"#utility.yul\":3115:3124   */\n      dup6\n        /* \"#utility.yul\":3111:3133   */\n      add\n        /* \"#utility.yul\":3090:3143   */\n      tag_69\n      jump\t// in\n    tag_99:\n        /* \"#utility.yul\":3080:3143   */\n      swap2\n      pop\n        /* \"#utility.yul\":3036:3153   */\n      pop\n        /* \"#utility.yul\":2831:3160   */\n      swap3\n      swap2\n      pop\n      pop\n      jump\t// out\n        /* \"#utility.yul\":3166:3675   */\n    tag_20:\n        /* \"#utility.yul\":3235:3241   */\n      0x00\n        /* \"#utility.yul\":3284:3286   */\n      0x20\n        /* \"#utility.yul\":3272:3281   */\n      dup3\n        /* \"#utility.yul\":3263:3270   */\n      dup5\n        /* \"#utility.yul\":3259:3282   */\n      sub\n        /* \"#utility.yul\":3255:3287   */\n      slt\n        /* \"#utility.yul\":3252:3371   */\n      iszero\n      tag_101\n      jumpi\n        /* \"#utility.yul\":3290:3369   */\n      tag_102\n      tag_87\n      jump\t// in\n    tag_102:\n        /* \"#utility.yul\":3252:3371   */\n    tag_101:\n        /* \"#utility.yul\":3438:3439   */\n      0x00\n        /* \"#utility.yul\":3427:3436   */\n      dup3\n        /* \"#utility.yul\":3423:3440   */\n      add\n        /* \"#utility.yul\":3410:3441   */\n      calldataload\n        /* \"#utility.yul\":3468:3486   */\n      0xffffffffffffffff\n        /* \"#utility.yul\":3460:3466   */\n      dup2\n        /* \"#utility.yul\":3457:3487   */\n      gt\n        /* \"#utility.yul\":3454:3571   */\n      iszero\n      tag_103\n      jumpi\n        /* \"#utility.yul\":3490:3569   */\n      tag_104\n      tag_91\n      jump\t// in\n    tag_104:\n        /* \"#utility.yul\":3454:3571   */\n    tag_103:\n        /* \"#utility.yul\":3595:3658   */\n      tag_105\n        /* \"#utility.yul\":3650:3657   */\n      dup5\n        /* \"#utility.yul\":3641:3647   */\n      dup3\n        /* \"#utility.yul\":3630:3639   */\n      dup6\n        /* \"#utility.yul\":3626:3648   */\n      add\n        /* \"#utility.yul\":3595:3658   */\n      tag_79\n      jump\t// in\n    tag_105:\n        /* \"#utility.yul\":3585:3658   */\n      swap2\n      pop\n        /* \"#utility.yul\":3381:3668   */\n      pop\n        /* \"#utility.yul\":3166:3675   */\n      swap3\n      swap2\n      pop\n      pop\n      jump\t// out\n        /* \"#utility.yul\":3681:3790   */\n    tag_106:\n        /* \"#utility.yul\":3762:3783   */\n      tag_108\n        /* \"#utility.yul\":3777:3782   */\n      dup2\n        /* \"#utility.yul\":3762:3783   */\n      tag_109\n      jump\t// in\n    tag_108:\n        /* \"#utility.yul\":3757:3760   */\n      dup3\n        /* \"#utility.yul\":3750:3784   */\n      mstore\n        /* \"#utility.yul\":3681:3790   */\n      pop\n      pop\n      jump\t// out\n        /* \"#utility.yul\":3796:3914   */\n    tag_110:\n        /* \"#utility.yul\":3883:3907   */\n      tag_112\n        /* \"#utility.yul\":3901:3906   */\n      dup2\n        /* \"#utility.yul\":3883:3907   */\n      tag_113\n      jump\t// in\n    tag_112:\n        /* \"#utility.yul\":3878:3881   */\n      dup3\n        /* \"#utility.yul\":3871:3908   */\n      mstore\n        /* \"#utility.yul\":3796:3914   */\n      pop\n      pop\n      jump\t// out\n        /* \"#utility.yul\":3920:4077   */\n    tag_114:\n        /* \"#utility.yul\":4025:4070   */\n      tag_116\n        /* \"#utility.yul\":4045:4069   */\n      tag_117\n        /* \"#utility.yul\":4063:4068   */\n      dup3\n        /* \"#utility.yul\":4045:4069   */\n      tag_113\n      jump\t// in\n    tag_117:\n        /* \"#utility.yul\":4025:4070   */\n      tag_118\n      jump\t// in\n    tag_116:\n        /* \"#utility.yul\":4020:4023   */\n      dup3\n        /* \"#utility.yul\":4013:4071   */\n      mstore\n        /* \"#utility.yul\":3920:4077   */\n      pop\n      pop\n      jump\t// out\n        /* \"#utility.yul\":4083:4460   */\n    tag_119:\n        /* \"#utility.yul\":4189:4192   */\n      0x00\n        /* \"#utility.yul\":4217:4256   */\n      tag_121\n        /* \"#utility.yul\":4250:4255   */\n      dup3\n        /* \"#utility.yul\":4217:4256   */\n      tag_122\n      jump\t// in\n    tag_121:\n        /* \"#utility.yul\":4272:4361   */\n      tag_123\n        /* \"#utility.yul\":4354:4360   */\n      dup2\n        /* \"#utility.yul\":4349:4352   */\n      dup6\n        /* \"#utility.yul\":4272:4361   */\n      tag_124\n      jump\t// in\n    tag_123:\n        /* \"#utility.yul\":4265:4361   */\n      swap4\n      pop\n        /* \"#utility.yul\":4370:4422   */\n      tag_125\n        /* \"#utility.yul\":4415:4421   */\n      dup2\n        /* \"#utility.yul\":4410:4413   */\n      dup6\n        /* \"#utility.yul\":4403:4407   */\n      0x20\n        /* \"#utility.yul\":4396:4401   */\n      dup7\n        /* \"#utility.yul\":4392:4408   */\n      add\n        /* \"#utility.yul\":4370:4422   */\n      tag_126\n      jump\t// in\n    tag_125:\n        /* \"#utility.yul\":4447:4453   */\n      dup1\n        /* \"#utility.yul\":4442:4445   */\n      dup5\n        /* \"#utility.yul\":4438:4454   */\n      add\n        /* \"#utility.yul\":4431:4454   */\n      swap2\n      pop\n        /* \"#utility.yul\":4193:4460   */\n      pop\n        /* \"#utility.yul\":4083:4460   */\n      swap3\n      swap2\n      pop\n      pop\n      jump\t// out\n        /* \"#utility.yul\":4466:4868   */\n    tag_127:\n        /* \"#utility.yul\":4626:4629   */\n      0x00\n        /* \"#utility.yul\":4647:4732   */\n      tag_129\n        /* \"#utility.yul\":4729:4731   */\n      0x1c\n        /* \"#utility.yul\":4724:4727   */\n      dup4\n        /* \"#utility.yul\":4647:4732   */\n      tag_124\n      jump\t// in\n    tag_129:\n        /* \"#utility.yul\":4640:4732   */\n      swap2\n      pop\n        /* \"#utility.yul\":4741:4834   */\n      tag_130\n        /* \"#utility.yul\":4830:4833   */\n      dup3\n        /* \"#utility.yul\":4741:4834   */\n      tag_131\n      jump\t// in\n    tag_130:\n        /* \"#utility.yul\":4859:4861   */\n      0x1c\n        /* \"#utility.yul\":4854:4857   */\n      dup3\n        /* \"#utility.yul\":4850:4862   */\n      add\n        /* \"#utility.yul\":4843:4862   */\n      swap1\n      pop\n        /* \"#utility.yul\":4466:4868   */\n      swap2\n      swap1\n      pop\n      jump\t// out\n        /* \"#utility.yul\":4874:5240   */\n    tag_132:\n        /* \"#utility.yul\":5016:5019   */\n      0x00\n        /* \"#utility.yul\":5037:5104   */\n      tag_134\n        /* \"#utility.yul\":5101:5103   */\n      0x18\n        /* \"#utility.yul\":5096:5099   */\n      dup4\n        /* \"#utility.yul\":5037:5104   */\n      tag_135\n      jump\t// in\n    tag_134:\n        /* \"#utility.yul\":5030:5104   */\n      swap2\n      pop\n        /* \"#utility.yul\":5113:5206   */\n      tag_136\n        /* \"#utility.yul\":5202:5205   */\n      dup3\n        /* \"#utility.yul\":5113:5206   */\n      tag_137\n      jump\t// in\n    tag_136:\n        /* \"#utility.yul\":5231:5233   */\n      0x20\n        /* \"#utility.yul\":5226:5229   */\n      dup3\n        /* \"#utility.yul\":5222:5234   */\n      add\n        /* \"#utility.yul\":5215:5234   */\n      swap1\n      pop\n        /* \"#utility.yul\":4874:5240   */\n      swap2\n      swap1\n      pop\n      jump\t// out\n        /* \"#utility.yul\":5246:5358   */\n    tag_138:\n        /* \"#utility.yul\":5329:5351   */\n      tag_140\n        /* \"#utility.yul\":5345:5350   */\n      dup2\n        /* \"#utility.yul\":5329:5351   */\n      tag_141\n      jump\t// in\n    tag_140:\n        /* \"#utility.yul\":5324:5327   */\n      dup3\n        /* \"#utility.yul\":5317:5352   */\n      mstore\n        /* \"#utility.yul\":5246:5358   */\n      pop\n      pop\n      jump\t// out\n        /* \"#utility.yul\":5364:5639   */\n    tag_33:\n        /* \"#utility.yul\":5496:5499   */\n      0x00\n        /* \"#utility.yul\":5518:5613   */\n      tag_143\n        /* \"#utility.yul\":5609:5612   */\n      dup3\n        /* \"#utility.yul\":5600:5606   */\n      dup5\n        /* \"#utility.yul\":5518:5613   */\n      tag_119\n      jump\t// in\n    tag_143:\n        /* \"#utility.yul\":5511:5613   */\n      swap2\n      pop\n        /* \"#utility.yul\":5630:5633   */\n      dup2\n        /* \"#utility.yul\":5623:5633   */\n      swap1\n      pop\n        /* \"#utility.yul\":5364:5639   */\n      swap3\n      swap2\n      pop\n      pop\n      jump\t// out\n        /* \"#utility.yul\":5645:6167   */\n    tag_30:\n        /* \"#utility.yul\":5858:5861   */\n      0x00\n        /* \"#utility.yul\":5880:6028   */\n      tag_145\n        /* \"#utility.yul\":6024:6027   */\n      dup3\n        /* \"#utility.yul\":5880:6028   */\n      tag_127\n      jump\t// in\n    tag_145:\n        /* \"#utility.yul\":5873:6028   */\n      swap2\n      pop\n        /* \"#utility.yul\":6038:6113   */\n      tag_146\n        /* \"#utility.yul\":6109:6112   */\n      dup3\n        /* \"#utility.yul\":6100:6106   */\n      dup5\n        /* \"#utility.yul\":6038:6113   */\n      tag_114\n      jump\t// in\n    tag_146:\n        /* \"#utility.yul\":6138:6140   */\n      0x20\n        /* \"#utility.yul\":6133:6136   */\n      dup3\n        /* \"#utility.yul\":6129:6141   */\n      add\n        /* \"#utility.yul\":6122:6141   */\n      swap2\n      pop\n        /* \"#utility.yul\":6158:6161   */\n      dup2\n        /* \"#utility.yul\":6151:6161   */\n      swap1\n      pop\n        /* \"#utility.yul\":5645:6167   */\n      swap3\n      swap2\n      pop\n      pop\n      jump\t// out\n        /* \"#utility.yul\":6173:6383   */\n    tag_11:\n        /* \"#utility.yul\":6260:6264   */\n      0x00\n        /* \"#utility.yul\":6298:6300   */\n      0x20\n        /* \"#utility.yul\":6287:6296   */\n      dup3\n        /* \"#utility.yul\":6283:6301   */\n      add\n        /* \"#utility.yul\":6275:6301   */\n      swap1\n      pop\n        /* \"#utility.yul\":6311:6376   */\n      tag_148\n        /* \"#utility.yul\":6373:6374   */\n      0x00\n        /* \"#utility.yul\":6362:6371   */\n      dup4\n        /* \"#utility.yul\":6358:6375   */\n      add\n        /* \"#utility.yul\":6349:6355   */\n      dup5\n        /* \"#utility.yul\":6311:6376   */\n      tag_106\n      jump\t// in\n    tag_148:\n        /* \"#utility.yul\":6173:6383   */\n      swap3\n      swap2\n      pop\n      pop\n      jump\t// out\n        /* \"#utility.yul\":6389:6611   */\n    tag_17:\n        /* \"#utility.yul\":6482:6486   */\n      0x00\n        /* \"#utility.yul\":6520:6522   */\n      0x20\n        /* \"#utility.yul\":6509:6518   */\n      dup3\n        /* \"#utility.yul\":6505:6523   */\n      add\n        /* \"#utility.yul\":6497:6523   */\n      swap1\n      pop\n        /* \"#utility.yul\":6533:6604   */\n      tag_150\n        /* \"#utility.yul\":6601:6602   */\n      0x00\n        /* \"#utility.yul\":6590:6599   */\n      dup4\n        /* \"#utility.yul\":6586:6603   */\n      add\n        /* \"#utility.yul\":6577:6583   */\n      dup5\n        /* \"#utility.yul\":6533:6604   */\n      tag_110\n      jump\t// in\n    tag_150:\n        /* \"#utility.yul\":6389:6611   */\n      swap3\n      swap2\n      pop\n      pop\n      jump\t// out\n        /* \"#utility.yul\":6617:7162   */\n    tag_38:\n        /* \"#utility.yul\":6790:6794   */\n      0x00\n        /* \"#utility.yul\":6828:6831   */\n      0x80\n        /* \"#utility.yul\":6817:6826   */\n      dup3\n        /* \"#utility.yul\":6813:6832   */\n      add\n        /* \"#utility.yul\":6805:6832   */\n      swap1\n      pop\n        /* \"#utility.yul\":6842:6913   */\n      tag_152\n        /* \"#utility.yul\":6910:6911   */\n      0x00\n        /* \"#utility.yul\":6899:6908   */\n      dup4\n        /* \"#utility.yul\":6895:6912   */\n      add\n        /* \"#utility.yul\":6886:6892   */\n      dup8\n        /* \"#utility.yul\":6842:6913   */\n      tag_110\n      jump\t// in\n    tag_152:\n        /* \"#utility.yul\":6923:6991   */\n      tag_153\n        /* \"#utility.yul\":6987:6989   */\n      0x20\n        /* \"#utility.yul\":6976:6985   */\n      dup4\n        /* \"#utility.yul\":6972:6990   */\n      add\n        /* \"#utility.yul\":6963:6969   */\n      dup7\n        /* \"#utility.yul\":6923:6991   */\n      tag_138\n      jump\t// in\n    tag_153:\n        /* \"#utility.yul\":7001:7073   */\n      tag_154\n        /* \"#utility.yul\":7069:7071   */\n      0x40\n        /* \"#utility.yul\":7058:7067   */\n      dup4\n        /* \"#utility.yul\":7054:7072   */\n      add\n        /* \"#utility.yul\":7045:7051   */\n      dup6\n        /* \"#utility.yul\":7001:7073   */\n      tag_110\n      jump\t// in\n    tag_154:\n        /* \"#utility.yul\":7083:7155   */\n      tag_155\n        /* \"#utility.yul\":7151:7153   */\n      0x60\n        /* \"#utility.yul\":7140:7149   */\n      dup4\n        /* \"#utility.yul\":7136:7154   */\n      add\n        /* \"#utility.yul\":7127:7133   */\n      dup5\n        /* \"#utility.yul\":7083:7155   */\n      tag_110\n      jump\t// in\n    tag_155:\n        /* \"#utility.yul\":6617:7162   */\n      swap6\n      swap5\n      pop\n      pop\n      pop\n      pop\n      pop\n      jump\t// out\n        /* \"#utility.yul\":7168:7587   */\n    tag_44:\n        /* \"#utility.yul\":7334:7338   */\n      0x00\n        /* \"#utility.yul\":7372:7374   */\n      0x20\n        /* \"#utility.yul\":7361:7370   */\n      dup3\n        /* \"#utility.yul\":7357:7375   */\n      add\n        /* \"#utility.yul\":7349:7375   */\n      swap1\n      pop\n        /* \"#utility.yul\":7421:7430   */\n      dup2\n        /* \"#utility.yul\":7415:7419   */\n      dup2\n        /* \"#utility.yul\":7411:7431   */\n      sub\n        /* \"#utility.yul\":7407:7408   */\n      0x00\n        /* \"#utility.yul\":7396:7405   */\n      dup4\n        /* \"#utility.yul\":7392:7409   */\n      add\n        /* \"#utility.yul\":7385:7432   */\n      mstore\n        /* \"#utility.yul\":7449:7580   */\n      tag_157\n        /* \"#utility.yul\":7575:7579   */\n      dup2\n        /* \"#utility.yul\":7449:7580   */\n      tag_132\n      jump\t// in\n    tag_157:\n        /* \"#utility.yul\":7441:7580   */\n      swap1\n      pop\n        /* \"#utility.yul\":7168:7587   */\n      swap2\n      swap1\n      pop\n      jump\t// out\n        /* \"#utility.yul\":7593:7722   */\n    tag_51:\n        /* \"#utility.yul\":7627:7633   */\n      0x00\n        /* \"#utility.yul\":7654:7674   */\n      tag_159\n      tag_160\n      jump\t// in\n    tag_159:\n        /* \"#utility.yul\":7644:7674   */\n      swap1\n      pop\n        /* \"#utility.yul\":7683:7716   */\n      tag_161\n        /* \"#utility.yul\":7711:7715   */\n      dup3\n        /* \"#utility.yul\":7703:7709   */\n      dup3\n        /* \"#utility.yul\":7683:7716   */\n      tag_162\n      jump\t// in\n    tag_161:\n        /* \"#utility.yul\":7593:7722   */\n      swap2\n      swap1\n      pop\n      jump\t// out\n        /* \"#utility.yul\":7728:7803   */\n    tag_160:\n        /* \"#utility.yul\":7761:7767   */\n      0x00\n        /* \"#utility.yul\":7794:7796   */\n      0x40\n        /* \"#utility.yul\":7788:7797   */\n      mload\n        /* \"#utility.yul\":7778:7797   */\n      swap1\n      pop\n        /* \"#utility.yul\":7728:7803   */\n      swap1\n      jump\t// out\n        /* \"#utility.yul\":7809:8116   */\n    tag_50:\n        /* \"#utility.yul\":7870:7874   */\n      0x00\n        /* \"#utility.yul\":7960:7978   */\n      0xffffffffffffffff\n        /* \"#utility.yul\":7952:7958   */\n      dup3\n        /* \"#utility.yul\":7949:7979   */\n      gt\n        /* \"#utility.yul\":7946:8002   */\n      iszero\n      tag_165\n      jumpi\n        /* \"#utility.yul\":7982:8000   */\n      tag_166\n      tag_167\n      jump\t// in\n    tag_166:\n        /* \"#utility.yul\":7946:8002   */\n    tag_165:\n        /* \"#utility.yul\":8020:8049   */\n      tag_168\n        /* \"#utility.yul\":8042:8048   */\n      dup3\n        /* \"#utility.yul\":8020:8049   */\n      tag_169\n      jump\t// in\n    tag_168:\n        /* \"#utility.yul\":8012:8049   */\n      swap1\n      pop\n        /* \"#utility.yul\":8104:8108   */\n      0x20\n        /* \"#utility.yul\":8098:8102   */\n      dup2\n        /* \"#utility.yul\":8094:8109   */\n      add\n        /* \"#utility.yul\":8086:8109   */\n      swap1\n      pop\n        /* \"#utility.yul\":7809:8116   */\n      swap2\n      swap1\n      pop\n      jump\t// out\n        /* \"#utility.yul\":8122:8430   */\n    tag_61:\n        /* \"#utility.yul\":8184:8188   */\n      0x00\n        /* \"#utility.yul\":8274:8292   */\n      0xffffffffffffffff\n        /* \"#utility.yul\":8266:8272   */\n      dup3\n        /* \"#utility.yul\":8263:8293   */\n      gt\n        /* \"#utility.yul\":8260:8316   */\n      iszero\n      tag_171\n      jumpi\n        /* \"#utility.yul\":8296:8314   */\n      tag_172\n      tag_167\n      jump\t// in\n    tag_172:\n        /* \"#utility.yul\":8260:8316   */\n    tag_171:\n        /* \"#utility.yul\":8334:8363   */\n      tag_173\n        /* \"#utility.yul\":8356:8362   */\n      dup3\n        /* \"#utility.yul\":8334:8363   */\n      tag_169\n      jump\t// in\n    tag_173:\n        /* \"#utility.yul\":8326:8363   */\n      swap1\n      pop\n        /* \"#utility.yul\":8418:8422   */\n      0x20\n        /* \"#utility.yul\":8412:8416   */\n      dup2\n        /* \"#utility.yul\":8408:8423   */\n      add\n        /* \"#utility.yul\":8400:8423   */\n      swap1\n      pop\n        /* \"#utility.yul\":8122:8430   */\n      swap2\n      swap1\n      pop\n      jump\t// out\n        /* \"#utility.yul\":8436:8535   */\n    tag_122:\n        /* \"#utility.yul\":8488:8494   */\n      0x00\n        /* \"#utility.yul\":8522:8527   */\n      dup2\n        /* \"#utility.yul\":8516:8528   */\n      mload\n        /* \"#utility.yul\":8506:8528   */\n      swap1\n      pop\n        /* \"#utility.yul\":8436:8535   */\n      swap2\n      swap1\n      pop\n      jump\t// out\n        /* \"#utility.yul\":8541:8710   */\n    tag_135:\n        /* \"#utility.yul\":8625:8636   */\n      0x00\n        /* \"#utility.yul\":8659:8665   */\n      dup3\n        /* \"#utility.yul\":8654:8657   */\n      dup3\n        /* \"#utility.yul\":8647:8666   */\n      mstore\n        /* \"#utility.yul\":8699:8703   */\n      0x20\n        /* \"#utility.yul\":8694:8697   */\n      dup3\n        /* \"#utility.yul\":8690:8704   */\n      add\n        /* \"#utility.yul\":8675:8704   */\n      swap1\n      pop\n        /* \"#utility.yul\":8541:8710   */\n      swap3\n      swap2\n      pop\n      pop\n      jump\t// out\n        /* \"#utility.yul\":8716:8864   */\n    tag_124:\n        /* \"#utility.yul\":8818:8829   */\n      0x00\n        /* \"#utility.yul\":8855:8858   */\n      dup2\n        /* \"#utility.yul\":8840:8858   */\n      swap1\n      pop\n        /* \"#utility.yul\":8716:8864   */\n      swap3\n      swap2\n      pop\n      pop\n      jump\t// out\n        /* \"#utility.yul\":8870:8966   */\n    tag_177:\n        /* \"#utility.yul\":8907:8914   */\n      0x00\n        /* \"#utility.yul\":8936:8960   */\n      tag_179\n        /* \"#utility.yul\":8954:8959   */\n      dup3\n        /* \"#utility.yul\":8936:8960   */\n      tag_180\n      jump\t// in\n    tag_179:\n        /* \"#utility.yul\":8925:8960   */\n      swap1\n      pop\n        /* \"#utility.yul\":8870:8966   */\n      swap2\n      swap1\n      pop\n      jump\t// out\n        /* \"#utility.yul\":8972:9062   */\n    tag_109:\n        /* \"#utility.yul\":9006:9013   */\n      0x00\n        /* \"#utility.yul\":9049:9054   */\n      dup2\n        /* \"#utility.yul\":9042:9055   */\n      iszero\n        /* \"#utility.yul\":9035:9056   */\n      iszero\n        /* \"#utility.yul\":9024:9056   */\n      swap1\n      pop\n        /* \"#utility.yul\":8972:9062   */\n      swap2\n      swap1\n      pop\n      jump\t// out\n        /* \"#utility.yul\":9068:9145   */\n    tag_113:\n        /* \"#utility.yul\":9105:9112   */\n      0x00\n        /* \"#utility.yul\":9134:9139   */\n      dup2\n        /* \"#utility.yul\":9123:9139   */\n      swap1\n      pop\n        /* \"#utility.yul\":9068:9145   */\n      swap2\n      swap1\n      pop\n      jump\t// out\n        /* \"#utility.yul\":9151:9277   */\n    tag_180:\n        /* \"#utility.yul\":9188:9195   */\n      0x00\n        /* \"#utility.yul\":9228:9270   */\n      0xffffffffffffffffffffffffffffffffffffffff\n        /* \"#utility.yul\":9221:9226   */\n      dup3\n        /* \"#utility.yul\":9217:9271   */\n      and\n        /* \"#utility.yul\":9206:9271   */\n      swap1\n      pop\n        /* \"#utility.yul\":9151:9277   */\n      swap2\n      swap1\n      pop\n      jump\t// out\n        /* \"#utility.yul\":9283:9369   */\n    tag_141:\n        /* \"#utility.yul\":9318:9325   */\n      0x00\n        /* \"#utility.yul\":9358:9362   */\n      0xff\n        /* \"#utility.yul\":9351:9356   */\n      dup3\n        /* \"#utility.yul\":9347:9363   */\n      and\n        /* \"#utility.yul\":9336:9363   */\n      swap1\n      pop\n        /* \"#utility.yul\":9283:9369   */\n      swap2\n      swap1\n      pop\n      jump\t// out\n        /* \"#utility.yul\":9375:9529   */\n    tag_56:\n        /* \"#utility.yul\":9459:9465   */\n      dup3\n        /* \"#utility.yul\":9454:9457   */\n      dup2\n        /* \"#utility.yul\":9449:9452   */\n      dup4\n        /* \"#utility.yul\":9436:9466   */\n      calldatacopy\n        /* \"#utility.yul\":9521:9522   */\n      0x00\n        /* \"#utility.yul\":9512:9518   */\n      dup4\n        /* \"#utility.yul\":9507:9510   */\n      dup4\n        /* \"#utility.yul\":9503:9519   */\n      add\n        /* \"#utility.yul\":9496:9523   */\n      mstore\n        /* \"#utility.yul\":9375:9529   */\n      pop\n      pop\n      pop\n      jump\t// out\n        /* \"#utility.yul\":9535:9842   */\n    tag_126:\n        /* \"#utility.yul\":9603:9604   */\n      0x00\n        /* \"#utility.yul\":9613:9726   */\n    tag_187:\n        /* \"#utility.yul\":9627:9633   */\n      dup4\n        /* \"#utility.yul\":9624:9625   */\n      dup2\n        /* \"#utility.yul\":9621:9634   */\n      lt\n        /* \"#utility.yul\":9613:9726   */\n      iszero\n      tag_189\n      jumpi\n        /* \"#utility.yul\":9712:9713   */\n      dup1\n        /* \"#utility.yul\":9707:9710   */\n      dup3\n        /* \"#utility.yul\":9703:9714   */\n      add\n        /* \"#utility.yul\":9697:9715   */\n      mload\n        /* \"#utility.yul\":9693:9694   */\n      dup2\n        /* \"#utility.yul\":9688:9691   */\n      dup5\n        /* \"#utility.yul\":9684:9695   */\n      add\n        /* \"#utility.yul\":9677:9716   */\n      mstore\n        /* \"#utility.yul\":9649:9651   */\n      0x20\n        /* \"#utility.yul\":9646:9647   */\n      dup2\n        /* \"#utility.yul\":9642:9652   */\n      add\n        /* \"#utility.yul\":9637:9652   */\n      swap1\n      pop\n        /* \"#utility.yul\":9613:9726   */\n      jump(tag_187)\n    tag_189:\n        /* \"#utility.yul\":9744:9750   */\n      dup4\n        /* \"#utility.yul\":9741:9742   */\n      dup2\n        /* \"#utility.yul\":9738:9751   */\n      gt\n        /* \"#utility.yul\":9735:9836   */\n      iszero\n      tag_190\n      jumpi\n        /* \"#utility.yul\":9824:9825   */\n      0x00\n        /* \"#utility.yul\":9815:9821   */\n      dup5\n        /* \"#utility.yul\":9810:9813   */\n      dup5\n        /* \"#utility.yul\":9806:9822   */\n      add\n        /* \"#utility.yul\":9799:9826   */\n      mstore\n        /* \"#utility.yul\":9735:9836   */\n    tag_190:\n        /* \"#utility.yul\":9584:9842   */\n      pop\n        /* \"#utility.yul\":9535:9842   */\n      pop\n      pop\n      pop\n      jump\t// out\n        /* \"#utility.yul\":9848:10129   */\n    tag_162:\n        /* \"#utility.yul\":9931:9958   */\n      tag_192\n        /* \"#utility.yul\":9953:9957   */\n      dup3\n        /* \"#utility.yul\":9931:9958   */\n      tag_169\n      jump\t// in\n    tag_192:\n        /* \"#utility.yul\":9923:9929   */\n      dup2\n        /* \"#utility.yul\":9919:9959   */\n      add\n        /* \"#utility.yul\":10061:10067   */\n      dup2\n        /* \"#utility.yul\":10049:10059   */\n      dup2\n        /* \"#utility.yul\":10046:10068   */\n      lt\n        /* \"#utility.yul\":10025:10043   */\n      0xffffffffffffffff\n        /* \"#utility.yul\":10013:10023   */\n      dup3\n        /* \"#utility.yul\":10010:10044   */\n      gt\n        /* \"#utility.yul\":10007:10069   */\n      or\n        /* \"#utility.yul\":10004:10092   */\n      iszero\n      tag_193\n      jumpi\n        /* \"#utility.yul\":10072:10090   */\n      tag_194\n      tag_167\n      jump\t// in\n    tag_194:\n        /* \"#utility.yul\":10004:10092   */\n    tag_193:\n        /* \"#utility.yul\":10112:10122   */\n      dup1\n        /* \"#utility.yul\":10108:10110   */\n      0x40\n        /* \"#utility.yul\":10101:10123   */\n      mstore\n        /* \"#utility.yul\":9891:10129   */\n      pop\n        /* \"#utility.yul\":9848:10129   */\n      pop\n      pop\n      jump\t// out\n        /* \"#utility.yul\":10135:10214   */\n    tag_118:\n        /* \"#utility.yul\":10174:10181   */\n      0x00\n        /* \"#utility.yul\":10203:10208   */\n      dup2\n        /* \"#utility.yul\":10192:10208   */\n      swap1\n      pop\n        /* \"#utility.yul\":10135:10214   */\n      swap2\n      swap1\n      pop\n      jump\t// out\n        /* \"#utility.yul\":10220:10400   */\n    tag_167:\n        /* \"#utility.yul\":10268:10345   */\n      0x4e487b7100000000000000000000000000000000000000000000000000000000\n        /* \"#utility.yul\":10265:10266   */\n      0x00\n        /* \"#utility.yul\":10258:10346   */\n      mstore\n        /* \"#utility.yul\":10365:10369   */\n      0x41\n        /* \"#utility.yul\":10362:10363   */\n      0x04\n        /* \"#utility.yul\":10355:10370   */\n      mstore\n        /* \"#utility.yul\":10389:10393   */\n      0x24\n        /* \"#utility.yul\":10386:10387   */\n      0x00\n        /* \"#utility.yul\":10379:10394   */\n      revert\n        /* \"#utility.yul\":10406:10523   */\n    tag_77:\n        /* \"#utility.yul\":10515:10516   */\n      0x00\n        /* \"#utility.yul\":10512:10513   */\n      dup1\n        /* \"#utility.yul\":10505:10517   */\n      revert\n        /* \"#utility.yul\":10529:10646   */\n    tag_54:\n        /* \"#utility.yul\":10638:10639   */\n      0x00\n        /* \"#utility.yul\":10635:10636   */\n      dup1\n        /* \"#utility.yul\":10628:10640   */\n      revert\n        /* \"#utility.yul\":10652:10769   */\n    tag_91:\n        /* \"#utility.yul\":10761:10762   */\n      0x00\n        /* \"#utility.yul\":10758:10759   */\n      dup1\n        /* \"#utility.yul\":10751:10763   */\n      revert\n        /* \"#utility.yul\":10775:10892   */\n    tag_87:\n        /* \"#utility.yul\":10884:10885   */\n      0x00\n        /* \"#utility.yul\":10881:10882   */\n      dup1\n        /* \"#utility.yul\":10874:10886   */\n      revert\n        /* \"#utility.yul\":10898:11000   */\n    tag_169:\n        /* \"#utility.yul\":10939:10945   */\n      0x00\n        /* \"#utility.yul\":10990:10992   */\n      0x1f\n        /* \"#utility.yul\":10986:10993   */\n      not\n        /* \"#utility.yul\":10981:10983   */\n      0x1f\n        /* \"#utility.yul\":10974:10979   */\n      dup4\n        /* \"#utility.yul\":10970:10984   */\n      add\n        /* \"#utility.yul\":10966:10994   */\n      and\n        /* \"#utility.yul\":10956:10994   */\n      swap1\n      pop\n        /* \"#utility.yul\":10898:11000   */\n      swap2\n      swap1\n      pop\n      jump\t// out\n        /* \"#utility.yul\":11006:11220   */\n    tag_131:\n        /* \"#utility.yul\":11146:11212   */\n      0x19457468657265756d205369676e6564204d6573736167653a0a333200000000\n        /* \"#utility.yul\":11142:11143   */\n      0x00\n        /* \"#utility.yul\":11134:11140   */\n      dup3\n        /* \"#utility.yul\":11130:11144   */\n      add\n        /* \"#utility.yul\":11123:11213   */\n      mstore\n        /* \"#utility.yul\":11006:11220   */\n      pop\n      jump\t// out\n        /* \"#utility.yul\":11226:11400   */\n    tag_137:\n        /* \"#utility.yul\":11366:11392   */\n      0x696e76616c6964207369676e6174757265206c656e6774680000000000000000\n        /* \"#utility.yul\":11362:11363   */\n      0x00\n        /* \"#utility.yul\":11354:11360   */\n      dup3\n        /* \"#utility.yul\":11350:11364   */\n      add\n        /* \"#utility.yul\":11343:11393   */\n      mstore\n        /* \"#utility.yul\":11226:11400   */\n      pop\n      jump\t// out\n        /* \"#utility.yul\":11406:11528   */\n    tag_68:\n        /* \"#utility.yul\":11479:11503   */\n      tag_205\n        /* \"#utility.yul\":11497:11502   */\n      dup2\n        /* \"#utility.yul\":11479:11503   */\n      tag_177\n      jump\t// in\n    tag_205:\n        /* \"#utility.yul\":11472:11477   */\n      dup2\n        /* \"#utility.yul\":11469:11504   */\n      eq\n        /* \"#utility.yul\":11459:11522   */\n      tag_206\n      jumpi\n        /* \"#utility.yul\":11518:11519   */\n      0x00\n        /* \"#utility.yul\":11515:11516   */\n      dup1\n        /* \"#utility.yul\":11508:11520   */\n      revert\n        /* \"#utility.yul\":11459:11522   */\n    tag_206:\n        /* \"#utility.yul\":11406:11528   */\n      pop\n      jump\t// out\n        /* \"#utility.yul\":11534:11656   */\n    tag_72:\n        /* \"#utility.yul\":11607:11631   */\n      tag_208\n        /* \"#utility.yul\":11625:11630   */\n      dup2\n        /* \"#utility.yul\":11607:11631   */\n      tag_113\n      jump\t// in\n    tag_208:\n        /* \"#utility.yul\":11600:11605   */\n      dup2\n        /* \"#utility.yul\":11597:11632   */\n      eq\n        /* \"#utility.yul\":11587:11650   */\n      tag_209\n      jumpi\n        /* \"#utility.yul\":11646:11647   */\n      0x00\n        /* \"#utility.yul\":11643:11644   */\n      dup1\n        /* \"#utility.yul\":11636:11648   */\n      revert\n        /* \"#utility.yul\":11587:11650   */\n    tag_209:\n        /* \"#utility.yul\":11534:11656   */\n      pop\n      jump\t// out\n\n    auxdata: 0xa26469706673582212200cee3bf372f0e20ffdd8f18cd380098427d1a837427c210f03b32187a21f558e64736f6c63430008070033\n}\n",
				"bytecode": {
					"linkReferences": {},
					"object": "608060405234801561001057600080fd5b50610893806100206000396000f3fe608060405234801561001057600080fd5b50600436106100415760003560e01c80632dd34f0f14610046578063861749b814610076578063b446f3b2146100a6575b600080fd5b610060600480360381019061005b9190610375565b6100d6565b60405161006d919061056e565b60405180910390f35b610090600480360381019061008b9190610400565b610134565b60405161009d9190610589565b60405180910390f35b6100c060048036038101906100bb919061042d565b610164565b6040516100cd9190610589565b60405180910390f35b6000806100e284610164565b905060006100ef82610134565b90508573ffffffffffffffffffffffffffffffffffffffff166101128286610194565b73ffffffffffffffffffffffffffffffffffffffff1614925050509392505050565b6000816040516020016101479190610548565b604051602081830303815290604052805190602001209050919050565b6000816040516020016101779190610531565b604051602081830303815290604052805190602001209050919050565b6000806000806101a385610203565b925092509250600186828585604051600081526020016040526040516101cc94939291906105a4565b6020604051602081039080840390855afa1580156101ee573d6000803e3d6000fd5b50505060206040510351935050505092915050565b6000806000604184511461024c576040517f08c379a0000000000000000000000000000000000000000000000000000000008152600401610243906105e9565b60405180910390fd5b6020840151925060408401519150606084015160001a90509193909250565b600061027e6102798461062e565b610609565b90508281526020810184848401111561029a576102996107bd565b5b6102a584828561070c565b509392505050565b60006102c06102bb8461065f565b610609565b9050828152602081018484840111156102dc576102db6107bd565b5b6102e784828561070c565b509392505050565b6000813590506102fe8161082f565b92915050565b60008135905061031381610846565b92915050565b600082601f83011261032e5761032d6107b8565b5b813561033e84826020860161026b565b91505092915050565b600082601f83011261035c5761035b6107b8565b5b813561036c8482602086016102ad565b91505092915050565b60008060006060848603121561038e5761038d6107c7565b5b600061039c868287016102ef565b935050602084013567ffffffffffffffff8111156103bd576103bc6107c2565b5b6103c986828701610347565b925050604084013567ffffffffffffffff8111156103ea576103e96107c2565b5b6103f686828701610319565b9150509250925092565b600060208284031215610416576104156107c7565b5b600061042484828501610304565b91505092915050565b600060208284031215610443576104426107c7565b5b600082013567ffffffffffffffff811115610461576104606107c2565b5b61046d84828501610347565b91505092915050565b61047f816106c9565b82525050565b61048e816106d5565b82525050565b6104a56104a0826106d5565b61077f565b82525050565b60006104b682610690565b6104c081856106ac565b93506104d081856020860161071b565b80840191505092915050565b60006104e9601c836106ac565b91506104f4826107dd565b601c82019050919050565b600061050c60188361069b565b915061051782610806565b602082019050919050565b61052b816106ff565b82525050565b600061053d82846104ab565b915081905092915050565b6000610553826104dc565b915061055f8284610494565b60208201915081905092915050565b60006020820190506105836000830184610476565b92915050565b600060208201905061059e6000830184610485565b92915050565b60006080820190506105b96000830187610485565b6105c66020830186610522565b6105d36040830185610485565b6105e06060830184610485565b95945050505050565b60006020820190508181036000830152610602816104ff565b9050919050565b6000610613610624565b905061061f828261074e565b919050565b6000604051905090565b600067ffffffffffffffff82111561064957610648610789565b5b610652826107cc565b9050602081019050919050565b600067ffffffffffffffff82111561067a57610679610789565b5b610683826107cc565b9050602081019050919050565b600081519050919050565b600082825260208201905092915050565b600081905092915050565b60006106c2826106df565b9050919050565b60008115159050919050565b6000819050919050565b600073ffffffffffffffffffffffffffffffffffffffff82169050919050565b600060ff82169050919050565b82818337600083830152505050565b60005b8381101561073957808201518184015260208101905061071e565b83811115610748576000848401525b50505050565b610757826107cc565b810181811067ffffffffffffffff8211171561077657610775610789565b5b80604052505050565b6000819050919050565b7f4e487b7100000000000000000000000000000000000000000000000000000000600052604160045260246000fd5b600080fd5b600080fd5b600080fd5b600080fd5b6000601f19601f8301169050919050565b7f19457468657265756d205369676e6564204d6573736167653a0a333200000000600082015250565b7f696e76616c6964207369676e6174757265206c656e6774680000000000000000600082015250565b610838816106b7565b811461084357600080fd5b50565b61084f816106d5565b811461085a57600080fd5b5056fea26469706673582212200cee3bf372f0e20ffdd8f18cd380098427d1a837427c210f03b32187a21f558e64736f6c63430008070033",
					"opcodes": "PUSH1 0x80 PUSH1 0x40 MSTORE CALLVALUE DUP1 ISZERO PUSH2 0x10 JUMPI PUSH1 0x0 DUP1 REVERT JUMPDEST POP PUSH2 0x893 DUP1 PUSH2 0x20 PUSH1 0x0 CODECOPY PUSH1 0x0 RETURN INVALID PUSH1 0x80 PUSH1 0x40 MSTORE CALLVALUE DUP1 ISZERO PUSH2 0x10 JUMPI PUSH1 0x0 DUP1 REVERT JUMPDEST POP PUSH1 0x4 CALLDATASIZE LT PUSH2 0x41 JUMPI PUSH1 0x0 CALLDATALOAD PUSH1 0xE0 SHR DUP1 PUSH4 0x2DD34F0F EQ PUSH2 0x46 JUMPI DUP1 PUSH4 0x861749B8 EQ PUSH2 0x76 JUMPI DUP1 PUSH4 0xB446F3B2 EQ PUSH2 0xA6 JUMPI JUMPDEST PUSH1 0x0 DUP1 REVERT JUMPDEST PUSH2 0x60 PUSH1 0x4 DUP1 CALLDATASIZE SUB DUP2 ADD SWAP1 PUSH2 0x5B SWAP2 SWAP1 PUSH2 0x375 JUMP JUMPDEST PUSH2 0xD6 JUMP JUMPDEST PUSH1 0x40 MLOAD PUSH2 0x6D SWAP2 SWAP1 PUSH2 0x56E JUMP JUMPDEST PUSH1 0x40 MLOAD DUP1 SWAP2 SUB SWAP1 RETURN JUMPDEST PUSH2 0x90 PUSH1 0x4 DUP1 CALLDATASIZE SUB DUP2 ADD SWAP1 PUSH2 0x8B SWAP2 SWAP1 PUSH2 0x400 JUMP JUMPDEST PUSH2 0x134 JUMP JUMPDEST PUSH1 0x40 MLOAD PUSH2 0x9D SWAP2 SWAP1 PUSH2 0x589 JUMP JUMPDEST PUSH1 0x40 MLOAD DUP1 SWAP2 SUB SWAP1 RETURN JUMPDEST PUSH2 0xC0 PUSH1 0x4 DUP1 CALLDATASIZE SUB DUP2 ADD SWAP1 PUSH2 0xBB SWAP2 SWAP1 PUSH2 0x42D JUMP JUMPDEST PUSH2 0x164 JUMP JUMPDEST PUSH1 0x40 MLOAD PUSH2 0xCD SWAP2 SWAP1 PUSH2 0x589 JUMP JUMPDEST PUSH1 0x40 MLOAD DUP1 SWAP2 SUB SWAP1 RETURN JUMPDEST PUSH1 0x0 DUP1 PUSH2 0xE2 DUP5 PUSH2 0x164 JUMP JUMPDEST SWAP1 POP PUSH1 0x0 PUSH2 0xEF DUP3 PUSH2 0x134 JUMP JUMPDEST SWAP1 POP DUP6 PUSH20 0xFFFFFFFFFFFFFFFFFFFFFFFFFFFFFFFFFFFFFFFF AND PUSH2 0x112 DUP3 DUP7 PUSH2 0x194 JUMP JUMPDEST PUSH20 0xFFFFFFFFFFFFFFFFFFFFFFFFFFFFFFFFFFFFFFFF AND EQ SWAP3 POP POP POP SWAP4 SWAP3 POP POP POP JUMP JUMPDEST PUSH1 0x0 DUP2 PUSH1 0x40 MLOAD PUSH1 0x20 ADD PUSH2 0x147 SWAP2 SWAP1 PUSH2 0x548 JUMP JUMPDEST PUSH1 0x40 MLOAD PUSH1 0x20 DUP2 DUP4 SUB SUB DUP2 MSTORE SWAP1 PUSH1 0x40 MSTORE DUP1 MLOAD SWAP1 PUSH1 0x20 ADD KECCAK256 SWAP1 POP SWAP2 SWAP1 POP JUMP JUMPDEST PUSH1 0x0 DUP2 PUSH1 0x40 MLOAD PUSH1 0x20 ADD PUSH2 0x177 SWAP2 SWAP1 PUSH2 0x531 JUMP JUMPDEST PUSH1 0x40 MLOAD PUSH1 0x20 DUP2 DUP4 SUB SUB DUP2 MSTORE SWAP1 PUSH1 0x40 MSTORE DUP1 MLOAD SWAP1 PUSH1 0x20 ADD KECCAK256 SWAP1 POP SWAP2 SWAP1 POP JUMP JUMPDEST PUSH1 0x0 DUP1 PUSH1 0x0 DUP1 PUSH2 0x1A3 DUP6 PUSH2 0x203 JUMP JUMPDEST SWAP3 POP SWAP3 POP SWAP3 POP PUSH1 0x1 DUP7 DUP3 DUP6 DUP6 PUSH1 0x40 MLOAD PUSH1 0x0 DUP2 MSTORE PUSH1 0x20 ADD PUSH1 0x40 MSTORE PUSH1 0x40 MLOAD PUSH2 0x1CC SWAP5 SWAP4 SWAP3 SWAP2 SWAP1 PUSH2 0x5A4 JUMP JUMPDEST PUSH1 0x20 PUSH1 0x40 MLOAD PUSH1 0x20 DUP2 SUB SWAP1 DUP1 DUP5 SUB SWAP1 DUP6 GAS STATICCALL ISZERO DUP1 ISZERO PUSH2 0x1EE JUMPI RETURNDATASIZE PUSH1 0x0 DUP1 RETURNDATACOPY RETURNDATASIZE PUSH1 0x0 REVERT JUMPDEST POP POP POP PUSH1 0x20 PUSH1 0x40 MLOAD SUB MLOAD SWAP4 POP POP POP POP SWAP3 SWAP2 POP POP JUMP JUMPDEST PUSH1 0x0 DUP1 PUSH1 0x0 PUSH1 0x41 DUP5 MLOAD EQ PUSH2 0x24C JUMPI PUSH1 0x40 MLOAD PUSH32 0x8C379A000000000000000000000000000000000000000000000000000000000 DUP2 MSTORE PUSH1 0x4 ADD PUSH2 0x243 SWAP1 PUSH2 0x5E9 JUMP JUMPDEST PUSH1 0x40 MLOAD DUP1 SWAP2 SUB SWAP1 REVERT JUMPDEST PUSH1 0x20 DUP5 ADD MLOAD SWAP3 POP PUSH1 0x40 DUP5 ADD MLOAD SWAP2 POP PUSH1 0x60 DUP5 ADD MLOAD PUSH1 0x0 BYTE SWAP1 POP SWAP2 SWAP4 SWAP1 SWAP3 POP JUMP JUMPDEST PUSH1 0x0 PUSH2 0x27E PUSH2 0x279 DUP5 PUSH2 0x62E JUMP JUMPDEST PUSH2 0x609 JUMP JUMPDEST SWAP1 POP DUP3 DUP2 MSTORE PUSH1 0x20 DUP2 ADD DUP5 DUP5 DUP5 ADD GT ISZERO PUSH2 0x29A JUMPI PUSH2 0x299 PUSH2 0x7BD JUMP JUMPDEST JUMPDEST PUSH2 0x2A5 DUP5 DUP3 DUP6 PUSH2 0x70C JUMP JUMPDEST POP SWAP4 SWAP3 POP POP POP JUMP JUMPDEST PUSH1 0x0 PUSH2 0x2C0 PUSH2 0x2BB DUP5 PUSH2 0x65F JUMP JUMPDEST PUSH2 0x609 JUMP JUMPDEST SWAP1 POP DUP3 DUP2 MSTORE PUSH1 0x20 DUP2 ADD DUP5 DUP5 DUP5 ADD GT ISZERO PUSH2 0x2DC JUMPI PUSH2 0x2DB PUSH2 0x7BD JUMP JUMPDEST JUMPDEST PUSH2 0x2E7 DUP5 DUP3 DUP6 PUSH2 0x70C JUMP JUMPDEST POP SWAP4 SWAP3 POP POP POP JUMP JUMPDEST PUSH1 0x0 DUP2 CALLDATALOAD SWAP1 POP PUSH2 0x2FE DUP2 PUSH2 0x82F JUMP JUMPDEST SWAP3 SWAP2 POP POP JUMP JUMPDEST PUSH1 0x0 DUP2 CALLDATALOAD SWAP1 POP PUSH2 0x313 DUP2 PUSH2 0x846 JUMP JUMPDEST SWAP3 SWAP2 POP POP JUMP JUMPDEST PUSH1 0x0 DUP3 PUSH1 0x1F DUP4 ADD SLT PUSH2 0x32E JUMPI PUSH2 0x32D PUSH2 0x7B8 JUMP JUMPDEST JUMPDEST DUP2 CALLDATALOAD PUSH2 0x33E DUP5 DUP3 PUSH1 0x20 DUP7 ADD PUSH2 0x26B JUMP JUMPDEST SWAP2 POP POP SWAP3 SWAP2 POP POP JUMP JUMPDEST PUSH1 0x0 DUP3 PUSH1 0x1F DUP4 ADD SLT PUSH2 0x35C JUMPI PUSH2 0x35B PUSH2 0x7B8 JUMP JUMPDEST JUMPDEST DUP2 CALLDATALOAD PUSH2 0x36C DUP5 DUP3 PUSH1 0x20 DUP7 ADD PUSH2 0x2AD JUMP JUMPDEST SWAP2 POP POP SWAP3 SWAP2 POP POP JUMP JUMPDEST PUSH1 0x0 DUP1 PUSH1 0x0 PUSH1 0x60 DUP5 DUP7 SUB SLT ISZERO PUSH2 0x38E JUMPI PUSH2 0x38D PUSH2 0x7C7 JUMP JUMPDEST JUMPDEST PUSH1 0x0 PUSH2 0x39C DUP7 DUP3 DUP8 ADD PUSH2 0x2EF JUMP JUMPDEST SWAP4 POP POP PUSH1 0x20 DUP5 ADD CALLDATALOAD PUSH8 0xFFFFFFFFFFFFFFFF DUP2 GT ISZERO PUSH2 0x3BD JUMPI PUSH2 0x3BC PUSH2 0x7C2 JUMP JUMPDEST JUMPDEST PUSH2 0x3C9 DUP7 DUP3 DUP8 ADD PUSH2 0x347 JUMP JUMPDEST SWAP3 POP POP PUSH1 0x40 DUP5 ADD CALLDATALOAD PUSH8 0xFFFFFFFFFFFFFFFF DUP2 GT ISZERO PUSH2 0x3EA JUMPI PUSH2 0x3E9 PUSH2 0x7C2 JUMP JUMPDEST JUMPDEST PUSH2 0x3F6 DUP7 DUP3 DUP8 ADD PUSH2 0x319 JUMP JUMPDEST SWAP2 POP POP SWAP3 POP SWAP3 POP SWAP3 JUMP JUMPDEST PUSH1 0x0 PUSH1 0x20 DUP3 DUP5 SUB SLT ISZERO PUSH2 0x416 JUMPI PUSH2 0x415 PUSH2 0x7C7 JUMP JUMPDEST JUMPDEST PUSH1 0x0 PUSH2 0x424 DUP5 DUP3 DUP6 ADD PUSH2 0x304 JUMP JUMPDEST SWAP2 POP POP SWAP3 SWAP2 POP POP JUMP JUMPDEST PUSH1 0x0 PUSH1 0x20 DUP3 DUP5 SUB SLT ISZERO PUSH2 0x443 JUMPI PUSH2 0x442 PUSH2 0x7C7 JUMP JUMPDEST JUMPDEST PUSH1 0x0 DUP3 ADD CALLDATALOAD PUSH8 0xFFFFFFFFFFFFFFFF DUP2 GT ISZERO PUSH2 0x461 JUMPI PUSH2 0x460 PUSH2 0x7C2 JUMP JUMPDEST JUMPDEST PUSH2 0x46D DUP5 DUP3 DUP6 ADD PUSH2 0x347 JUMP JUMPDEST SWAP2 POP POP SWAP3 SWAP2 POP POP JUMP JUMPDEST PUSH2 0x47F DUP2 PUSH2 0x6C9 JUMP JUMPDEST DUP3 MSTORE POP POP JUMP JUMPDEST PUSH2 0x48E DUP2 PUSH2 0x6D5 JUMP JUMPDEST DUP3 MSTORE POP POP JUMP JUMPDEST PUSH2 0x4A5 PUSH2 0x4A0 DUP3 PUSH2 0x6D5 JUMP JUMPDEST PUSH2 0x77F JUMP JUMPDEST DUP3 MSTORE POP POP JUMP JUMPDEST PUSH1 0x0 PUSH2 0x4B6 DUP3 PUSH2 0x690 JUMP JUMPDEST PUSH2 0x4C0 DUP2 DUP6 PUSH2 0x6AC JUMP JUMPDEST SWAP4 POP PUSH2 0x4D0 DUP2 DUP6 PUSH1 0x20 DUP7 ADD PUSH2 0x71B JUMP JUMPDEST DUP1 DUP5 ADD SWAP2 POP POP SWAP3 SWAP2 POP POP JUMP JUMPDEST PUSH1 0x0 PUSH2 0x4E9 PUSH1 0x1C DUP4 PUSH2 0x6AC JUMP JUMPDEST SWAP2 POP PUSH2 0x4F4 DUP3 PUSH2 0x7DD JUMP JUMPDEST PUSH1 0x1C DUP3 ADD SWAP1 POP SWAP2 SWAP1 POP JUMP JUMPDEST PUSH1 0x0 PUSH2 0x50C PUSH1 0x18 DUP4 PUSH2 0x69B JUMP JUMPDEST SWAP2 POP PUSH2 0x517 DUP3 PUSH2 0x806 JUMP JUMPDEST PUSH1 0x20 DUP3 ADD SWAP1 POP SWAP2 SWAP1 POP JUMP JUMPDEST PUSH2 0x52B DUP2 PUSH2 0x6FF JUMP JUMPDEST DUP3 MSTORE POP POP JUMP JUMPDEST PUSH1 0x0 PUSH2 0x53D DUP3 DUP5 PUSH2 0x4AB JUMP JUMPDEST SWAP2 POP DUP2 SWAP1 POP SWAP3 SWAP2 POP POP JUMP JUMPDEST PUSH1 0x0 PUSH2 0x553 DUP3 PUSH2 0x4DC JUMP JUMPDEST SWAP2 POP PUSH2 0x55F DUP3 DUP5 PUSH2 0x494 JUMP JUMPDEST PUSH1 0x20 DUP3 ADD SWAP2 POP DUP2 SWAP1 POP SWAP3 SWAP2 POP POP JUMP JUMPDEST PUSH1 0x0 PUSH1 0x20 DUP3 ADD SWAP1 POP PUSH2 0x583 PUSH1 0x0 DUP4 ADD DUP5 PUSH2 0x476 JUMP JUMPDEST SWAP3 SWAP2 POP POP JUMP JUMPDEST PUSH1 0x0 PUSH1 0x20 DUP3 ADD SWAP1 POP PUSH2 0x59E PUSH1 0x0 DUP4 ADD DUP5 PUSH2 0x485 JUMP JUMPDEST SWAP3 SWAP2 POP POP JUMP JUMPDEST PUSH1 0x0 PUSH1 0x80 DUP3 ADD SWAP1 POP PUSH2 0x5B9 PUSH1 0x0 DUP4 ADD DUP8 PUSH2 0x485 JUMP JUMPDEST PUSH2 0x5C6 PUSH1 0x20 DUP4 ADD DUP7 PUSH2 0x522 JUMP JUMPDEST PUSH2 0x5D3 PUSH1 0x40 DUP4 ADD DUP6 PUSH2 0x485 JUMP JUMPDEST PUSH2 0x5E0 PUSH1 0x60 DUP4 ADD DUP5 PUSH2 0x485 JUMP JUMPDEST SWAP6 SWAP5 POP POP POP POP POP JUMP JUMPDEST PUSH1 0x0 PUSH1 0x20 DUP3 ADD SWAP1 POP DUP2 DUP2 SUB PUSH1 0x0 DUP4 ADD MSTORE PUSH2 0x602 DUP2 PUSH2 0x4FF JUMP JUMPDEST SWAP1 POP SWAP2 SWAP1 POP JUMP JUMPDEST PUSH1 0x0 PUSH2 0x613 PUSH2 0x624 JUMP JUMPDEST SWAP1 POP PUSH2 0x61F DUP3 DUP3 PUSH2 0x74E JUMP JUMPDEST SWAP2 SWAP1 POP JUMP JUMPDEST PUSH1 0x0 PUSH1 0x40 MLOAD SWAP1 POP SWAP1 JUMP JUMPDEST PUSH1 0x0 PUSH8 0xFFFFFFFFFFFFFFFF DUP3 GT ISZERO PUSH2 0x649 JUMPI PUSH2 0x648 PUSH2 0x789 JUMP JUMPDEST JUMPDEST PUSH2 0x652 DUP3 PUSH2 0x7CC JUMP JUMPDEST SWAP1 POP PUSH1 0x20 DUP2 ADD SWAP1 POP SWAP2 SWAP1 POP JUMP JUMPDEST PUSH1 0x0 PUSH8 0xFFFFFFFFFFFFFFFF DUP3 GT ISZERO PUSH2 0x67A JUMPI PUSH2 0x679 PUSH2 0x789 JUMP JUMPDEST JUMPDEST PUSH2 0x683 DUP3 PUSH2 0x7CC JUMP JUMPDEST SWAP1 POP PUSH1 0x20 DUP2 ADD SWAP1 POP SWAP2 SWAP1 POP JUMP JUMPDEST PUSH1 0x0 DUP2 MLOAD SWAP1 POP SWAP2 SWAP1 POP JUMP JUMPDEST PUSH1 0x0 DUP3 DUP3 MSTORE PUSH1 0x20 DUP3 ADD SWAP1 POP SWAP3 SWAP2 POP POP JUMP JUMPDEST PUSH1 0x0 DUP2 SWAP1 POP SWAP3 SWAP2 POP POP JUMP JUMPDEST PUSH1 0x0 PUSH2 0x6C2 DUP3 PUSH2 0x6DF JUMP JUMPDEST SWAP1 POP SWAP2 SWAP1 POP JUMP JUMPDEST PUSH1 0x0 DUP2 ISZERO ISZERO SWAP1 POP SWAP2 SWAP1 POP JUMP JUMPDEST PUSH1 0x0 DUP2 SWAP1 POP SWAP2 SWAP1 POP JUMP JUMPDEST PUSH1 0x0 PUSH20 0xFFFFFFFFFFFFFFFFFFFFFFFFFFFFFFFFFFFFFFFF DUP3 AND SWAP1 POP SWAP2 SWAP1 POP JUMP JUMPDEST PUSH1 0x0 PUSH1 0xFF DUP3 AND SWAP1 POP SWAP2 SWAP1 POP JUMP JUMPDEST DUP3 DUP2 DUP4 CALLDATACOPY PUSH1 0x0 DUP4 DUP4 ADD MSTORE POP POP POP JUMP JUMPDEST PUSH1 0x0 JUMPDEST DUP4 DUP2 LT ISZERO PUSH2 0x739 JUMPI DUP1 DUP3 ADD MLOAD DUP2 DUP5 ADD MSTORE PUSH1 0x20 DUP2 ADD SWAP1 POP PUSH2 0x71E JUMP JUMPDEST DUP4 DUP2 GT ISZERO PUSH2 0x748 JUMPI PUSH1 0x0 DUP5 DUP5 ADD MSTORE JUMPDEST POP POP POP POP JUMP JUMPDEST PUSH2 0x757 DUP3 PUSH2 0x7CC JUMP JUMPDEST DUP2 ADD DUP2 DUP2 LT PUSH8 0xFFFFFFFFFFFFFFFF DUP3 GT OR ISZERO PUSH2 0x776 JUMPI PUSH2 0x775 PUSH2 0x789 JUMP JUMPDEST JUMPDEST DUP1 PUSH1 0x40 MSTORE POP POP POP JUMP JUMPDEST PUSH1 0x0 DUP2 SWAP1 POP SWAP2 SWAP1 POP JUMP JUMPDEST PUSH32 0x4E487B7100000000000000000000000000000000000000000000000000000000 PUSH1 0x0 MSTORE PUSH1 0x41 PUSH1 0x4 MSTORE PUSH1 0x24 PUSH1 0x0 REVERT JUMPDEST PUSH1 0x0 DUP1 REVERT JUMPDEST PUSH1 0x0 DUP1 REVERT JUMPDEST PUSH1 0x0 DUP1 REVERT JUMPDEST PUSH1 0x0 DUP1 REVERT JUMPDEST PUSH1 0x0 PUSH1 0x1F NOT PUSH1 0x1F DUP4 ADD AND SWAP1 POP SWAP2 SWAP1 POP JUMP JUMPDEST PUSH32 0x19457468657265756D205369676E6564204D6573736167653A0A333200000000 PUSH1 0x0 DUP3 ADD MSTORE POP JUMP JUMPDEST PUSH32 0x696E76616C6964207369676E6174757265206C656E6774680000000000000000 PUSH1 0x0 DUP3 ADD MSTORE POP JUMP JUMPDEST PUSH2 0x838 DUP2 PUSH2 0x6B7 JUMP JUMPDEST DUP2 EQ PUSH2 0x843 JUMPI PUSH1 0x0 DUP1 REVERT JUMPDEST POP JUMP JUMPDEST PUSH2 0x84F DUP2 PUSH2 0x6D5 JUMP JUMPDEST DUP2 EQ PUSH2 0x85A JUMPI PUSH1 0x0 DUP1 REVERT JUMPDEST POP JUMP INVALID LOG2 PUSH5 0x6970667358 0x22 SLT KECCAK256 0xC 0xEE EXTCODESIZE RETURN PUSH19 0xF0E20FFDD8F18CD380098427D1A837427C210F SUB 0xB3 0x21 DUP8 LOG2 0x1F SSTORE DUP15 PUSH5 0x736F6C6343 STOP ADDMOD SMOD STOP CALLER "
				},
				"gasEstimates": {
					"creation": {
						"codeDepositCost": "439000",
						"executionCost": "474",
						"totalCost": "439474"
					},
					"external": {
						"getEthSignedMessage(bytes32)": "infinite",
						"getMessageHash(string)": "infinite",
						"verify(address,string,bytes)": "infinite"
					},
					"internal": {
						"_split(bytes memory)": "infinite",
						"recover(bytes32,bytes memory)": "infinite"
					}
				},
				"methodIdentifiers": {
					"getEthSignedMessage(bytes32)": "861749b8",
					"getMessageHash(string)": "b446f3b2",
					"verify(address,string,bytes)": "2dd34f0f"
				}
			},
			"storageLayout": {
				"storage": [],
				"types": null
			},
			"userdoc": {
				"kind": "user",
				"methods": {},
				"notice": "0. message to sign 1. hash(message) 2. sign(hash(message),private key) offchain 3. ecrecover(hash(message),signature) == signer",
				"version": 1
			}
		}
	}
}