{
	"case/41_IERC721.sol": {
		"ERC721": {
			"abi": [
				{
					"anonymous": false,
					"inputs": [
						{
							"indexed": true,
							"internalType": "address",
							"name": "owner",
							"type": "address"
						},
						{
							"indexed": true,
							"internalType": "address",
							"name": "spender",
							"type": "address"
						},
						{
							"indexed": true,
							"internalType": "uint256",
							"name": "id",
							"type": "uint256"
						}
					],
					"name": "Approval",
					"type": "event"
				},
				{
					"anonymous": false,
					"inputs": [
						{
							"indexed": true,
							"internalType": "address",
							"name": "owner",
							"type": "address"
						},
						{
							"indexed": true,
							"internalType": "address",
							"name": "operator",
							"type": "address"
						},
						{
							"indexed": false,
							"internalType": "bool",
							"name": "approved",
							"type": "bool"
						}
					],
					"name": "ApprovalForAll",
					"type": "event"
				},
				{
					"anonymous": false,
					"inputs": [
						{
							"indexed": true,
							"internalType": "address",
							"name": "from",
							"type": "address"
						},
						{
							"indexed": true,
							"internalType": "address",
							"name": "to",
							"type": "address"
						},
						{
							"indexed": true,
							"internalType": "uint256",
							"name": "id",
							"type": "uint256"
						}
					],
					"name": "Transfer",
					"type": "event"
				},
				{
					"inputs": [
						{
							"internalType": "address",
							"name": "spender",
							"type": "address"
						},
						{
							"internalType": "uint256",
							"name": "id",
							"type": "uint256"
						}
					],
					"name": "approve",
					"outputs": [],
					"stateMutability": "nonpayable",
					"type": "function"
				},
				{
					"inputs": [
						{
							"internalType": "address",
							"name": "owner",
							"type": "address"
						}
					],
					"name": "balanceOf",
					"outputs": [
						{
							"internalType": "uint256",
							"name": "",
							"type": "uint256"
						}
					],
					"stateMutability": "view",
					"type": "function"
				},
				{
					"inputs": [
						{
							"internalType": "uint256",
							"name": "id",
							"type": "uint256"
						}
					],
					"name": "getApproved",
					"outputs": [
						{
							"internalType": "address",
							"name": "",
							"type": "address"
						}
					],
					"stateMutability": "view",
					"type": "function"
				},
				{
					"inputs": [
						{
							"internalType": "address",
							"name": "",
							"type": "address"
						},
						{
							"internalType": "address",
							"name": "",
							"type": "address"
						}
					],
					"name": "isApprovedForAll",
					"outputs": [
						{
							"internalType": "bool",
							"name": "",
							"type": "bool"
						}
					],
					"stateMutability": "view",
					"type": "function"
				},
				{
					"inputs": [
						{
							"internalType": "uint256",
							"name": "id",
							"type": "uint256"
						}
					],
					"name": "ownerOf",
					"outputs": [
						{
							"internalType": "address",
							"name": "owner",
							"type": "address"
						}
					],
					"stateMutability": "view",
					"type": "function"
				},
				{
					"inputs": [
						{
							"internalType": "address",
							"name": "from",
							"type": "address"
						},
						{
							"internalType": "address",
							"name": "to",
							"type": "address"
						},
						{
							"internalType": "uint256",
							"name": "id",
							"type": "uint256"
						}
					],
					"name": "safeTransferFrom",
					"outputs": [],
					"stateMutability": "nonpayable",
					"type": "function"
				},
				{
					"inputs": [
						{
							"internalType": "address",
							"name": "from",
							"type": "address"
						},
						{
							"internalType": "address",
							"name": "to",
							"type": "address"
						},
						{
							"internalType": "uint256",
							"name": "id",
							"type": "uint256"
						},
						{
							"internalType": "bytes",
							"name": "data",
							"type": "bytes"
						}
					],
					"name": "safeTransferFrom",
					"outputs": [],
					"stateMutability": "nonpayable",
					"type": "function"
				},
				{
					"inputs": [
						{
							"internalType": "address",
							"name": "operator",
							"type": "address"
						},
						{
							"internalType": "bool",
							"name": "approved",
							"type": "bool"
						}
					],
					"name": "setApprovalForAll",
					"outputs": [],
					"stateMutability": "nonpayable",
					"type": "function"
				},
				{
					"inputs": [
						{
							"internalType": "bytes4",
							"name": "interfaceId",
							"type": "bytes4"
						}
					],
					"name": "supportsInterface",
					"outputs": [
						{
							"internalType": "bool",
							"name": "",
							"type": "bool"
						}
					],
					"stateMutability": "pure",
					"type": "function"
				},
				{
					"inputs": [
						{
							"internalType": "address",
							"name": "from",
							"type": "address"
						},
						{
							"internalType": "address",
							"name": "to",
							"type": "address"
						},
						{
							"internalType": "uint256",
							"name": "id",
							"type": "uint256"
						}
					],
					"name": "transferFrom",
					"outputs": [],
					"stateMutability": "nonpayable",
					"type": "function"
				}
			],
			"devdoc": {
				"kind": "dev",
				"methods": {},
				"version": 1
			},
			"evm": {
				"assembly": "    /* \"case/41_IERC721.sol\":1231:5366  contract ERC721 is IERC721 {... */\n  mstore(0x40, 0x80)\n  callvalue\n  dup1\n  iszero\n  tag_1\n  jumpi\n  0x00\n  dup1\n  revert\ntag_1:\n  pop\n  dataSize(sub_0)\n  dup1\n  dataOffset(sub_0)\n  0x00\n  codecopy\n  0x00\n  return\nstop\n\nsub_0: assembly {\n        /* \"case/41_IERC721.sol\":1231:5366  contract ERC721 is IERC721 {... */\n      mstore(0x40, 0x80)\n      callvalue\n      dup1\n      iszero\n      tag_1\n      jumpi\n      0x00\n      dup1\n      revert\n    tag_1:\n      pop\n      jumpi(tag_2, lt(calldatasize, 0x04))\n      shr(0xe0, calldataload(0x00))\n      dup1\n      0x6352211e\n      gt\n      tag_13\n      jumpi\n      dup1\n      0x6352211e\n      eq\n      tag_8\n      jumpi\n      dup1\n      0x70a08231\n      eq\n      tag_9\n      jumpi\n      dup1\n      0xa22cb465\n      eq\n      tag_10\n      jumpi\n      dup1\n      0xb88d4fde\n      eq\n      tag_11\n      jumpi\n      dup1\n      0xe985e9c5\n      eq\n      tag_12\n      jumpi\n      jump(tag_2)\n    tag_13:\n      dup1\n      0x01ffc9a7\n      eq\n      tag_3\n      jumpi\n      dup1\n      0x081812fc\n      eq\n      tag_4\n      jumpi\n      dup1\n      0x095ea7b3\n      eq\n      tag_5\n      jumpi\n      dup1\n      0x23b872dd\n      eq\n      tag_6\n      jumpi\n      dup1\n      0x42842e0e\n      eq\n      tag_7\n      jumpi\n    tag_2:\n      0x00\n      dup1\n      revert\n        /* \"case/41_IERC721.sol\":1972:2189  function supportsInterface(bytes4 interfaceId) external pure override returns (bool) {... */\n    tag_3:\n      tag_14\n      0x04\n      dup1\n      calldatasize\n      sub\n      dup2\n      add\n      swap1\n      tag_15\n      swap2\n      swap1\n      tag_16\n      jump\t// in\n    tag_15:\n      tag_17\n      jump\t// in\n    tag_14:\n      mload(0x40)\n      tag_18\n      swap2\n      swap1\n      tag_19\n      jump\t// in\n    tag_18:\n      mload(0x40)\n      dup1\n      swap2\n      sub\n      swap1\n      return\n        /* \"case/41_IERC721.sol\":3084:3261  function getApproved(uint id) external view override returns (address) {... */\n    tag_4:\n      tag_20\n      0x04\n      dup1\n      calldatasize\n      sub\n      dup2\n      add\n      swap1\n      tag_21\n      swap2\n      swap1\n      tag_22\n      jump\t// in\n    tag_21:\n      tag_23\n      jump\t// in\n    tag_20:\n      mload(0x40)\n      tag_24\n      swap2\n      swap1\n      tag_25\n      jump\t// in\n    tag_24:\n      mload(0x40)\n      dup1\n      swap2\n      sub\n      swap1\n      return\n        /* \"case/41_IERC721.sol\":2764:3078  function approve(address spender, uint id) external override {... */\n    tag_5:\n      tag_26\n      0x04\n      dup1\n      calldatasize\n      sub\n      dup2\n      add\n      swap1\n      tag_27\n      swap2\n      swap1\n      tag_28\n      jump\t// in\n    tag_27:\n      tag_29\n      jump\t// in\n    tag_26:\n      stop\n        /* \"case/41_IERC721.sol\":3532:3991  function transferFrom(... */\n    tag_6:\n      tag_30\n      0x04\n      dup1\n      calldatasize\n      sub\n      dup2\n      add\n      swap1\n      tag_31\n      swap2\n      swap1\n      tag_32\n      jump\t// in\n    tag_31:\n      tag_33\n      jump\t// in\n    tag_30:\n      stop\n        /* \"case/41_IERC721.sol\":3997:4385  function safeTransferFrom(... */\n    tag_7:\n      tag_34\n      0x04\n      dup1\n      calldatasize\n      sub\n      dup2\n      add\n      swap1\n      tag_35\n      swap2\n      swap1\n      tag_32\n      jump\t// in\n    tag_35:\n      tag_36\n      jump\t// in\n    tag_34:\n      stop\n        /* \"case/41_IERC721.sol\":2195:2366  function ownerOf(uint id) external view override returns (address owner) {... */\n    tag_8:\n      tag_37\n      0x04\n      dup1\n      calldatasize\n      sub\n      dup2\n      add\n      swap1\n      tag_38\n      swap2\n      swap1\n      tag_22\n      jump\t// in\n    tag_38:\n      tag_39\n      jump\t// in\n    tag_37:\n      mload(0x40)\n      tag_40\n      swap2\n      swap1\n      tag_25\n      jump\t// in\n    tag_40:\n      mload(0x40)\n      dup1\n      swap2\n      sub\n      swap1\n      return\n        /* \"case/41_IERC721.sol\":2372:2547  function balanceOf(address owner) external view override returns (uint) {... */\n    tag_9:\n      tag_41\n      0x04\n      dup1\n      calldatasize\n      sub\n      dup2\n      add\n      swap1\n      tag_42\n      swap2\n      swap1\n      tag_43\n      jump\t// in\n    tag_42:\n      tag_44\n      jump\t// in\n    tag_41:\n      mload(0x40)\n      tag_45\n      swap2\n      swap1\n      tag_46\n      jump\t// in\n    tag_45:\n      mload(0x40)\n      dup1\n      swap2\n      sub\n      swap1\n      return\n        /* \"case/41_IERC721.sol\":2553:2758  function setApprovalForAll(address operator, bool approved) external override {... */\n    tag_10:\n      tag_47\n      0x04\n      dup1\n      calldatasize\n      sub\n      dup2\n      add\n      swap1\n      tag_48\n      swap2\n      swap1\n      tag_49\n      jump\t// in\n    tag_48:\n      tag_50\n      jump\t// in\n    tag_47:\n      stop\n        /* \"case/41_IERC721.sol\":4391:4809  function safeTransferFrom(... */\n    tag_11:\n      tag_51\n      0x04\n      dup1\n      calldatasize\n      sub\n      dup2\n      add\n      swap1\n      tag_52\n      swap2\n      swap1\n      tag_53\n      jump\t// in\n    tag_52:\n      tag_54\n      jump\t// in\n    tag_51:\n      stop\n        /* \"case/41_IERC721.sol\":1887:1965  mapping(address => mapping(address => bool)) public override  isApprovedForAll */\n    tag_12:\n      tag_55\n      0x04\n      dup1\n      calldatasize\n      sub\n      dup2\n      add\n      swap1\n      tag_56\n      swap2\n      swap1\n      tag_57\n      jump\t// in\n    tag_56:\n      tag_58\n      jump\t// in\n    tag_55:\n      mload(0x40)\n      tag_59\n      swap2\n      swap1\n      tag_19\n      jump\t// in\n    tag_59:\n      mload(0x40)\n      dup1\n      swap2\n      sub\n      swap1\n      return\n        /* \"case/41_IERC721.sol\":1972:2189  function supportsInterface(bytes4 interfaceId) external pure override returns (bool) {... */\n    tag_17:\n        /* \"case/41_IERC721.sol\":2051:2055  bool */\n      0x00\n        /* \"case/41_IERC721.sol\":2101:2126  type(IERC721).interfaceId */\n      0x80ac58cd00000000000000000000000000000000000000000000000000000000\n        /* \"case/41_IERC721.sol\":2086:2126  interfaceId == type(IERC721).interfaceId */\n      not(0xffffffffffffffffffffffffffffffffffffffffffffffffffffffff)\n      and\n        /* \"case/41_IERC721.sol\":2086:2097  interfaceId */\n      dup3\n        /* \"case/41_IERC721.sol\":2086:2126  interfaceId == type(IERC721).interfaceId */\n      not(0xffffffffffffffffffffffffffffffffffffffffffffffffffffffff)\n      and\n      eq\n        /* \"case/41_IERC721.sol\":2086:2182  interfaceId == type(IERC721).interfaceId ||... */\n      dup1\n      tag_61\n      jumpi\n      pop\n        /* \"case/41_IERC721.sol\":2157:2182  type(IERC165).interfaceId */\n      0x01ffc9a700000000000000000000000000000000000000000000000000000000\n        /* \"case/41_IERC721.sol\":2142:2182  interfaceId == type(IERC165).interfaceId */\n      not(0xffffffffffffffffffffffffffffffffffffffffffffffffffffffff)\n      and\n        /* \"case/41_IERC721.sol\":2142:2153  interfaceId */\n      dup3\n        /* \"case/41_IERC721.sol\":2142:2182  interfaceId == type(IERC165).interfaceId */\n      not(0xffffffffffffffffffffffffffffffffffffffffffffffffffffffff)\n      and\n      eq\n        /* \"case/41_IERC721.sol\":2086:2182  interfaceId == type(IERC721).interfaceId ||... */\n    tag_61:\n        /* \"case/41_IERC721.sol\":2067:2182  return... */\n      swap1\n      pop\n        /* \"case/41_IERC721.sol\":1972:2189  function supportsInterface(bytes4 interfaceId) external pure override returns (bool) {... */\n      swap2\n      swap1\n      pop\n      jump\t// out\n        /* \"case/41_IERC721.sol\":3084:3261  function getApproved(uint id) external view override returns (address) {... */\n    tag_23:\n        /* \"case/41_IERC721.sol\":3146:3153  address */\n      0x00\n        /* \"case/41_IERC721.sol\":3197:3198  0 */\n      dup1\n        /* \"case/41_IERC721.sol\":3173:3199  _ownerOf[id] != address(0) */\n      0xffffffffffffffffffffffffffffffffffffffff\n      and\n        /* \"case/41_IERC721.sol\":3173:3181  _ownerOf */\n      0x00\n        /* \"case/41_IERC721.sol\":3173:3185  _ownerOf[id] */\n      dup1\n        /* \"case/41_IERC721.sol\":3182:3184  id */\n      dup5\n        /* \"case/41_IERC721.sol\":3173:3185  _ownerOf[id] */\n      dup2\n      mstore\n      0x20\n      add\n      swap1\n      dup2\n      mstore\n      0x20\n      add\n      0x00\n      keccak256\n      0x00\n      swap1\n      sload\n      swap1\n      0x0100\n      exp\n      swap1\n      div\n      0xffffffffffffffffffffffffffffffffffffffff\n      and\n        /* \"case/41_IERC721.sol\":3173:3199  _ownerOf[id] != address(0) */\n      0xffffffffffffffffffffffffffffffffffffffff\n      and\n      eq\n      iszero\n        /* \"case/41_IERC721.sol\":3165:3223  require(_ownerOf[id] != address(0), \"token doesn't exist\") */\n      tag_63\n      jumpi\n      mload(0x40)\n      0x08c379a000000000000000000000000000000000000000000000000000000000\n      dup2\n      mstore\n      0x04\n      add\n      tag_64\n      swap1\n      tag_65\n      jump\t// in\n    tag_64:\n      mload(0x40)\n      dup1\n      swap2\n      sub\n      swap1\n      revert\n    tag_63:\n        /* \"case/41_IERC721.sol\":3240:3250  _approvals */\n      0x02\n        /* \"case/41_IERC721.sol\":3240:3254  _approvals[id] */\n      0x00\n        /* \"case/41_IERC721.sol\":3251:3253  id */\n      dup4\n        /* \"case/41_IERC721.sol\":3240:3254  _approvals[id] */\n      dup2\n      mstore\n      0x20\n      add\n      swap1\n      dup2\n      mstore\n      0x20\n      add\n      0x00\n      keccak256\n      0x00\n      swap1\n      sload\n      swap1\n      0x0100\n      exp\n      swap1\n      div\n      0xffffffffffffffffffffffffffffffffffffffff\n      and\n        /* \"case/41_IERC721.sol\":3233:3254  return _approvals[id] */\n      swap1\n      pop\n        /* \"case/41_IERC721.sol\":3084:3261  function getApproved(uint id) external view override returns (address) {... */\n      swap2\n      swap1\n      pop\n      jump\t// out\n        /* \"case/41_IERC721.sol\":2764:3078  function approve(address spender, uint id) external override {... */\n    tag_29:\n        /* \"case/41_IERC721.sol\":2835:2848  address owner */\n      0x00\n        /* \"case/41_IERC721.sol\":2851:2859  _ownerOf */\n      dup1\n        /* \"case/41_IERC721.sol\":2851:2863  _ownerOf[id] */\n      0x00\n        /* \"case/41_IERC721.sol\":2860:2862  id */\n      dup4\n        /* \"case/41_IERC721.sol\":2851:2863  _ownerOf[id] */\n      dup2\n      mstore\n      0x20\n      add\n      swap1\n      dup2\n      mstore\n      0x20\n      add\n      0x00\n      keccak256\n      0x00\n      swap1\n      sload\n      swap1\n      0x0100\n      exp\n      swap1\n      div\n      0xffffffffffffffffffffffffffffffffffffffff\n      and\n        /* \"case/41_IERC721.sol\":2835:2863  address owner = _ownerOf[id] */\n      swap1\n      pop\n        /* \"case/41_IERC721.sol\":2908:2913  owner */\n      dup1\n        /* \"case/41_IERC721.sol\":2894:2913  msg.sender == owner */\n      0xffffffffffffffffffffffffffffffffffffffff\n      and\n        /* \"case/41_IERC721.sol\":2894:2904  msg.sender */\n      caller\n        /* \"case/41_IERC721.sol\":2894:2913  msg.sender == owner */\n      0xffffffffffffffffffffffffffffffffffffffff\n      and\n      eq\n        /* \"case/41_IERC721.sol\":2894:2952  msg.sender == owner || isApprovedForAll[owner][msg.sender] */\n      dup1\n      tag_67\n      jumpi\n      pop\n        /* \"case/41_IERC721.sol\":2917:2933  isApprovedForAll */\n      0x03\n        /* \"case/41_IERC721.sol\":2917:2940  isApprovedForAll[owner] */\n      0x00\n        /* \"case/41_IERC721.sol\":2934:2939  owner */\n      dup3\n        /* \"case/41_IERC721.sol\":2917:2940  isApprovedForAll[owner] */\n      0xffffffffffffffffffffffffffffffffffffffff\n      and\n      0xffffffffffffffffffffffffffffffffffffffff\n      and\n      dup2\n      mstore\n      0x20\n      add\n      swap1\n      dup2\n      mstore\n      0x20\n      add\n      0x00\n      keccak256\n        /* \"case/41_IERC721.sol\":2917:2952  isApprovedForAll[owner][msg.sender] */\n      0x00\n        /* \"case/41_IERC721.sol\":2941:2951  msg.sender */\n      caller\n        /* \"case/41_IERC721.sol\":2917:2952  isApprovedForAll[owner][msg.sender] */\n      0xffffffffffffffffffffffffffffffffffffffff\n      and\n      0xffffffffffffffffffffffffffffffffffffffff\n      and\n      dup2\n      mstore\n      0x20\n      add\n      swap1\n      dup2\n      mstore\n      0x20\n      add\n      0x00\n      keccak256\n      0x00\n      swap1\n      sload\n      swap1\n      0x0100\n      exp\n      swap1\n      div\n      0xff\n      and\n        /* \"case/41_IERC721.sol\":2894:2952  msg.sender == owner || isApprovedForAll[owner][msg.sender] */\n    tag_67:\n        /* \"case/41_IERC721.sol\":2873:2992  require(... */\n      tag_68\n      jumpi\n      mload(0x40)\n      0x08c379a000000000000000000000000000000000000000000000000000000000\n      dup2\n      mstore\n      0x04\n      add\n      tag_69\n      swap1\n      tag_70\n      jump\t// in\n    tag_69:\n      mload(0x40)\n      dup1\n      swap2\n      sub\n      swap1\n      revert\n    tag_68:\n        /* \"case/41_IERC721.sol\":3020:3027  spender */\n      dup3\n        /* \"case/41_IERC721.sol\":3003:3013  _approvals */\n      0x02\n        /* \"case/41_IERC721.sol\":3003:3017  _approvals[id] */\n      0x00\n        /* \"case/41_IERC721.sol\":3014:3016  id */\n      dup5\n        /* \"case/41_IERC721.sol\":3003:3017  _approvals[id] */\n      dup2\n      mstore\n      0x20\n      add\n      swap1\n      dup2\n      mstore\n      0x20\n      add\n      0x00\n      keccak256\n      0x00\n        /* \"case/41_IERC721.sol\":3003:3027  _approvals[id] = spender */\n      0x0100\n      exp\n      dup2\n      sload\n      dup2\n      0xffffffffffffffffffffffffffffffffffffffff\n      mul\n      not\n      and\n      swap1\n      dup4\n      0xffffffffffffffffffffffffffffffffffffffff\n      and\n      mul\n      or\n      swap1\n      sstore\n      pop\n        /* \"case/41_IERC721.sol\":3068:3070  id */\n      dup2\n        /* \"case/41_IERC721.sol\":3059:3066  spender */\n      dup4\n        /* \"case/41_IERC721.sol\":3043:3071  Approval(owner, spender, id) */\n      0xffffffffffffffffffffffffffffffffffffffff\n      and\n        /* \"case/41_IERC721.sol\":3052:3057  owner */\n      dup3\n        /* \"case/41_IERC721.sol\":3043:3071  Approval(owner, spender, id) */\n      0xffffffffffffffffffffffffffffffffffffffff\n      and\n      0x8c5be1e5ebec7d5bd14f71427d1e84f3dd0314c0f7b2291e5b200ac8c7c3b925\n      mload(0x40)\n      mload(0x40)\n      dup1\n      swap2\n      sub\n      swap1\n      log4\n        /* \"case/41_IERC721.sol\":2825:3078  {... */\n      pop\n        /* \"case/41_IERC721.sol\":2764:3078  function approve(address spender, uint id) external override {... */\n      pop\n      pop\n      jump\t// out\n        /* \"case/41_IERC721.sol\":3532:3991  function transferFrom(... */\n    tag_33:\n        /* \"case/41_IERC721.sol\":3661:3669  _ownerOf */\n      0x00\n        /* \"case/41_IERC721.sol\":3661:3673  _ownerOf[id] */\n      dup1\n        /* \"case/41_IERC721.sol\":3670:3672  id */\n      dup3\n        /* \"case/41_IERC721.sol\":3661:3673  _ownerOf[id] */\n      dup2\n      mstore\n      0x20\n      add\n      swap1\n      dup2\n      mstore\n      0x20\n      add\n      0x00\n      keccak256\n      0x00\n      swap1\n      sload\n      swap1\n      0x0100\n      exp\n      swap1\n      div\n      0xffffffffffffffffffffffffffffffffffffffff\n      and\n        /* \"case/41_IERC721.sol\":3653:3673  from == _ownerOf[id] */\n      0xffffffffffffffffffffffffffffffffffffffff\n      and\n        /* \"case/41_IERC721.sol\":3653:3657  from */\n      dup4\n        /* \"case/41_IERC721.sol\":3653:3673  from == _ownerOf[id] */\n      0xffffffffffffffffffffffffffffffffffffffff\n      and\n      eq\n        /* \"case/41_IERC721.sol\":3645:3691  require(from == _ownerOf[id], \"from != owner\") */\n      tag_72\n      jumpi\n      mload(0x40)\n      0x08c379a000000000000000000000000000000000000000000000000000000000\n      dup2\n      mstore\n      0x04\n      add\n      tag_73\n      swap1\n      tag_74\n      jump\t// in\n    tag_73:\n      mload(0x40)\n      dup1\n      swap2\n      sub\n      swap1\n      revert\n    tag_72:\n        /* \"case/41_IERC721.sol\":3723:3724  0 */\n      0x00\n        /* \"case/41_IERC721.sol\":3709:3725  to != address(0) */\n      0xffffffffffffffffffffffffffffffffffffffff\n      and\n        /* \"case/41_IERC721.sol\":3709:3711  to */\n      dup3\n        /* \"case/41_IERC721.sol\":3709:3725  to != address(0) */\n      0xffffffffffffffffffffffffffffffffffffffff\n      and\n      eq\n      iszero\n        /* \"case/41_IERC721.sol\":3701:3754  require(to != address(0), \"transfer to zero address\") */\n      tag_75\n      jumpi\n      mload(0x40)\n      0x08c379a000000000000000000000000000000000000000000000000000000000\n      dup2\n      mstore\n      0x04\n      add\n      tag_76\n      swap1\n      tag_77\n      jump\t// in\n    tag_76:\n      mload(0x40)\n      dup1\n      swap2\n      sub\n      swap1\n      revert\n    tag_75:\n        /* \"case/41_IERC721.sol\":3773:3813  _isApprovedOrOwner(from, msg.sender, id) */\n      tag_78\n        /* \"case/41_IERC721.sol\":3792:3796  from */\n      dup4\n        /* \"case/41_IERC721.sol\":3798:3808  msg.sender */\n      caller\n        /* \"case/41_IERC721.sol\":3810:3812  id */\n      dup4\n        /* \"case/41_IERC721.sol\":3773:3791  _isApprovedOrOwner */\n      tag_79\n        /* \"case/41_IERC721.sol\":3773:3813  _isApprovedOrOwner(from, msg.sender, id) */\n      jump\t// in\n    tag_78:\n        /* \"case/41_IERC721.sol\":3765:3832  require(_isApprovedOrOwner(from, msg.sender, id), \"not authorized\") */\n      tag_80\n      jumpi\n      mload(0x40)\n      0x08c379a000000000000000000000000000000000000000000000000000000000\n      dup2\n      mstore\n      0x04\n      add\n      tag_81\n      swap1\n      tag_70\n      jump\t// in\n    tag_81:\n      mload(0x40)\n      dup1\n      swap2\n      sub\n      swap1\n      revert\n    tag_80:\n        /* \"case/41_IERC721.sol\":3843:3853  _balanceOf */\n      0x01\n        /* \"case/41_IERC721.sol\":3843:3859  _balanceOf[from] */\n      0x00\n        /* \"case/41_IERC721.sol\":3854:3858  from */\n      dup5\n        /* \"case/41_IERC721.sol\":3843:3859  _balanceOf[from] */\n      0xffffffffffffffffffffffffffffffffffffffff\n      and\n      0xffffffffffffffffffffffffffffffffffffffff\n      and\n      dup2\n      mstore\n      0x20\n      add\n      swap1\n      dup2\n      mstore\n      0x20\n      add\n      0x00\n      keccak256\n      0x00\n        /* \"case/41_IERC721.sol\":3843:3861  _balanceOf[from]-- */\n      dup2\n      sload\n      dup1\n      swap3\n      swap2\n      swap1\n      tag_82\n      swap1\n      tag_83\n      jump\t// in\n    tag_82:\n      swap2\n      swap1\n      pop\n      sstore\n      pop\n        /* \"case/41_IERC721.sol\":3871:3881  _balanceOf */\n      0x01\n        /* \"case/41_IERC721.sol\":3871:3885  _balanceOf[to] */\n      0x00\n        /* \"case/41_IERC721.sol\":3882:3884  to */\n      dup4\n        /* \"case/41_IERC721.sol\":3871:3885  _balanceOf[to] */\n      0xffffffffffffffffffffffffffffffffffffffff\n      and\n      0xffffffffffffffffffffffffffffffffffffffff\n      and\n      dup2\n      mstore\n      0x20\n      add\n      swap1\n      dup2\n      mstore\n      0x20\n      add\n      0x00\n      keccak256\n      0x00\n        /* \"case/41_IERC721.sol\":3871:3887  _balanceOf[to]++ */\n      dup2\n      sload\n      dup1\n      swap3\n      swap2\n      swap1\n      tag_84\n      swap1\n      tag_85\n      jump\t// in\n    tag_84:\n      swap2\n      swap1\n      pop\n      sstore\n      pop\n        /* \"case/41_IERC721.sol\":3912:3914  to */\n      dup2\n        /* \"case/41_IERC721.sol\":3897:3905  _ownerOf */\n      0x00\n        /* \"case/41_IERC721.sol\":3897:3909  _ownerOf[id] */\n      dup1\n        /* \"case/41_IERC721.sol\":3906:3908  id */\n      dup4\n        /* \"case/41_IERC721.sol\":3897:3909  _ownerOf[id] */\n      dup2\n      mstore\n      0x20\n      add\n      swap1\n      dup2\n      mstore\n      0x20\n      add\n      0x00\n      keccak256\n      0x00\n        /* \"case/41_IERC721.sol\":3897:3914  _ownerOf[id] = to */\n      0x0100\n      exp\n      dup2\n      sload\n      dup2\n      0xffffffffffffffffffffffffffffffffffffffff\n      mul\n      not\n      and\n      swap1\n      dup4\n      0xffffffffffffffffffffffffffffffffffffffff\n      and\n      mul\n      or\n      swap1\n      sstore\n      pop\n        /* \"case/41_IERC721.sol\":3932:3942  _approvals */\n      0x02\n        /* \"case/41_IERC721.sol\":3932:3946  _approvals[id] */\n      0x00\n        /* \"case/41_IERC721.sol\":3943:3945  id */\n      dup3\n        /* \"case/41_IERC721.sol\":3932:3946  _approvals[id] */\n      dup2\n      mstore\n      0x20\n      add\n      swap1\n      dup2\n      mstore\n      0x20\n      add\n      0x00\n      keccak256\n      0x00\n        /* \"case/41_IERC721.sol\":3925:3946  delete _approvals[id] */\n      0x0100\n      exp\n      dup2\n      sload\n      swap1\n      0xffffffffffffffffffffffffffffffffffffffff\n      mul\n      not\n      and\n      swap1\n      sstore\n        /* \"case/41_IERC721.sol\":3981:3983  id */\n      dup1\n        /* \"case/41_IERC721.sol\":3977:3979  to */\n      dup3\n        /* \"case/41_IERC721.sol\":3962:3984  Transfer(from, to, id) */\n      0xffffffffffffffffffffffffffffffffffffffff\n      and\n        /* \"case/41_IERC721.sol\":3971:3975  from */\n      dup5\n        /* \"case/41_IERC721.sol\":3962:3984  Transfer(from, to, id) */\n      0xffffffffffffffffffffffffffffffffffffffff\n      and\n      0xddf252ad1be2c89b69c2b068fc378daa952ba7f163c4a11628f55a4df523b3ef\n      mload(0x40)\n      mload(0x40)\n      dup1\n      swap2\n      sub\n      swap1\n      log4\n        /* \"case/41_IERC721.sol\":3532:3991  function transferFrom(... */\n      pop\n      pop\n      pop\n      jump\t// out\n        /* \"case/41_IERC721.sol\":3997:4385  function safeTransferFrom(... */\n    tag_36:\n        /* \"case/41_IERC721.sol\":4116:4142  transferFrom(from, to, id) */\n      tag_87\n        /* \"case/41_IERC721.sol\":4129:4133  from */\n      dup4\n        /* \"case/41_IERC721.sol\":4135:4137  to */\n      dup4\n        /* \"case/41_IERC721.sol\":4139:4141  id */\n      dup4\n        /* \"case/41_IERC721.sol\":4116:4128  transferFrom */\n      tag_33\n        /* \"case/41_IERC721.sol\":4116:4142  transferFrom(from, to, id) */\n      jump\t// in\n    tag_87:\n        /* \"case/41_IERC721.sol\":4192:4193  0 */\n      0x00\n        /* \"case/41_IERC721.sol\":4174:4176  to */\n      dup3\n        /* \"case/41_IERC721.sol\":4174:4188  to.code.length */\n      0xffffffffffffffffffffffffffffffffffffffff\n      and\n      extcodesize\n        /* \"case/41_IERC721.sol\":4174:4193  to.code.length == 0 */\n      eq\n        /* \"case/41_IERC721.sol\":4174:4336  to.code.length == 0 ||... */\n      dup1\n      tag_88\n      jumpi\n      pop\n        /* \"case/41_IERC721.sol\":4295:4336  IERC721Receiver.onERC721Received.selector */\n      shl(0xe0, 0x150b7a02)\n        /* \"case/41_IERC721.sol\":4213:4336  IERC721Receiver(to).onERC721Received(msg.sender, from, id, \"\") ==... */\n      not(0xffffffffffffffffffffffffffffffffffffffffffffffffffffffff)\n      and\n        /* \"case/41_IERC721.sol\":4229:4231  to */\n      dup3\n        /* \"case/41_IERC721.sol\":4213:4249  IERC721Receiver(to).onERC721Received */\n      0xffffffffffffffffffffffffffffffffffffffff\n      and\n      0x150b7a02\n        /* \"case/41_IERC721.sol\":4250:4260  msg.sender */\n      caller\n        /* \"case/41_IERC721.sol\":4262:4266  from */\n      dup7\n        /* \"case/41_IERC721.sol\":4268:4270  id */\n      dup6\n        /* \"case/41_IERC721.sol\":4213:4275  IERC721Receiver(to).onERC721Received(msg.sender, from, id, \"\") */\n      mload(0x40)\n      dup5\n      0xffffffff\n      and\n      0xe0\n      shl\n      dup2\n      mstore\n      0x04\n      add\n      tag_89\n      swap4\n      swap3\n      swap2\n      swap1\n      tag_90\n      jump\t// in\n    tag_89:\n      0x20\n      mload(0x40)\n      dup1\n      dup4\n      sub\n      dup2\n      0x00\n      dup8\n      dup1\n      extcodesize\n      iszero\n      dup1\n      iszero\n      tag_91\n      jumpi\n      0x00\n      dup1\n      revert\n    tag_91:\n      pop\n      gas\n      call\n      iszero\n      dup1\n      iszero\n      tag_93\n      jumpi\n      returndatasize\n      0x00\n      dup1\n      returndatacopy\n      revert(0x00, returndatasize)\n    tag_93:\n      pop\n      pop\n      pop\n      pop\n      mload(0x40)\n      returndatasize\n      not(0x1f)\n      0x1f\n      dup3\n      add\n      and\n      dup3\n      add\n      dup1\n      0x40\n      mstore\n      pop\n      dup2\n      add\n      swap1\n      tag_94\n      swap2\n      swap1\n      tag_95\n      jump\t// in\n    tag_94:\n        /* \"case/41_IERC721.sol\":4213:4336  IERC721Receiver(to).onERC721Received(msg.sender, from, id, \"\") ==... */\n      not(0xffffffffffffffffffffffffffffffffffffffffffffffffffffffff)\n      and\n      eq\n        /* \"case/41_IERC721.sol\":4174:4336  to.code.length == 0 ||... */\n    tag_88:\n        /* \"case/41_IERC721.sol\":4153:4378  require(... */\n      tag_96\n      jumpi\n      mload(0x40)\n      0x08c379a000000000000000000000000000000000000000000000000000000000\n      dup2\n      mstore\n      0x04\n      add\n      tag_97\n      swap1\n      tag_98\n      jump\t// in\n    tag_97:\n      mload(0x40)\n      dup1\n      swap2\n      sub\n      swap1\n      revert\n    tag_96:\n        /* \"case/41_IERC721.sol\":3997:4385  function safeTransferFrom(... */\n      pop\n      pop\n      pop\n      jump\t// out\n        /* \"case/41_IERC721.sol\":2195:2366  function ownerOf(uint id) external view override returns (address owner) {... */\n    tag_39:\n        /* \"case/41_IERC721.sol\":2253:2266  address owner */\n      0x00\n        /* \"case/41_IERC721.sol\":2286:2294  _ownerOf */\n      dup1\n        /* \"case/41_IERC721.sol\":2286:2298  _ownerOf[id] */\n      0x00\n        /* \"case/41_IERC721.sol\":2295:2297  id */\n      dup4\n        /* \"case/41_IERC721.sol\":2286:2298  _ownerOf[id] */\n      dup2\n      mstore\n      0x20\n      add\n      swap1\n      dup2\n      mstore\n      0x20\n      add\n      0x00\n      keccak256\n      0x00\n      swap1\n      sload\n      swap1\n      0x0100\n      exp\n      swap1\n      div\n      0xffffffffffffffffffffffffffffffffffffffff\n      and\n        /* \"case/41_IERC721.sol\":2278:2298  owner = _ownerOf[id] */\n      swap1\n      pop\n        /* \"case/41_IERC721.sol\":2333:2334  0 */\n      0x00\n        /* \"case/41_IERC721.sol\":2316:2335  owner != address(0) */\n      0xffffffffffffffffffffffffffffffffffffffff\n      and\n        /* \"case/41_IERC721.sol\":2316:2321  owner */\n      dup2\n        /* \"case/41_IERC721.sol\":2316:2335  owner != address(0) */\n      0xffffffffffffffffffffffffffffffffffffffff\n      and\n      eq\n      iszero\n        /* \"case/41_IERC721.sol\":2308:2359  require(owner != address(0), \"token doesn't exist\") */\n      tag_100\n      jumpi\n      mload(0x40)\n      0x08c379a000000000000000000000000000000000000000000000000000000000\n      dup2\n      mstore\n      0x04\n      add\n      tag_101\n      swap1\n      tag_65\n      jump\t// in\n    tag_101:\n      mload(0x40)\n      dup1\n      swap2\n      sub\n      swap1\n      revert\n    tag_100:\n        /* \"case/41_IERC721.sol\":2195:2366  function ownerOf(uint id) external view override returns (address owner) {... */\n      swap2\n      swap1\n      pop\n      jump\t// out\n        /* \"case/41_IERC721.sol\":2372:2547  function balanceOf(address owner) external view override returns (uint) {... */\n    tag_44:\n        /* \"case/41_IERC721.sol\":2438:2442  uint */\n      0x00\n        /* \"case/41_IERC721.sol\":2479:2480  0 */\n      dup1\n        /* \"case/41_IERC721.sol\":2462:2481  owner != address(0) */\n      0xffffffffffffffffffffffffffffffffffffffff\n      and\n        /* \"case/41_IERC721.sol\":2462:2467  owner */\n      dup3\n        /* \"case/41_IERC721.sol\":2462:2481  owner != address(0) */\n      0xffffffffffffffffffffffffffffffffffffffff\n      and\n      eq\n      iszero\n        /* \"case/41_IERC721.sol\":2454:2506  require(owner != address(0), \"owner = zero address\") */\n      tag_103\n      jumpi\n      mload(0x40)\n      0x08c379a000000000000000000000000000000000000000000000000000000000\n      dup2\n      mstore\n      0x04\n      add\n      tag_104\n      swap1\n      tag_105\n      jump\t// in\n    tag_104:\n      mload(0x40)\n      dup1\n      swap2\n      sub\n      swap1\n      revert\n    tag_103:\n        /* \"case/41_IERC721.sol\":2523:2533  _balanceOf */\n      0x01\n        /* \"case/41_IERC721.sol\":2523:2540  _balanceOf[owner] */\n      0x00\n        /* \"case/41_IERC721.sol\":2534:2539  owner */\n      dup4\n        /* \"case/41_IERC721.sol\":2523:2540  _balanceOf[owner] */\n      0xffffffffffffffffffffffffffffffffffffffff\n      and\n      0xffffffffffffffffffffffffffffffffffffffff\n      and\n      dup2\n      mstore\n      0x20\n      add\n      swap1\n      dup2\n      mstore\n      0x20\n      add\n      0x00\n      keccak256\n      sload\n        /* \"case/41_IERC721.sol\":2516:2540  return _balanceOf[owner] */\n      swap1\n      pop\n        /* \"case/41_IERC721.sol\":2372:2547  function balanceOf(address owner) external view override returns (uint) {... */\n      swap2\n      swap1\n      pop\n      jump\t// out\n        /* \"case/41_IERC721.sol\":2553:2758  function setApprovalForAll(address operator, bool approved) external override {... */\n    tag_50:\n        /* \"case/41_IERC721.sol\":2682:2690  approved */\n      dup1\n        /* \"case/41_IERC721.sol\":2641:2657  isApprovedForAll */\n      0x03\n        /* \"case/41_IERC721.sol\":2641:2669  isApprovedForAll[msg.sender] */\n      0x00\n        /* \"case/41_IERC721.sol\":2658:2668  msg.sender */\n      caller\n        /* \"case/41_IERC721.sol\":2641:2669  isApprovedForAll[msg.sender] */\n      0xffffffffffffffffffffffffffffffffffffffff\n      and\n      0xffffffffffffffffffffffffffffffffffffffff\n      and\n      dup2\n      mstore\n      0x20\n      add\n      swap1\n      dup2\n      mstore\n      0x20\n      add\n      0x00\n      keccak256\n        /* \"case/41_IERC721.sol\":2641:2679  isApprovedForAll[msg.sender][operator] */\n      0x00\n        /* \"case/41_IERC721.sol\":2670:2678  operator */\n      dup5\n        /* \"case/41_IERC721.sol\":2641:2679  isApprovedForAll[msg.sender][operator] */\n      0xffffffffffffffffffffffffffffffffffffffff\n      and\n      0xffffffffffffffffffffffffffffffffffffffff\n      and\n      dup2\n      mstore\n      0x20\n      add\n      swap1\n      dup2\n      mstore\n      0x20\n      add\n      0x00\n      keccak256\n      0x00\n        /* \"case/41_IERC721.sol\":2641:2690  isApprovedForAll[msg.sender][operator] = approved */\n      0x0100\n      exp\n      dup2\n      sload\n      dup2\n      0xff\n      mul\n      not\n      and\n      swap1\n      dup4\n      iszero\n      iszero\n      mul\n      or\n      swap1\n      sstore\n      pop\n        /* \"case/41_IERC721.sol\":2732:2740  operator */\n      dup2\n        /* \"case/41_IERC721.sol\":2705:2751  ApprovalForAll(msg.sender, operator, approved) */\n      0xffffffffffffffffffffffffffffffffffffffff\n      and\n        /* \"case/41_IERC721.sol\":2720:2730  msg.sender */\n      caller\n        /* \"case/41_IERC721.sol\":2705:2751  ApprovalForAll(msg.sender, operator, approved) */\n      0xffffffffffffffffffffffffffffffffffffffff\n      and\n      0x17307eab39ab6107e8899845ad3d59bd9653f200f220920489ca2b5937696c31\n        /* \"case/41_IERC721.sol\":2742:2750  approved */\n      dup4\n        /* \"case/41_IERC721.sol\":2705:2751  ApprovalForAll(msg.sender, operator, approved) */\n      mload(0x40)\n      tag_107\n      swap2\n      swap1\n      tag_19\n      jump\t// in\n    tag_107:\n      mload(0x40)\n      dup1\n      swap2\n      sub\n      swap1\n      log3\n        /* \"case/41_IERC721.sol\":2553:2758  function setApprovalForAll(address operator, bool approved) external override {... */\n      pop\n      pop\n      jump\t// out\n        /* \"case/41_IERC721.sol\":4391:4809  function safeTransferFrom(... */\n    tag_54:\n        /* \"case/41_IERC721.sol\":4538:4564  transferFrom(from, to, id) */\n      tag_109\n        /* \"case/41_IERC721.sol\":4551:4555  from */\n      dup6\n        /* \"case/41_IERC721.sol\":4557:4559  to */\n      dup6\n        /* \"case/41_IERC721.sol\":4561:4563  id */\n      dup6\n        /* \"case/41_IERC721.sol\":4538:4550  transferFrom */\n      tag_33\n        /* \"case/41_IERC721.sol\":4538:4564  transferFrom(from, to, id) */\n      jump\t// in\n    tag_109:\n        /* \"case/41_IERC721.sol\":4614:4615  0 */\n      0x00\n        /* \"case/41_IERC721.sol\":4596:4598  to */\n      dup5\n        /* \"case/41_IERC721.sol\":4596:4610  to.code.length */\n      0xffffffffffffffffffffffffffffffffffffffff\n      and\n      extcodesize\n        /* \"case/41_IERC721.sol\":4596:4615  to.code.length == 0 */\n      eq\n        /* \"case/41_IERC721.sol\":4596:4760  to.code.length == 0 ||... */\n      dup1\n      tag_110\n      jumpi\n      pop\n        /* \"case/41_IERC721.sol\":4719:4760  IERC721Receiver.onERC721Received.selector */\n      shl(0xe0, 0x150b7a02)\n        /* \"case/41_IERC721.sol\":4635:4760  IERC721Receiver(to).onERC721Received(msg.sender, from, id, data) ==... */\n      not(0xffffffffffffffffffffffffffffffffffffffffffffffffffffffff)\n      and\n        /* \"case/41_IERC721.sol\":4651:4653  to */\n      dup5\n        /* \"case/41_IERC721.sol\":4635:4671  IERC721Receiver(to).onERC721Received */\n      0xffffffffffffffffffffffffffffffffffffffff\n      and\n      0x150b7a02\n        /* \"case/41_IERC721.sol\":4672:4682  msg.sender */\n      caller\n        /* \"case/41_IERC721.sol\":4684:4688  from */\n      dup9\n        /* \"case/41_IERC721.sol\":4690:4692  id */\n      dup8\n        /* \"case/41_IERC721.sol\":4694:4698  data */\n      dup8\n      dup8\n        /* \"case/41_IERC721.sol\":4635:4699  IERC721Receiver(to).onERC721Received(msg.sender, from, id, data) */\n      mload(0x40)\n      dup7\n      0xffffffff\n      and\n      0xe0\n      shl\n      dup2\n      mstore\n      0x04\n      add\n      tag_111\n      swap6\n      swap5\n      swap4\n      swap3\n      swap2\n      swap1\n      tag_112\n      jump\t// in\n    tag_111:\n      0x20\n      mload(0x40)\n      dup1\n      dup4\n      sub\n      dup2\n      0x00\n      dup8\n      dup1\n      extcodesize\n      iszero\n      dup1\n      iszero\n      tag_113\n      jumpi\n      0x00\n      dup1\n      revert\n    tag_113:\n      pop\n      gas\n      call\n      iszero\n      dup1\n      iszero\n      tag_115\n      jumpi\n      returndatasize\n      0x00\n      dup1\n      returndatacopy\n      revert(0x00, returndatasize)\n    tag_115:\n      pop\n      pop\n      pop\n      pop\n      mload(0x40)\n      returndatasize\n      not(0x1f)\n      0x1f\n      dup3\n      add\n      and\n      dup3\n      add\n      dup1\n      0x40\n      mstore\n      pop\n      dup2\n      add\n      swap1\n      tag_116\n      swap2\n      swap1\n      tag_95\n      jump\t// in\n    tag_116:\n        /* \"case/41_IERC721.sol\":4635:4760  IERC721Receiver(to).onERC721Received(msg.sender, from, id, data) ==... */\n      not(0xffffffffffffffffffffffffffffffffffffffffffffffffffffffff)\n      and\n      eq\n        /* \"case/41_IERC721.sol\":4596:4760  to.code.length == 0 ||... */\n    tag_110:\n        /* \"case/41_IERC721.sol\":4575:4802  require(... */\n      tag_117\n      jumpi\n      mload(0x40)\n      0x08c379a000000000000000000000000000000000000000000000000000000000\n      dup2\n      mstore\n      0x04\n      add\n      tag_118\n      swap1\n      tag_98\n      jump\t// in\n    tag_118:\n      mload(0x40)\n      dup1\n      swap2\n      sub\n      swap1\n      revert\n    tag_117:\n        /* \"case/41_IERC721.sol\":4391:4809  function safeTransferFrom(... */\n      pop\n      pop\n      pop\n      pop\n      pop\n      jump\t// out\n        /* \"case/41_IERC721.sol\":1887:1965  mapping(address => mapping(address => bool)) public override  isApprovedForAll */\n    tag_58:\n      mstore(0x20, 0x03)\n      dup2\n      0x00\n      mstore\n      mstore(0x20, keccak256(0x00, 0x40))\n      dup1\n      0x00\n      mstore\n      keccak256(0x00, 0x40)\n      0x00\n      swap2\n      pop\n      swap2\n      pop\n      swap1\n      sload\n      swap1\n      0x0100\n      exp\n      swap1\n      div\n      0xff\n      and\n      dup2\n      jump\t// out\n        /* \"case/41_IERC721.sol\":3267:3526  function _isApprovedOrOwner(... */\n    tag_79:\n        /* \"case/41_IERC721.sol\":3389:3393  bool */\n      0x00\n        /* \"case/41_IERC721.sol\":3424:3429  owner */\n      dup4\n        /* \"case/41_IERC721.sol\":3413:3429  spender == owner */\n      0xffffffffffffffffffffffffffffffffffffffff\n      and\n        /* \"case/41_IERC721.sol\":3413:3420  spender */\n      dup4\n        /* \"case/41_IERC721.sol\":3413:3429  spender == owner */\n      0xffffffffffffffffffffffffffffffffffffffff\n      and\n      eq\n        /* \"case/41_IERC721.sol\":3413:3477  spender == owner ||... */\n      dup1\n      tag_120\n      jumpi\n      pop\n        /* \"case/41_IERC721.sol\":3445:3461  isApprovedForAll */\n      0x03\n        /* \"case/41_IERC721.sol\":3445:3468  isApprovedForAll[owner] */\n      0x00\n        /* \"case/41_IERC721.sol\":3462:3467  owner */\n      dup6\n        /* \"case/41_IERC721.sol\":3445:3468  isApprovedForAll[owner] */\n      0xffffffffffffffffffffffffffffffffffffffff\n      and\n      0xffffffffffffffffffffffffffffffffffffffff\n      and\n      dup2\n      mstore\n      0x20\n      add\n      swap1\n      dup2\n      mstore\n      0x20\n      add\n      0x00\n      keccak256\n        /* \"case/41_IERC721.sol\":3445:3477  isApprovedForAll[owner][spender] */\n      0x00\n        /* \"case/41_IERC721.sol\":3469:3476  spender */\n      dup5\n        /* \"case/41_IERC721.sol\":3445:3477  isApprovedForAll[owner][spender] */\n      0xffffffffffffffffffffffffffffffffffffffff\n      and\n      0xffffffffffffffffffffffffffffffffffffffff\n      and\n      dup2\n      mstore\n      0x20\n      add\n      swap1\n      dup2\n      mstore\n      0x20\n      add\n      0x00\n      keccak256\n      0x00\n      swap1\n      sload\n      swap1\n      0x0100\n      exp\n      swap1\n      div\n      0xff\n      and\n        /* \"case/41_IERC721.sol\":3413:3477  spender == owner ||... */\n    tag_120:\n        /* \"case/41_IERC721.sol\":3413:3518  spender == owner ||... */\n      dup1\n      tag_121\n      jumpi\n      pop\n        /* \"case/41_IERC721.sol\":3504:3514  _approvals */\n      0x02\n        /* \"case/41_IERC721.sol\":3504:3518  _approvals[id] */\n      0x00\n        /* \"case/41_IERC721.sol\":3515:3517  id */\n      dup4\n        /* \"case/41_IERC721.sol\":3504:3518  _approvals[id] */\n      dup2\n      mstore\n      0x20\n      add\n      swap1\n      dup2\n      mstore\n      0x20\n      add\n      0x00\n      keccak256\n      0x00\n      swap1\n      sload\n      swap1\n      0x0100\n      exp\n      swap1\n      div\n      0xffffffffffffffffffffffffffffffffffffffff\n      and\n        /* \"case/41_IERC721.sol\":3493:3518  spender == _approvals[id] */\n      0xffffffffffffffffffffffffffffffffffffffff\n      and\n        /* \"case/41_IERC721.sol\":3493:3500  spender */\n      dup4\n        /* \"case/41_IERC721.sol\":3493:3518  spender == _approvals[id] */\n      0xffffffffffffffffffffffffffffffffffffffff\n      and\n      eq\n        /* \"case/41_IERC721.sol\":3413:3518  spender == owner ||... */\n    tag_121:\n        /* \"case/41_IERC721.sol\":3405:3519  return (spender == owner ||... */\n      swap1\n      pop\n        /* \"case/41_IERC721.sol\":3267:3526  function _isApprovedOrOwner(... */\n      swap4\n      swap3\n      pop\n      pop\n      pop\n      jump\t// out\n        /* \"#utility.yul\":7:146   */\n    tag_123:\n        /* \"#utility.yul\":53:58   */\n      0x00\n        /* \"#utility.yul\":91:97   */\n      dup2\n        /* \"#utility.yul\":78:98   */\n      calldataload\n        /* \"#utility.yul\":69:98   */\n      swap1\n      pop\n        /* \"#utility.yul\":107:140   */\n      tag_125\n        /* \"#utility.yul\":134:139   */\n      dup2\n        /* \"#utility.yul\":107:140   */\n      tag_126\n      jump\t// in\n    tag_125:\n        /* \"#utility.yul\":7:146   */\n      swap3\n      swap2\n      pop\n      pop\n      jump\t// out\n        /* \"#utility.yul\":152:285   */\n    tag_127:\n        /* \"#utility.yul\":195:200   */\n      0x00\n        /* \"#utility.yul\":233:239   */\n      dup2\n        /* \"#utility.yul\":220:240   */\n      calldataload\n        /* \"#utility.yul\":211:240   */\n      swap1\n      pop\n        /* \"#utility.yul\":249:279   */\n      tag_129\n        /* \"#utility.yul\":273:278   */\n      dup2\n        /* \"#utility.yul\":249:279   */\n      tag_130\n      jump\t// in\n    tag_129:\n        /* \"#utility.yul\":152:285   */\n      swap3\n      swap2\n      pop\n      pop\n      jump\t// out\n        /* \"#utility.yul\":291:428   */\n    tag_131:\n        /* \"#utility.yul\":336:341   */\n      0x00\n        /* \"#utility.yul\":374:380   */\n      dup2\n        /* \"#utility.yul\":361:381   */\n      calldataload\n        /* \"#utility.yul\":352:381   */\n      swap1\n      pop\n        /* \"#utility.yul\":390:422   */\n      tag_133\n        /* \"#utility.yul\":416:421   */\n      dup2\n        /* \"#utility.yul\":390:422   */\n      tag_134\n      jump\t// in\n    tag_133:\n        /* \"#utility.yul\":291:428   */\n      swap3\n      swap2\n      pop\n      pop\n      jump\t// out\n        /* \"#utility.yul\":434:575   */\n    tag_135:\n        /* \"#utility.yul\":490:495   */\n      0x00\n        /* \"#utility.yul\":521:527   */\n      dup2\n        /* \"#utility.yul\":515:528   */\n      mload\n        /* \"#utility.yul\":506:528   */\n      swap1\n      pop\n        /* \"#utility.yul\":537:569   */\n      tag_137\n        /* \"#utility.yul\":563:568   */\n      dup2\n        /* \"#utility.yul\":537:569   */\n      tag_134\n      jump\t// in\n    tag_137:\n        /* \"#utility.yul\":434:575   */\n      swap3\n      swap2\n      pop\n      pop\n      jump\t// out\n        /* \"#utility.yul\":594:1146   */\n    tag_138:\n        /* \"#utility.yul\":651:659   */\n      0x00\n        /* \"#utility.yul\":661:667   */\n      dup1\n        /* \"#utility.yul\":711:714   */\n      dup4\n        /* \"#utility.yul\":704:708   */\n      0x1f\n        /* \"#utility.yul\":696:702   */\n      dup5\n        /* \"#utility.yul\":692:709   */\n      add\n        /* \"#utility.yul\":688:715   */\n      slt\n        /* \"#utility.yul\":678:800   */\n      tag_140\n      jumpi\n        /* \"#utility.yul\":719:798   */\n      tag_141\n      tag_142\n      jump\t// in\n    tag_141:\n        /* \"#utility.yul\":678:800   */\n    tag_140:\n        /* \"#utility.yul\":832:838   */\n      dup3\n        /* \"#utility.yul\":819:839   */\n      calldataload\n        /* \"#utility.yul\":809:839   */\n      swap1\n      pop\n        /* \"#utility.yul\":862:880   */\n      0xffffffffffffffff\n        /* \"#utility.yul\":854:860   */\n      dup2\n        /* \"#utility.yul\":851:881   */\n      gt\n        /* \"#utility.yul\":848:965   */\n      iszero\n      tag_143\n      jumpi\n        /* \"#utility.yul\":884:963   */\n      tag_144\n      tag_145\n      jump\t// in\n    tag_144:\n        /* \"#utility.yul\":848:965   */\n    tag_143:\n        /* \"#utility.yul\":998:1002   */\n      0x20\n        /* \"#utility.yul\":990:996   */\n      dup4\n        /* \"#utility.yul\":986:1003   */\n      add\n        /* \"#utility.yul\":974:1003   */\n      swap2\n      pop\n        /* \"#utility.yul\":1052:1055   */\n      dup4\n        /* \"#utility.yul\":1044:1048   */\n      0x01\n        /* \"#utility.yul\":1036:1042   */\n      dup3\n        /* \"#utility.yul\":1032:1049   */\n      mul\n        /* \"#utility.yul\":1022:1030   */\n      dup4\n        /* \"#utility.yul\":1018:1050   */\n      add\n        /* \"#utility.yul\":1015:1056   */\n      gt\n        /* \"#utility.yul\":1012:1140   */\n      iszero\n      tag_146\n      jumpi\n        /* \"#utility.yul\":1059:1138   */\n      tag_147\n      tag_148\n      jump\t// in\n    tag_147:\n        /* \"#utility.yul\":1012:1140   */\n    tag_146:\n        /* \"#utility.yul\":594:1146   */\n      swap3\n      pop\n      swap3\n      swap1\n      pop\n      jump\t// out\n        /* \"#utility.yul\":1152:1291   */\n    tag_149:\n        /* \"#utility.yul\":1198:1203   */\n      0x00\n        /* \"#utility.yul\":1236:1242   */\n      dup2\n        /* \"#utility.yul\":1223:1243   */\n      calldataload\n        /* \"#utility.yul\":1214:1243   */\n      swap1\n      pop\n        /* \"#utility.yul\":1252:1285   */\n      tag_151\n        /* \"#utility.yul\":1279:1284   */\n      dup2\n        /* \"#utility.yul\":1252:1285   */\n      tag_152\n      jump\t// in\n    tag_151:\n        /* \"#utility.yul\":1152:1291   */\n      swap3\n      swap2\n      pop\n      pop\n      jump\t// out\n        /* \"#utility.yul\":1297:1626   */\n    tag_43:\n        /* \"#utility.yul\":1356:1362   */\n      0x00\n        /* \"#utility.yul\":1405:1407   */\n      0x20\n        /* \"#utility.yul\":1393:1402   */\n      dup3\n        /* \"#utility.yul\":1384:1391   */\n      dup5\n        /* \"#utility.yul\":1380:1403   */\n      sub\n        /* \"#utility.yul\":1376:1408   */\n      slt\n        /* \"#utility.yul\":1373:1492   */\n      iszero\n      tag_154\n      jumpi\n        /* \"#utility.yul\":1411:1490   */\n      tag_155\n      tag_156\n      jump\t// in\n    tag_155:\n        /* \"#utility.yul\":1373:1492   */\n    tag_154:\n        /* \"#utility.yul\":1531:1532   */\n      0x00\n        /* \"#utility.yul\":1556:1609   */\n      tag_157\n        /* \"#utility.yul\":1601:1608   */\n      dup5\n        /* \"#utility.yul\":1592:1598   */\n      dup3\n        /* \"#utility.yul\":1581:1590   */\n      dup6\n        /* \"#utility.yul\":1577:1599   */\n      add\n        /* \"#utility.yul\":1556:1609   */\n      tag_123\n      jump\t// in\n    tag_157:\n        /* \"#utility.yul\":1546:1609   */\n      swap2\n      pop\n        /* \"#utility.yul\":1502:1619   */\n      pop\n        /* \"#utility.yul\":1297:1626   */\n      swap3\n      swap2\n      pop\n      pop\n      jump\t// out\n        /* \"#utility.yul\":1632:2106   */\n    tag_57:\n        /* \"#utility.yul\":1700:1706   */\n      0x00\n        /* \"#utility.yul\":1708:1714   */\n      dup1\n        /* \"#utility.yul\":1757:1759   */\n      0x40\n        /* \"#utility.yul\":1745:1754   */\n      dup4\n        /* \"#utility.yul\":1736:1743   */\n      dup6\n        /* \"#utility.yul\":1732:1755   */\n      sub\n        /* \"#utility.yul\":1728:1760   */\n      slt\n        /* \"#utility.yul\":1725:1844   */\n      iszero\n      tag_159\n      jumpi\n        /* \"#utility.yul\":1763:1842   */\n      tag_160\n      tag_156\n      jump\t// in\n    tag_160:\n        /* \"#utility.yul\":1725:1844   */\n    tag_159:\n        /* \"#utility.yul\":1883:1884   */\n      0x00\n        /* \"#utility.yul\":1908:1961   */\n      tag_161\n        /* \"#utility.yul\":1953:1960   */\n      dup6\n        /* \"#utility.yul\":1944:1950   */\n      dup3\n        /* \"#utility.yul\":1933:1942   */\n      dup7\n        /* \"#utility.yul\":1929:1951   */\n      add\n        /* \"#utility.yul\":1908:1961   */\n      tag_123\n      jump\t// in\n    tag_161:\n        /* \"#utility.yul\":1898:1961   */\n      swap3\n      pop\n        /* \"#utility.yul\":1854:1971   */\n      pop\n        /* \"#utility.yul\":2010:2012   */\n      0x20\n        /* \"#utility.yul\":2036:2089   */\n      tag_162\n        /* \"#utility.yul\":2081:2088   */\n      dup6\n        /* \"#utility.yul\":2072:2078   */\n      dup3\n        /* \"#utility.yul\":2061:2070   */\n      dup7\n        /* \"#utility.yul\":2057:2079   */\n      add\n        /* \"#utility.yul\":2036:2089   */\n      tag_123\n      jump\t// in\n    tag_162:\n        /* \"#utility.yul\":2026:2089   */\n      swap2\n      pop\n        /* \"#utility.yul\":1981:2099   */\n      pop\n        /* \"#utility.yul\":1632:2106   */\n      swap3\n      pop\n      swap3\n      swap1\n      pop\n      jump\t// out\n        /* \"#utility.yul\":2112:2731   */\n    tag_32:\n        /* \"#utility.yul\":2189:2195   */\n      0x00\n        /* \"#utility.yul\":2197:2203   */\n      dup1\n        /* \"#utility.yul\":2205:2211   */\n      0x00\n        /* \"#utility.yul\":2254:2256   */\n      0x60\n        /* \"#utility.yul\":2242:2251   */\n      dup5\n        /* \"#utility.yul\":2233:2240   */\n      dup7\n        /* \"#utility.yul\":2229:2252   */\n      sub\n        /* \"#utility.yul\":2225:2257   */\n      slt\n        /* \"#utility.yul\":2222:2341   */\n      iszero\n      tag_164\n      jumpi\n        /* \"#utility.yul\":2260:2339   */\n      tag_165\n      tag_156\n      jump\t// in\n    tag_165:\n        /* \"#utility.yul\":2222:2341   */\n    tag_164:\n        /* \"#utility.yul\":2380:2381   */\n      0x00\n        /* \"#utility.yul\":2405:2458   */\n      tag_166\n        /* \"#utility.yul\":2450:2457   */\n      dup7\n        /* \"#utility.yul\":2441:2447   */\n      dup3\n        /* \"#utility.yul\":2430:2439   */\n      dup8\n        /* \"#utility.yul\":2426:2448   */\n      add\n        /* \"#utility.yul\":2405:2458   */\n      tag_123\n      jump\t// in\n    tag_166:\n        /* \"#utility.yul\":2395:2458   */\n      swap4\n      pop\n        /* \"#utility.yul\":2351:2468   */\n      pop\n        /* \"#utility.yul\":2507:2509   */\n      0x20\n        /* \"#utility.yul\":2533:2586   */\n      tag_167\n        /* \"#utility.yul\":2578:2585   */\n      dup7\n        /* \"#utility.yul\":2569:2575   */\n      dup3\n        /* \"#utility.yul\":2558:2567   */\n      dup8\n        /* \"#utility.yul\":2554:2576   */\n      add\n        /* \"#utility.yul\":2533:2586   */\n      tag_123\n      jump\t// in\n    tag_167:\n        /* \"#utility.yul\":2523:2586   */\n      swap3\n      pop\n        /* \"#utility.yul\":2478:2596   */\n      pop\n        /* \"#utility.yul\":2635:2637   */\n      0x40\n        /* \"#utility.yul\":2661:2714   */\n      tag_168\n        /* \"#utility.yul\":2706:2713   */\n      dup7\n        /* \"#utility.yul\":2697:2703   */\n      dup3\n        /* \"#utility.yul\":2686:2695   */\n      dup8\n        /* \"#utility.yul\":2682:2704   */\n      add\n        /* \"#utility.yul\":2661:2714   */\n      tag_149\n      jump\t// in\n    tag_168:\n        /* \"#utility.yul\":2651:2714   */\n      swap2\n      pop\n        /* \"#utility.yul\":2606:2724   */\n      pop\n        /* \"#utility.yul\":2112:2731   */\n      swap3\n      pop\n      swap3\n      pop\n      swap3\n      jump\t// out\n        /* \"#utility.yul\":2737:3700   */\n    tag_53:\n        /* \"#utility.yul\":2834:2840   */\n      0x00\n        /* \"#utility.yul\":2842:2848   */\n      dup1\n        /* \"#utility.yul\":2850:2856   */\n      0x00\n        /* \"#utility.yul\":2858:2864   */\n      dup1\n        /* \"#utility.yul\":2866:2872   */\n      0x00\n        /* \"#utility.yul\":2915:2918   */\n      0x80\n        /* \"#utility.yul\":2903:2912   */\n      dup7\n        /* \"#utility.yul\":2894:2901   */\n      dup9\n        /* \"#utility.yul\":2890:2913   */\n      sub\n        /* \"#utility.yul\":2886:2919   */\n      slt\n        /* \"#utility.yul\":2883:3003   */\n      iszero\n      tag_170\n      jumpi\n        /* \"#utility.yul\":2922:3001   */\n      tag_171\n      tag_156\n      jump\t// in\n    tag_171:\n        /* \"#utility.yul\":2883:3003   */\n    tag_170:\n        /* \"#utility.yul\":3042:3043   */\n      0x00\n        /* \"#utility.yul\":3067:3120   */\n      tag_172\n        /* \"#utility.yul\":3112:3119   */\n      dup9\n        /* \"#utility.yul\":3103:3109   */\n      dup3\n        /* \"#utility.yul\":3092:3101   */\n      dup10\n        /* \"#utility.yul\":3088:3110   */\n      add\n        /* \"#utility.yul\":3067:3120   */\n      tag_123\n      jump\t// in\n    tag_172:\n        /* \"#utility.yul\":3057:3120   */\n      swap6\n      pop\n        /* \"#utility.yul\":3013:3130   */\n      pop\n        /* \"#utility.yul\":3169:3171   */\n      0x20\n        /* \"#utility.yul\":3195:3248   */\n      tag_173\n        /* \"#utility.yul\":3240:3247   */\n      dup9\n        /* \"#utility.yul\":3231:3237   */\n      dup3\n        /* \"#utility.yul\":3220:3229   */\n      dup10\n        /* \"#utility.yul\":3216:3238   */\n      add\n        /* \"#utility.yul\":3195:3248   */\n      tag_123\n      jump\t// in\n    tag_173:\n        /* \"#utility.yul\":3185:3248   */\n      swap5\n      pop\n        /* \"#utility.yul\":3140:3258   */\n      pop\n        /* \"#utility.yul\":3297:3299   */\n      0x40\n        /* \"#utility.yul\":3323:3376   */\n      tag_174\n        /* \"#utility.yul\":3368:3375   */\n      dup9\n        /* \"#utility.yul\":3359:3365   */\n      dup3\n        /* \"#utility.yul\":3348:3357   */\n      dup10\n        /* \"#utility.yul\":3344:3366   */\n      add\n        /* \"#utility.yul\":3323:3376   */\n      tag_149\n      jump\t// in\n    tag_174:\n        /* \"#utility.yul\":3313:3376   */\n      swap4\n      pop\n        /* \"#utility.yul\":3268:3386   */\n      pop\n        /* \"#utility.yul\":3453:3455   */\n      0x60\n        /* \"#utility.yul\":3442:3451   */\n      dup7\n        /* \"#utility.yul\":3438:3456   */\n      add\n        /* \"#utility.yul\":3425:3457   */\n      calldataload\n        /* \"#utility.yul\":3484:3502   */\n      0xffffffffffffffff\n        /* \"#utility.yul\":3476:3482   */\n      dup2\n        /* \"#utility.yul\":3473:3503   */\n      gt\n        /* \"#utility.yul\":3470:3587   */\n      iszero\n      tag_175\n      jumpi\n        /* \"#utility.yul\":3506:3585   */\n      tag_176\n      tag_177\n      jump\t// in\n    tag_176:\n        /* \"#utility.yul\":3470:3587   */\n    tag_175:\n        /* \"#utility.yul\":3619:3683   */\n      tag_178\n        /* \"#utility.yul\":3675:3682   */\n      dup9\n        /* \"#utility.yul\":3666:3672   */\n      dup3\n        /* \"#utility.yul\":3655:3664   */\n      dup10\n        /* \"#utility.yul\":3651:3673   */\n      add\n        /* \"#utility.yul\":3619:3683   */\n      tag_138\n      jump\t// in\n    tag_178:\n        /* \"#utility.yul\":3601:3683   */\n      swap3\n      pop\n      swap3\n      pop\n        /* \"#utility.yul\":3396:3693   */\n      pop\n        /* \"#utility.yul\":2737:3700   */\n      swap3\n      swap6\n      pop\n      swap3\n      swap6\n      swap1\n      swap4\n      pop\n      jump\t// out\n        /* \"#utility.yul\":3706:4174   */\n    tag_49:\n        /* \"#utility.yul\":3771:3777   */\n      0x00\n        /* \"#utility.yul\":3779:3785   */\n      dup1\n        /* \"#utility.yul\":3828:3830   */\n      0x40\n        /* \"#utility.yul\":3816:3825   */\n      dup4\n        /* \"#utility.yul\":3807:3814   */\n      dup6\n        /* \"#utility.yul\":3803:3826   */\n      sub\n        /* \"#utility.yul\":3799:3831   */\n      slt\n        /* \"#utility.yul\":3796:3915   */\n      iszero\n      tag_180\n      jumpi\n        /* \"#utility.yul\":3834:3913   */\n      tag_181\n      tag_156\n      jump\t// in\n    tag_181:\n        /* \"#utility.yul\":3796:3915   */\n    tag_180:\n        /* \"#utility.yul\":3954:3955   */\n      0x00\n        /* \"#utility.yul\":3979:4032   */\n      tag_182\n        /* \"#utility.yul\":4024:4031   */\n      dup6\n        /* \"#utility.yul\":4015:4021   */\n      dup3\n        /* \"#utility.yul\":4004:4013   */\n      dup7\n        /* \"#utility.yul\":4000:4022   */\n      add\n        /* \"#utility.yul\":3979:4032   */\n      tag_123\n      jump\t// in\n    tag_182:\n        /* \"#utility.yul\":3969:4032   */\n      swap3\n      pop\n        /* \"#utility.yul\":3925:4042   */\n      pop\n        /* \"#utility.yul\":4081:4083   */\n      0x20\n        /* \"#utility.yul\":4107:4157   */\n      tag_183\n        /* \"#utility.yul\":4149:4156   */\n      dup6\n        /* \"#utility.yul\":4140:4146   */\n      dup3\n        /* \"#utility.yul\":4129:4138   */\n      dup7\n        /* \"#utility.yul\":4125:4147   */\n      add\n        /* \"#utility.yul\":4107:4157   */\n      tag_127\n      jump\t// in\n    tag_183:\n        /* \"#utility.yul\":4097:4157   */\n      swap2\n      pop\n        /* \"#utility.yul\":4052:4167   */\n      pop\n        /* \"#utility.yul\":3706:4174   */\n      swap3\n      pop\n      swap3\n      swap1\n      pop\n      jump\t// out\n        /* \"#utility.yul\":4180:4654   */\n    tag_28:\n        /* \"#utility.yul\":4248:4254   */\n      0x00\n        /* \"#utility.yul\":4256:4262   */\n      dup1\n        /* \"#utility.yul\":4305:4307   */\n      0x40\n        /* \"#utility.yul\":4293:4302   */\n      dup4\n        /* \"#utility.yul\":4284:4291   */\n      dup6\n        /* \"#utility.yul\":4280:4303   */\n      sub\n        /* \"#utility.yul\":4276:4308   */\n      slt\n        /* \"#utility.yul\":4273:4392   */\n      iszero\n      tag_185\n      jumpi\n        /* \"#utility.yul\":4311:4390   */\n      tag_186\n      tag_156\n      jump\t// in\n    tag_186:\n        /* \"#utility.yul\":4273:4392   */\n    tag_185:\n        /* \"#utility.yul\":4431:4432   */\n      0x00\n        /* \"#utility.yul\":4456:4509   */\n      tag_187\n        /* \"#utility.yul\":4501:4508   */\n      dup6\n        /* \"#utility.yul\":4492:4498   */\n      dup3\n        /* \"#utility.yul\":4481:4490   */\n      dup7\n        /* \"#utility.yul\":4477:4499   */\n      add\n        /* \"#utility.yul\":4456:4509   */\n      tag_123\n      jump\t// in\n    tag_187:\n        /* \"#utility.yul\":4446:4509   */\n      swap3\n      pop\n        /* \"#utility.yul\":4402:4519   */\n      pop\n        /* \"#utility.yul\":4558:4560   */\n      0x20\n        /* \"#utility.yul\":4584:4637   */\n      tag_188\n        /* \"#utility.yul\":4629:4636   */\n      dup6\n        /* \"#utility.yul\":4620:4626   */\n      dup3\n        /* \"#utility.yul\":4609:4618   */\n      dup7\n        /* \"#utility.yul\":4605:4627   */\n      add\n        /* \"#utility.yul\":4584:4637   */\n      tag_149\n      jump\t// in\n    tag_188:\n        /* \"#utility.yul\":4574:4637   */\n      swap2\n      pop\n        /* \"#utility.yul\":4529:4647   */\n      pop\n        /* \"#utility.yul\":4180:4654   */\n      swap3\n      pop\n      swap3\n      swap1\n      pop\n      jump\t// out\n        /* \"#utility.yul\":4660:4987   */\n    tag_16:\n        /* \"#utility.yul\":4718:4724   */\n      0x00\n        /* \"#utility.yul\":4767:4769   */\n      0x20\n        /* \"#utility.yul\":4755:4764   */\n      dup3\n        /* \"#utility.yul\":4746:4753   */\n      dup5\n        /* \"#utility.yul\":4742:4765   */\n      sub\n        /* \"#utility.yul\":4738:4770   */\n      slt\n        /* \"#utility.yul\":4735:4854   */\n      iszero\n      tag_190\n      jumpi\n        /* \"#utility.yul\":4773:4852   */\n      tag_191\n      tag_156\n      jump\t// in\n    tag_191:\n        /* \"#utility.yul\":4735:4854   */\n    tag_190:\n        /* \"#utility.yul\":4893:4894   */\n      0x00\n        /* \"#utility.yul\":4918:4970   */\n      tag_192\n        /* \"#utility.yul\":4962:4969   */\n      dup5\n        /* \"#utility.yul\":4953:4959   */\n      dup3\n        /* \"#utility.yul\":4942:4951   */\n      dup6\n        /* \"#utility.yul\":4938:4960   */\n      add\n        /* \"#utility.yul\":4918:4970   */\n      tag_131\n      jump\t// in\n    tag_192:\n        /* \"#utility.yul\":4908:4970   */\n      swap2\n      pop\n        /* \"#utility.yul\":4864:4980   */\n      pop\n        /* \"#utility.yul\":4660:4987   */\n      swap3\n      swap2\n      pop\n      pop\n      jump\t// out\n        /* \"#utility.yul\":4993:5342   */\n    tag_95:\n        /* \"#utility.yul\":5062:5068   */\n      0x00\n        /* \"#utility.yul\":5111:5113   */\n      0x20\n        /* \"#utility.yul\":5099:5108   */\n      dup3\n        /* \"#utility.yul\":5090:5097   */\n      dup5\n        /* \"#utility.yul\":5086:5109   */\n      sub\n        /* \"#utility.yul\":5082:5114   */\n      slt\n        /* \"#utility.yul\":5079:5198   */\n      iszero\n      tag_194\n      jumpi\n        /* \"#utility.yul\":5117:5196   */\n      tag_195\n      tag_156\n      jump\t// in\n    tag_195:\n        /* \"#utility.yul\":5079:5198   */\n    tag_194:\n        /* \"#utility.yul\":5237:5238   */\n      0x00\n        /* \"#utility.yul\":5262:5325   */\n      tag_196\n        /* \"#utility.yul\":5317:5324   */\n      dup5\n        /* \"#utility.yul\":5308:5314   */\n      dup3\n        /* \"#utility.yul\":5297:5306   */\n      dup6\n        /* \"#utility.yul\":5293:5315   */\n      add\n        /* \"#utility.yul\":5262:5325   */\n      tag_135\n      jump\t// in\n    tag_196:\n        /* \"#utility.yul\":5252:5325   */\n      swap2\n      pop\n        /* \"#utility.yul\":5208:5335   */\n      pop\n        /* \"#utility.yul\":4993:5342   */\n      swap3\n      swap2\n      pop\n      pop\n      jump\t// out\n        /* \"#utility.yul\":5348:5677   */\n    tag_22:\n        /* \"#utility.yul\":5407:5413   */\n      0x00\n        /* \"#utility.yul\":5456:5458   */\n      0x20\n        /* \"#utility.yul\":5444:5453   */\n      dup3\n        /* \"#utility.yul\":5435:5442   */\n      dup5\n        /* \"#utility.yul\":5431:5454   */\n      sub\n        /* \"#utility.yul\":5427:5459   */\n      slt\n        /* \"#utility.yul\":5424:5543   */\n      iszero\n      tag_198\n      jumpi\n        /* \"#utility.yul\":5462:5541   */\n      tag_199\n      tag_156\n      jump\t// in\n    tag_199:\n        /* \"#utility.yul\":5424:5543   */\n    tag_198:\n        /* \"#utility.yul\":5582:5583   */\n      0x00\n        /* \"#utility.yul\":5607:5660   */\n      tag_200\n        /* \"#utility.yul\":5652:5659   */\n      dup5\n        /* \"#utility.yul\":5643:5649   */\n      dup3\n        /* \"#utility.yul\":5632:5641   */\n      dup6\n        /* \"#utility.yul\":5628:5650   */\n      add\n        /* \"#utility.yul\":5607:5660   */\n      tag_149\n      jump\t// in\n    tag_200:\n        /* \"#utility.yul\":5597:5660   */\n      swap2\n      pop\n        /* \"#utility.yul\":5553:5670   */\n      pop\n        /* \"#utility.yul\":5348:5677   */\n      swap3\n      swap2\n      pop\n      pop\n      jump\t// out\n        /* \"#utility.yul\":5683:5801   */\n    tag_201:\n        /* \"#utility.yul\":5770:5794   */\n      tag_203\n        /* \"#utility.yul\":5788:5793   */\n      dup2\n        /* \"#utility.yul\":5770:5794   */\n      tag_204\n      jump\t// in\n    tag_203:\n        /* \"#utility.yul\":5765:5768   */\n      dup3\n        /* \"#utility.yul\":5758:5795   */\n      mstore\n        /* \"#utility.yul\":5683:5801   */\n      pop\n      pop\n      jump\t// out\n        /* \"#utility.yul\":5807:5916   */\n    tag_205:\n        /* \"#utility.yul\":5888:5909   */\n      tag_207\n        /* \"#utility.yul\":5903:5908   */\n      dup2\n        /* \"#utility.yul\":5888:5909   */\n      tag_208\n      jump\t// in\n    tag_207:\n        /* \"#utility.yul\":5883:5886   */\n      dup3\n        /* \"#utility.yul\":5876:5910   */\n      mstore\n        /* \"#utility.yul\":5807:5916   */\n      pop\n      pop\n      jump\t// out\n        /* \"#utility.yul\":5944:6245   */\n    tag_209:\n        /* \"#utility.yul\":6040:6043   */\n      0x00\n        /* \"#utility.yul\":6061:6131   */\n      tag_211\n        /* \"#utility.yul\":6124:6130   */\n      dup4\n        /* \"#utility.yul\":6119:6122   */\n      dup6\n        /* \"#utility.yul\":6061:6131   */\n      tag_212\n      jump\t// in\n    tag_211:\n        /* \"#utility.yul\":6054:6131   */\n      swap4\n      pop\n        /* \"#utility.yul\":6141:6184   */\n      tag_213\n        /* \"#utility.yul\":6177:6183   */\n      dup4\n        /* \"#utility.yul\":6172:6175   */\n      dup6\n        /* \"#utility.yul\":6165:6170   */\n      dup5\n        /* \"#utility.yul\":6141:6184   */\n      tag_214\n      jump\t// in\n    tag_213:\n        /* \"#utility.yul\":6209:6238   */\n      tag_215\n        /* \"#utility.yul\":6231:6237   */\n      dup4\n        /* \"#utility.yul\":6209:6238   */\n      tag_216\n      jump\t// in\n    tag_215:\n        /* \"#utility.yul\":6204:6207   */\n      dup5\n        /* \"#utility.yul\":6200:6239   */\n      add\n        /* \"#utility.yul\":6193:6239   */\n      swap1\n      pop\n        /* \"#utility.yul\":5944:6245   */\n      swap4\n      swap3\n      pop\n      pop\n      pop\n      jump\t// out\n        /* \"#utility.yul\":6251:6617   */\n    tag_217:\n        /* \"#utility.yul\":6393:6396   */\n      0x00\n        /* \"#utility.yul\":6414:6481   */\n      tag_219\n        /* \"#utility.yul\":6478:6480   */\n      0x10\n        /* \"#utility.yul\":6473:6476   */\n      dup4\n        /* \"#utility.yul\":6414:6481   */\n      tag_220\n      jump\t// in\n    tag_219:\n        /* \"#utility.yul\":6407:6481   */\n      swap2\n      pop\n        /* \"#utility.yul\":6490:6583   */\n      tag_221\n        /* \"#utility.yul\":6579:6582   */\n      dup3\n        /* \"#utility.yul\":6490:6583   */\n      tag_222\n      jump\t// in\n    tag_221:\n        /* \"#utility.yul\":6608:6610   */\n      0x20\n        /* \"#utility.yul\":6603:6606   */\n      dup3\n        /* \"#utility.yul\":6599:6611   */\n      add\n        /* \"#utility.yul\":6592:6611   */\n      swap1\n      pop\n        /* \"#utility.yul\":6251:6617   */\n      swap2\n      swap1\n      pop\n      jump\t// out\n        /* \"#utility.yul\":6623:6989   */\n    tag_223:\n        /* \"#utility.yul\":6765:6768   */\n      0x00\n        /* \"#utility.yul\":6786:6853   */\n      tag_225\n        /* \"#utility.yul\":6850:6852   */\n      0x13\n        /* \"#utility.yul\":6845:6848   */\n      dup4\n        /* \"#utility.yul\":6786:6853   */\n      tag_220\n      jump\t// in\n    tag_225:\n        /* \"#utility.yul\":6779:6853   */\n      swap2\n      pop\n        /* \"#utility.yul\":6862:6955   */\n      tag_226\n        /* \"#utility.yul\":6951:6954   */\n      dup3\n        /* \"#utility.yul\":6862:6955   */\n      tag_227\n      jump\t// in\n    tag_226:\n        /* \"#utility.yul\":6980:6982   */\n      0x20\n        /* \"#utility.yul\":6975:6978   */\n      dup3\n        /* \"#utility.yul\":6971:6983   */\n      add\n        /* \"#utility.yul\":6964:6983   */\n      swap1\n      pop\n        /* \"#utility.yul\":6623:6989   */\n      swap2\n      swap1\n      pop\n      jump\t// out\n        /* \"#utility.yul\":6995:7361   */\n    tag_228:\n        /* \"#utility.yul\":7137:7140   */\n      0x00\n        /* \"#utility.yul\":7158:7225   */\n      tag_230\n        /* \"#utility.yul\":7222:7224   */\n      0x18\n        /* \"#utility.yul\":7217:7220   */\n      dup4\n        /* \"#utility.yul\":7158:7225   */\n      tag_220\n      jump\t// in\n    tag_230:\n        /* \"#utility.yul\":7151:7225   */\n      swap2\n      pop\n        /* \"#utility.yul\":7234:7327   */\n      tag_231\n        /* \"#utility.yul\":7323:7326   */\n      dup3\n        /* \"#utility.yul\":7234:7327   */\n      tag_232\n      jump\t// in\n    tag_231:\n        /* \"#utility.yul\":7352:7354   */\n      0x20\n        /* \"#utility.yul\":7347:7350   */\n      dup3\n        /* \"#utility.yul\":7343:7355   */\n      add\n        /* \"#utility.yul\":7336:7355   */\n      swap1\n      pop\n        /* \"#utility.yul\":6995:7361   */\n      swap2\n      swap1\n      pop\n      jump\t// out\n        /* \"#utility.yul\":7367:7733   */\n    tag_233:\n        /* \"#utility.yul\":7509:7512   */\n      0x00\n        /* \"#utility.yul\":7530:7597   */\n      tag_235\n        /* \"#utility.yul\":7594:7596   */\n      0x14\n        /* \"#utility.yul\":7589:7592   */\n      dup4\n        /* \"#utility.yul\":7530:7597   */\n      tag_220\n      jump\t// in\n    tag_235:\n        /* \"#utility.yul\":7523:7597   */\n      swap2\n      pop\n        /* \"#utility.yul\":7606:7699   */\n      tag_236\n        /* \"#utility.yul\":7695:7698   */\n      dup3\n        /* \"#utility.yul\":7606:7699   */\n      tag_237\n      jump\t// in\n    tag_236:\n        /* \"#utility.yul\":7724:7726   */\n      0x20\n        /* \"#utility.yul\":7719:7722   */\n      dup3\n        /* \"#utility.yul\":7715:7727   */\n      add\n        /* \"#utility.yul\":7708:7727   */\n      swap1\n      pop\n        /* \"#utility.yul\":7367:7733   */\n      swap2\n      swap1\n      pop\n      jump\t// out\n        /* \"#utility.yul\":7739:8105   */\n    tag_238:\n        /* \"#utility.yul\":7881:7884   */\n      0x00\n        /* \"#utility.yul\":7902:7969   */\n      tag_240\n        /* \"#utility.yul\":7966:7968   */\n      0x0e\n        /* \"#utility.yul\":7961:7964   */\n      dup4\n        /* \"#utility.yul\":7902:7969   */\n      tag_220\n      jump\t// in\n    tag_240:\n        /* \"#utility.yul\":7895:7969   */\n      swap2\n      pop\n        /* \"#utility.yul\":7978:8071   */\n      tag_241\n        /* \"#utility.yul\":8067:8070   */\n      dup3\n        /* \"#utility.yul\":7978:8071   */\n      tag_242\n      jump\t// in\n    tag_241:\n        /* \"#utility.yul\":8096:8098   */\n      0x20\n        /* \"#utility.yul\":8091:8094   */\n      dup3\n        /* \"#utility.yul\":8087:8099   */\n      add\n        /* \"#utility.yul\":8080:8099   */\n      swap1\n      pop\n        /* \"#utility.yul\":7739:8105   */\n      swap2\n      swap1\n      pop\n      jump\t// out\n        /* \"#utility.yul\":8111:8473   */\n    tag_243:\n        /* \"#utility.yul\":8252:8255   */\n      0x00\n        /* \"#utility.yul\":8273:8338   */\n      tag_245\n        /* \"#utility.yul\":8336:8337   */\n      0x00\n        /* \"#utility.yul\":8331:8334   */\n      dup4\n        /* \"#utility.yul\":8273:8338   */\n      tag_212\n      jump\t// in\n    tag_245:\n        /* \"#utility.yul\":8266:8338   */\n      swap2\n      pop\n        /* \"#utility.yul\":8347:8440   */\n      tag_246\n        /* \"#utility.yul\":8436:8439   */\n      dup3\n        /* \"#utility.yul\":8347:8440   */\n      tag_247\n      jump\t// in\n    tag_246:\n        /* \"#utility.yul\":8465:8466   */\n      0x00\n        /* \"#utility.yul\":8460:8463   */\n      dup3\n        /* \"#utility.yul\":8456:8467   */\n      add\n        /* \"#utility.yul\":8449:8467   */\n      swap1\n      pop\n        /* \"#utility.yul\":8111:8473   */\n      swap2\n      swap1\n      pop\n      jump\t// out\n        /* \"#utility.yul\":8479:8845   */\n    tag_248:\n        /* \"#utility.yul\":8621:8624   */\n      0x00\n        /* \"#utility.yul\":8642:8709   */\n      tag_250\n        /* \"#utility.yul\":8706:8708   */\n      0x0d\n        /* \"#utility.yul\":8701:8704   */\n      dup4\n        /* \"#utility.yul\":8642:8709   */\n      tag_220\n      jump\t// in\n    tag_250:\n        /* \"#utility.yul\":8635:8709   */\n      swap2\n      pop\n        /* \"#utility.yul\":8718:8811   */\n      tag_251\n        /* \"#utility.yul\":8807:8810   */\n      dup3\n        /* \"#utility.yul\":8718:8811   */\n      tag_252\n      jump\t// in\n    tag_251:\n        /* \"#utility.yul\":8836:8838   */\n      0x20\n        /* \"#utility.yul\":8831:8834   */\n      dup3\n        /* \"#utility.yul\":8827:8839   */\n      add\n        /* \"#utility.yul\":8820:8839   */\n      swap1\n      pop\n        /* \"#utility.yul\":8479:8845   */\n      swap2\n      swap1\n      pop\n      jump\t// out\n        /* \"#utility.yul\":8851:8969   */\n    tag_253:\n        /* \"#utility.yul\":8938:8962   */\n      tag_255\n        /* \"#utility.yul\":8956:8961   */\n      dup2\n        /* \"#utility.yul\":8938:8962   */\n      tag_256\n      jump\t// in\n    tag_255:\n        /* \"#utility.yul\":8933:8936   */\n      dup3\n        /* \"#utility.yul\":8926:8963   */\n      mstore\n        /* \"#utility.yul\":8851:8969   */\n      pop\n      pop\n      jump\t// out\n        /* \"#utility.yul\":8975:9197   */\n    tag_25:\n        /* \"#utility.yul\":9068:9072   */\n      0x00\n        /* \"#utility.yul\":9106:9108   */\n      0x20\n        /* \"#utility.yul\":9095:9104   */\n      dup3\n        /* \"#utility.yul\":9091:9109   */\n      add\n        /* \"#utility.yul\":9083:9109   */\n      swap1\n      pop\n        /* \"#utility.yul\":9119:9190   */\n      tag_258\n        /* \"#utility.yul\":9187:9188   */\n      0x00\n        /* \"#utility.yul\":9176:9185   */\n      dup4\n        /* \"#utility.yul\":9172:9189   */\n      add\n        /* \"#utility.yul\":9163:9169   */\n      dup5\n        /* \"#utility.yul\":9119:9190   */\n      tag_201\n      jump\t// in\n    tag_258:\n        /* \"#utility.yul\":8975:9197   */\n      swap3\n      swap2\n      pop\n      pop\n      jump\t// out\n        /* \"#utility.yul\":9203:9863   */\n    tag_112:\n        /* \"#utility.yul\":9408:9412   */\n      0x00\n        /* \"#utility.yul\":9446:9449   */\n      0x80\n        /* \"#utility.yul\":9435:9444   */\n      dup3\n        /* \"#utility.yul\":9431:9450   */\n      add\n        /* \"#utility.yul\":9423:9450   */\n      swap1\n      pop\n        /* \"#utility.yul\":9460:9531   */\n      tag_260\n        /* \"#utility.yul\":9528:9529   */\n      0x00\n        /* \"#utility.yul\":9517:9526   */\n      dup4\n        /* \"#utility.yul\":9513:9530   */\n      add\n        /* \"#utility.yul\":9504:9510   */\n      dup9\n        /* \"#utility.yul\":9460:9531   */\n      tag_201\n      jump\t// in\n    tag_260:\n        /* \"#utility.yul\":9541:9613   */\n      tag_261\n        /* \"#utility.yul\":9609:9611   */\n      0x20\n        /* \"#utility.yul\":9598:9607   */\n      dup4\n        /* \"#utility.yul\":9594:9612   */\n      add\n        /* \"#utility.yul\":9585:9591   */\n      dup8\n        /* \"#utility.yul\":9541:9613   */\n      tag_201\n      jump\t// in\n    tag_261:\n        /* \"#utility.yul\":9623:9695   */\n      tag_262\n        /* \"#utility.yul\":9691:9693   */\n      0x40\n        /* \"#utility.yul\":9680:9689   */\n      dup4\n        /* \"#utility.yul\":9676:9694   */\n      add\n        /* \"#utility.yul\":9667:9673   */\n      dup7\n        /* \"#utility.yul\":9623:9695   */\n      tag_253\n      jump\t// in\n    tag_262:\n        /* \"#utility.yul\":9742:9751   */\n      dup2\n        /* \"#utility.yul\":9736:9740   */\n      dup2\n        /* \"#utility.yul\":9732:9752   */\n      sub\n        /* \"#utility.yul\":9727:9729   */\n      0x60\n        /* \"#utility.yul\":9716:9725   */\n      dup4\n        /* \"#utility.yul\":9712:9730   */\n      add\n        /* \"#utility.yul\":9705:9753   */\n      mstore\n        /* \"#utility.yul\":9770:9856   */\n      tag_263\n        /* \"#utility.yul\":9851:9855   */\n      dup2\n        /* \"#utility.yul\":9842:9848   */\n      dup5\n        /* \"#utility.yul\":9834:9840   */\n      dup7\n        /* \"#utility.yul\":9770:9856   */\n      tag_209\n      jump\t// in\n    tag_263:\n        /* \"#utility.yul\":9762:9856   */\n      swap1\n      pop\n        /* \"#utility.yul\":9203:9863   */\n      swap7\n      swap6\n      pop\n      pop\n      pop\n      pop\n      pop\n      pop\n      jump\t// out\n        /* \"#utility.yul\":9869:10617   */\n    tag_90:\n        /* \"#utility.yul\":10118:10122   */\n      0x00\n        /* \"#utility.yul\":10156:10159   */\n      0x80\n        /* \"#utility.yul\":10145:10154   */\n      dup3\n        /* \"#utility.yul\":10141:10160   */\n      add\n        /* \"#utility.yul\":10133:10160   */\n      swap1\n      pop\n        /* \"#utility.yul\":10170:10241   */\n      tag_265\n        /* \"#utility.yul\":10238:10239   */\n      0x00\n        /* \"#utility.yul\":10227:10236   */\n      dup4\n        /* \"#utility.yul\":10223:10240   */\n      add\n        /* \"#utility.yul\":10214:10220   */\n      dup7\n        /* \"#utility.yul\":10170:10241   */\n      tag_201\n      jump\t// in\n    tag_265:\n        /* \"#utility.yul\":10251:10323   */\n      tag_266\n        /* \"#utility.yul\":10319:10321   */\n      0x20\n        /* \"#utility.yul\":10308:10317   */\n      dup4\n        /* \"#utility.yul\":10304:10322   */\n      add\n        /* \"#utility.yul\":10295:10301   */\n      dup6\n        /* \"#utility.yul\":10251:10323   */\n      tag_201\n      jump\t// in\n    tag_266:\n        /* \"#utility.yul\":10333:10405   */\n      tag_267\n        /* \"#utility.yul\":10401:10403   */\n      0x40\n        /* \"#utility.yul\":10390:10399   */\n      dup4\n        /* \"#utility.yul\":10386:10404   */\n      add\n        /* \"#utility.yul\":10377:10383   */\n      dup5\n        /* \"#utility.yul\":10333:10405   */\n      tag_253\n      jump\t// in\n    tag_267:\n        /* \"#utility.yul\":10452:10461   */\n      dup2\n        /* \"#utility.yul\":10446:10450   */\n      dup2\n        /* \"#utility.yul\":10442:10462   */\n      sub\n        /* \"#utility.yul\":10437:10439   */\n      0x60\n        /* \"#utility.yul\":10426:10435   */\n      dup4\n        /* \"#utility.yul\":10422:10440   */\n      add\n        /* \"#utility.yul\":10415:10463   */\n      mstore\n        /* \"#utility.yul\":10480:10610   */\n      tag_268\n        /* \"#utility.yul\":10605:10609   */\n      dup2\n        /* \"#utility.yul\":10480:10610   */\n      tag_243\n      jump\t// in\n    tag_268:\n        /* \"#utility.yul\":10472:10610   */\n      swap1\n      pop\n        /* \"#utility.yul\":9869:10617   */\n      swap5\n      swap4\n      pop\n      pop\n      pop\n      pop\n      jump\t// out\n        /* \"#utility.yul\":10623:10833   */\n    tag_19:\n        /* \"#utility.yul\":10710:10714   */\n      0x00\n        /* \"#utility.yul\":10748:10750   */\n      0x20\n        /* \"#utility.yul\":10737:10746   */\n      dup3\n        /* \"#utility.yul\":10733:10751   */\n      add\n        /* \"#utility.yul\":10725:10751   */\n      swap1\n      pop\n        /* \"#utility.yul\":10761:10826   */\n      tag_270\n        /* \"#utility.yul\":10823:10824   */\n      0x00\n        /* \"#utility.yul\":10812:10821   */\n      dup4\n        /* \"#utility.yul\":10808:10825   */\n      add\n        /* \"#utility.yul\":10799:10805   */\n      dup5\n        /* \"#utility.yul\":10761:10826   */\n      tag_205\n      jump\t// in\n    tag_270:\n        /* \"#utility.yul\":10623:10833   */\n      swap3\n      swap2\n      pop\n      pop\n      jump\t// out\n        /* \"#utility.yul\":10839:11258   */\n    tag_98:\n        /* \"#utility.yul\":11005:11009   */\n      0x00\n        /* \"#utility.yul\":11043:11045   */\n      0x20\n        /* \"#utility.yul\":11032:11041   */\n      dup3\n        /* \"#utility.yul\":11028:11046   */\n      add\n        /* \"#utility.yul\":11020:11046   */\n      swap1\n      pop\n        /* \"#utility.yul\":11092:11101   */\n      dup2\n        /* \"#utility.yul\":11086:11090   */\n      dup2\n        /* \"#utility.yul\":11082:11102   */\n      sub\n        /* \"#utility.yul\":11078:11079   */\n      0x00\n        /* \"#utility.yul\":11067:11076   */\n      dup4\n        /* \"#utility.yul\":11063:11080   */\n      add\n        /* \"#utility.yul\":11056:11103   */\n      mstore\n        /* \"#utility.yul\":11120:11251   */\n      tag_272\n        /* \"#utility.yul\":11246:11250   */\n      dup2\n        /* \"#utility.yul\":11120:11251   */\n      tag_217\n      jump\t// in\n    tag_272:\n        /* \"#utility.yul\":11112:11251   */\n      swap1\n      pop\n        /* \"#utility.yul\":10839:11258   */\n      swap2\n      swap1\n      pop\n      jump\t// out\n        /* \"#utility.yul\":11264:11683   */\n    tag_65:\n        /* \"#utility.yul\":11430:11434   */\n      0x00\n        /* \"#utility.yul\":11468:11470   */\n      0x20\n        /* \"#utility.yul\":11457:11466   */\n      dup3\n        /* \"#utility.yul\":11453:11471   */\n      add\n        /* \"#utility.yul\":11445:11471   */\n      swap1\n      pop\n        /* \"#utility.yul\":11517:11526   */\n      dup2\n        /* \"#utility.yul\":11511:11515   */\n      dup2\n        /* \"#utility.yul\":11507:11527   */\n      sub\n        /* \"#utility.yul\":11503:11504   */\n      0x00\n        /* \"#utility.yul\":11492:11501   */\n      dup4\n        /* \"#utility.yul\":11488:11505   */\n      add\n        /* \"#utility.yul\":11481:11528   */\n      mstore\n        /* \"#utility.yul\":11545:11676   */\n      tag_274\n        /* \"#utility.yul\":11671:11675   */\n      dup2\n        /* \"#utility.yul\":11545:11676   */\n      tag_223\n      jump\t// in\n    tag_274:\n        /* \"#utility.yul\":11537:11676   */\n      swap1\n      pop\n        /* \"#utility.yul\":11264:11683   */\n      swap2\n      swap1\n      pop\n      jump\t// out\n        /* \"#utility.yul\":11689:12108   */\n    tag_77:\n        /* \"#utility.yul\":11855:11859   */\n      0x00\n        /* \"#utility.yul\":11893:11895   */\n      0x20\n        /* \"#utility.yul\":11882:11891   */\n      dup3\n        /* \"#utility.yul\":11878:11896   */\n      add\n        /* \"#utility.yul\":11870:11896   */\n      swap1\n      pop\n        /* \"#utility.yul\":11942:11951   */\n      dup2\n        /* \"#utility.yul\":11936:11940   */\n      dup2\n        /* \"#utility.yul\":11932:11952   */\n      sub\n        /* \"#utility.yul\":11928:11929   */\n      0x00\n        /* \"#utility.yul\":11917:11926   */\n      dup4\n        /* \"#utility.yul\":11913:11930   */\n      add\n        /* \"#utility.yul\":11906:11953   */\n      mstore\n        /* \"#utility.yul\":11970:12101   */\n      tag_276\n        /* \"#utility.yul\":12096:12100   */\n      dup2\n        /* \"#utility.yul\":11970:12101   */\n      tag_228\n      jump\t// in\n    tag_276:\n        /* \"#utility.yul\":11962:12101   */\n      swap1\n      pop\n        /* \"#utility.yul\":11689:12108   */\n      swap2\n      swap1\n      pop\n      jump\t// out\n        /* \"#utility.yul\":12114:12533   */\n    tag_105:\n        /* \"#utility.yul\":12280:12284   */\n      0x00\n        /* \"#utility.yul\":12318:12320   */\n      0x20\n        /* \"#utility.yul\":12307:12316   */\n      dup3\n        /* \"#utility.yul\":12303:12321   */\n      add\n        /* \"#utility.yul\":12295:12321   */\n      swap1\n      pop\n        /* \"#utility.yul\":12367:12376   */\n      dup2\n        /* \"#utility.yul\":12361:12365   */\n      dup2\n        /* \"#utility.yul\":12357:12377   */\n      sub\n        /* \"#utility.yul\":12353:12354   */\n      0x00\n        /* \"#utility.yul\":12342:12351   */\n      dup4\n        /* \"#utility.yul\":12338:12355   */\n      add\n        /* \"#utility.yul\":12331:12378   */\n      mstore\n        /* \"#utility.yul\":12395:12526   */\n      tag_278\n        /* \"#utility.yul\":12521:12525   */\n      dup2\n        /* \"#utility.yul\":12395:12526   */\n      tag_233\n      jump\t// in\n    tag_278:\n        /* \"#utility.yul\":12387:12526   */\n      swap1\n      pop\n        /* \"#utility.yul\":12114:12533   */\n      swap2\n      swap1\n      pop\n      jump\t// out\n        /* \"#utility.yul\":12539:12958   */\n    tag_70:\n        /* \"#utility.yul\":12705:12709   */\n      0x00\n        /* \"#utility.yul\":12743:12745   */\n      0x20\n        /* \"#utility.yul\":12732:12741   */\n      dup3\n        /* \"#utility.yul\":12728:12746   */\n      add\n        /* \"#utility.yul\":12720:12746   */\n      swap1\n      pop\n        /* \"#utility.yul\":12792:12801   */\n      dup2\n        /* \"#utility.yul\":12786:12790   */\n      dup2\n        /* \"#utility.yul\":12782:12802   */\n      sub\n        /* \"#utility.yul\":12778:12779   */\n      0x00\n        /* \"#utility.yul\":12767:12776   */\n      dup4\n        /* \"#utility.yul\":12763:12780   */\n      add\n        /* \"#utility.yul\":12756:12803   */\n      mstore\n        /* \"#utility.yul\":12820:12951   */\n      tag_280\n        /* \"#utility.yul\":12946:12950   */\n      dup2\n        /* \"#utility.yul\":12820:12951   */\n      tag_238\n      jump\t// in\n    tag_280:\n        /* \"#utility.yul\":12812:12951   */\n      swap1\n      pop\n        /* \"#utility.yul\":12539:12958   */\n      swap2\n      swap1\n      pop\n      jump\t// out\n        /* \"#utility.yul\":12964:13383   */\n    tag_74:\n        /* \"#utility.yul\":13130:13134   */\n      0x00\n        /* \"#utility.yul\":13168:13170   */\n      0x20\n        /* \"#utility.yul\":13157:13166   */\n      dup3\n        /* \"#utility.yul\":13153:13171   */\n      add\n        /* \"#utility.yul\":13145:13171   */\n      swap1\n      pop\n        /* \"#utility.yul\":13217:13226   */\n      dup2\n        /* \"#utility.yul\":13211:13215   */\n      dup2\n        /* \"#utility.yul\":13207:13227   */\n      sub\n        /* \"#utility.yul\":13203:13204   */\n      0x00\n        /* \"#utility.yul\":13192:13201   */\n      dup4\n        /* \"#utility.yul\":13188:13205   */\n      add\n        /* \"#utility.yul\":13181:13228   */\n      mstore\n        /* \"#utility.yul\":13245:13376   */\n      tag_282\n        /* \"#utility.yul\":13371:13375   */\n      dup2\n        /* \"#utility.yul\":13245:13376   */\n      tag_248\n      jump\t// in\n    tag_282:\n        /* \"#utility.yul\":13237:13376   */\n      swap1\n      pop\n        /* \"#utility.yul\":12964:13383   */\n      swap2\n      swap1\n      pop\n      jump\t// out\n        /* \"#utility.yul\":13389:13611   */\n    tag_46:\n        /* \"#utility.yul\":13482:13486   */\n      0x00\n        /* \"#utility.yul\":13520:13522   */\n      0x20\n        /* \"#utility.yul\":13509:13518   */\n      dup3\n        /* \"#utility.yul\":13505:13523   */\n      add\n        /* \"#utility.yul\":13497:13523   */\n      swap1\n      pop\n        /* \"#utility.yul\":13533:13604   */\n      tag_284\n        /* \"#utility.yul\":13601:13602   */\n      0x00\n        /* \"#utility.yul\":13590:13599   */\n      dup4\n        /* \"#utility.yul\":13586:13603   */\n      add\n        /* \"#utility.yul\":13577:13583   */\n      dup5\n        /* \"#utility.yul\":13533:13604   */\n      tag_253\n      jump\t// in\n    tag_284:\n        /* \"#utility.yul\":13389:13611   */\n      swap3\n      swap2\n      pop\n      pop\n      jump\t// out\n        /* \"#utility.yul\":13698:13866   */\n    tag_212:\n        /* \"#utility.yul\":13781:13792   */\n      0x00\n        /* \"#utility.yul\":13815:13821   */\n      dup3\n        /* \"#utility.yul\":13810:13813   */\n      dup3\n        /* \"#utility.yul\":13803:13822   */\n      mstore\n        /* \"#utility.yul\":13855:13859   */\n      0x20\n        /* \"#utility.yul\":13850:13853   */\n      dup3\n        /* \"#utility.yul\":13846:13860   */\n      add\n        /* \"#utility.yul\":13831:13860   */\n      swap1\n      pop\n        /* \"#utility.yul\":13698:13866   */\n      swap3\n      swap2\n      pop\n      pop\n      jump\t// out\n        /* \"#utility.yul\":13872:14041   */\n    tag_220:\n        /* \"#utility.yul\":13956:13967   */\n      0x00\n        /* \"#utility.yul\":13990:13996   */\n      dup3\n        /* \"#utility.yul\":13985:13988   */\n      dup3\n        /* \"#utility.yul\":13978:13997   */\n      mstore\n        /* \"#utility.yul\":14030:14034   */\n      0x20\n        /* \"#utility.yul\":14025:14028   */\n      dup3\n        /* \"#utility.yul\":14021:14035   */\n      add\n        /* \"#utility.yul\":14006:14035   */\n      swap1\n      pop\n        /* \"#utility.yul\":13872:14041   */\n      swap3\n      swap2\n      pop\n      pop\n      jump\t// out\n        /* \"#utility.yul\":14047:14143   */\n    tag_204:\n        /* \"#utility.yul\":14084:14091   */\n      0x00\n        /* \"#utility.yul\":14113:14137   */\n      tag_290\n        /* \"#utility.yul\":14131:14136   */\n      dup3\n        /* \"#utility.yul\":14113:14137   */\n      tag_291\n      jump\t// in\n    tag_290:\n        /* \"#utility.yul\":14102:14137   */\n      swap1\n      pop\n        /* \"#utility.yul\":14047:14143   */\n      swap2\n      swap1\n      pop\n      jump\t// out\n        /* \"#utility.yul\":14149:14239   */\n    tag_208:\n        /* \"#utility.yul\":14183:14190   */\n      0x00\n        /* \"#utility.yul\":14226:14231   */\n      dup2\n        /* \"#utility.yul\":14219:14232   */\n      iszero\n        /* \"#utility.yul\":14212:14233   */\n      iszero\n        /* \"#utility.yul\":14201:14233   */\n      swap1\n      pop\n        /* \"#utility.yul\":14149:14239   */\n      swap2\n      swap1\n      pop\n      jump\t// out\n        /* \"#utility.yul\":14245:14394   */\n    tag_293:\n        /* \"#utility.yul\":14281:14288   */\n      0x00\n        /* \"#utility.yul\":14321:14387   */\n      0xffffffff00000000000000000000000000000000000000000000000000000000\n        /* \"#utility.yul\":14314:14319   */\n      dup3\n        /* \"#utility.yul\":14310:14388   */\n      and\n        /* \"#utility.yul\":14299:14388   */\n      swap1\n      pop\n        /* \"#utility.yul\":14245:14394   */\n      swap2\n      swap1\n      pop\n      jump\t// out\n        /* \"#utility.yul\":14400:14526   */\n    tag_291:\n        /* \"#utility.yul\":14437:14444   */\n      0x00\n        /* \"#utility.yul\":14477:14519   */\n      0xffffffffffffffffffffffffffffffffffffffff\n        /* \"#utility.yul\":14470:14475   */\n      dup3\n        /* \"#utility.yul\":14466:14520   */\n      and\n        /* \"#utility.yul\":14455:14520   */\n      swap1\n      pop\n        /* \"#utility.yul\":14400:14526   */\n      swap2\n      swap1\n      pop\n      jump\t// out\n        /* \"#utility.yul\":14532:14609   */\n    tag_256:\n        /* \"#utility.yul\":14569:14576   */\n      0x00\n        /* \"#utility.yul\":14598:14603   */\n      dup2\n        /* \"#utility.yul\":14587:14603   */\n      swap1\n      pop\n        /* \"#utility.yul\":14532:14609   */\n      swap2\n      swap1\n      pop\n      jump\t// out\n        /* \"#utility.yul\":14615:14769   */\n    tag_214:\n        /* \"#utility.yul\":14699:14705   */\n      dup3\n        /* \"#utility.yul\":14694:14697   */\n      dup2\n        /* \"#utility.yul\":14689:14692   */\n      dup4\n        /* \"#utility.yul\":14676:14706   */\n      calldatacopy\n        /* \"#utility.yul\":14761:14762   */\n      0x00\n        /* \"#utility.yul\":14752:14758   */\n      dup4\n        /* \"#utility.yul\":14747:14750   */\n      dup4\n        /* \"#utility.yul\":14743:14759   */\n      add\n        /* \"#utility.yul\":14736:14763   */\n      mstore\n        /* \"#utility.yul\":14615:14769   */\n      pop\n      pop\n      pop\n      jump\t// out\n        /* \"#utility.yul\":14775:14946   */\n    tag_83:\n        /* \"#utility.yul\":14814:14817   */\n      0x00\n        /* \"#utility.yul\":14837:14861   */\n      tag_299\n        /* \"#utility.yul\":14855:14860   */\n      dup3\n        /* \"#utility.yul\":14837:14861   */\n      tag_256\n      jump\t// in\n    tag_299:\n        /* \"#utility.yul\":14828:14861   */\n      swap2\n      pop\n        /* \"#utility.yul\":14883:14887   */\n      0x00\n        /* \"#utility.yul\":14876:14881   */\n      dup3\n        /* \"#utility.yul\":14873:14888   */\n      eq\n        /* \"#utility.yul\":14870:14911   */\n      iszero\n      tag_300\n      jumpi\n        /* \"#utility.yul\":14891:14909   */\n      tag_301\n      tag_302\n      jump\t// in\n    tag_301:\n        /* \"#utility.yul\":14870:14911   */\n    tag_300:\n        /* \"#utility.yul\":14938:14939   */\n      0x01\n        /* \"#utility.yul\":14931:14936   */\n      dup3\n        /* \"#utility.yul\":14927:14940   */\n      sub\n        /* \"#utility.yul\":14920:14940   */\n      swap1\n      pop\n        /* \"#utility.yul\":14775:14946   */\n      swap2\n      swap1\n      pop\n      jump\t// out\n        /* \"#utility.yul\":14952:15185   */\n    tag_85:\n        /* \"#utility.yul\":14991:14994   */\n      0x00\n        /* \"#utility.yul\":15014:15038   */\n      tag_304\n        /* \"#utility.yul\":15032:15037   */\n      dup3\n        /* \"#utility.yul\":15014:15038   */\n      tag_256\n      jump\t// in\n    tag_304:\n        /* \"#utility.yul\":15005:15038   */\n      swap2\n      pop\n        /* \"#utility.yul\":15060:15126   */\n      0xffffffffffffffffffffffffffffffffffffffffffffffffffffffffffffffff\n        /* \"#utility.yul\":15053:15058   */\n      dup3\n        /* \"#utility.yul\":15050:15127   */\n      eq\n        /* \"#utility.yul\":15047:15150   */\n      iszero\n      tag_305\n      jumpi\n        /* \"#utility.yul\":15130:15148   */\n      tag_306\n      tag_302\n      jump\t// in\n    tag_306:\n        /* \"#utility.yul\":15047:15150   */\n    tag_305:\n        /* \"#utility.yul\":15177:15178   */\n      0x01\n        /* \"#utility.yul\":15170:15175   */\n      dup3\n        /* \"#utility.yul\":15166:15179   */\n      add\n        /* \"#utility.yul\":15159:15179   */\n      swap1\n      pop\n        /* \"#utility.yul\":14952:15185   */\n      swap2\n      swap1\n      pop\n      jump\t// out\n        /* \"#utility.yul\":15191:15371   */\n    tag_302:\n        /* \"#utility.yul\":15239:15316   */\n      0x4e487b7100000000000000000000000000000000000000000000000000000000\n        /* \"#utility.yul\":15236:15237   */\n      0x00\n        /* \"#utility.yul\":15229:15317   */\n      mstore\n        /* \"#utility.yul\":15336:15340   */\n      0x11\n        /* \"#utility.yul\":15333:15334   */\n      0x04\n        /* \"#utility.yul\":15326:15341   */\n      mstore\n        /* \"#utility.yul\":15360:15364   */\n      0x24\n        /* \"#utility.yul\":15357:15358   */\n      0x00\n        /* \"#utility.yul\":15350:15365   */\n      revert\n        /* \"#utility.yul\":15377:15494   */\n    tag_145:\n        /* \"#utility.yul\":15486:15487   */\n      0x00\n        /* \"#utility.yul\":15483:15484   */\n      dup1\n        /* \"#utility.yul\":15476:15488   */\n      revert\n        /* \"#utility.yul\":15500:15617   */\n    tag_142:\n        /* \"#utility.yul\":15609:15610   */\n      0x00\n        /* \"#utility.yul\":15606:15607   */\n      dup1\n        /* \"#utility.yul\":15599:15611   */\n      revert\n        /* \"#utility.yul\":15623:15740   */\n    tag_148:\n        /* \"#utility.yul\":15732:15733   */\n      0x00\n        /* \"#utility.yul\":15729:15730   */\n      dup1\n        /* \"#utility.yul\":15722:15734   */\n      revert\n        /* \"#utility.yul\":15746:15863   */\n    tag_177:\n        /* \"#utility.yul\":15855:15856   */\n      0x00\n        /* \"#utility.yul\":15852:15853   */\n      dup1\n        /* \"#utility.yul\":15845:15857   */\n      revert\n        /* \"#utility.yul\":15869:15986   */\n    tag_156:\n        /* \"#utility.yul\":15978:15979   */\n      0x00\n        /* \"#utility.yul\":15975:15976   */\n      dup1\n        /* \"#utility.yul\":15968:15980   */\n      revert\n        /* \"#utility.yul\":15992:16094   */\n    tag_216:\n        /* \"#utility.yul\":16033:16039   */\n      0x00\n        /* \"#utility.yul\":16084:16086   */\n      0x1f\n        /* \"#utility.yul\":16080:16087   */\n      not\n        /* \"#utility.yul\":16075:16077   */\n      0x1f\n        /* \"#utility.yul\":16068:16073   */\n      dup4\n        /* \"#utility.yul\":16064:16078   */\n      add\n        /* \"#utility.yul\":16060:16088   */\n      and\n        /* \"#utility.yul\":16050:16088   */\n      swap1\n      pop\n        /* \"#utility.yul\":15992:16094   */\n      swap2\n      swap1\n      pop\n      jump\t// out\n        /* \"#utility.yul\":16100:16266   */\n    tag_222:\n        /* \"#utility.yul\":16240:16258   */\n      0x756e7361666520726563697069656e7400000000000000000000000000000000\n        /* \"#utility.yul\":16236:16237   */\n      0x00\n        /* \"#utility.yul\":16228:16234   */\n      dup3\n        /* \"#utility.yul\":16224:16238   */\n      add\n        /* \"#utility.yul\":16217:16259   */\n      mstore\n        /* \"#utility.yul\":16100:16266   */\n      pop\n      jump\t// out\n        /* \"#utility.yul\":16272:16441   */\n    tag_227:\n        /* \"#utility.yul\":16412:16433   */\n      0x746f6b656e20646f65736e277420657869737400000000000000000000000000\n        /* \"#utility.yul\":16408:16409   */\n      0x00\n        /* \"#utility.yul\":16400:16406   */\n      dup3\n        /* \"#utility.yul\":16396:16410   */\n      add\n        /* \"#utility.yul\":16389:16434   */\n      mstore\n        /* \"#utility.yul\":16272:16441   */\n      pop\n      jump\t// out\n        /* \"#utility.yul\":16447:16621   */\n    tag_232:\n        /* \"#utility.yul\":16587:16613   */\n      0x7472616e7366657220746f207a65726f20616464726573730000000000000000\n        /* \"#utility.yul\":16583:16584   */\n      0x00\n        /* \"#utility.yul\":16575:16581   */\n      dup3\n        /* \"#utility.yul\":16571:16585   */\n      add\n        /* \"#utility.yul\":16564:16614   */\n      mstore\n        /* \"#utility.yul\":16447:16621   */\n      pop\n      jump\t// out\n        /* \"#utility.yul\":16627:16797   */\n    tag_237:\n        /* \"#utility.yul\":16767:16789   */\n      0x6f776e6572203d207a65726f2061646472657373000000000000000000000000\n        /* \"#utility.yul\":16763:16764   */\n      0x00\n        /* \"#utility.yul\":16755:16761   */\n      dup3\n        /* \"#utility.yul\":16751:16765   */\n      add\n        /* \"#utility.yul\":16744:16790   */\n      mstore\n        /* \"#utility.yul\":16627:16797   */\n      pop\n      jump\t// out\n        /* \"#utility.yul\":16803:16967   */\n    tag_242:\n        /* \"#utility.yul\":16943:16959   */\n      0x6e6f7420617574686f72697a6564000000000000000000000000000000000000\n        /* \"#utility.yul\":16939:16940   */\n      0x00\n        /* \"#utility.yul\":16931:16937   */\n      dup3\n        /* \"#utility.yul\":16927:16941   */\n      add\n        /* \"#utility.yul\":16920:16960   */\n      mstore\n        /* \"#utility.yul\":16803:16967   */\n      pop\n      jump\t// out\n        /* \"#utility.yul\":16973:17087   */\n    tag_247:\n      pop\n      jump\t// out\n        /* \"#utility.yul\":17093:17256   */\n    tag_252:\n        /* \"#utility.yul\":17233:17248   */\n      0x66726f6d20213d206f776e657200000000000000000000000000000000000000\n        /* \"#utility.yul\":17229:17230   */\n      0x00\n        /* \"#utility.yul\":17221:17227   */\n      dup3\n        /* \"#utility.yul\":17217:17231   */\n      add\n        /* \"#utility.yul\":17210:17249   */\n      mstore\n        /* \"#utility.yul\":17093:17256   */\n      pop\n      jump\t// out\n        /* \"#utility.yul\":17262:17384   */\n    tag_126:\n        /* \"#utility.yul\":17335:17359   */\n      tag_322\n        /* \"#utility.yul\":17353:17358   */\n      dup2\n        /* \"#utility.yul\":17335:17359   */\n      tag_204\n      jump\t// in\n    tag_322:\n        /* \"#utility.yul\":17328:17333   */\n      dup2\n        /* \"#utility.yul\":17325:17360   */\n      eq\n        /* \"#utility.yul\":17315:17378   */\n      tag_323\n      jumpi\n        /* \"#utility.yul\":17374:17375   */\n      0x00\n        /* \"#utility.yul\":17371:17372   */\n      dup1\n        /* \"#utility.yul\":17364:17376   */\n      revert\n        /* \"#utility.yul\":17315:17378   */\n    tag_323:\n        /* \"#utility.yul\":17262:17384   */\n      pop\n      jump\t// out\n        /* \"#utility.yul\":17390:17506   */\n    tag_130:\n        /* \"#utility.yul\":17460:17481   */\n      tag_325\n        /* \"#utility.yul\":17475:17480   */\n      dup2\n        /* \"#utility.yul\":17460:17481   */\n      tag_208\n      jump\t// in\n    tag_325:\n        /* \"#utility.yul\":17453:17458   */\n      dup2\n        /* \"#utility.yul\":17450:17482   */\n      eq\n        /* \"#utility.yul\":17440:17500   */\n      tag_326\n      jumpi\n        /* \"#utility.yul\":17496:17497   */\n      0x00\n        /* \"#utility.yul\":17493:17494   */\n      dup1\n        /* \"#utility.yul\":17486:17498   */\n      revert\n        /* \"#utility.yul\":17440:17500   */\n    tag_326:\n        /* \"#utility.yul\":17390:17506   */\n      pop\n      jump\t// out\n        /* \"#utility.yul\":17512:17632   */\n    tag_134:\n        /* \"#utility.yul\":17584:17607   */\n      tag_328\n        /* \"#utility.yul\":17601:17606   */\n      dup2\n        /* \"#utility.yul\":17584:17607   */\n      tag_293\n      jump\t// in\n    tag_328:\n        /* \"#utility.yul\":17577:17582   */\n      dup2\n        /* \"#utility.yul\":17574:17608   */\n      eq\n        /* \"#utility.yul\":17564:17626   */\n      tag_329\n      jumpi\n        /* \"#utility.yul\":17622:17623   */\n      0x00\n        /* \"#utility.yul\":17619:17620   */\n      dup1\n        /* \"#utility.yul\":17612:17624   */\n      revert\n        /* \"#utility.yul\":17564:17626   */\n    tag_329:\n        /* \"#utility.yul\":17512:17632   */\n      pop\n      jump\t// out\n        /* \"#utility.yul\":17638:17760   */\n    tag_152:\n        /* \"#utility.yul\":17711:17735   */\n      tag_331\n        /* \"#utility.yul\":17729:17734   */\n      dup2\n        /* \"#utility.yul\":17711:17735   */\n      tag_256\n      jump\t// in\n    tag_331:\n        /* \"#utility.yul\":17704:17709   */\n      dup2\n        /* \"#utility.yul\":17701:17736   */\n      eq\n        /* \"#utility.yul\":17691:17754   */\n      tag_332\n      jumpi\n        /* \"#utility.yul\":17750:17751   */\n      0x00\n        /* \"#utility.yul\":17747:17748   */\n      dup1\n        /* \"#utility.yul\":17740:17752   */\n      revert\n        /* \"#utility.yul\":17691:17754   */\n    tag_332:\n        /* \"#utility.yul\":17638:17760   */\n      pop\n      jump\t// out\n\n    auxdata: 0xa2646970667358221220242c4f8bfcf2fa6665c0f9de56525f431f59bf33d2fe6f00065bcd3a552670b364736f6c63430008070033\n}\n",
				"bytecode": {
					"linkReferences": {},
					"object": "608060405234801561001057600080fd5b506117fc806100206000396000f3fe608060405234801561001057600080fd5b506004361061009e5760003560e01c80636352211e116100665780636352211e1461015757806370a0823114610187578063a22cb465146101b7578063b88d4fde146101d3578063e985e9c5146101ef5761009e565b806301ffc9a7146100a3578063081812fc146100d3578063095ea7b31461010357806323b872dd1461011f57806342842e0e1461013b575b600080fd5b6100bd60048036038101906100b89190611181565b61021f565b6040516100ca919061140a565b60405180910390f35b6100ed60048036038101906100e891906111db565b6102f1565b6040516100fa9190611357565b60405180910390f35b61011d60048036038101906101189190611141565b6103cf565b005b61013960048036038101906101349190611026565b6105b7565b005b61015560048036038101906101509190611026565b6108a2565b005b610171600480360381019061016c91906111db565b6109e9565b60405161017e9190611357565b60405180910390f35b6101a1600480360381019061019c9190610fb9565b610a95565b6040516101ae91906114e5565b60405180910390f35b6101d160048036038101906101cc9190611101565b610b4d565b005b6101ed60048036038101906101e89190611079565b610c4a565b005b61020960048036038101906102049190610fe6565b610d97565b604051610216919061140a565b60405180910390f35b60007f80ac58cd000000000000000000000000000000000000000000000000000000007bffffffffffffffffffffffffffffffffffffffffffffffffffffffff1916827bffffffffffffffffffffffffffffffffffffffffffffffffffffffff191614806102ea57507f01ffc9a7000000000000000000000000000000000000000000000000000000007bffffffffffffffffffffffffffffffffffffffffffffffffffffffff1916827bffffffffffffffffffffffffffffffffffffffffffffffffffffffff1916145b9050919050565b60008073ffffffffffffffffffffffffffffffffffffffff1660008084815260200190815260200160002060009054906101000a900473ffffffffffffffffffffffffffffffffffffffff1673ffffffffffffffffffffffffffffffffffffffff161415610394576040517f08c379a000000000000000000000000000000000000000000000000000000000815260040161038b90611445565b60405180910390fd5b6002600083815260200190815260200160002060009054906101000a900473ffffffffffffffffffffffffffffffffffffffff169050919050565b600080600083815260200190815260200160002060009054906101000a900473ffffffffffffffffffffffffffffffffffffffff1690508073ffffffffffffffffffffffffffffffffffffffff163373ffffffffffffffffffffffffffffffffffffffff1614806104c65750600360008273ffffffffffffffffffffffffffffffffffffffff1673ffffffffffffffffffffffffffffffffffffffff16815260200190815260200160002060003373ffffffffffffffffffffffffffffffffffffffff1673ffffffffffffffffffffffffffffffffffffffff16815260200190815260200160002060009054906101000a900460ff165b610505576040517f08c379a00000000000000000000000000000000000000000000000000000000081526004016104fc906114a5565b60405180910390fd5b826002600084815260200190815260200160002060006101000a81548173ffffffffffffffffffffffffffffffffffffffff021916908373ffffffffffffffffffffffffffffffffffffffff160217905550818373ffffffffffffffffffffffffffffffffffffffff168273ffffffffffffffffffffffffffffffffffffffff167f8c5be1e5ebec7d5bd14f71427d1e84f3dd0314c0f7b2291e5b200ac8c7c3b92560405160405180910390a4505050565b60008082815260200190815260200160002060009054906101000a900473ffffffffffffffffffffffffffffffffffffffff1673ffffffffffffffffffffffffffffffffffffffff168373ffffffffffffffffffffffffffffffffffffffff1614610657576040517f08c379a000000000000000000000000000000000000000000000000000000000815260040161064e906114c5565b60405180910390fd5b600073ffffffffffffffffffffffffffffffffffffffff168273ffffffffffffffffffffffffffffffffffffffff1614156106c7576040517f08c379a00000000000000000000000000000000000000000000000000000000081526004016106be90611465565b60405180910390fd5b6106d2833383610dc6565b610711576040517f08c379a0000000000000000000000000000000000000000000000000000000008152600401610708906114a5565b60405180910390fd5b600160008473ffffffffffffffffffffffffffffffffffffffff1673ffffffffffffffffffffffffffffffffffffffff1681526020019081526020016000206000815480929190610761906115a5565b9190505550600160008373ffffffffffffffffffffffffffffffffffffffff1673ffffffffffffffffffffffffffffffffffffffff16815260200190815260200160002060008154809291906107b6906115cf565b91905055508160008083815260200190815260200160002060006101000a81548173ffffffffffffffffffffffffffffffffffffffff021916908373ffffffffffffffffffffffffffffffffffffffff1602179055506002600082815260200190815260200160002060006101000a81549073ffffffffffffffffffffffffffffffffffffffff0219169055808273ffffffffffffffffffffffffffffffffffffffff168473ffffffffffffffffffffffffffffffffffffffff167fddf252ad1be2c89b69c2b068fc378daa952ba7f163c4a11628f55a4df523b3ef60405160405180910390a4505050565b6108ad8383836105b7565b60008273ffffffffffffffffffffffffffffffffffffffff163b14806109a5575063150b7a0260e01b7bffffffffffffffffffffffffffffffffffffffffffffffffffffffff19168273ffffffffffffffffffffffffffffffffffffffff1663150b7a023386856040518463ffffffff1660e01b8152600401610932939291906113c0565b602060405180830381600087803b15801561094c57600080fd5b505af1158015610960573d6000803e3d6000fd5b505050506040513d601f19601f8201168201806040525081019061098491906111ae565b7bffffffffffffffffffffffffffffffffffffffffffffffffffffffff1916145b6109e4576040517f08c379a00000000000000000000000000000000000000000000000000000000081526004016109db90611425565b60405180910390fd5b505050565b600080600083815260200190815260200160002060009054906101000a900473ffffffffffffffffffffffffffffffffffffffff169050600073ffffffffffffffffffffffffffffffffffffffff168173ffffffffffffffffffffffffffffffffffffffff161415610a90576040517f08c379a0000000000000000000000000000000000000000000000000000000008152600401610a8790611445565b60405180910390fd5b919050565b60008073ffffffffffffffffffffffffffffffffffffffff168273ffffffffffffffffffffffffffffffffffffffff161415610b06576040517f08c379a0000000000000000000000000000000000000000000000000000000008152600401610afd90611485565b60405180910390fd5b600160008373ffffffffffffffffffffffffffffffffffffffff1673ffffffffffffffffffffffffffffffffffffffff168152602001908152602001600020549050919050565b80600360003373ffffffffffffffffffffffffffffffffffffffff1673ffffffffffffffffffffffffffffffffffffffff16815260200190815260200160002060008473ffffffffffffffffffffffffffffffffffffffff1673ffffffffffffffffffffffffffffffffffffffff16815260200190815260200160002060006101000a81548160ff0219169083151502179055508173ffffffffffffffffffffffffffffffffffffffff163373ffffffffffffffffffffffffffffffffffffffff167f17307eab39ab6107e8899845ad3d59bd9653f200f220920489ca2b5937696c3183604051610c3e919061140a565b60405180910390a35050565b610c558585856105b7565b60008473ffffffffffffffffffffffffffffffffffffffff163b1480610d51575063150b7a0260e01b7bffffffffffffffffffffffffffffffffffffffffffffffffffffffff19168473ffffffffffffffffffffffffffffffffffffffff1663150b7a0233888787876040518663ffffffff1660e01b8152600401610cde959493929190611372565b602060405180830381600087803b158015610cf857600080fd5b505af1158015610d0c573d6000803e3d6000fd5b505050506040513d601f19601f82011682018060405250810190610d3091906111ae565b7bffffffffffffffffffffffffffffffffffffffffffffffffffffffff1916145b610d90576040517f08c379a0000000000000000000000000000000000000000000000000000000008152600401610d8790611425565b60405180910390fd5b5050505050565b60036020528160005260406000206020528060005260406000206000915091509054906101000a900460ff1681565b60008373ffffffffffffffffffffffffffffffffffffffff168373ffffffffffffffffffffffffffffffffffffffff161480610e885750600360008573ffffffffffffffffffffffffffffffffffffffff1673ffffffffffffffffffffffffffffffffffffffff16815260200190815260200160002060008473ffffffffffffffffffffffffffffffffffffffff1673ffffffffffffffffffffffffffffffffffffffff16815260200190815260200160002060009054906101000a900460ff165b80610ef157506002600083815260200190815260200160002060009054906101000a900473ffffffffffffffffffffffffffffffffffffffff1673ffffffffffffffffffffffffffffffffffffffff168373ffffffffffffffffffffffffffffffffffffffff16145b90509392505050565b600081359050610f098161176a565b92915050565b600081359050610f1e81611781565b92915050565b600081359050610f3381611798565b92915050565b600081519050610f4881611798565b92915050565b60008083601f840112610f6457610f6361164c565b5b8235905067ffffffffffffffff811115610f8157610f80611647565b5b602083019150836001820283011115610f9d57610f9c611651565b5b9250929050565b600081359050610fb3816117af565b92915050565b600060208284031215610fcf57610fce61165b565b5b6000610fdd84828501610efa565b91505092915050565b60008060408385031215610ffd57610ffc61165b565b5b600061100b85828601610efa565b925050602061101c85828601610efa565b9150509250929050565b60008060006060848603121561103f5761103e61165b565b5b600061104d86828701610efa565b935050602061105e86828701610efa565b925050604061106f86828701610fa4565b9150509250925092565b6000806000806000608086880312156110955761109461165b565b5b60006110a388828901610efa565b95505060206110b488828901610efa565b94505060406110c588828901610fa4565b935050606086013567ffffffffffffffff8111156110e6576110e5611656565b5b6110f288828901610f4e565b92509250509295509295909350565b600080604083850312156111185761111761165b565b5b600061112685828601610efa565b925050602061113785828601610f0f565b9150509250929050565b600080604083850312156111585761115761165b565b5b600061116685828601610efa565b925050602061117785828601610fa4565b9150509250929050565b6000602082840312156111975761119661165b565b5b60006111a584828501610f24565b91505092915050565b6000602082840312156111c4576111c361165b565b5b60006111d284828501610f39565b91505092915050565b6000602082840312156111f1576111f061165b565b5b60006111ff84828501610fa4565b91505092915050565b61121181611522565b82525050565b61122081611534565b82525050565b60006112328385611500565b935061123f838584611596565b61124883611660565b840190509392505050565b6000611260601083611511565b915061126b82611671565b602082019050919050565b6000611283601383611511565b915061128e8261169a565b602082019050919050565b60006112a6601883611511565b91506112b1826116c3565b602082019050919050565b60006112c9601483611511565b91506112d4826116ec565b602082019050919050565b60006112ec600e83611511565b91506112f782611715565b602082019050919050565b600061130f600083611500565b915061131a8261173e565b600082019050919050565b6000611332600d83611511565b915061133d82611741565b602082019050919050565b6113518161158c565b82525050565b600060208201905061136c6000830184611208565b92915050565b60006080820190506113876000830188611208565b6113946020830187611208565b6113a16040830186611348565b81810360608301526113b4818486611226565b90509695505050505050565b60006080820190506113d56000830186611208565b6113e26020830185611208565b6113ef6040830184611348565b818103606083015261140081611302565b9050949350505050565b600060208201905061141f6000830184611217565b92915050565b6000602082019050818103600083015261143e81611253565b9050919050565b6000602082019050818103600083015261145e81611276565b9050919050565b6000602082019050818103600083015261147e81611299565b9050919050565b6000602082019050818103600083015261149e816112bc565b9050919050565b600060208201905081810360008301526114be816112df565b9050919050565b600060208201905081810360008301526114de81611325565b9050919050565b60006020820190506114fa6000830184611348565b92915050565b600082825260208201905092915050565b600082825260208201905092915050565b600061152d8261156c565b9050919050565b60008115159050919050565b60007fffffffff0000000000000000000000000000000000000000000000000000000082169050919050565b600073ffffffffffffffffffffffffffffffffffffffff82169050919050565b6000819050919050565b82818337600083830152505050565b60006115b08261158c565b915060008214156115c4576115c3611618565b5b600182039050919050565b60006115da8261158c565b91507fffffffffffffffffffffffffffffffffffffffffffffffffffffffffffffffff82141561160d5761160c611618565b5b600182019050919050565b7f4e487b7100000000000000000000000000000000000000000000000000000000600052601160045260246000fd5b600080fd5b600080fd5b600080fd5b600080fd5b600080fd5b6000601f19601f8301169050919050565b7f756e7361666520726563697069656e7400000000000000000000000000000000600082015250565b7f746f6b656e20646f65736e277420657869737400000000000000000000000000600082015250565b7f7472616e7366657220746f207a65726f20616464726573730000000000000000600082015250565b7f6f776e6572203d207a65726f2061646472657373000000000000000000000000600082015250565b7f6e6f7420617574686f72697a6564000000000000000000000000000000000000600082015250565b50565b7f66726f6d20213d206f776e657200000000000000000000000000000000000000600082015250565b61177381611522565b811461177e57600080fd5b50565b61178a81611534565b811461179557600080fd5b50565b6117a181611540565b81146117ac57600080fd5b50565b6117b88161158c565b81146117c357600080fd5b5056fea2646970667358221220242c4f8bfcf2fa6665c0f9de56525f431f59bf33d2fe6f00065bcd3a552670b364736f6c63430008070033",
					"opcodes": "PUSH1 0x80 PUSH1 0x40 MSTORE CALLVALUE DUP1 ISZERO PUSH2 0x10 JUMPI PUSH1 0x0 DUP1 REVERT JUMPDEST POP PUSH2 0x17FC DUP1 PUSH2 0x20 PUSH1 0x0 CODECOPY PUSH1 0x0 RETURN INVALID PUSH1 0x80 PUSH1 0x40 MSTORE CALLVALUE DUP1 ISZERO PUSH2 0x10 JUMPI PUSH1 0x0 DUP1 REVERT JUMPDEST POP PUSH1 0x4 CALLDATASIZE LT PUSH2 0x9E JUMPI PUSH1 0x0 CALLDATALOAD PUSH1 0xE0 SHR DUP1 PUSH4 0x6352211E GT PUSH2 0x66 JUMPI DUP1 PUSH4 0x6352211E EQ PUSH2 0x157 JUMPI DUP1 PUSH4 0x70A08231 EQ PUSH2 0x187 JUMPI DUP1 PUSH4 0xA22CB465 EQ PUSH2 0x1B7 JUMPI DUP1 PUSH4 0xB88D4FDE EQ PUSH2 0x1D3 JUMPI DUP1 PUSH4 0xE985E9C5 EQ PUSH2 0x1EF JUMPI PUSH2 0x9E JUMP JUMPDEST DUP1 PUSH4 0x1FFC9A7 EQ PUSH2 0xA3 JUMPI DUP1 PUSH4 0x81812FC EQ PUSH2 0xD3 JUMPI DUP1 PUSH4 0x95EA7B3 EQ PUSH2 0x103 JUMPI DUP1 PUSH4 0x23B872DD EQ PUSH2 0x11F JUMPI DUP1 PUSH4 0x42842E0E EQ PUSH2 0x13B JUMPI JUMPDEST PUSH1 0x0 DUP1 REVERT JUMPDEST PUSH2 0xBD PUSH1 0x4 DUP1 CALLDATASIZE SUB DUP2 ADD SWAP1 PUSH2 0xB8 SWAP2 SWAP1 PUSH2 0x1181 JUMP JUMPDEST PUSH2 0x21F JUMP JUMPDEST PUSH1 0x40 MLOAD PUSH2 0xCA SWAP2 SWAP1 PUSH2 0x140A JUMP JUMPDEST PUSH1 0x40 MLOAD DUP1 SWAP2 SUB SWAP1 RETURN JUMPDEST PUSH2 0xED PUSH1 0x4 DUP1 CALLDATASIZE SUB DUP2 ADD SWAP1 PUSH2 0xE8 SWAP2 SWAP1 PUSH2 0x11DB JUMP JUMPDEST PUSH2 0x2F1 JUMP JUMPDEST PUSH1 0x40 MLOAD PUSH2 0xFA SWAP2 SWAP1 PUSH2 0x1357 JUMP JUMPDEST PUSH1 0x40 MLOAD DUP1 SWAP2 SUB SWAP1 RETURN JUMPDEST PUSH2 0x11D PUSH1 0x4 DUP1 CALLDATASIZE SUB DUP2 ADD SWAP1 PUSH2 0x118 SWAP2 SWAP1 PUSH2 0x1141 JUMP JUMPDEST PUSH2 0x3CF JUMP JUMPDEST STOP JUMPDEST PUSH2 0x139 PUSH1 0x4 DUP1 CALLDATASIZE SUB DUP2 ADD SWAP1 PUSH2 0x134 SWAP2 SWAP1 PUSH2 0x1026 JUMP JUMPDEST PUSH2 0x5B7 JUMP JUMPDEST STOP JUMPDEST PUSH2 0x155 PUSH1 0x4 DUP1 CALLDATASIZE SUB DUP2 ADD SWAP1 PUSH2 0x150 SWAP2 SWAP1 PUSH2 0x1026 JUMP JUMPDEST PUSH2 0x8A2 JUMP JUMPDEST STOP JUMPDEST PUSH2 0x171 PUSH1 0x4 DUP1 CALLDATASIZE SUB DUP2 ADD SWAP1 PUSH2 0x16C SWAP2 SWAP1 PUSH2 0x11DB JUMP JUMPDEST PUSH2 0x9E9 JUMP JUMPDEST PUSH1 0x40 MLOAD PUSH2 0x17E SWAP2 SWAP1 PUSH2 0x1357 JUMP JUMPDEST PUSH1 0x40 MLOAD DUP1 SWAP2 SUB SWAP1 RETURN JUMPDEST PUSH2 0x1A1 PUSH1 0x4 DUP1 CALLDATASIZE SUB DUP2 ADD SWAP1 PUSH2 0x19C SWAP2 SWAP1 PUSH2 0xFB9 JUMP JUMPDEST PUSH2 0xA95 JUMP JUMPDEST PUSH1 0x40 MLOAD PUSH2 0x1AE SWAP2 SWAP1 PUSH2 0x14E5 JUMP JUMPDEST PUSH1 0x40 MLOAD DUP1 SWAP2 SUB SWAP1 RETURN JUMPDEST PUSH2 0x1D1 PUSH1 0x4 DUP1 CALLDATASIZE SUB DUP2 ADD SWAP1 PUSH2 0x1CC SWAP2 SWAP1 PUSH2 0x1101 JUMP JUMPDEST PUSH2 0xB4D JUMP JUMPDEST STOP JUMPDEST PUSH2 0x1ED PUSH1 0x4 DUP1 CALLDATASIZE SUB DUP2 ADD SWAP1 PUSH2 0x1E8 SWAP2 SWAP1 PUSH2 0x1079 JUMP JUMPDEST PUSH2 0xC4A JUMP JUMPDEST STOP JUMPDEST PUSH2 0x209 PUSH1 0x4 DUP1 CALLDATASIZE SUB DUP2 ADD SWAP1 PUSH2 0x204 SWAP2 SWAP1 PUSH2 0xFE6 JUMP JUMPDEST PUSH2 0xD97 JUMP JUMPDEST PUSH1 0x40 MLOAD PUSH2 0x216 SWAP2 SWAP1 PUSH2 0x140A JUMP JUMPDEST PUSH1 0x40 MLOAD DUP1 SWAP2 SUB SWAP1 RETURN JUMPDEST PUSH1 0x0 PUSH32 0x80AC58CD00000000000000000000000000000000000000000000000000000000 PUSH28 0xFFFFFFFFFFFFFFFFFFFFFFFFFFFFFFFFFFFFFFFFFFFFFFFFFFFFFFFF NOT AND DUP3 PUSH28 0xFFFFFFFFFFFFFFFFFFFFFFFFFFFFFFFFFFFFFFFFFFFFFFFFFFFFFFFF NOT AND EQ DUP1 PUSH2 0x2EA JUMPI POP PUSH32 0x1FFC9A700000000000000000000000000000000000000000000000000000000 PUSH28 0xFFFFFFFFFFFFFFFFFFFFFFFFFFFFFFFFFFFFFFFFFFFFFFFFFFFFFFFF NOT AND DUP3 PUSH28 0xFFFFFFFFFFFFFFFFFFFFFFFFFFFFFFFFFFFFFFFFFFFFFFFFFFFFFFFF NOT AND EQ JUMPDEST SWAP1 POP SWAP2 SWAP1 POP JUMP JUMPDEST PUSH1 0x0 DUP1 PUSH20 0xFFFFFFFFFFFFFFFFFFFFFFFFFFFFFFFFFFFFFFFF AND PUSH1 0x0 DUP1 DUP5 DUP2 MSTORE PUSH1 0x20 ADD SWAP1 DUP2 MSTORE PUSH1 0x20 ADD PUSH1 0x0 KECCAK256 PUSH1 0x0 SWAP1 SLOAD SWAP1 PUSH2 0x100 EXP SWAP1 DIV PUSH20 0xFFFFFFFFFFFFFFFFFFFFFFFFFFFFFFFFFFFFFFFF AND PUSH20 0xFFFFFFFFFFFFFFFFFFFFFFFFFFFFFFFFFFFFFFFF AND EQ ISZERO PUSH2 0x394 JUMPI PUSH1 0x40 MLOAD PUSH32 0x8C379A000000000000000000000000000000000000000000000000000000000 DUP2 MSTORE PUSH1 0x4 ADD PUSH2 0x38B SWAP1 PUSH2 0x1445 JUMP JUMPDEST PUSH1 0x40 MLOAD DUP1 SWAP2 SUB SWAP1 REVERT JUMPDEST PUSH1 0x2 PUSH1 0x0 DUP4 DUP2 MSTORE PUSH1 0x20 ADD SWAP1 DUP2 MSTORE PUSH1 0x20 ADD PUSH1 0x0 KECCAK256 PUSH1 0x0 SWAP1 SLOAD SWAP1 PUSH2 0x100 EXP SWAP1 DIV PUSH20 0xFFFFFFFFFFFFFFFFFFFFFFFFFFFFFFFFFFFFFFFF AND SWAP1 POP SWAP2 SWAP1 POP JUMP JUMPDEST PUSH1 0x0 DUP1 PUSH1 0x0 DUP4 DUP2 MSTORE PUSH1 0x20 ADD SWAP1 DUP2 MSTORE PUSH1 0x20 ADD PUSH1 0x0 KECCAK256 PUSH1 0x0 SWAP1 SLOAD SWAP1 PUSH2 0x100 EXP SWAP1 DIV PUSH20 0xFFFFFFFFFFFFFFFFFFFFFFFFFFFFFFFFFFFFFFFF AND SWAP1 POP DUP1 PUSH20 0xFFFFFFFFFFFFFFFFFFFFFFFFFFFFFFFFFFFFFFFF AND CALLER PUSH20 0xFFFFFFFFFFFFFFFFFFFFFFFFFFFFFFFFFFFFFFFF AND EQ DUP1 PUSH2 0x4C6 JUMPI POP PUSH1 0x3 PUSH1 0x0 DUP3 PUSH20 0xFFFFFFFFFFFFFFFFFFFFFFFFFFFFFFFFFFFFFFFF AND PUSH20 0xFFFFFFFFFFFFFFFFFFFFFFFFFFFFFFFFFFFFFFFF AND DUP2 MSTORE PUSH1 0x20 ADD SWAP1 DUP2 MSTORE PUSH1 0x20 ADD PUSH1 0x0 KECCAK256 PUSH1 0x0 CALLER PUSH20 0xFFFFFFFFFFFFFFFFFFFFFFFFFFFFFFFFFFFFFFFF AND PUSH20 0xFFFFFFFFFFFFFFFFFFFFFFFFFFFFFFFFFFFFFFFF AND DUP2 MSTORE PUSH1 0x20 ADD SWAP1 DUP2 MSTORE PUSH1 0x20 ADD PUSH1 0x0 KECCAK256 PUSH1 0x0 SWAP1 SLOAD SWAP1 PUSH2 0x100 EXP SWAP1 DIV PUSH1 0xFF AND JUMPDEST PUSH2 0x505 JUMPI PUSH1 0x40 MLOAD PUSH32 0x8C379A000000000000000000000000000000000000000000000000000000000 DUP2 MSTORE PUSH1 0x4 ADD PUSH2 0x4FC SWAP1 PUSH2 0x14A5 JUMP JUMPDEST PUSH1 0x40 MLOAD DUP1 SWAP2 SUB SWAP1 REVERT JUMPDEST DUP3 PUSH1 0x2 PUSH1 0x0 DUP5 DUP2 MSTORE PUSH1 0x20 ADD SWAP1 DUP2 MSTORE PUSH1 0x20 ADD PUSH1 0x0 KECCAK256 PUSH1 0x0 PUSH2 0x100 EXP DUP2 SLOAD DUP2 PUSH20 0xFFFFFFFFFFFFFFFFFFFFFFFFFFFFFFFFFFFFFFFF MUL NOT AND SWAP1 DUP4 PUSH20 0xFFFFFFFFFFFFFFFFFFFFFFFFFFFFFFFFFFFFFFFF AND MUL OR SWAP1 SSTORE POP DUP2 DUP4 PUSH20 0xFFFFFFFFFFFFFFFFFFFFFFFFFFFFFFFFFFFFFFFF AND DUP3 PUSH20 0xFFFFFFFFFFFFFFFFFFFFFFFFFFFFFFFFFFFFFFFF AND PUSH32 0x8C5BE1E5EBEC7D5BD14F71427D1E84F3DD0314C0F7B2291E5B200AC8C7C3B925 PUSH1 0x40 MLOAD PUSH1 0x40 MLOAD DUP1 SWAP2 SUB SWAP1 LOG4 POP POP POP JUMP JUMPDEST PUSH1 0x0 DUP1 DUP3 DUP2 MSTORE PUSH1 0x20 ADD SWAP1 DUP2 MSTORE PUSH1 0x20 ADD PUSH1 0x0 KECCAK256 PUSH1 0x0 SWAP1 SLOAD SWAP1 PUSH2 0x100 EXP SWAP1 DIV PUSH20 0xFFFFFFFFFFFFFFFFFFFFFFFFFFFFFFFFFFFFFFFF AND PUSH20 0xFFFFFFFFFFFFFFFFFFFFFFFFFFFFFFFFFFFFFFFF AND DUP4 PUSH20 0xFFFFFFFFFFFFFFFFFFFFFFFFFFFFFFFFFFFFFFFF AND EQ PUSH2 0x657 JUMPI PUSH1 0x40 MLOAD PUSH32 0x8C379A000000000000000000000000000000000000000000000000000000000 DUP2 MSTORE PUSH1 0x4 ADD PUSH2 0x64E SWAP1 PUSH2 0x14C5 JUMP JUMPDEST PUSH1 0x40 MLOAD DUP1 SWAP2 SUB SWAP1 REVERT JUMPDEST PUSH1 0x0 PUSH20 0xFFFFFFFFFFFFFFFFFFFFFFFFFFFFFFFFFFFFFFFF AND DUP3 PUSH20 0xFFFFFFFFFFFFFFFFFFFFFFFFFFFFFFFFFFFFFFFF AND EQ ISZERO PUSH2 0x6C7 JUMPI PUSH1 0x40 MLOAD PUSH32 0x8C379A000000000000000000000000000000000000000000000000000000000 DUP2 MSTORE PUSH1 0x4 ADD PUSH2 0x6BE SWAP1 PUSH2 0x1465 JUMP JUMPDEST PUSH1 0x40 MLOAD DUP1 SWAP2 SUB SWAP1 REVERT JUMPDEST PUSH2 0x6D2 DUP4 CALLER DUP4 PUSH2 0xDC6 JUMP JUMPDEST PUSH2 0x711 JUMPI PUSH1 0x40 MLOAD PUSH32 0x8C379A000000000000000000000000000000000000000000000000000000000 DUP2 MSTORE PUSH1 0x4 ADD PUSH2 0x708 SWAP1 PUSH2 0x14A5 JUMP JUMPDEST PUSH1 0x40 MLOAD DUP1 SWAP2 SUB SWAP1 REVERT JUMPDEST PUSH1 0x1 PUSH1 0x0 DUP5 PUSH20 0xFFFFFFFFFFFFFFFFFFFFFFFFFFFFFFFFFFFFFFFF AND PUSH20 0xFFFFFFFFFFFFFFFFFFFFFFFFFFFFFFFFFFFFFFFF AND DUP2 MSTORE PUSH1 0x20 ADD SWAP1 DUP2 MSTORE PUSH1 0x20 ADD PUSH1 0x0 KECCAK256 PUSH1 0x0 DUP2 SLOAD DUP1 SWAP3 SWAP2 SWAP1 PUSH2 0x761 SWAP1 PUSH2 0x15A5 JUMP JUMPDEST SWAP2 SWAP1 POP SSTORE POP PUSH1 0x1 PUSH1 0x0 DUP4 PUSH20 0xFFFFFFFFFFFFFFFFFFFFFFFFFFFFFFFFFFFFFFFF AND PUSH20 0xFFFFFFFFFFFFFFFFFFFFFFFFFFFFFFFFFFFFFFFF AND DUP2 MSTORE PUSH1 0x20 ADD SWAP1 DUP2 MSTORE PUSH1 0x20 ADD PUSH1 0x0 KECCAK256 PUSH1 0x0 DUP2 SLOAD DUP1 SWAP3 SWAP2 SWAP1 PUSH2 0x7B6 SWAP1 PUSH2 0x15CF JUMP JUMPDEST SWAP2 SWAP1 POP SSTORE POP DUP2 PUSH1 0x0 DUP1 DUP4 DUP2 MSTORE PUSH1 0x20 ADD SWAP1 DUP2 MSTORE PUSH1 0x20 ADD PUSH1 0x0 KECCAK256 PUSH1 0x0 PUSH2 0x100 EXP DUP2 SLOAD DUP2 PUSH20 0xFFFFFFFFFFFFFFFFFFFFFFFFFFFFFFFFFFFFFFFF MUL NOT AND SWAP1 DUP4 PUSH20 0xFFFFFFFFFFFFFFFFFFFFFFFFFFFFFFFFFFFFFFFF AND MUL OR SWAP1 SSTORE POP PUSH1 0x2 PUSH1 0x0 DUP3 DUP2 MSTORE PUSH1 0x20 ADD SWAP1 DUP2 MSTORE PUSH1 0x20 ADD PUSH1 0x0 KECCAK256 PUSH1 0x0 PUSH2 0x100 EXP DUP2 SLOAD SWAP1 PUSH20 0xFFFFFFFFFFFFFFFFFFFFFFFFFFFFFFFFFFFFFFFF MUL NOT AND SWAP1 SSTORE DUP1 DUP3 PUSH20 0xFFFFFFFFFFFFFFFFFFFFFFFFFFFFFFFFFFFFFFFF AND DUP5 PUSH20 0xFFFFFFFFFFFFFFFFFFFFFFFFFFFFFFFFFFFFFFFF AND PUSH32 0xDDF252AD1BE2C89B69C2B068FC378DAA952BA7F163C4A11628F55A4DF523B3EF PUSH1 0x40 MLOAD PUSH1 0x40 MLOAD DUP1 SWAP2 SUB SWAP1 LOG4 POP POP POP JUMP JUMPDEST PUSH2 0x8AD DUP4 DUP4 DUP4 PUSH2 0x5B7 JUMP JUMPDEST PUSH1 0x0 DUP3 PUSH20 0xFFFFFFFFFFFFFFFFFFFFFFFFFFFFFFFFFFFFFFFF AND EXTCODESIZE EQ DUP1 PUSH2 0x9A5 JUMPI POP PUSH4 0x150B7A02 PUSH1 0xE0 SHL PUSH28 0xFFFFFFFFFFFFFFFFFFFFFFFFFFFFFFFFFFFFFFFFFFFFFFFFFFFFFFFF NOT AND DUP3 PUSH20 0xFFFFFFFFFFFFFFFFFFFFFFFFFFFFFFFFFFFFFFFF AND PUSH4 0x150B7A02 CALLER DUP7 DUP6 PUSH1 0x40 MLOAD DUP5 PUSH4 0xFFFFFFFF AND PUSH1 0xE0 SHL DUP2 MSTORE PUSH1 0x4 ADD PUSH2 0x932 SWAP4 SWAP3 SWAP2 SWAP1 PUSH2 0x13C0 JUMP JUMPDEST PUSH1 0x20 PUSH1 0x40 MLOAD DUP1 DUP4 SUB DUP2 PUSH1 0x0 DUP8 DUP1 EXTCODESIZE ISZERO DUP1 ISZERO PUSH2 0x94C JUMPI PUSH1 0x0 DUP1 REVERT JUMPDEST POP GAS CALL ISZERO DUP1 ISZERO PUSH2 0x960 JUMPI RETURNDATASIZE PUSH1 0x0 DUP1 RETURNDATACOPY RETURNDATASIZE PUSH1 0x0 REVERT JUMPDEST POP POP POP POP PUSH1 0x40 MLOAD RETURNDATASIZE PUSH1 0x1F NOT PUSH1 0x1F DUP3 ADD AND DUP3 ADD DUP1 PUSH1 0x40 MSTORE POP DUP2 ADD SWAP1 PUSH2 0x984 SWAP2 SWAP1 PUSH2 0x11AE JUMP JUMPDEST PUSH28 0xFFFFFFFFFFFFFFFFFFFFFFFFFFFFFFFFFFFFFFFFFFFFFFFFFFFFFFFF NOT AND EQ JUMPDEST PUSH2 0x9E4 JUMPI PUSH1 0x40 MLOAD PUSH32 0x8C379A000000000000000000000000000000000000000000000000000000000 DUP2 MSTORE PUSH1 0x4 ADD PUSH2 0x9DB SWAP1 PUSH2 0x1425 JUMP JUMPDEST PUSH1 0x40 MLOAD DUP1 SWAP2 SUB SWAP1 REVERT JUMPDEST POP POP POP JUMP JUMPDEST PUSH1 0x0 DUP1 PUSH1 0x0 DUP4 DUP2 MSTORE PUSH1 0x20 ADD SWAP1 DUP2 MSTORE PUSH1 0x20 ADD PUSH1 0x0 KECCAK256 PUSH1 0x0 SWAP1 SLOAD SWAP1 PUSH2 0x100 EXP SWAP1 DIV PUSH20 0xFFFFFFFFFFFFFFFFFFFFFFFFFFFFFFFFFFFFFFFF AND SWAP1 POP PUSH1 0x0 PUSH20 0xFFFFFFFFFFFFFFFFFFFFFFFFFFFFFFFFFFFFFFFF AND DUP2 PUSH20 0xFFFFFFFFFFFFFFFFFFFFFFFFFFFFFFFFFFFFFFFF AND EQ ISZERO PUSH2 0xA90 JUMPI PUSH1 0x40 MLOAD PUSH32 0x8C379A000000000000000000000000000000000000000000000000000000000 DUP2 MSTORE PUSH1 0x4 ADD PUSH2 0xA87 SWAP1 PUSH2 0x1445 JUMP JUMPDEST PUSH1 0x40 MLOAD DUP1 SWAP2 SUB SWAP1 REVERT JUMPDEST SWAP2 SWAP1 POP JUMP JUMPDEST PUSH1 0x0 DUP1 PUSH20 0xFFFFFFFFFFFFFFFFFFFFFFFFFFFFFFFFFFFFFFFF AND DUP3 PUSH20 0xFFFFFFFFFFFFFFFFFFFFFFFFFFFFFFFFFFFFFFFF AND EQ ISZERO PUSH2 0xB06 JUMPI PUSH1 0x40 MLOAD PUSH32 0x8C379A000000000000000000000000000000000000000000000000000000000 DUP2 MSTORE PUSH1 0x4 ADD PUSH2 0xAFD SWAP1 PUSH2 0x1485 JUMP JUMPDEST PUSH1 0x40 MLOAD DUP1 SWAP2 SUB SWAP1 REVERT JUMPDEST PUSH1 0x1 PUSH1 0x0 DUP4 PUSH20 0xFFFFFFFFFFFFFFFFFFFFFFFFFFFFFFFFFFFFFFFF AND PUSH20 0xFFFFFFFFFFFFFFFFFFFFFFFFFFFFFFFFFFFFFFFF AND DUP2 MSTORE PUSH1 0x20 ADD SWAP1 DUP2 MSTORE PUSH1 0x20 ADD PUSH1 0x0 KECCAK256 SLOAD SWAP1 POP SWAP2 SWAP1 POP JUMP JUMPDEST DUP1 PUSH1 0x3 PUSH1 0x0 CALLER PUSH20 0xFFFFFFFFFFFFFFFFFFFFFFFFFFFFFFFFFFFFFFFF AND PUSH20 0xFFFFFFFFFFFFFFFFFFFFFFFFFFFFFFFFFFFFFFFF AND DUP2 MSTORE PUSH1 0x20 ADD SWAP1 DUP2 MSTORE PUSH1 0x20 ADD PUSH1 0x0 KECCAK256 PUSH1 0x0 DUP5 PUSH20 0xFFFFFFFFFFFFFFFFFFFFFFFFFFFFFFFFFFFFFFFF AND PUSH20 0xFFFFFFFFFFFFFFFFFFFFFFFFFFFFFFFFFFFFFFFF AND DUP2 MSTORE PUSH1 0x20 ADD SWAP1 DUP2 MSTORE PUSH1 0x20 ADD PUSH1 0x0 KECCAK256 PUSH1 0x0 PUSH2 0x100 EXP DUP2 SLOAD DUP2 PUSH1 0xFF MUL NOT AND SWAP1 DUP4 ISZERO ISZERO MUL OR SWAP1 SSTORE POP DUP2 PUSH20 0xFFFFFFFFFFFFFFFFFFFFFFFFFFFFFFFFFFFFFFFF AND CALLER PUSH20 0xFFFFFFFFFFFFFFFFFFFFFFFFFFFFFFFFFFFFFFFF AND PUSH32 0x17307EAB39AB6107E8899845AD3D59BD9653F200F220920489CA2B5937696C31 DUP4 PUSH1 0x40 MLOAD PUSH2 0xC3E SWAP2 SWAP1 PUSH2 0x140A JUMP JUMPDEST PUSH1 0x40 MLOAD DUP1 SWAP2 SUB SWAP1 LOG3 POP POP JUMP JUMPDEST PUSH2 0xC55 DUP6 DUP6 DUP6 PUSH2 0x5B7 JUMP JUMPDEST PUSH1 0x0 DUP5 PUSH20 0xFFFFFFFFFFFFFFFFFFFFFFFFFFFFFFFFFFFFFFFF AND EXTCODESIZE EQ DUP1 PUSH2 0xD51 JUMPI POP PUSH4 0x150B7A02 PUSH1 0xE0 SHL PUSH28 0xFFFFFFFFFFFFFFFFFFFFFFFFFFFFFFFFFFFFFFFFFFFFFFFFFFFFFFFF NOT AND DUP5 PUSH20 0xFFFFFFFFFFFFFFFFFFFFFFFFFFFFFFFFFFFFFFFF AND PUSH4 0x150B7A02 CALLER DUP9 DUP8 DUP8 DUP8 PUSH1 0x40 MLOAD DUP7 PUSH4 0xFFFFFFFF AND PUSH1 0xE0 SHL DUP2 MSTORE PUSH1 0x4 ADD PUSH2 0xCDE SWAP6 SWAP5 SWAP4 SWAP3 SWAP2 SWAP1 PUSH2 0x1372 JUMP JUMPDEST PUSH1 0x20 PUSH1 0x40 MLOAD DUP1 DUP4 SUB DUP2 PUSH1 0x0 DUP8 DUP1 EXTCODESIZE ISZERO DUP1 ISZERO PUSH2 0xCF8 JUMPI PUSH1 0x0 DUP1 REVERT JUMPDEST POP GAS CALL ISZERO DUP1 ISZERO PUSH2 0xD0C JUMPI RETURNDATASIZE PUSH1 0x0 DUP1 RETURNDATACOPY RETURNDATASIZE PUSH1 0x0 REVERT JUMPDEST POP POP POP POP PUSH1 0x40 MLOAD RETURNDATASIZE PUSH1 0x1F NOT PUSH1 0x1F DUP3 ADD AND DUP3 ADD DUP1 PUSH1 0x40 MSTORE POP DUP2 ADD SWAP1 PUSH2 0xD30 SWAP2 SWAP1 PUSH2 0x11AE JUMP JUMPDEST PUSH28 0xFFFFFFFFFFFFFFFFFFFFFFFFFFFFFFFFFFFFFFFFFFFFFFFFFFFFFFFF NOT AND EQ JUMPDEST PUSH2 0xD90 JUMPI PUSH1 0x40 MLOAD PUSH32 0x8C379A000000000000000000000000000000000000000000000000000000000 DUP2 MSTORE PUSH1 0x4 ADD PUSH2 0xD87 SWAP1 PUSH2 0x1425 JUMP JUMPDEST PUSH1 0x40 MLOAD DUP1 SWAP2 SUB SWAP1 REVERT JUMPDEST POP POP POP POP POP JUMP JUMPDEST PUSH1 0x3 PUSH1 0x20 MSTORE DUP2 PUSH1 0x0 MSTORE PUSH1 0x40 PUSH1 0x0 KECCAK256 PUSH1 0x20 MSTORE DUP1 PUSH1 0x0 MSTORE PUSH1 0x40 PUSH1 0x0 KECCAK256 PUSH1 0x0 SWAP2 POP SWAP2 POP SWAP1 SLOAD SWAP1 PUSH2 0x100 EXP SWAP1 DIV PUSH1 0xFF AND DUP2 JUMP JUMPDEST PUSH1 0x0 DUP4 PUSH20 0xFFFFFFFFFFFFFFFFFFFFFFFFFFFFFFFFFFFFFFFF AND DUP4 PUSH20 0xFFFFFFFFFFFFFFFFFFFFFFFFFFFFFFFFFFFFFFFF AND EQ DUP1 PUSH2 0xE88 JUMPI POP PUSH1 0x3 PUSH1 0x0 DUP6 PUSH20 0xFFFFFFFFFFFFFFFFFFFFFFFFFFFFFFFFFFFFFFFF AND PUSH20 0xFFFFFFFFFFFFFFFFFFFFFFFFFFFFFFFFFFFFFFFF AND DUP2 MSTORE PUSH1 0x20 ADD SWAP1 DUP2 MSTORE PUSH1 0x20 ADD PUSH1 0x0 KECCAK256 PUSH1 0x0 DUP5 PUSH20 0xFFFFFFFFFFFFFFFFFFFFFFFFFFFFFFFFFFFFFFFF AND PUSH20 0xFFFFFFFFFFFFFFFFFFFFFFFFFFFFFFFFFFFFFFFF AND DUP2 MSTORE PUSH1 0x20 ADD SWAP1 DUP2 MSTORE PUSH1 0x20 ADD PUSH1 0x0 KECCAK256 PUSH1 0x0 SWAP1 SLOAD SWAP1 PUSH2 0x100 EXP SWAP1 DIV PUSH1 0xFF AND JUMPDEST DUP1 PUSH2 0xEF1 JUMPI POP PUSH1 0x2 PUSH1 0x0 DUP4 DUP2 MSTORE PUSH1 0x20 ADD SWAP1 DUP2 MSTORE PUSH1 0x20 ADD PUSH1 0x0 KECCAK256 PUSH1 0x0 SWAP1 SLOAD SWAP1 PUSH2 0x100 EXP SWAP1 DIV PUSH20 0xFFFFFFFFFFFFFFFFFFFFFFFFFFFFFFFFFFFFFFFF AND PUSH20 0xFFFFFFFFFFFFFFFFFFFFFFFFFFFFFFFFFFFFFFFF AND DUP4 PUSH20 0xFFFFFFFFFFFFFFFFFFFFFFFFFFFFFFFFFFFFFFFF AND EQ JUMPDEST SWAP1 POP SWAP4 SWAP3 POP POP POP JUMP JUMPDEST PUSH1 0x0 DUP2 CALLDATALOAD SWAP1 POP PUSH2 0xF09 DUP2 PUSH2 0x176A JUMP JUMPDEST SWAP3 SWAP2 POP POP JUMP JUMPDEST PUSH1 0x0 DUP2 CALLDATALOAD SWAP1 POP PUSH2 0xF1E DUP2 PUSH2 0x1781 JUMP JUMPDEST SWAP3 SWAP2 POP POP JUMP JUMPDEST PUSH1 0x0 DUP2 CALLDATALOAD SWAP1 POP PUSH2 0xF33 DUP2 PUSH2 0x1798 JUMP JUMPDEST SWAP3 SWAP2 POP POP JUMP JUMPDEST PUSH1 0x0 DUP2 MLOAD SWAP1 POP PUSH2 0xF48 DUP2 PUSH2 0x1798 JUMP JUMPDEST SWAP3 SWAP2 POP POP JUMP JUMPDEST PUSH1 0x0 DUP1 DUP4 PUSH1 0x1F DUP5 ADD SLT PUSH2 0xF64 JUMPI PUSH2 0xF63 PUSH2 0x164C JUMP JUMPDEST JUMPDEST DUP3 CALLDATALOAD SWAP1 POP PUSH8 0xFFFFFFFFFFFFFFFF DUP2 GT ISZERO PUSH2 0xF81 JUMPI PUSH2 0xF80 PUSH2 0x1647 JUMP JUMPDEST JUMPDEST PUSH1 0x20 DUP4 ADD SWAP2 POP DUP4 PUSH1 0x1 DUP3 MUL DUP4 ADD GT ISZERO PUSH2 0xF9D JUMPI PUSH2 0xF9C PUSH2 0x1651 JUMP JUMPDEST JUMPDEST SWAP3 POP SWAP3 SWAP1 POP JUMP JUMPDEST PUSH1 0x0 DUP2 CALLDATALOAD SWAP1 POP PUSH2 0xFB3 DUP2 PUSH2 0x17AF JUMP JUMPDEST SWAP3 SWAP2 POP POP JUMP JUMPDEST PUSH1 0x0 PUSH1 0x20 DUP3 DUP5 SUB SLT ISZERO PUSH2 0xFCF JUMPI PUSH2 0xFCE PUSH2 0x165B JUMP JUMPDEST JUMPDEST PUSH1 0x0 PUSH2 0xFDD DUP5 DUP3 DUP6 ADD PUSH2 0xEFA JUMP JUMPDEST SWAP2 POP POP SWAP3 SWAP2 POP POP JUMP JUMPDEST PUSH1 0x0 DUP1 PUSH1 0x40 DUP4 DUP6 SUB SLT ISZERO PUSH2 0xFFD JUMPI PUSH2 0xFFC PUSH2 0x165B JUMP JUMPDEST JUMPDEST PUSH1 0x0 PUSH2 0x100B DUP6 DUP3 DUP7 ADD PUSH2 0xEFA JUMP JUMPDEST SWAP3 POP POP PUSH1 0x20 PUSH2 0x101C DUP6 DUP3 DUP7 ADD PUSH2 0xEFA JUMP JUMPDEST SWAP2 POP POP SWAP3 POP SWAP3 SWAP1 POP JUMP JUMPDEST PUSH1 0x0 DUP1 PUSH1 0x0 PUSH1 0x60 DUP5 DUP7 SUB SLT ISZERO PUSH2 0x103F JUMPI PUSH2 0x103E PUSH2 0x165B JUMP JUMPDEST JUMPDEST PUSH1 0x0 PUSH2 0x104D DUP7 DUP3 DUP8 ADD PUSH2 0xEFA JUMP JUMPDEST SWAP4 POP POP PUSH1 0x20 PUSH2 0x105E DUP7 DUP3 DUP8 ADD PUSH2 0xEFA JUMP JUMPDEST SWAP3 POP POP PUSH1 0x40 PUSH2 0x106F DUP7 DUP3 DUP8 ADD PUSH2 0xFA4 JUMP JUMPDEST SWAP2 POP POP SWAP3 POP SWAP3 POP SWAP3 JUMP JUMPDEST PUSH1 0x0 DUP1 PUSH1 0x0 DUP1 PUSH1 0x0 PUSH1 0x80 DUP7 DUP9 SUB SLT ISZERO PUSH2 0x1095 JUMPI PUSH2 0x1094 PUSH2 0x165B JUMP JUMPDEST JUMPDEST PUSH1 0x0 PUSH2 0x10A3 DUP9 DUP3 DUP10 ADD PUSH2 0xEFA JUMP JUMPDEST SWAP6 POP POP PUSH1 0x20 PUSH2 0x10B4 DUP9 DUP3 DUP10 ADD PUSH2 0xEFA JUMP JUMPDEST SWAP5 POP POP PUSH1 0x40 PUSH2 0x10C5 DUP9 DUP3 DUP10 ADD PUSH2 0xFA4 JUMP JUMPDEST SWAP4 POP POP PUSH1 0x60 DUP7 ADD CALLDATALOAD PUSH8 0xFFFFFFFFFFFFFFFF DUP2 GT ISZERO PUSH2 0x10E6 JUMPI PUSH2 0x10E5 PUSH2 0x1656 JUMP JUMPDEST JUMPDEST PUSH2 0x10F2 DUP9 DUP3 DUP10 ADD PUSH2 0xF4E JUMP JUMPDEST SWAP3 POP SWAP3 POP POP SWAP3 SWAP6 POP SWAP3 SWAP6 SWAP1 SWAP4 POP JUMP JUMPDEST PUSH1 0x0 DUP1 PUSH1 0x40 DUP4 DUP6 SUB SLT ISZERO PUSH2 0x1118 JUMPI PUSH2 0x1117 PUSH2 0x165B JUMP JUMPDEST JUMPDEST PUSH1 0x0 PUSH2 0x1126 DUP6 DUP3 DUP7 ADD PUSH2 0xEFA JUMP JUMPDEST SWAP3 POP POP PUSH1 0x20 PUSH2 0x1137 DUP6 DUP3 DUP7 ADD PUSH2 0xF0F JUMP JUMPDEST SWAP2 POP POP SWAP3 POP SWAP3 SWAP1 POP JUMP JUMPDEST PUSH1 0x0 DUP1 PUSH1 0x40 DUP4 DUP6 SUB SLT ISZERO PUSH2 0x1158 JUMPI PUSH2 0x1157 PUSH2 0x165B JUMP JUMPDEST JUMPDEST PUSH1 0x0 PUSH2 0x1166 DUP6 DUP3 DUP7 ADD PUSH2 0xEFA JUMP JUMPDEST SWAP3 POP POP PUSH1 0x20 PUSH2 0x1177 DUP6 DUP3 DUP7 ADD PUSH2 0xFA4 JUMP JUMPDEST SWAP2 POP POP SWAP3 POP SWAP3 SWAP1 POP JUMP JUMPDEST PUSH1 0x0 PUSH1 0x20 DUP3 DUP5 SUB SLT ISZERO PUSH2 0x1197 JUMPI PUSH2 0x1196 PUSH2 0x165B JUMP JUMPDEST JUMPDEST PUSH1 0x0 PUSH2 0x11A5 DUP5 DUP3 DUP6 ADD PUSH2 0xF24 JUMP JUMPDEST SWAP2 POP POP SWAP3 SWAP2 POP POP JUMP JUMPDEST PUSH1 0x0 PUSH1 0x20 DUP3 DUP5 SUB SLT ISZERO PUSH2 0x11C4 JUMPI PUSH2 0x11C3 PUSH2 0x165B JUMP JUMPDEST JUMPDEST PUSH1 0x0 PUSH2 0x11D2 DUP5 DUP3 DUP6 ADD PUSH2 0xF39 JUMP JUMPDEST SWAP2 POP POP SWAP3 SWAP2 POP POP JUMP JUMPDEST PUSH1 0x0 PUSH1 0x20 DUP3 DUP5 SUB SLT ISZERO PUSH2 0x11F1 JUMPI PUSH2 0x11F0 PUSH2 0x165B JUMP JUMPDEST JUMPDEST PUSH1 0x0 PUSH2 0x11FF DUP5 DUP3 DUP6 ADD PUSH2 0xFA4 JUMP JUMPDEST SWAP2 POP POP SWAP3 SWAP2 POP POP JUMP JUMPDEST PUSH2 0x1211 DUP2 PUSH2 0x1522 JUMP JUMPDEST DUP3 MSTORE POP POP JUMP JUMPDEST PUSH2 0x1220 DUP2 PUSH2 0x1534 JUMP JUMPDEST DUP3 MSTORE POP POP JUMP JUMPDEST PUSH1 0x0 PUSH2 0x1232 DUP4 DUP6 PUSH2 0x1500 JUMP JUMPDEST SWAP4 POP PUSH2 0x123F DUP4 DUP6 DUP5 PUSH2 0x1596 JUMP JUMPDEST PUSH2 0x1248 DUP4 PUSH2 0x1660 JUMP JUMPDEST DUP5 ADD SWAP1 POP SWAP4 SWAP3 POP POP POP JUMP JUMPDEST PUSH1 0x0 PUSH2 0x1260 PUSH1 0x10 DUP4 PUSH2 0x1511 JUMP JUMPDEST SWAP2 POP PUSH2 0x126B DUP3 PUSH2 0x1671 JUMP JUMPDEST PUSH1 0x20 DUP3 ADD SWAP1 POP SWAP2 SWAP1 POP JUMP JUMPDEST PUSH1 0x0 PUSH2 0x1283 PUSH1 0x13 DUP4 PUSH2 0x1511 JUMP JUMPDEST SWAP2 POP PUSH2 0x128E DUP3 PUSH2 0x169A JUMP JUMPDEST PUSH1 0x20 DUP3 ADD SWAP1 POP SWAP2 SWAP1 POP JUMP JUMPDEST PUSH1 0x0 PUSH2 0x12A6 PUSH1 0x18 DUP4 PUSH2 0x1511 JUMP JUMPDEST SWAP2 POP PUSH2 0x12B1 DUP3 PUSH2 0x16C3 JUMP JUMPDEST PUSH1 0x20 DUP3 ADD SWAP1 POP SWAP2 SWAP1 POP JUMP JUMPDEST PUSH1 0x0 PUSH2 0x12C9 PUSH1 0x14 DUP4 PUSH2 0x1511 JUMP JUMPDEST SWAP2 POP PUSH2 0x12D4 DUP3 PUSH2 0x16EC JUMP JUMPDEST PUSH1 0x20 DUP3 ADD SWAP1 POP SWAP2 SWAP1 POP JUMP JUMPDEST PUSH1 0x0 PUSH2 0x12EC PUSH1 0xE DUP4 PUSH2 0x1511 JUMP JUMPDEST SWAP2 POP PUSH2 0x12F7 DUP3 PUSH2 0x1715 JUMP JUMPDEST PUSH1 0x20 DUP3 ADD SWAP1 POP SWAP2 SWAP1 POP JUMP JUMPDEST PUSH1 0x0 PUSH2 0x130F PUSH1 0x0 DUP4 PUSH2 0x1500 JUMP JUMPDEST SWAP2 POP PUSH2 0x131A DUP3 PUSH2 0x173E JUMP JUMPDEST PUSH1 0x0 DUP3 ADD SWAP1 POP SWAP2 SWAP1 POP JUMP JUMPDEST PUSH1 0x0 PUSH2 0x1332 PUSH1 0xD DUP4 PUSH2 0x1511 JUMP JUMPDEST SWAP2 POP PUSH2 0x133D DUP3 PUSH2 0x1741 JUMP JUMPDEST PUSH1 0x20 DUP3 ADD SWAP1 POP SWAP2 SWAP1 POP JUMP JUMPDEST PUSH2 0x1351 DUP2 PUSH2 0x158C JUMP JUMPDEST DUP3 MSTORE POP POP JUMP JUMPDEST PUSH1 0x0 PUSH1 0x20 DUP3 ADD SWAP1 POP PUSH2 0x136C PUSH1 0x0 DUP4 ADD DUP5 PUSH2 0x1208 JUMP JUMPDEST SWAP3 SWAP2 POP POP JUMP JUMPDEST PUSH1 0x0 PUSH1 0x80 DUP3 ADD SWAP1 POP PUSH2 0x1387 PUSH1 0x0 DUP4 ADD DUP9 PUSH2 0x1208 JUMP JUMPDEST PUSH2 0x1394 PUSH1 0x20 DUP4 ADD DUP8 PUSH2 0x1208 JUMP JUMPDEST PUSH2 0x13A1 PUSH1 0x40 DUP4 ADD DUP7 PUSH2 0x1348 JUMP JUMPDEST DUP2 DUP2 SUB PUSH1 0x60 DUP4 ADD MSTORE PUSH2 0x13B4 DUP2 DUP5 DUP7 PUSH2 0x1226 JUMP JUMPDEST SWAP1 POP SWAP7 SWAP6 POP POP POP POP POP POP JUMP JUMPDEST PUSH1 0x0 PUSH1 0x80 DUP3 ADD SWAP1 POP PUSH2 0x13D5 PUSH1 0x0 DUP4 ADD DUP7 PUSH2 0x1208 JUMP JUMPDEST PUSH2 0x13E2 PUSH1 0x20 DUP4 ADD DUP6 PUSH2 0x1208 JUMP JUMPDEST PUSH2 0x13EF PUSH1 0x40 DUP4 ADD DUP5 PUSH2 0x1348 JUMP JUMPDEST DUP2 DUP2 SUB PUSH1 0x60 DUP4 ADD MSTORE PUSH2 0x1400 DUP2 PUSH2 0x1302 JUMP JUMPDEST SWAP1 POP SWAP5 SWAP4 POP POP POP POP JUMP JUMPDEST PUSH1 0x0 PUSH1 0x20 DUP3 ADD SWAP1 POP PUSH2 0x141F PUSH1 0x0 DUP4 ADD DUP5 PUSH2 0x1217 JUMP JUMPDEST SWAP3 SWAP2 POP POP JUMP JUMPDEST PUSH1 0x0 PUSH1 0x20 DUP3 ADD SWAP1 POP DUP2 DUP2 SUB PUSH1 0x0 DUP4 ADD MSTORE PUSH2 0x143E DUP2 PUSH2 0x1253 JUMP JUMPDEST SWAP1 POP SWAP2 SWAP1 POP JUMP JUMPDEST PUSH1 0x0 PUSH1 0x20 DUP3 ADD SWAP1 POP DUP2 DUP2 SUB PUSH1 0x0 DUP4 ADD MSTORE PUSH2 0x145E DUP2 PUSH2 0x1276 JUMP JUMPDEST SWAP1 POP SWAP2 SWAP1 POP JUMP JUMPDEST PUSH1 0x0 PUSH1 0x20 DUP3 ADD SWAP1 POP DUP2 DUP2 SUB PUSH1 0x0 DUP4 ADD MSTORE PUSH2 0x147E DUP2 PUSH2 0x1299 JUMP JUMPDEST SWAP1 POP SWAP2 SWAP1 POP JUMP JUMPDEST PUSH1 0x0 PUSH1 0x20 DUP3 ADD SWAP1 POP DUP2 DUP2 SUB PUSH1 0x0 DUP4 ADD MSTORE PUSH2 0x149E DUP2 PUSH2 0x12BC JUMP JUMPDEST SWAP1 POP SWAP2 SWAP1 POP JUMP JUMPDEST PUSH1 0x0 PUSH1 0x20 DUP3 ADD SWAP1 POP DUP2 DUP2 SUB PUSH1 0x0 DUP4 ADD MSTORE PUSH2 0x14BE DUP2 PUSH2 0x12DF JUMP JUMPDEST SWAP1 POP SWAP2 SWAP1 POP JUMP JUMPDEST PUSH1 0x0 PUSH1 0x20 DUP3 ADD SWAP1 POP DUP2 DUP2 SUB PUSH1 0x0 DUP4 ADD MSTORE PUSH2 0x14DE DUP2 PUSH2 0x1325 JUMP JUMPDEST SWAP1 POP SWAP2 SWAP1 POP JUMP JUMPDEST PUSH1 0x0 PUSH1 0x20 DUP3 ADD SWAP1 POP PUSH2 0x14FA PUSH1 0x0 DUP4 ADD DUP5 PUSH2 0x1348 JUMP JUMPDEST SWAP3 SWAP2 POP POP JUMP JUMPDEST PUSH1 0x0 DUP3 DUP3 MSTORE PUSH1 0x20 DUP3 ADD SWAP1 POP SWAP3 SWAP2 POP POP JUMP JUMPDEST PUSH1 0x0 DUP3 DUP3 MSTORE PUSH1 0x20 DUP3 ADD SWAP1 POP SWAP3 SWAP2 POP POP JUMP JUMPDEST PUSH1 0x0 PUSH2 0x152D DUP3 PUSH2 0x156C JUMP JUMPDEST SWAP1 POP SWAP2 SWAP1 POP JUMP JUMPDEST PUSH1 0x0 DUP2 ISZERO ISZERO SWAP1 POP SWAP2 SWAP1 POP JUMP JUMPDEST PUSH1 0x0 PUSH32 0xFFFFFFFF00000000000000000000000000000000000000000000000000000000 DUP3 AND SWAP1 POP SWAP2 SWAP1 POP JUMP JUMPDEST PUSH1 0x0 PUSH20 0xFFFFFFFFFFFFFFFFFFFFFFFFFFFFFFFFFFFFFFFF DUP3 AND SWAP1 POP SWAP2 SWAP1 POP JUMP JUMPDEST PUSH1 0x0 DUP2 SWAP1 POP SWAP2 SWAP1 POP JUMP JUMPDEST DUP3 DUP2 DUP4 CALLDATACOPY PUSH1 0x0 DUP4 DUP4 ADD MSTORE POP POP POP JUMP JUMPDEST PUSH1 0x0 PUSH2 0x15B0 DUP3 PUSH2 0x158C JUMP JUMPDEST SWAP2 POP PUSH1 0x0 DUP3 EQ ISZERO PUSH2 0x15C4 JUMPI PUSH2 0x15C3 PUSH2 0x1618 JUMP JUMPDEST JUMPDEST PUSH1 0x1 DUP3 SUB SWAP1 POP SWAP2 SWAP1 POP JUMP JUMPDEST PUSH1 0x0 PUSH2 0x15DA DUP3 PUSH2 0x158C JUMP JUMPDEST SWAP2 POP PUSH32 0xFFFFFFFFFFFFFFFFFFFFFFFFFFFFFFFFFFFFFFFFFFFFFFFFFFFFFFFFFFFFFFFF DUP3 EQ ISZERO PUSH2 0x160D JUMPI PUSH2 0x160C PUSH2 0x1618 JUMP JUMPDEST JUMPDEST PUSH1 0x1 DUP3 ADD SWAP1 POP SWAP2 SWAP1 POP JUMP JUMPDEST PUSH32 0x4E487B7100000000000000000000000000000000000000000000000000000000 PUSH1 0x0 MSTORE PUSH1 0x11 PUSH1 0x4 MSTORE PUSH1 0x24 PUSH1 0x0 REVERT JUMPDEST PUSH1 0x0 DUP1 REVERT JUMPDEST PUSH1 0x0 DUP1 REVERT JUMPDEST PUSH1 0x0 DUP1 REVERT JUMPDEST PUSH1 0x0 DUP1 REVERT JUMPDEST PUSH1 0x0 DUP1 REVERT JUMPDEST PUSH1 0x0 PUSH1 0x1F NOT PUSH1 0x1F DUP4 ADD AND SWAP1 POP SWAP2 SWAP1 POP JUMP JUMPDEST PUSH32 0x756E7361666520726563697069656E7400000000000000000000000000000000 PUSH1 0x0 DUP3 ADD MSTORE POP JUMP JUMPDEST PUSH32 0x746F6B656E20646F65736E277420657869737400000000000000000000000000 PUSH1 0x0 DUP3 ADD MSTORE POP JUMP JUMPDEST PUSH32 0x7472616E7366657220746F207A65726F20616464726573730000000000000000 PUSH1 0x0 DUP3 ADD MSTORE POP JUMP JUMPDEST PUSH32 0x6F776E6572203D207A65726F2061646472657373000000000000000000000000 PUSH1 0x0 DUP3 ADD MSTORE POP JUMP JUMPDEST PUSH32 0x6E6F7420617574686F72697A6564000000000000000000000000000000000000 PUSH1 0x0 DUP3 ADD MSTORE POP JUMP JUMPDEST POP JUMP JUMPDEST PUSH32 0x66726F6D20213D206F776E657200000000000000000000000000000000000000 PUSH1 0x0 DUP3 ADD MSTORE POP JUMP JUMPDEST PUSH2 0x1773 DUP2 PUSH2 0x1522 JUMP JUMPDEST DUP2 EQ PUSH2 0x177E JUMPI PUSH1 0x0 DUP1 REVERT JUMPDEST POP JUMP JUMPDEST PUSH2 0x178A DUP2 PUSH2 0x1534 JUMP JUMPDEST DUP2 EQ PUSH2 0x1795 JUMPI PUSH1 0x0 DUP1 REVERT JUMPDEST POP JUMP JUMPDEST PUSH2 0x17A1 DUP2 PUSH2 0x1540 JUMP JUMPDEST DUP2 EQ PUSH2 0x17AC JUMPI PUSH1 0x0 DUP1 REVERT JUMPDEST POP JUMP JUMPDEST PUSH2 0x17B8 DUP2 PUSH2 0x158C JUMP JUMPDEST DUP2 EQ PUSH2 0x17C3 JUMPI PUSH1 0x0 DUP1 REVERT JUMPDEST POP JUMP INVALID LOG2 PUSH5 0x6970667358 0x22 SLT KECCAK256 0x24 0x2C 0x4F DUP12 0xFC CALLCODE STATICCALL PUSH7 0x65C0F9DE56525F NUMBER 0x1F MSIZE 0xBF CALLER 0xD2 INVALID PUSH16 0x65BCD3A552670B364736F6C634300 ADDMOD SMOD STOP CALLER "
				},
				"gasEstimates": {
					"creation": {
						"codeDepositCost": "1228000",
						"executionCost": "1275",
						"totalCost": "1229275"
					},
					"external": {
						"approve(address,uint256)": "31539",
						"balanceOf(address)": "2901",
						"getApproved(uint256)": "5140",
						"isApprovedForAll(address,address)": "infinite",
						"ownerOf(uint256)": "2956",
						"safeTransferFrom(address,address,uint256)": "infinite",
						"safeTransferFrom(address,address,uint256,bytes)": "infinite",
						"setApprovalForAll(address,bool)": "infinite",
						"supportsInterface(bytes4)": "685",
						"transferFrom(address,address,uint256)": "infinite"
					},
					"internal": {
						"_burn(uint256)": "infinite",
						"_isApprovedOrOwner(address,address,uint256)": "4648",
						"_mint(address,uint256)": "infinite"
					}
				},
				"methodIdentifiers": {
					"approve(address,uint256)": "095ea7b3",
					"balanceOf(address)": "70a08231",
					"getApproved(uint256)": "081812fc",
					"isApprovedForAll(address,address)": "e985e9c5",
					"ownerOf(uint256)": "6352211e",
					"safeTransferFrom(address,address,uint256)": "42842e0e",
					"safeTransferFrom(address,address,uint256,bytes)": "b88d4fde",
					"setApprovalForAll(address,bool)": "a22cb465",
					"supportsInterface(bytes4)": "01ffc9a7",
					"transferFrom(address,address,uint256)": "23b872dd"
				}
			},
			"storageLayout": {
				"storage": [
					{
						"astId": 129,
						"contract": "case/41_IERC721.sol:ERC721",
						"label": "_ownerOf",
						"offset": 0,
						"slot": "0",
						"type": "t_mapping(t_uint256,t_address)"
					},
					{
						"astId": 133,
						"contract": "case/41_IERC721.sol:ERC721",
						"label": "_balanceOf",
						"offset": 0,
						"slot": "1",
						"type": "t_mapping(t_address,t_uint256)"
					},
					{
						"astId": 137,
						"contract": "case/41_IERC721.sol:ERC721",
						"label": "_approvals",
						"offset": 0,
						"slot": "2",
						"type": "t_mapping(t_uint256,t_address)"
					},
					{
						"astId": 144,
						"contract": "case/41_IERC721.sol:ERC721",
						"label": "isApprovedForAll",
						"offset": 0,
						"slot": "3",
						"type": "t_mapping(t_address,t_mapping(t_address,t_bool))"
					}
				],
				"types": {
					"t_address": {
						"encoding": "inplace",
						"label": "address",
						"numberOfBytes": "20"
					},
					"t_bool": {
						"encoding": "inplace",
						"label": "bool",
						"numberOfBytes": "1"
					},
					"t_mapping(t_address,t_bool)": {
						"encoding": "mapping",
						"key": "t_address",
						"label": "mapping(address => bool)",
						"numberOfBytes": "32",
						"value": "t_bool"
					},
					"t_mapping(t_address,t_mapping(t_address,t_bool))": {
						"encoding": "mapping",
						"key": "t_address",
						"label": "mapping(address => mapping(address => bool))",
						"numberOfBytes": "32",
						"value": "t_mapping(t_address,t_bool)"
					},
					"t_mapping(t_address,t_uint256)": {
						"encoding": "mapping",
						"key": "t_address",
						"label": "mapping(address => uint256)",
						"numberOfBytes": "32",
						"value": "t_uint256"
					},
					"t_mapping(t_uint256,t_address)": {
						"encoding": "mapping",
						"key": "t_uint256",
						"label": "mapping(uint256 => address)",
						"numberOfBytes": "32",
						"value": "t_address"
					},
					"t_uint256": {
						"encoding": "inplace",
						"label": "uint256",
						"numberOfBytes": "32"
					}
				}
			},
			"userdoc": {
				"kind": "user",
				"methods": {},
				"version": 1
			}
		}
	}
}