{
	"case/43_DutchNFTAuction.sol": {
		"DutchNFTAuction": {
			"abi": [
				{
					"inputs": [
						{
							"internalType": "uint256",
							"name": "_startingPrice",
							"type": "uint256"
						},
						{
							"internalType": "uint256",
							"name": "_discountRate",
							"type": "uint256"
						},
						{
							"internalType": "address",
							"name": "_nft",
							"type": "address"
						},
						{
							"internalType": "uint256",
							"name": "_nftId",
							"type": "uint256"
						}
					],
					"stateMutability": "nonpayable",
					"type": "constructor"
				},
				{
					"inputs": [],
					"name": "buy",
					"outputs": [],
					"stateMutability": "payable",
					"type": "function"
				},
				{
					"inputs": [],
					"name": "discountRate",
					"outputs": [
						{
							"internalType": "uint256",
							"name": "",
							"type": "uint256"
						}
					],
					"stateMutability": "view",
					"type": "function"
				},
				{
					"inputs": [],
					"name": "getPrice",
					"outputs": [
						{
							"internalType": "uint256",
							"name": "",
							"type": "uint256"
						}
					],
					"stateMutability": "view",
					"type": "function"
				},
				{
					"inputs": [],
					"name": "nft",
					"outputs": [
						{
							"internalType": "contract IERC721",
							"name": "",
							"type": "address"
						}
					],
					"stateMutability": "view",
					"type": "function"
				},
				{
					"inputs": [],
					"name": "nftId",
					"outputs": [
						{
							"internalType": "uint256",
							"name": "",
							"type": "uint256"
						}
					],
					"stateMutability": "view",
					"type": "function"
				},
				{
					"inputs": [],
					"name": "seller",
					"outputs": [
						{
							"internalType": "address payable",
							"name": "",
							"type": "address"
						}
					],
					"stateMutability": "view",
					"type": "function"
				},
				{
					"inputs": [],
					"name": "startAt",
					"outputs": [
						{
							"internalType": "uint256",
							"name": "",
							"type": "uint256"
						}
					],
					"stateMutability": "view",
					"type": "function"
				},
				{
					"inputs": [],
					"name": "startingPrice",
					"outputs": [
						{
							"internalType": "uint256",
							"name": "",
							"type": "uint256"
						}
					],
					"stateMutability": "view",
					"type": "function"
				}
			],
			"devdoc": {
				"kind": "dev",
				"methods": {},
				"version": 1
			},
			"evm": {
				"assembly": "    /* \"case/43_DutchNFTAuction.sol\":288:2134  contract DutchNFTAuction{... */\n  mstore(0x40, 0x0160)\n    /* \"case/43_DutchNFTAuction.sol\":802:1364  constructor(uint _startingPrice, uint _discountRate, address _nft, uint _nftId){... */\n  callvalue\n  dup1\n  iszero\n  tag_1\n  jumpi\n  0x00\n  dup1\n  revert\ntag_1:\n  pop\n  mload(0x40)\n  sub(codesize, bytecodeSize)\n  dup1\n  bytecodeSize\n  dup4\n  codecopy\n  dup2\n  dup2\n  add\n  0x40\n  mstore\n  dup2\n  add\n  swap1\n  tag_2\n  swap2\n  swap1\n  tag_3\n  jump\t// in\ntag_2:\n    /* \"case/43_DutchNFTAuction.sol\":939:949  msg.sender */\n  caller\n    /* \"case/43_DutchNFTAuction.sol\":922:950  seller = payable(msg.sender) */\n  0xffffffffffffffffffffffffffffffffffffffff\n  and\n  0xc0\n  dup2\n  0xffffffffffffffffffffffffffffffffffffffff\n  and\n  0x60\n  shl\n  dup2\n  mstore\n  pop\n  pop\n    /* \"case/43_DutchNFTAuction.sol\":976:990  _startingPrice */\n  dup4\n    /* \"case/43_DutchNFTAuction.sol\":960:990  startingPrice = _startingPrice */\n  0xe0\n  dup2\n  dup2\n  mstore\n  pop\n  pop\n    /* \"case/43_DutchNFTAuction.sol\":1015:1028  _discountRate */\n  dup3\n    /* \"case/43_DutchNFTAuction.sol\":1000:1028  discountRate = _discountRate */\n  0x0140\n  dup2\n  dup2\n  mstore\n  pop\n  pop\n    /* \"case/43_DutchNFTAuction.sol\":1087:1102  block.timestamp */\n  timestamp\n    /* \"case/43_DutchNFTAuction.sol\":1077:1102  startAt = block.timestamp */\n  0x0100\n  dup2\n  dup2\n  mstore\n  pop\n  pop\n    /* \"case/43_DutchNFTAuction.sol\":351:357  7 days */\n  0x093a80\n    /* \"case/43_DutchNFTAuction.sol\":1123:1138  block.timestamp */\n  timestamp\n    /* \"case/43_DutchNFTAuction.sol\":1123:1149  block.timestamp + DURATION */\n  tag_6\n  swap2\n  swap1\n  tag_7\n  jump\t// in\ntag_6:\n    /* \"case/43_DutchNFTAuction.sol\":1112:1149  expireAt = block.timestamp + DURATION */\n  0x0120\n  dup2\n  dup2\n  mstore\n  pop\n  pop\n    /* \"case/43_DutchNFTAuction.sol\":351:357  7 days */\n  0x093a80\n    /* \"case/43_DutchNFTAuction.sol\":1218:1231  _discountRate */\n  dup4\n    /* \"case/43_DutchNFTAuction.sol\":1218:1242  _discountRate * DURATION */\n  tag_8\n  swap2\n  swap1\n  tag_9\n  jump\t// in\ntag_8:\n    /* \"case/43_DutchNFTAuction.sol\":1200:1214  _startingPrice */\n  dup5\n    /* \"case/43_DutchNFTAuction.sol\":1200:1242  _startingPrice >= _discountRate * DURATION */\n  lt\n  iszero\n    /* \"case/43_DutchNFTAuction.sol\":1192:1282  require(_startingPrice >= _discountRate * DURATION,\"starting price < discount * duration\") */\n  tag_10\n  jumpi\n  mload(0x40)\n  0x08c379a000000000000000000000000000000000000000000000000000000000\n  dup2\n  mstore\n  0x04\n  add\n  tag_11\n  swap1\n  tag_12\n  jump\t// in\ntag_11:\n  mload(0x40)\n  dup1\n  swap2\n  sub\n  swap1\n  revert\ntag_10:\n    /* \"case/43_DutchNFTAuction.sol\":1328:1332  _nft */\n  dup2\n    /* \"case/43_DutchNFTAuction.sol\":1314:1333  nft = IERC721(_nft) */\n  0xffffffffffffffffffffffffffffffffffffffff\n  and\n  0x80\n  dup2\n  0xffffffffffffffffffffffffffffffffffffffff\n  and\n  0x60\n  shl\n  dup2\n  mstore\n  pop\n  pop\n    /* \"case/43_DutchNFTAuction.sol\":1351:1357  _nftId */\n  dup1\n    /* \"case/43_DutchNFTAuction.sol\":1343:1357  nftId = _nftId */\n  0xa0\n  dup2\n  dup2\n  mstore\n  pop\n  pop\n    /* \"case/43_DutchNFTAuction.sol\":802:1364  constructor(uint _startingPrice, uint _discountRate, address _nft, uint _nftId){... */\n  pop\n  pop\n  pop\n  pop\n    /* \"case/43_DutchNFTAuction.sol\":288:2134  contract DutchNFTAuction{... */\n  jump(tag_13)\n    /* \"#utility.yul\":7:150   */\ntag_15:\n    /* \"#utility.yul\":64:69   */\n  0x00\n    /* \"#utility.yul\":95:101   */\n  dup2\n    /* \"#utility.yul\":89:102   */\n  mload\n    /* \"#utility.yul\":80:102   */\n  swap1\n  pop\n    /* \"#utility.yul\":111:144   */\n  tag_17\n    /* \"#utility.yul\":138:143   */\n  dup2\n    /* \"#utility.yul\":111:144   */\n  tag_18\n  jump\t// in\ntag_17:\n    /* \"#utility.yul\":7:150   */\n  swap3\n  swap2\n  pop\n  pop\n  jump\t// out\n    /* \"#utility.yul\":156:299   */\ntag_19:\n    /* \"#utility.yul\":213:218   */\n  0x00\n    /* \"#utility.yul\":244:250   */\n  dup2\n    /* \"#utility.yul\":238:251   */\n  mload\n    /* \"#utility.yul\":229:251   */\n  swap1\n  pop\n    /* \"#utility.yul\":260:293   */\n  tag_21\n    /* \"#utility.yul\":287:292   */\n  dup2\n    /* \"#utility.yul\":260:293   */\n  tag_22\n  jump\t// in\ntag_21:\n    /* \"#utility.yul\":156:299   */\n  swap3\n  swap2\n  pop\n  pop\n  jump\t// out\n    /* \"#utility.yul\":305:1125   */\ntag_3:\n    /* \"#utility.yul\":402:408   */\n  0x00\n    /* \"#utility.yul\":410:416   */\n  dup1\n    /* \"#utility.yul\":418:424   */\n  0x00\n    /* \"#utility.yul\":426:432   */\n  dup1\n    /* \"#utility.yul\":475:478   */\n  0x80\n    /* \"#utility.yul\":463:472   */\n  dup6\n    /* \"#utility.yul\":454:461   */\n  dup8\n    /* \"#utility.yul\":450:473   */\n  sub\n    /* \"#utility.yul\":446:479   */\n  slt\n    /* \"#utility.yul\":443:563   */\n  iszero\n  tag_24\n  jumpi\n    /* \"#utility.yul\":482:561   */\n  tag_25\n  tag_26\n  jump\t// in\ntag_25:\n    /* \"#utility.yul\":443:563   */\ntag_24:\n    /* \"#utility.yul\":602:603   */\n  0x00\n    /* \"#utility.yul\":627:691   */\n  tag_27\n    /* \"#utility.yul\":683:690   */\n  dup8\n    /* \"#utility.yul\":674:680   */\n  dup3\n    /* \"#utility.yul\":663:672   */\n  dup9\n    /* \"#utility.yul\":659:681   */\n  add\n    /* \"#utility.yul\":627:691   */\n  tag_19\n  jump\t// in\ntag_27:\n    /* \"#utility.yul\":617:691   */\n  swap5\n  pop\n    /* \"#utility.yul\":573:701   */\n  pop\n    /* \"#utility.yul\":740:742   */\n  0x20\n    /* \"#utility.yul\":766:830   */\n  tag_28\n    /* \"#utility.yul\":822:829   */\n  dup8\n    /* \"#utility.yul\":813:819   */\n  dup3\n    /* \"#utility.yul\":802:811   */\n  dup9\n    /* \"#utility.yul\":798:820   */\n  add\n    /* \"#utility.yul\":766:830   */\n  tag_19\n  jump\t// in\ntag_28:\n    /* \"#utility.yul\":756:830   */\n  swap4\n  pop\n    /* \"#utility.yul\":711:840   */\n  pop\n    /* \"#utility.yul\":879:881   */\n  0x40\n    /* \"#utility.yul\":905:969   */\n  tag_29\n    /* \"#utility.yul\":961:968   */\n  dup8\n    /* \"#utility.yul\":952:958   */\n  dup3\n    /* \"#utility.yul\":941:950   */\n  dup9\n    /* \"#utility.yul\":937:959   */\n  add\n    /* \"#utility.yul\":905:969   */\n  tag_15\n  jump\t// in\ntag_29:\n    /* \"#utility.yul\":895:969   */\n  swap3\n  pop\n    /* \"#utility.yul\":850:979   */\n  pop\n    /* \"#utility.yul\":1018:1020   */\n  0x60\n    /* \"#utility.yul\":1044:1108   */\n  tag_30\n    /* \"#utility.yul\":1100:1107   */\n  dup8\n    /* \"#utility.yul\":1091:1097   */\n  dup3\n    /* \"#utility.yul\":1080:1089   */\n  dup9\n    /* \"#utility.yul\":1076:1098   */\n  add\n    /* \"#utility.yul\":1044:1108   */\n  tag_19\n  jump\t// in\ntag_30:\n    /* \"#utility.yul\":1034:1108   */\n  swap2\n  pop\n    /* \"#utility.yul\":989:1118   */\n  pop\n    /* \"#utility.yul\":305:1125   */\n  swap3\n  swap6\n  swap2\n  swap5\n  pop\n  swap3\n  pop\n  jump\t// out\n    /* \"#utility.yul\":1131:1497   */\ntag_31:\n    /* \"#utility.yul\":1273:1276   */\n  0x00\n    /* \"#utility.yul\":1294:1361   */\n  tag_33\n    /* \"#utility.yul\":1358:1360   */\n  0x24\n    /* \"#utility.yul\":1353:1356   */\n  dup4\n    /* \"#utility.yul\":1294:1361   */\n  tag_34\n  jump\t// in\ntag_33:\n    /* \"#utility.yul\":1287:1361   */\n  swap2\n  pop\n    /* \"#utility.yul\":1370:1463   */\n  tag_35\n    /* \"#utility.yul\":1459:1462   */\n  dup3\n    /* \"#utility.yul\":1370:1463   */\n  tag_36\n  jump\t// in\ntag_35:\n    /* \"#utility.yul\":1488:1490   */\n  0x40\n    /* \"#utility.yul\":1483:1486   */\n  dup3\n    /* \"#utility.yul\":1479:1491   */\n  add\n    /* \"#utility.yul\":1472:1491   */\n  swap1\n  pop\n    /* \"#utility.yul\":1131:1497   */\n  swap2\n  swap1\n  pop\n  jump\t// out\n    /* \"#utility.yul\":1503:1922   */\ntag_12:\n    /* \"#utility.yul\":1669:1673   */\n  0x00\n    /* \"#utility.yul\":1707:1709   */\n  0x20\n    /* \"#utility.yul\":1696:1705   */\n  dup3\n    /* \"#utility.yul\":1692:1710   */\n  add\n    /* \"#utility.yul\":1684:1710   */\n  swap1\n  pop\n    /* \"#utility.yul\":1756:1765   */\n  dup2\n    /* \"#utility.yul\":1750:1754   */\n  dup2\n    /* \"#utility.yul\":1746:1766   */\n  sub\n    /* \"#utility.yul\":1742:1743   */\n  0x00\n    /* \"#utility.yul\":1731:1740   */\n  dup4\n    /* \"#utility.yul\":1727:1744   */\n  add\n    /* \"#utility.yul\":1720:1767   */\n  mstore\n    /* \"#utility.yul\":1784:1915   */\n  tag_38\n    /* \"#utility.yul\":1910:1914   */\n  dup2\n    /* \"#utility.yul\":1784:1915   */\n  tag_31\n  jump\t// in\ntag_38:\n    /* \"#utility.yul\":1776:1915   */\n  swap1\n  pop\n    /* \"#utility.yul\":1503:1922   */\n  swap2\n  swap1\n  pop\n  jump\t// out\n    /* \"#utility.yul\":2009:2178   */\ntag_34:\n    /* \"#utility.yul\":2093:2104   */\n  0x00\n    /* \"#utility.yul\":2127:2133   */\n  dup3\n    /* \"#utility.yul\":2122:2125   */\n  dup3\n    /* \"#utility.yul\":2115:2134   */\n  mstore\n    /* \"#utility.yul\":2167:2171   */\n  0x20\n    /* \"#utility.yul\":2162:2165   */\n  dup3\n    /* \"#utility.yul\":2158:2172   */\n  add\n    /* \"#utility.yul\":2143:2172   */\n  swap1\n  pop\n    /* \"#utility.yul\":2009:2178   */\n  swap3\n  swap2\n  pop\n  pop\n  jump\t// out\n    /* \"#utility.yul\":2184:2489   */\ntag_7:\n    /* \"#utility.yul\":2224:2227   */\n  0x00\n    /* \"#utility.yul\":2243:2263   */\n  tag_43\n    /* \"#utility.yul\":2261:2262   */\n  dup3\n    /* \"#utility.yul\":2243:2263   */\n  tag_44\n  jump\t// in\ntag_43:\n    /* \"#utility.yul\":2238:2263   */\n  swap2\n  pop\n    /* \"#utility.yul\":2277:2297   */\n  tag_45\n    /* \"#utility.yul\":2295:2296   */\n  dup4\n    /* \"#utility.yul\":2277:2297   */\n  tag_44\n  jump\t// in\ntag_45:\n    /* \"#utility.yul\":2272:2297   */\n  swap3\n  pop\n    /* \"#utility.yul\":2431:2432   */\n  dup3\n    /* \"#utility.yul\":2363:2429   */\n  0xffffffffffffffffffffffffffffffffffffffffffffffffffffffffffffffff\n    /* \"#utility.yul\":2359:2433   */\n  sub\n    /* \"#utility.yul\":2356:2357   */\n  dup3\n    /* \"#utility.yul\":2353:2434   */\n  gt\n    /* \"#utility.yul\":2350:2457   */\n  iszero\n  tag_46\n  jumpi\n    /* \"#utility.yul\":2437:2455   */\n  tag_47\n  tag_48\n  jump\t// in\ntag_47:\n    /* \"#utility.yul\":2350:2457   */\ntag_46:\n    /* \"#utility.yul\":2481:2482   */\n  dup3\n    /* \"#utility.yul\":2478:2479   */\n  dup3\n    /* \"#utility.yul\":2474:2483   */\n  add\n    /* \"#utility.yul\":2467:2483   */\n  swap1\n  pop\n    /* \"#utility.yul\":2184:2489   */\n  swap3\n  swap2\n  pop\n  pop\n  jump\t// out\n    /* \"#utility.yul\":2495:2843   */\ntag_9:\n    /* \"#utility.yul\":2535:2542   */\n  0x00\n    /* \"#utility.yul\":2558:2578   */\n  tag_50\n    /* \"#utility.yul\":2576:2577   */\n  dup3\n    /* \"#utility.yul\":2558:2578   */\n  tag_44\n  jump\t// in\ntag_50:\n    /* \"#utility.yul\":2553:2578   */\n  swap2\n  pop\n    /* \"#utility.yul\":2592:2612   */\n  tag_51\n    /* \"#utility.yul\":2610:2611   */\n  dup4\n    /* \"#utility.yul\":2592:2612   */\n  tag_44\n  jump\t// in\ntag_51:\n    /* \"#utility.yul\":2587:2612   */\n  swap3\n  pop\n    /* \"#utility.yul\":2780:2781   */\n  dup2\n    /* \"#utility.yul\":2712:2778   */\n  0xffffffffffffffffffffffffffffffffffffffffffffffffffffffffffffffff\n    /* \"#utility.yul\":2708:2782   */\n  div\n    /* \"#utility.yul\":2705:2706   */\n  dup4\n    /* \"#utility.yul\":2702:2783   */\n  gt\n    /* \"#utility.yul\":2697:2698   */\n  dup3\n    /* \"#utility.yul\":2690:2699   */\n  iszero\n    /* \"#utility.yul\":2683:2700   */\n  iszero\n    /* \"#utility.yul\":2679:2784   */\n  and\n    /* \"#utility.yul\":2676:2807   */\n  iszero\n  tag_52\n  jumpi\n    /* \"#utility.yul\":2787:2805   */\n  tag_53\n  tag_48\n  jump\t// in\ntag_53:\n    /* \"#utility.yul\":2676:2807   */\ntag_52:\n    /* \"#utility.yul\":2835:2836   */\n  dup3\n    /* \"#utility.yul\":2832:2833   */\n  dup3\n    /* \"#utility.yul\":2828:2837   */\n  mul\n    /* \"#utility.yul\":2817:2837   */\n  swap1\n  pop\n    /* \"#utility.yul\":2495:2843   */\n  swap3\n  swap2\n  pop\n  pop\n  jump\t// out\n    /* \"#utility.yul\":2849:2945   */\ntag_54:\n    /* \"#utility.yul\":2886:2893   */\n  0x00\n    /* \"#utility.yul\":2915:2939   */\n  tag_56\n    /* \"#utility.yul\":2933:2938   */\n  dup3\n    /* \"#utility.yul\":2915:2939   */\n  tag_57\n  jump\t// in\ntag_56:\n    /* \"#utility.yul\":2904:2939   */\n  swap1\n  pop\n    /* \"#utility.yul\":2849:2945   */\n  swap2\n  swap1\n  pop\n  jump\t// out\n    /* \"#utility.yul\":2951:3077   */\ntag_57:\n    /* \"#utility.yul\":2988:2995   */\n  0x00\n    /* \"#utility.yul\":3028:3070   */\n  0xffffffffffffffffffffffffffffffffffffffff\n    /* \"#utility.yul\":3021:3026   */\n  dup3\n    /* \"#utility.yul\":3017:3071   */\n  and\n    /* \"#utility.yul\":3006:3071   */\n  swap1\n  pop\n    /* \"#utility.yul\":2951:3077   */\n  swap2\n  swap1\n  pop\n  jump\t// out\n    /* \"#utility.yul\":3083:3160   */\ntag_44:\n    /* \"#utility.yul\":3120:3127   */\n  0x00\n    /* \"#utility.yul\":3149:3154   */\n  dup2\n    /* \"#utility.yul\":3138:3154   */\n  swap1\n  pop\n    /* \"#utility.yul\":3083:3160   */\n  swap2\n  swap1\n  pop\n  jump\t// out\n    /* \"#utility.yul\":3166:3346   */\ntag_48:\n    /* \"#utility.yul\":3214:3291   */\n  0x4e487b7100000000000000000000000000000000000000000000000000000000\n    /* \"#utility.yul\":3211:3212   */\n  0x00\n    /* \"#utility.yul\":3204:3292   */\n  mstore\n    /* \"#utility.yul\":3311:3315   */\n  0x11\n    /* \"#utility.yul\":3308:3309   */\n  0x04\n    /* \"#utility.yul\":3301:3316   */\n  mstore\n    /* \"#utility.yul\":3335:3339   */\n  0x24\n    /* \"#utility.yul\":3332:3333   */\n  0x00\n    /* \"#utility.yul\":3325:3340   */\n  revert\n    /* \"#utility.yul\":3475:3592   */\ntag_26:\n    /* \"#utility.yul\":3584:3585   */\n  0x00\n    /* \"#utility.yul\":3581:3582   */\n  dup1\n    /* \"#utility.yul\":3574:3586   */\n  revert\n    /* \"#utility.yul\":3598:3821   */\ntag_36:\n    /* \"#utility.yul\":3738:3772   */\n  0x7374617274696e67207072696365203c20646973636f756e74202a2064757261\n    /* \"#utility.yul\":3734:3735   */\n  0x00\n    /* \"#utility.yul\":3726:3732   */\n  dup3\n    /* \"#utility.yul\":3722:3736   */\n  add\n    /* \"#utility.yul\":3715:3773   */\n  mstore\n    /* \"#utility.yul\":3807:3813   */\n  0x74696f6e00000000000000000000000000000000000000000000000000000000\n    /* \"#utility.yul\":3802:3804   */\n  0x20\n    /* \"#utility.yul\":3794:3800   */\n  dup3\n    /* \"#utility.yul\":3790:3805   */\n  add\n    /* \"#utility.yul\":3783:3814   */\n  mstore\n    /* \"#utility.yul\":3598:3821   */\n  pop\n  jump\t// out\n    /* \"#utility.yul\":3827:3949   */\ntag_18:\n    /* \"#utility.yul\":3900:3924   */\n  tag_66\n    /* \"#utility.yul\":3918:3923   */\n  dup2\n    /* \"#utility.yul\":3900:3924   */\n  tag_54\n  jump\t// in\ntag_66:\n    /* \"#utility.yul\":3893:3898   */\n  dup2\n    /* \"#utility.yul\":3890:3925   */\n  eq\n    /* \"#utility.yul\":3880:3943   */\n  tag_67\n  jumpi\n    /* \"#utility.yul\":3939:3940   */\n  0x00\n    /* \"#utility.yul\":3936:3937   */\n  dup1\n    /* \"#utility.yul\":3929:3941   */\n  revert\n    /* \"#utility.yul\":3880:3943   */\ntag_67:\n    /* \"#utility.yul\":3827:3949   */\n  pop\n  jump\t// out\n    /* \"#utility.yul\":3955:4077   */\ntag_22:\n    /* \"#utility.yul\":4028:4052   */\n  tag_69\n    /* \"#utility.yul\":4046:4051   */\n  dup2\n    /* \"#utility.yul\":4028:4052   */\n  tag_44\n  jump\t// in\ntag_69:\n    /* \"#utility.yul\":4021:4026   */\n  dup2\n    /* \"#utility.yul\":4018:4053   */\n  eq\n    /* \"#utility.yul\":4008:4071   */\n  tag_70\n  jumpi\n    /* \"#utility.yul\":4067:4068   */\n  0x00\n    /* \"#utility.yul\":4064:4065   */\n  dup1\n    /* \"#utility.yul\":4057:4069   */\n  revert\n    /* \"#utility.yul\":4008:4071   */\ntag_70:\n    /* \"#utility.yul\":3955:4077   */\n  pop\n  jump\t// out\n    /* \"case/43_DutchNFTAuction.sol\":288:2134  contract DutchNFTAuction{... */\ntag_13:\n  shr(0x60, mload(0x80))\n  mload(0xa0)\n  shr(0x60, mload(0xc0))\n  mload(0xe0)\n  mload(0x0100)\n  mload(0x0120)\n  mload(0x0140)\n  codecopy(0x00, dataOffset(sub_0), dataSize(sub_0))\n  0x00\n  assignImmutable(\"0xbbf5a24880b10a5f9f601c4058e4771ddea17e7d765ceb3c903814e1c0d621e0\")\n  0x00\n  assignImmutable(\"0x9560168699514dcd528543d614e81b4f36adf182dc624d2f1eb91df8addd987e\")\n  0x00\n  assignImmutable(\"0x9cce9eb03c9f29c6481fca9f0f942b15bef0bbbc47fda0ddb44df157019835d9\")\n  0x00\n  assignImmutable(\"0x6585423cb6456b1d4957f6454d2f004f0c4f58d53a00082412d5c2ef4b1b31fd\")\n  0x00\n  assignImmutable(\"0xd4d1a59767271eefdc7830a772b9732a11d503531d972ab8c981a6b1c0e666e5\")\n  0x00\n  assignImmutable(\"0x731dc163f73d31d8c68f9917ce4ff967753939f70432973c04fd2c2a48148607\")\n  0x00\n  assignImmutable(\"0x8fef2229291b68be841adf029e58b87f39ba144b2d3b0af1760243d0a9bc6a1c\")\n  return(0x00, dataSize(sub_0))\nstop\n\nsub_0: assembly {\n        /* \"case/43_DutchNFTAuction.sol\":288:2134  contract DutchNFTAuction{... */\n      mstore(0x40, 0x80)\n      jumpi(tag_1, lt(calldatasize, 0x04))\n      shr(0xe0, calldataload(0x00))\n      dup1\n      0xc6bc5182\n      gt\n      tag_10\n      jumpi\n      dup1\n      0xc6bc5182\n      eq\n      tag_6\n      jumpi\n      dup1\n      0xc7446565\n      eq\n      tag_7\n      jumpi\n      dup1\n      0xd6fbf202\n      eq\n      tag_8\n      jumpi\n      dup1\n      0xe6c0e6d5\n      eq\n      tag_9\n      jumpi\n      jump(tag_1)\n    tag_10:\n      dup1\n      0x08551a53\n      eq\n      tag_2\n      jumpi\n      dup1\n      0x47ccca02\n      eq\n      tag_3\n      jumpi\n      dup1\n      0x98d5fdca\n      eq\n      tag_4\n      jumpi\n      dup1\n      0xa6f2ae3a\n      eq\n      tag_5\n      jumpi\n    tag_1:\n      0x00\n      dup1\n      revert\n        /* \"case/43_DutchNFTAuction.sol\":522:561  address payable public immutable seller */\n    tag_2:\n      callvalue\n      dup1\n      iszero\n      tag_11\n      jumpi\n      0x00\n      dup1\n      revert\n    tag_11:\n      pop\n      tag_12\n      tag_13\n      jump\t// in\n    tag_12:\n      mload(0x40)\n      tag_14\n      swap2\n      swap1\n      tag_15\n      jump\t// in\n    tag_14:\n      mload(0x40)\n      dup1\n      swap2\n      sub\n      swap1\n      return\n        /* \"case/43_DutchNFTAuction.sol\":364:392  IERC721 public immutable nft */\n    tag_3:\n      callvalue\n      dup1\n      iszero\n      tag_16\n      jumpi\n      0x00\n      dup1\n      revert\n    tag_16:\n      pop\n      tag_17\n      tag_18\n      jump\t// in\n    tag_17:\n      mload(0x40)\n      tag_19\n      swap2\n      swap1\n      tag_20\n      jump\t// in\n    tag_19:\n      mload(0x40)\n      dup1\n      swap2\n      sub\n      swap1\n      return\n        /* \"case/43_DutchNFTAuction.sol\":1390:1591  function getPrice() public view returns (uint) {... */\n    tag_4:\n      callvalue\n      dup1\n      iszero\n      tag_21\n      jumpi\n      0x00\n      dup1\n      revert\n    tag_21:\n      pop\n      tag_22\n      tag_23\n      jump\t// in\n    tag_22:\n      mload(0x40)\n      tag_24\n      swap2\n      swap1\n      tag_25\n      jump\t// in\n    tag_24:\n      mload(0x40)\n      dup1\n      swap2\n      sub\n      swap1\n      return\n        /* \"case/43_DutchNFTAuction.sol\":1597:2132  function buy() external payable {... */\n    tag_5:\n      tag_26\n      tag_27\n      jump\t// in\n    tag_26:\n      stop\n        /* \"case/43_DutchNFTAuction.sol\":469:496  uint public immutable nftId */\n    tag_6:\n      callvalue\n      dup1\n      iszero\n      tag_28\n      jumpi\n      0x00\n      dup1\n      revert\n    tag_28:\n      pop\n      tag_29\n      tag_30\n      jump\t// in\n    tag_29:\n      mload(0x40)\n      tag_31\n      swap2\n      swap1\n      tag_25\n      jump\t// in\n    tag_31:\n      mload(0x40)\n      dup1\n      swap2\n      sub\n      swap1\n      return\n        /* \"case/43_DutchNFTAuction.sol\":648:677  uint public immutable startAt */\n    tag_7:\n      callvalue\n      dup1\n      iszero\n      tag_32\n      jumpi\n      0x00\n      dup1\n      revert\n    tag_32:\n      pop\n      tag_33\n      tag_34\n      jump\t// in\n    tag_33:\n      mload(0x40)\n      tag_35\n      swap2\n      swap1\n      tag_25\n      jump\t// in\n    tag_35:\n      mload(0x40)\n      dup1\n      swap2\n      sub\n      swap1\n      return\n        /* \"case/43_DutchNFTAuction.sol\":587:622  uint public immutable startingPrice */\n    tag_8:\n      callvalue\n      dup1\n      iszero\n      tag_36\n      jumpi\n      0x00\n      dup1\n      revert\n    tag_36:\n      pop\n      tag_37\n      tag_38\n      jump\t// in\n    tag_37:\n      mload(0x40)\n      tag_39\n      swap2\n      swap1\n      tag_25\n      jump\t// in\n    tag_39:\n      mload(0x40)\n      dup1\n      swap2\n      sub\n      swap1\n      return\n        /* \"case/43_DutchNFTAuction.sol\":761:795  uint public immutable discountRate */\n    tag_9:\n      callvalue\n      dup1\n      iszero\n      tag_40\n      jumpi\n      0x00\n      dup1\n      revert\n    tag_40:\n      pop\n      tag_41\n      tag_42\n      jump\t// in\n    tag_41:\n      mload(0x40)\n      tag_43\n      swap2\n      swap1\n      tag_25\n      jump\t// in\n    tag_43:\n      mload(0x40)\n      dup1\n      swap2\n      sub\n      swap1\n      return\n        /* \"case/43_DutchNFTAuction.sol\":522:561  address payable public immutable seller */\n    tag_13:\n      immutable(\"0xd4d1a59767271eefdc7830a772b9732a11d503531d972ab8c981a6b1c0e666e5\")\n      dup2\n      jump\t// out\n        /* \"case/43_DutchNFTAuction.sol\":364:392  IERC721 public immutable nft */\n    tag_18:\n      immutable(\"0x8fef2229291b68be841adf029e58b87f39ba144b2d3b0af1760243d0a9bc6a1c\")\n      dup2\n      jump\t// out\n        /* \"case/43_DutchNFTAuction.sol\":1390:1591  function getPrice() public view returns (uint) {... */\n    tag_23:\n        /* \"case/43_DutchNFTAuction.sol\":1431:1435  uint */\n      0x00\n        /* \"case/43_DutchNFTAuction.sol\":1447:1463  uint timeElapsed */\n      dup1\n        /* \"case/43_DutchNFTAuction.sol\":1484:1491  startAt */\n      immutable(\"0x9cce9eb03c9f29c6481fca9f0f942b15bef0bbbc47fda0ddb44df157019835d9\")\n        /* \"case/43_DutchNFTAuction.sol\":1466:1481  block.timestamp */\n      timestamp\n        /* \"case/43_DutchNFTAuction.sol\":1466:1491  block.timestamp - startAt */\n      tag_45\n      swap2\n      swap1\n      tag_46\n      jump\t// in\n    tag_45:\n        /* \"case/43_DutchNFTAuction.sol\":1447:1491  uint timeElapsed = block.timestamp - startAt */\n      swap1\n      pop\n        /* \"case/43_DutchNFTAuction.sol\":1501:1514  uint discount */\n      0x00\n        /* \"case/43_DutchNFTAuction.sol\":1532:1543  timeElapsed */\n      dup2\n        /* \"case/43_DutchNFTAuction.sol\":1517:1529  discountRate */\n      immutable(\"0xbbf5a24880b10a5f9f601c4058e4771ddea17e7d765ceb3c903814e1c0d621e0\")\n        /* \"case/43_DutchNFTAuction.sol\":1517:1543  discountRate * timeElapsed */\n      tag_47\n      swap2\n      swap1\n      tag_48\n      jump\t// in\n    tag_47:\n        /* \"case/43_DutchNFTAuction.sol\":1501:1543  uint discount = discountRate * timeElapsed */\n      swap1\n      pop\n        /* \"case/43_DutchNFTAuction.sol\":1576:1584  discount */\n      dup1\n        /* \"case/43_DutchNFTAuction.sol\":1560:1573  startingPrice */\n      immutable(\"0x6585423cb6456b1d4957f6454d2f004f0c4f58d53a00082412d5c2ef4b1b31fd\")\n        /* \"case/43_DutchNFTAuction.sol\":1560:1584  startingPrice - discount */\n      tag_49\n      swap2\n      swap1\n      tag_46\n      jump\t// in\n    tag_49:\n        /* \"case/43_DutchNFTAuction.sol\":1553:1584  return startingPrice - discount */\n      swap3\n      pop\n      pop\n      pop\n        /* \"case/43_DutchNFTAuction.sol\":1390:1591  function getPrice() public view returns (uint) {... */\n      swap1\n      jump\t// out\n        /* \"case/43_DutchNFTAuction.sol\":1597:2132  function buy() external payable {... */\n    tag_27:\n        /* \"case/43_DutchNFTAuction.sol\":1665:1673  expireAt */\n      immutable(\"0x9560168699514dcd528543d614e81b4f36adf182dc624d2f1eb91df8addd987e\")\n        /* \"case/43_DutchNFTAuction.sol\":1647:1662  block.timestamp */\n      timestamp\n        /* \"case/43_DutchNFTAuction.sol\":1647:1673  block.timestamp < expireAt */\n      lt\n        /* \"case/43_DutchNFTAuction.sol\":1639:1693  require(block.timestamp < expireAt, \"auction expired\") */\n      tag_51\n      jumpi\n      mload(0x40)\n      0x08c379a000000000000000000000000000000000000000000000000000000000\n      dup2\n      mstore\n      0x04\n      add\n      tag_52\n      swap1\n      tag_53\n      jump\t// in\n    tag_52:\n      mload(0x40)\n      dup1\n      swap2\n      sub\n      swap1\n      revert\n    tag_51:\n        /* \"case/43_DutchNFTAuction.sol\":1703:1713  uint price */\n      0x00\n        /* \"case/43_DutchNFTAuction.sol\":1716:1726  getPrice() */\n      tag_54\n        /* \"case/43_DutchNFTAuction.sol\":1716:1724  getPrice */\n      tag_23\n        /* \"case/43_DutchNFTAuction.sol\":1716:1726  getPrice() */\n      jump\t// in\n    tag_54:\n        /* \"case/43_DutchNFTAuction.sol\":1703:1726  uint price = getPrice() */\n      swap1\n      pop\n        /* \"case/43_DutchNFTAuction.sol\":1757:1762  price */\n      dup1\n        /* \"case/43_DutchNFTAuction.sol\":1744:1753  msg.value */\n      callvalue\n        /* \"case/43_DutchNFTAuction.sol\":1744:1762  msg.value >= price */\n      lt\n      iszero\n        /* \"case/43_DutchNFTAuction.sol\":1736:1794  require(msg.value >= price, \"ETH < current auction price\") */\n      tag_55\n      jumpi\n      mload(0x40)\n      0x08c379a000000000000000000000000000000000000000000000000000000000\n      dup2\n      mstore\n      0x04\n      add\n      tag_56\n      swap1\n      tag_57\n      jump\t// in\n    tag_56:\n      mload(0x40)\n      dup1\n      swap2\n      sub\n      swap1\n      revert\n    tag_55:\n        /* \"case/43_DutchNFTAuction.sol\":1825:1828  nft */\n      immutable(\"0x8fef2229291b68be841adf029e58b87f39ba144b2d3b0af1760243d0a9bc6a1c\")\n        /* \"case/43_DutchNFTAuction.sol\":1825:1841  nft.transferFrom */\n      0xffffffffffffffffffffffffffffffffffffffff\n      and\n      0x23b872dd\n        /* \"case/43_DutchNFTAuction.sol\":1842:1848  seller */\n      immutable(\"0xd4d1a59767271eefdc7830a772b9732a11d503531d972ab8c981a6b1c0e666e5\")\n        /* \"case/43_DutchNFTAuction.sol\":1850:1860  msg.sender */\n      caller\n        /* \"case/43_DutchNFTAuction.sol\":1862:1867  nftId */\n      immutable(\"0x731dc163f73d31d8c68f9917ce4ff967753939f70432973c04fd2c2a48148607\")\n        /* \"case/43_DutchNFTAuction.sol\":1825:1868  nft.transferFrom(seller, msg.sender, nftId) */\n      mload(0x40)\n      dup5\n      0xffffffff\n      and\n      0xe0\n      shl\n      dup2\n      mstore\n      0x04\n      add\n      tag_58\n      swap4\n      swap3\n      swap2\n      swap1\n      tag_59\n      jump\t// in\n    tag_58:\n      0x00\n      mload(0x40)\n      dup1\n      dup4\n      sub\n      dup2\n      0x00\n      dup8\n      dup1\n      extcodesize\n      iszero\n      dup1\n      iszero\n      tag_60\n      jumpi\n      0x00\n      dup1\n      revert\n    tag_60:\n      pop\n      gas\n      call\n      iszero\n      dup1\n      iszero\n      tag_62\n      jumpi\n      returndatasize\n      0x00\n      dup1\n      returndatacopy\n      revert(0x00, returndatasize)\n    tag_62:\n      pop\n      pop\n      pop\n      pop\n        /* \"case/43_DutchNFTAuction.sol\":1878:1889  uint refund */\n      0x00\n        /* \"case/43_DutchNFTAuction.sol\":1904:1909  price */\n      dup2\n        /* \"case/43_DutchNFTAuction.sol\":1892:1901  msg.value */\n      callvalue\n        /* \"case/43_DutchNFTAuction.sol\":1892:1909  msg.value - price */\n      tag_63\n      swap2\n      swap1\n      tag_46\n      jump\t// in\n    tag_63:\n        /* \"case/43_DutchNFTAuction.sol\":1878:1909  uint refund = msg.value - price */\n      swap1\n      pop\n        /* \"case/43_DutchNFTAuction.sol\":1969:1970  0 */\n      0x00\n        /* \"case/43_DutchNFTAuction.sol\":1960:1966  refund */\n      dup2\n        /* \"case/43_DutchNFTAuction.sol\":1960:1970  refund > 0 */\n      gt\n        /* \"case/43_DutchNFTAuction.sol\":1957:2032  if(refund > 0){... */\n      iszero\n      tag_64\n      jumpi\n        /* \"case/43_DutchNFTAuction.sol\":1993:2003  msg.sender */\n      caller\n        /* \"case/43_DutchNFTAuction.sol\":1985:2013  payable(msg.sender).transfer */\n      0xffffffffffffffffffffffffffffffffffffffff\n      and\n        /* \"case/43_DutchNFTAuction.sol\":1985:2021  payable(msg.sender).transfer(refund) */\n      0x08fc\n        /* \"case/43_DutchNFTAuction.sol\":2014:2020  refund */\n      dup3\n        /* \"case/43_DutchNFTAuction.sol\":1985:2021  payable(msg.sender).transfer(refund) */\n      swap1\n      dup2\n      iszero\n      mul\n      swap1\n      mload(0x40)\n      0x00\n      mload(0x40)\n      dup1\n      dup4\n      sub\n      dup2\n      dup6\n      dup9\n      dup9\n      call\n      swap4\n      pop\n      pop\n      pop\n      pop\n      iszero\n      dup1\n      iszero\n      tag_66\n      jumpi\n      returndatasize\n      0x00\n      dup1\n      returndatacopy\n      revert(0x00, returndatasize)\n    tag_66:\n      pop\n        /* \"case/43_DutchNFTAuction.sol\":1957:2032  if(refund > 0){... */\n    tag_64:\n        /* \"case/43_DutchNFTAuction.sol\":2118:2124  seller */\n      immutable(\"0xd4d1a59767271eefdc7830a772b9732a11d503531d972ab8c981a6b1c0e666e5\")\n        /* \"case/43_DutchNFTAuction.sol\":2105:2125  selfdestruct(seller) */\n      0xffffffffffffffffffffffffffffffffffffffff\n      and\n      selfdestruct\n        /* \"case/43_DutchNFTAuction.sol\":469:496  uint public immutable nftId */\n    tag_30:\n      immutable(\"0x731dc163f73d31d8c68f9917ce4ff967753939f70432973c04fd2c2a48148607\")\n      dup2\n      jump\t// out\n        /* \"case/43_DutchNFTAuction.sol\":648:677  uint public immutable startAt */\n    tag_34:\n      immutable(\"0x9cce9eb03c9f29c6481fca9f0f942b15bef0bbbc47fda0ddb44df157019835d9\")\n      dup2\n      jump\t// out\n        /* \"case/43_DutchNFTAuction.sol\":587:622  uint public immutable startingPrice */\n    tag_38:\n      immutable(\"0x6585423cb6456b1d4957f6454d2f004f0c4f58d53a00082412d5c2ef4b1b31fd\")\n      dup2\n      jump\t// out\n        /* \"case/43_DutchNFTAuction.sol\":761:795  uint public immutable discountRate */\n    tag_42:\n      immutable(\"0xbbf5a24880b10a5f9f601c4058e4771ddea17e7d765ceb3c903814e1c0d621e0\")\n      dup2\n      jump\t// out\n        /* \"#utility.yul\":7:154   */\n    tag_68:\n        /* \"#utility.yul\":102:147   */\n      tag_70\n        /* \"#utility.yul\":141:146   */\n      dup2\n        /* \"#utility.yul\":102:147   */\n      tag_71\n      jump\t// in\n    tag_70:\n        /* \"#utility.yul\":97:100   */\n      dup3\n        /* \"#utility.yul\":90:148   */\n      mstore\n        /* \"#utility.yul\":7:154   */\n      pop\n      pop\n      jump\t// out\n        /* \"#utility.yul\":160:302   */\n    tag_72:\n        /* \"#utility.yul\":263:295   */\n      tag_74\n        /* \"#utility.yul\":289:294   */\n      dup2\n        /* \"#utility.yul\":263:295   */\n      tag_75\n      jump\t// in\n    tag_74:\n        /* \"#utility.yul\":258:261   */\n      dup3\n        /* \"#utility.yul\":251:296   */\n      mstore\n        /* \"#utility.yul\":160:302   */\n      pop\n      pop\n      jump\t// out\n        /* \"#utility.yul\":308:426   */\n    tag_76:\n        /* \"#utility.yul\":395:419   */\n      tag_78\n        /* \"#utility.yul\":413:418   */\n      dup2\n        /* \"#utility.yul\":395:419   */\n      tag_79\n      jump\t// in\n    tag_78:\n        /* \"#utility.yul\":390:393   */\n      dup3\n        /* \"#utility.yul\":383:420   */\n      mstore\n        /* \"#utility.yul\":308:426   */\n      pop\n      pop\n      jump\t// out\n        /* \"#utility.yul\":432:591   */\n    tag_80:\n        /* \"#utility.yul\":533:584   */\n      tag_82\n        /* \"#utility.yul\":578:583   */\n      dup2\n        /* \"#utility.yul\":533:584   */\n      tag_83\n      jump\t// in\n    tag_82:\n        /* \"#utility.yul\":528:531   */\n      dup3\n        /* \"#utility.yul\":521:585   */\n      mstore\n        /* \"#utility.yul\":432:591   */\n      pop\n      pop\n      jump\t// out\n        /* \"#utility.yul\":597:963   */\n    tag_84:\n        /* \"#utility.yul\":739:742   */\n      0x00\n        /* \"#utility.yul\":760:827   */\n      tag_86\n        /* \"#utility.yul\":824:826   */\n      0x1b\n        /* \"#utility.yul\":819:822   */\n      dup4\n        /* \"#utility.yul\":760:827   */\n      tag_87\n      jump\t// in\n    tag_86:\n        /* \"#utility.yul\":753:827   */\n      swap2\n      pop\n        /* \"#utility.yul\":836:929   */\n      tag_88\n        /* \"#utility.yul\":925:928   */\n      dup3\n        /* \"#utility.yul\":836:929   */\n      tag_89\n      jump\t// in\n    tag_88:\n        /* \"#utility.yul\":954:956   */\n      0x20\n        /* \"#utility.yul\":949:952   */\n      dup3\n        /* \"#utility.yul\":945:957   */\n      add\n        /* \"#utility.yul\":938:957   */\n      swap1\n      pop\n        /* \"#utility.yul\":597:963   */\n      swap2\n      swap1\n      pop\n      jump\t// out\n        /* \"#utility.yul\":969:1335   */\n    tag_90:\n        /* \"#utility.yul\":1111:1114   */\n      0x00\n        /* \"#utility.yul\":1132:1199   */\n      tag_92\n        /* \"#utility.yul\":1196:1198   */\n      0x0f\n        /* \"#utility.yul\":1191:1194   */\n      dup4\n        /* \"#utility.yul\":1132:1199   */\n      tag_87\n      jump\t// in\n    tag_92:\n        /* \"#utility.yul\":1125:1199   */\n      swap2\n      pop\n        /* \"#utility.yul\":1208:1301   */\n      tag_93\n        /* \"#utility.yul\":1297:1300   */\n      dup3\n        /* \"#utility.yul\":1208:1301   */\n      tag_94\n      jump\t// in\n    tag_93:\n        /* \"#utility.yul\":1326:1328   */\n      0x20\n        /* \"#utility.yul\":1321:1324   */\n      dup3\n        /* \"#utility.yul\":1317:1329   */\n      add\n        /* \"#utility.yul\":1310:1329   */\n      swap1\n      pop\n        /* \"#utility.yul\":969:1335   */\n      swap2\n      swap1\n      pop\n      jump\t// out\n        /* \"#utility.yul\":1341:1459   */\n    tag_95:\n        /* \"#utility.yul\":1428:1452   */\n      tag_97\n        /* \"#utility.yul\":1446:1451   */\n      dup2\n        /* \"#utility.yul\":1428:1452   */\n      tag_98\n      jump\t// in\n    tag_97:\n        /* \"#utility.yul\":1423:1426   */\n      dup3\n        /* \"#utility.yul\":1416:1453   */\n      mstore\n        /* \"#utility.yul\":1341:1459   */\n      pop\n      pop\n      jump\t// out\n        /* \"#utility.yul\":1465:1719   */\n    tag_15:\n        /* \"#utility.yul\":1574:1578   */\n      0x00\n        /* \"#utility.yul\":1612:1614   */\n      0x20\n        /* \"#utility.yul\":1601:1610   */\n      dup3\n        /* \"#utility.yul\":1597:1615   */\n      add\n        /* \"#utility.yul\":1589:1615   */\n      swap1\n      pop\n        /* \"#utility.yul\":1625:1712   */\n      tag_100\n        /* \"#utility.yul\":1709:1710   */\n      0x00\n        /* \"#utility.yul\":1698:1707   */\n      dup4\n        /* \"#utility.yul\":1694:1711   */\n      add\n        /* \"#utility.yul\":1685:1691   */\n      dup5\n        /* \"#utility.yul\":1625:1712   */\n      tag_72\n      jump\t// in\n    tag_100:\n        /* \"#utility.yul\":1465:1719   */\n      swap3\n      swap2\n      pop\n      pop\n      jump\t// out\n        /* \"#utility.yul\":1725:2183   */\n    tag_59:\n        /* \"#utility.yul\":1882:1886   */\n      0x00\n        /* \"#utility.yul\":1920:1922   */\n      0x60\n        /* \"#utility.yul\":1909:1918   */\n      dup3\n        /* \"#utility.yul\":1905:1923   */\n      add\n        /* \"#utility.yul\":1897:1923   */\n      swap1\n      pop\n        /* \"#utility.yul\":1933:2012   */\n      tag_102\n        /* \"#utility.yul\":2009:2010   */\n      0x00\n        /* \"#utility.yul\":1998:2007   */\n      dup4\n        /* \"#utility.yul\":1994:2011   */\n      add\n        /* \"#utility.yul\":1985:1991   */\n      dup7\n        /* \"#utility.yul\":1933:2012   */\n      tag_68\n      jump\t// in\n    tag_102:\n        /* \"#utility.yul\":2022:2094   */\n      tag_103\n        /* \"#utility.yul\":2090:2092   */\n      0x20\n        /* \"#utility.yul\":2079:2088   */\n      dup4\n        /* \"#utility.yul\":2075:2093   */\n      add\n        /* \"#utility.yul\":2066:2072   */\n      dup6\n        /* \"#utility.yul\":2022:2094   */\n      tag_76\n      jump\t// in\n    tag_103:\n        /* \"#utility.yul\":2104:2176   */\n      tag_104\n        /* \"#utility.yul\":2172:2174   */\n      0x40\n        /* \"#utility.yul\":2161:2170   */\n      dup4\n        /* \"#utility.yul\":2157:2175   */\n      add\n        /* \"#utility.yul\":2148:2154   */\n      dup5\n        /* \"#utility.yul\":2104:2176   */\n      tag_95\n      jump\t// in\n    tag_104:\n        /* \"#utility.yul\":1725:2183   */\n      swap5\n      swap4\n      pop\n      pop\n      pop\n      pop\n      jump\t// out\n        /* \"#utility.yul\":2189:2439   */\n    tag_20:\n        /* \"#utility.yul\":2296:2300   */\n      0x00\n        /* \"#utility.yul\":2334:2336   */\n      0x20\n        /* \"#utility.yul\":2323:2332   */\n      dup3\n        /* \"#utility.yul\":2319:2337   */\n      add\n        /* \"#utility.yul\":2311:2337   */\n      swap1\n      pop\n        /* \"#utility.yul\":2347:2432   */\n      tag_106\n        /* \"#utility.yul\":2429:2430   */\n      0x00\n        /* \"#utility.yul\":2418:2427   */\n      dup4\n        /* \"#utility.yul\":2414:2431   */\n      add\n        /* \"#utility.yul\":2405:2411   */\n      dup5\n        /* \"#utility.yul\":2347:2432   */\n      tag_80\n      jump\t// in\n    tag_106:\n        /* \"#utility.yul\":2189:2439   */\n      swap3\n      swap2\n      pop\n      pop\n      jump\t// out\n        /* \"#utility.yul\":2445:2864   */\n    tag_57:\n        /* \"#utility.yul\":2611:2615   */\n      0x00\n        /* \"#utility.yul\":2649:2651   */\n      0x20\n        /* \"#utility.yul\":2638:2647   */\n      dup3\n        /* \"#utility.yul\":2634:2652   */\n      add\n        /* \"#utility.yul\":2626:2652   */\n      swap1\n      pop\n        /* \"#utility.yul\":2698:2707   */\n      dup2\n        /* \"#utility.yul\":2692:2696   */\n      dup2\n        /* \"#utility.yul\":2688:2708   */\n      sub\n        /* \"#utility.yul\":2684:2685   */\n      0x00\n        /* \"#utility.yul\":2673:2682   */\n      dup4\n        /* \"#utility.yul\":2669:2686   */\n      add\n        /* \"#utility.yul\":2662:2709   */\n      mstore\n        /* \"#utility.yul\":2726:2857   */\n      tag_108\n        /* \"#utility.yul\":2852:2856   */\n      dup2\n        /* \"#utility.yul\":2726:2857   */\n      tag_84\n      jump\t// in\n    tag_108:\n        /* \"#utility.yul\":2718:2857   */\n      swap1\n      pop\n        /* \"#utility.yul\":2445:2864   */\n      swap2\n      swap1\n      pop\n      jump\t// out\n        /* \"#utility.yul\":2870:3289   */\n    tag_53:\n        /* \"#utility.yul\":3036:3040   */\n      0x00\n        /* \"#utility.yul\":3074:3076   */\n      0x20\n        /* \"#utility.yul\":3063:3072   */\n      dup3\n        /* \"#utility.yul\":3059:3077   */\n      add\n        /* \"#utility.yul\":3051:3077   */\n      swap1\n      pop\n        /* \"#utility.yul\":3123:3132   */\n      dup2\n        /* \"#utility.yul\":3117:3121   */\n      dup2\n        /* \"#utility.yul\":3113:3133   */\n      sub\n        /* \"#utility.yul\":3109:3110   */\n      0x00\n        /* \"#utility.yul\":3098:3107   */\n      dup4\n        /* \"#utility.yul\":3094:3111   */\n      add\n        /* \"#utility.yul\":3087:3134   */\n      mstore\n        /* \"#utility.yul\":3151:3282   */\n      tag_110\n        /* \"#utility.yul\":3277:3281   */\n      dup2\n        /* \"#utility.yul\":3151:3282   */\n      tag_90\n      jump\t// in\n    tag_110:\n        /* \"#utility.yul\":3143:3282   */\n      swap1\n      pop\n        /* \"#utility.yul\":2870:3289   */\n      swap2\n      swap1\n      pop\n      jump\t// out\n        /* \"#utility.yul\":3295:3517   */\n    tag_25:\n        /* \"#utility.yul\":3388:3392   */\n      0x00\n        /* \"#utility.yul\":3426:3428   */\n      0x20\n        /* \"#utility.yul\":3415:3424   */\n      dup3\n        /* \"#utility.yul\":3411:3429   */\n      add\n        /* \"#utility.yul\":3403:3429   */\n      swap1\n      pop\n        /* \"#utility.yul\":3439:3510   */\n      tag_112\n        /* \"#utility.yul\":3507:3508   */\n      0x00\n        /* \"#utility.yul\":3496:3505   */\n      dup4\n        /* \"#utility.yul\":3492:3509   */\n      add\n        /* \"#utility.yul\":3483:3489   */\n      dup5\n        /* \"#utility.yul\":3439:3510   */\n      tag_95\n      jump\t// in\n    tag_112:\n        /* \"#utility.yul\":3295:3517   */\n      swap3\n      swap2\n      pop\n      pop\n      jump\t// out\n        /* \"#utility.yul\":3523:3692   */\n    tag_87:\n        /* \"#utility.yul\":3607:3618   */\n      0x00\n        /* \"#utility.yul\":3641:3647   */\n      dup3\n        /* \"#utility.yul\":3636:3639   */\n      dup3\n        /* \"#utility.yul\":3629:3648   */\n      mstore\n        /* \"#utility.yul\":3681:3685   */\n      0x20\n        /* \"#utility.yul\":3676:3679   */\n      dup3\n        /* \"#utility.yul\":3672:3686   */\n      add\n        /* \"#utility.yul\":3657:3686   */\n      swap1\n      pop\n        /* \"#utility.yul\":3523:3692   */\n      swap3\n      swap2\n      pop\n      pop\n      jump\t// out\n        /* \"#utility.yul\":3698:4046   */\n    tag_48:\n        /* \"#utility.yul\":3738:3745   */\n      0x00\n        /* \"#utility.yul\":3761:3781   */\n      tag_115\n        /* \"#utility.yul\":3779:3780   */\n      dup3\n        /* \"#utility.yul\":3761:3781   */\n      tag_98\n      jump\t// in\n    tag_115:\n        /* \"#utility.yul\":3756:3781   */\n      swap2\n      pop\n        /* \"#utility.yul\":3795:3815   */\n      tag_116\n        /* \"#utility.yul\":3813:3814   */\n      dup4\n        /* \"#utility.yul\":3795:3815   */\n      tag_98\n      jump\t// in\n    tag_116:\n        /* \"#utility.yul\":3790:3815   */\n      swap3\n      pop\n        /* \"#utility.yul\":3983:3984   */\n      dup2\n        /* \"#utility.yul\":3915:3981   */\n      0xffffffffffffffffffffffffffffffffffffffffffffffffffffffffffffffff\n        /* \"#utility.yul\":3911:3985   */\n      div\n        /* \"#utility.yul\":3908:3909   */\n      dup4\n        /* \"#utility.yul\":3905:3986   */\n      gt\n        /* \"#utility.yul\":3900:3901   */\n      dup3\n        /* \"#utility.yul\":3893:3902   */\n      iszero\n        /* \"#utility.yul\":3886:3903   */\n      iszero\n        /* \"#utility.yul\":3882:3987   */\n      and\n        /* \"#utility.yul\":3879:4010   */\n      iszero\n      tag_117\n      jumpi\n        /* \"#utility.yul\":3990:4008   */\n      tag_118\n      tag_119\n      jump\t// in\n    tag_118:\n        /* \"#utility.yul\":3879:4010   */\n    tag_117:\n        /* \"#utility.yul\":4038:4039   */\n      dup3\n        /* \"#utility.yul\":4035:4036   */\n      dup3\n        /* \"#utility.yul\":4031:4040   */\n      mul\n        /* \"#utility.yul\":4020:4040   */\n      swap1\n      pop\n        /* \"#utility.yul\":3698:4046   */\n      swap3\n      swap2\n      pop\n      pop\n      jump\t// out\n        /* \"#utility.yul\":4052:4243   */\n    tag_46:\n        /* \"#utility.yul\":4092:4096   */\n      0x00\n        /* \"#utility.yul\":4112:4132   */\n      tag_121\n        /* \"#utility.yul\":4130:4131   */\n      dup3\n        /* \"#utility.yul\":4112:4132   */\n      tag_98\n      jump\t// in\n    tag_121:\n        /* \"#utility.yul\":4107:4132   */\n      swap2\n      pop\n        /* \"#utility.yul\":4146:4166   */\n      tag_122\n        /* \"#utility.yul\":4164:4165   */\n      dup4\n        /* \"#utility.yul\":4146:4166   */\n      tag_98\n      jump\t// in\n    tag_122:\n        /* \"#utility.yul\":4141:4166   */\n      swap3\n      pop\n        /* \"#utility.yul\":4185:4186   */\n      dup3\n        /* \"#utility.yul\":4182:4183   */\n      dup3\n        /* \"#utility.yul\":4179:4187   */\n      lt\n        /* \"#utility.yul\":4176:4210   */\n      iszero\n      tag_123\n      jumpi\n        /* \"#utility.yul\":4190:4208   */\n      tag_124\n      tag_119\n      jump\t// in\n    tag_124:\n        /* \"#utility.yul\":4176:4210   */\n    tag_123:\n        /* \"#utility.yul\":4235:4236   */\n      dup3\n        /* \"#utility.yul\":4232:4233   */\n      dup3\n        /* \"#utility.yul\":4228:4237   */\n      sub\n        /* \"#utility.yul\":4220:4237   */\n      swap1\n      pop\n        /* \"#utility.yul\":4052:4243   */\n      swap3\n      swap2\n      pop\n      pop\n      jump\t// out\n        /* \"#utility.yul\":4249:4345   */\n    tag_79:\n        /* \"#utility.yul\":4286:4293   */\n      0x00\n        /* \"#utility.yul\":4315:4339   */\n      tag_126\n        /* \"#utility.yul\":4333:4338   */\n      dup3\n        /* \"#utility.yul\":4315:4339   */\n      tag_127\n      jump\t// in\n    tag_126:\n        /* \"#utility.yul\":4304:4339   */\n      swap1\n      pop\n        /* \"#utility.yul\":4249:4345   */\n      swap2\n      swap1\n      pop\n      jump\t// out\n        /* \"#utility.yul\":4351:4455   */\n    tag_75:\n        /* \"#utility.yul\":4396:4403   */\n      0x00\n        /* \"#utility.yul\":4425:4449   */\n      tag_129\n        /* \"#utility.yul\":4443:4448   */\n      dup3\n        /* \"#utility.yul\":4425:4449   */\n      tag_127\n      jump\t// in\n    tag_129:\n        /* \"#utility.yul\":4414:4449   */\n      swap1\n      pop\n        /* \"#utility.yul\":4351:4455   */\n      swap2\n      swap1\n      pop\n      jump\t// out\n        /* \"#utility.yul\":4461:4587   */\n    tag_127:\n        /* \"#utility.yul\":4498:4505   */\n      0x00\n        /* \"#utility.yul\":4538:4580   */\n      0xffffffffffffffffffffffffffffffffffffffff\n        /* \"#utility.yul\":4531:4536   */\n      dup3\n        /* \"#utility.yul\":4527:4581   */\n      and\n        /* \"#utility.yul\":4516:4581   */\n      swap1\n      pop\n        /* \"#utility.yul\":4461:4587   */\n      swap2\n      swap1\n      pop\n      jump\t// out\n        /* \"#utility.yul\":4593:4670   */\n    tag_98:\n        /* \"#utility.yul\":4630:4637   */\n      0x00\n        /* \"#utility.yul\":4659:4664   */\n      dup2\n        /* \"#utility.yul\":4648:4664   */\n      swap1\n      pop\n        /* \"#utility.yul\":4593:4670   */\n      swap2\n      swap1\n      pop\n      jump\t// out\n        /* \"#utility.yul\":4676:4810   */\n    tag_71:\n        /* \"#utility.yul\":4734:4743   */\n      0x00\n        /* \"#utility.yul\":4767:4804   */\n      tag_133\n        /* \"#utility.yul\":4798:4803   */\n      dup3\n        /* \"#utility.yul\":4767:4804   */\n      tag_134\n      jump\t// in\n    tag_133:\n        /* \"#utility.yul\":4754:4804   */\n      swap1\n      pop\n        /* \"#utility.yul\":4676:4810   */\n      swap2\n      swap1\n      pop\n      jump\t// out\n        /* \"#utility.yul\":4816:4956   */\n    tag_83:\n        /* \"#utility.yul\":4880:4889   */\n      0x00\n        /* \"#utility.yul\":4913:4950   */\n      tag_136\n        /* \"#utility.yul\":4944:4949   */\n      dup3\n        /* \"#utility.yul\":4913:4950   */\n      tag_134\n      jump\t// in\n    tag_136:\n        /* \"#utility.yul\":4900:4950   */\n      swap1\n      pop\n        /* \"#utility.yul\":4816:4956   */\n      swap2\n      swap1\n      pop\n      jump\t// out\n        /* \"#utility.yul\":4962:5088   */\n    tag_134:\n        /* \"#utility.yul\":5012:5021   */\n      0x00\n        /* \"#utility.yul\":5045:5082   */\n      tag_138\n        /* \"#utility.yul\":5076:5081   */\n      dup3\n        /* \"#utility.yul\":5045:5082   */\n      tag_139\n      jump\t// in\n    tag_138:\n        /* \"#utility.yul\":5032:5082   */\n      swap1\n      pop\n        /* \"#utility.yul\":4962:5088   */\n      swap2\n      swap1\n      pop\n      jump\t// out\n        /* \"#utility.yul\":5094:5207   */\n    tag_139:\n        /* \"#utility.yul\":5144:5153   */\n      0x00\n        /* \"#utility.yul\":5177:5201   */\n      tag_141\n        /* \"#utility.yul\":5195:5200   */\n      dup3\n        /* \"#utility.yul\":5177:5201   */\n      tag_127\n      jump\t// in\n    tag_141:\n        /* \"#utility.yul\":5164:5201   */\n      swap1\n      pop\n        /* \"#utility.yul\":5094:5207   */\n      swap2\n      swap1\n      pop\n      jump\t// out\n        /* \"#utility.yul\":5213:5393   */\n    tag_119:\n        /* \"#utility.yul\":5261:5338   */\n      0x4e487b7100000000000000000000000000000000000000000000000000000000\n        /* \"#utility.yul\":5258:5259   */\n      0x00\n        /* \"#utility.yul\":5251:5339   */\n      mstore\n        /* \"#utility.yul\":5358:5362   */\n      0x11\n        /* \"#utility.yul\":5355:5356   */\n      0x04\n        /* \"#utility.yul\":5348:5363   */\n      mstore\n        /* \"#utility.yul\":5382:5386   */\n      0x24\n        /* \"#utility.yul\":5379:5380   */\n      0x00\n        /* \"#utility.yul\":5372:5387   */\n      revert\n        /* \"#utility.yul\":5399:5576   */\n    tag_89:\n        /* \"#utility.yul\":5539:5568   */\n      0x455448203c2063757272656e742061756374696f6e2070726963650000000000\n        /* \"#utility.yul\":5535:5536   */\n      0x00\n        /* \"#utility.yul\":5527:5533   */\n      dup3\n        /* \"#utility.yul\":5523:5537   */\n      add\n        /* \"#utility.yul\":5516:5569   */\n      mstore\n        /* \"#utility.yul\":5399:5576   */\n      pop\n      jump\t// out\n        /* \"#utility.yul\":5582:5747   */\n    tag_94:\n        /* \"#utility.yul\":5722:5739   */\n      0x61756374696f6e20657870697265640000000000000000000000000000000000\n        /* \"#utility.yul\":5718:5719   */\n      0x00\n        /* \"#utility.yul\":5710:5716   */\n      dup3\n        /* \"#utility.yul\":5706:5720   */\n      add\n        /* \"#utility.yul\":5699:5740   */\n      mstore\n        /* \"#utility.yul\":5582:5747   */\n      pop\n      jump\t// out\n\n    auxdata: 0xa26469706673582212209c042964558d616d0d201777cf63aafe761fe0134e63c0b85cffb2253c879dac64736f6c63430008070033\n}\n",
				"bytecode": {
					"linkReferences": {},
					"object": "6101606040523480156200001257600080fd5b5060405162000d0238038062000d0283398181016040528101906200003891906200016f565b3373ffffffffffffffffffffffffffffffffffffffff1660c08173ffffffffffffffffffffffffffffffffffffffff1660601b815250508360e0818152505082610140818152505042610100818152505062093a80426200009a91906200023b565b610120818152505062093a8083620000b3919062000298565b841015620000f8576040517f08c379a0000000000000000000000000000000000000000000000000000000008152600401620000ef9062000208565b60405180910390fd5b8173ffffffffffffffffffffffffffffffffffffffff1660808173ffffffffffffffffffffffffffffffffffffffff1660601b815250508060a0818152505050505050620003ee565b6000815190506200015281620003ba565b92915050565b6000815190506200016981620003d4565b92915050565b600080600080608085870312156200018c576200018b62000366565b5b60006200019c8782880162000158565b9450506020620001af8782880162000158565b9350506040620001c28782880162000141565b9250506060620001d58782880162000158565b91505092959194509250565b6000620001f06024836200022a565b9150620001fd826200036b565b604082019050919050565b600060208201905081810360008301526200022381620001e1565b9050919050565b600082825260208201905092915050565b600062000248826200032d565b915062000255836200032d565b9250827fffffffffffffffffffffffffffffffffffffffffffffffffffffffffffffffff038211156200028d576200028c62000337565b5b828201905092915050565b6000620002a5826200032d565b9150620002b2836200032d565b9250817fffffffffffffffffffffffffffffffffffffffffffffffffffffffffffffffff0483118215151615620002ee57620002ed62000337565b5b828202905092915050565b600062000306826200030d565b9050919050565b600073ffffffffffffffffffffffffffffffffffffffff82169050919050565b6000819050919050565b7f4e487b7100000000000000000000000000000000000000000000000000000000600052601160045260246000fd5b600080fd5b7f7374617274696e67207072696365203c20646973636f756e74202a206475726160008201527f74696f6e00000000000000000000000000000000000000000000000000000000602082015250565b620003c581620002f9565b8114620003d157600080fd5b50565b620003df816200032d565b8114620003eb57600080fd5b50565b60805160601c60a05160c05160601c60e0516101005161012051610140516108826200048060003960008181610235015261051b0152600061029501526000818161020401526104d301526000818161026301526104f70152600081816101b90152818161038201526104760152600081816103a401526104af0152600081816101dd015261034601526108826000f3fe60806040526004361061007b5760003560e01c8063c6bc51821161004e578063c6bc51821461010b578063c744656514610136578063d6fbf20214610161578063e6c0e6d51461018c5761007b565b806308551a531461008057806347ccca02146100ab57806398d5fdca146100d6578063a6f2ae3a14610101575b600080fd5b34801561008c57600080fd5b506100956101b7565b6040516100a291906105ce565b60405180910390f35b3480156100b757600080fd5b506100c06101db565b6040516100cd9190610620565b60405180910390f35b3480156100e257600080fd5b506100eb6101ff565b6040516100f8919061067b565b60405180910390f35b610109610293565b005b34801561011757600080fd5b506101206104ad565b60405161012d919061067b565b60405180910390f35b34801561014257600080fd5b5061014b6104d1565b604051610158919061067b565b60405180910390f35b34801561016d57600080fd5b506101766104f5565b604051610183919061067b565b60405180910390f35b34801561019857600080fd5b506101a1610519565b6040516101ae919061067b565b60405180910390f35b7f000000000000000000000000000000000000000000000000000000000000000081565b7f000000000000000000000000000000000000000000000000000000000000000081565b6000807f00000000000000000000000000000000000000000000000000000000000000004261022e9190610701565b90506000817f000000000000000000000000000000000000000000000000000000000000000061025e91906106a7565b9050807f000000000000000000000000000000000000000000000000000000000000000061028c9190610701565b9250505090565b7f000000000000000000000000000000000000000000000000000000000000000042106102f5576040517f08c379a00000000000000000000000000000000000000000000000000000000081526004016102ec9061065b565b60405180910390fd5b60006102ff6101ff565b905080341015610344576040517f08c379a000000000000000000000000000000000000000000000000000000000815260040161033b9061063b565b60405180910390fd5b7f000000000000000000000000000000000000000000000000000000000000000073ffffffffffffffffffffffffffffffffffffffff166323b872dd7f0000000000000000000000000000000000000000000000000000000000000000337f00000000000000000000000000000000000000000000000000000000000000006040518463ffffffff1660e01b81526004016103e1939291906105e9565b600060405180830381600087803b1580156103fb57600080fd5b505af115801561040f573d6000803e3d6000fd5b50505050600081346104219190610701565b90506000811115610474573373ffffffffffffffffffffffffffffffffffffffff166108fc829081150290604051600060405180830381858888f19350505050158015610472573d6000803e3d6000fd5b505b7f000000000000000000000000000000000000000000000000000000000000000073ffffffffffffffffffffffffffffffffffffffff16ff5b7f000000000000000000000000000000000000000000000000000000000000000081565b7f000000000000000000000000000000000000000000000000000000000000000081565b7f000000000000000000000000000000000000000000000000000000000000000081565b7f000000000000000000000000000000000000000000000000000000000000000081565b61054681610783565b82525050565b61055581610747565b82525050565b61056481610735565b82525050565b61057381610795565b82525050565b6000610586601b83610696565b9150610591826107fa565b602082019050919050565b60006105a9600f83610696565b91506105b482610823565b602082019050919050565b6105c881610779565b82525050565b60006020820190506105e3600083018461054c565b92915050565b60006060820190506105fe600083018661053d565b61060b602083018561055b565b61061860408301846105bf565b949350505050565b6000602082019050610635600083018461056a565b92915050565b6000602082019050818103600083015261065481610579565b9050919050565b600060208201905081810360008301526106748161059c565b9050919050565b600060208201905061069060008301846105bf565b92915050565b600082825260208201905092915050565b60006106b282610779565b91506106bd83610779565b9250817fffffffffffffffffffffffffffffffffffffffffffffffffffffffffffffffff04831182151516156106f6576106f56107cb565b5b828202905092915050565b600061070c82610779565b915061071783610779565b92508282101561072a576107296107cb565b5b828203905092915050565b600061074082610759565b9050919050565b600061075282610759565b9050919050565b600073ffffffffffffffffffffffffffffffffffffffff82169050919050565b6000819050919050565b600061078e826107a7565b9050919050565b60006107a0826107a7565b9050919050565b60006107b2826107b9565b9050919050565b60006107c482610759565b9050919050565b7f4e487b7100000000000000000000000000000000000000000000000000000000600052601160045260246000fd5b7f455448203c2063757272656e742061756374696f6e2070726963650000000000600082015250565b7f61756374696f6e2065787069726564000000000000000000000000000000000060008201525056fea26469706673582212209c042964558d616d0d201777cf63aafe761fe0134e63c0b85cffb2253c879dac64736f6c63430008070033",
					"opcodes": "PUSH2 0x160 PUSH1 0x40 MSTORE CALLVALUE DUP1 ISZERO PUSH3 0x12 JUMPI PUSH1 0x0 DUP1 REVERT JUMPDEST POP PUSH1 0x40 MLOAD PUSH3 0xD02 CODESIZE SUB DUP1 PUSH3 0xD02 DUP4 CODECOPY DUP2 DUP2 ADD PUSH1 0x40 MSTORE DUP2 ADD SWAP1 PUSH3 0x38 SWAP2 SWAP1 PUSH3 0x16F JUMP JUMPDEST CALLER PUSH20 0xFFFFFFFFFFFFFFFFFFFFFFFFFFFFFFFFFFFFFFFF AND PUSH1 0xC0 DUP2 PUSH20 0xFFFFFFFFFFFFFFFFFFFFFFFFFFFFFFFFFFFFFFFF AND PUSH1 0x60 SHL DUP2 MSTORE POP POP DUP4 PUSH1 0xE0 DUP2 DUP2 MSTORE POP POP DUP3 PUSH2 0x140 DUP2 DUP2 MSTORE POP POP TIMESTAMP PUSH2 0x100 DUP2 DUP2 MSTORE POP POP PUSH3 0x93A80 TIMESTAMP PUSH3 0x9A SWAP2 SWAP1 PUSH3 0x23B JUMP JUMPDEST PUSH2 0x120 DUP2 DUP2 MSTORE POP POP PUSH3 0x93A80 DUP4 PUSH3 0xB3 SWAP2 SWAP1 PUSH3 0x298 JUMP JUMPDEST DUP5 LT ISZERO PUSH3 0xF8 JUMPI PUSH1 0x40 MLOAD PUSH32 0x8C379A000000000000000000000000000000000000000000000000000000000 DUP2 MSTORE PUSH1 0x4 ADD PUSH3 0xEF SWAP1 PUSH3 0x208 JUMP JUMPDEST PUSH1 0x40 MLOAD DUP1 SWAP2 SUB SWAP1 REVERT JUMPDEST DUP2 PUSH20 0xFFFFFFFFFFFFFFFFFFFFFFFFFFFFFFFFFFFFFFFF AND PUSH1 0x80 DUP2 PUSH20 0xFFFFFFFFFFFFFFFFFFFFFFFFFFFFFFFFFFFFFFFF AND PUSH1 0x60 SHL DUP2 MSTORE POP POP DUP1 PUSH1 0xA0 DUP2 DUP2 MSTORE POP POP POP POP POP POP PUSH3 0x3EE JUMP JUMPDEST PUSH1 0x0 DUP2 MLOAD SWAP1 POP PUSH3 0x152 DUP2 PUSH3 0x3BA JUMP JUMPDEST SWAP3 SWAP2 POP POP JUMP JUMPDEST PUSH1 0x0 DUP2 MLOAD SWAP1 POP PUSH3 0x169 DUP2 PUSH3 0x3D4 JUMP JUMPDEST SWAP3 SWAP2 POP POP JUMP JUMPDEST PUSH1 0x0 DUP1 PUSH1 0x0 DUP1 PUSH1 0x80 DUP6 DUP8 SUB SLT ISZERO PUSH3 0x18C JUMPI PUSH3 0x18B PUSH3 0x366 JUMP JUMPDEST JUMPDEST PUSH1 0x0 PUSH3 0x19C DUP8 DUP3 DUP9 ADD PUSH3 0x158 JUMP JUMPDEST SWAP5 POP POP PUSH1 0x20 PUSH3 0x1AF DUP8 DUP3 DUP9 ADD PUSH3 0x158 JUMP JUMPDEST SWAP4 POP POP PUSH1 0x40 PUSH3 0x1C2 DUP8 DUP3 DUP9 ADD PUSH3 0x141 JUMP JUMPDEST SWAP3 POP POP PUSH1 0x60 PUSH3 0x1D5 DUP8 DUP3 DUP9 ADD PUSH3 0x158 JUMP JUMPDEST SWAP2 POP POP SWAP3 SWAP6 SWAP2 SWAP5 POP SWAP3 POP JUMP JUMPDEST PUSH1 0x0 PUSH3 0x1F0 PUSH1 0x24 DUP4 PUSH3 0x22A JUMP JUMPDEST SWAP2 POP PUSH3 0x1FD DUP3 PUSH3 0x36B JUMP JUMPDEST PUSH1 0x40 DUP3 ADD SWAP1 POP SWAP2 SWAP1 POP JUMP JUMPDEST PUSH1 0x0 PUSH1 0x20 DUP3 ADD SWAP1 POP DUP2 DUP2 SUB PUSH1 0x0 DUP4 ADD MSTORE PUSH3 0x223 DUP2 PUSH3 0x1E1 JUMP JUMPDEST SWAP1 POP SWAP2 SWAP1 POP JUMP JUMPDEST PUSH1 0x0 DUP3 DUP3 MSTORE PUSH1 0x20 DUP3 ADD SWAP1 POP SWAP3 SWAP2 POP POP JUMP JUMPDEST PUSH1 0x0 PUSH3 0x248 DUP3 PUSH3 0x32D JUMP JUMPDEST SWAP2 POP PUSH3 0x255 DUP4 PUSH3 0x32D JUMP JUMPDEST SWAP3 POP DUP3 PUSH32 0xFFFFFFFFFFFFFFFFFFFFFFFFFFFFFFFFFFFFFFFFFFFFFFFFFFFFFFFFFFFFFFFF SUB DUP3 GT ISZERO PUSH3 0x28D JUMPI PUSH3 0x28C PUSH3 0x337 JUMP JUMPDEST JUMPDEST DUP3 DUP3 ADD SWAP1 POP SWAP3 SWAP2 POP POP JUMP JUMPDEST PUSH1 0x0 PUSH3 0x2A5 DUP3 PUSH3 0x32D JUMP JUMPDEST SWAP2 POP PUSH3 0x2B2 DUP4 PUSH3 0x32D JUMP JUMPDEST SWAP3 POP DUP2 PUSH32 0xFFFFFFFFFFFFFFFFFFFFFFFFFFFFFFFFFFFFFFFFFFFFFFFFFFFFFFFFFFFFFFFF DIV DUP4 GT DUP3 ISZERO ISZERO AND ISZERO PUSH3 0x2EE JUMPI PUSH3 0x2ED PUSH3 0x337 JUMP JUMPDEST JUMPDEST DUP3 DUP3 MUL SWAP1 POP SWAP3 SWAP2 POP POP JUMP JUMPDEST PUSH1 0x0 PUSH3 0x306 DUP3 PUSH3 0x30D JUMP JUMPDEST SWAP1 POP SWAP2 SWAP1 POP JUMP JUMPDEST PUSH1 0x0 PUSH20 0xFFFFFFFFFFFFFFFFFFFFFFFFFFFFFFFFFFFFFFFF DUP3 AND SWAP1 POP SWAP2 SWAP1 POP JUMP JUMPDEST PUSH1 0x0 DUP2 SWAP1 POP SWAP2 SWAP1 POP JUMP JUMPDEST PUSH32 0x4E487B7100000000000000000000000000000000000000000000000000000000 PUSH1 0x0 MSTORE PUSH1 0x11 PUSH1 0x4 MSTORE PUSH1 0x24 PUSH1 0x0 REVERT JUMPDEST PUSH1 0x0 DUP1 REVERT JUMPDEST PUSH32 0x7374617274696E67207072696365203C20646973636F756E74202A2064757261 PUSH1 0x0 DUP3 ADD MSTORE PUSH32 0x74696F6E00000000000000000000000000000000000000000000000000000000 PUSH1 0x20 DUP3 ADD MSTORE POP JUMP JUMPDEST PUSH3 0x3C5 DUP2 PUSH3 0x2F9 JUMP JUMPDEST DUP2 EQ PUSH3 0x3D1 JUMPI PUSH1 0x0 DUP1 REVERT JUMPDEST POP JUMP JUMPDEST PUSH3 0x3DF DUP2 PUSH3 0x32D JUMP JUMPDEST DUP2 EQ PUSH3 0x3EB JUMPI PUSH1 0x0 DUP1 REVERT JUMPDEST POP JUMP JUMPDEST PUSH1 0x80 MLOAD PUSH1 0x60 SHR PUSH1 0xA0 MLOAD PUSH1 0xC0 MLOAD PUSH1 0x60 SHR PUSH1 0xE0 MLOAD PUSH2 0x100 MLOAD PUSH2 0x120 MLOAD PUSH2 0x140 MLOAD PUSH2 0x882 PUSH3 0x480 PUSH1 0x0 CODECOPY PUSH1 0x0 DUP2 DUP2 PUSH2 0x235 ADD MSTORE PUSH2 0x51B ADD MSTORE PUSH1 0x0 PUSH2 0x295 ADD MSTORE PUSH1 0x0 DUP2 DUP2 PUSH2 0x204 ADD MSTORE PUSH2 0x4D3 ADD MSTORE PUSH1 0x0 DUP2 DUP2 PUSH2 0x263 ADD MSTORE PUSH2 0x4F7 ADD MSTORE PUSH1 0x0 DUP2 DUP2 PUSH2 0x1B9 ADD MSTORE DUP2 DUP2 PUSH2 0x382 ADD MSTORE PUSH2 0x476 ADD MSTORE PUSH1 0x0 DUP2 DUP2 PUSH2 0x3A4 ADD MSTORE PUSH2 0x4AF ADD MSTORE PUSH1 0x0 DUP2 DUP2 PUSH2 0x1DD ADD MSTORE PUSH2 0x346 ADD MSTORE PUSH2 0x882 PUSH1 0x0 RETURN INVALID PUSH1 0x80 PUSH1 0x40 MSTORE PUSH1 0x4 CALLDATASIZE LT PUSH2 0x7B JUMPI PUSH1 0x0 CALLDATALOAD PUSH1 0xE0 SHR DUP1 PUSH4 0xC6BC5182 GT PUSH2 0x4E JUMPI DUP1 PUSH4 0xC6BC5182 EQ PUSH2 0x10B JUMPI DUP1 PUSH4 0xC7446565 EQ PUSH2 0x136 JUMPI DUP1 PUSH4 0xD6FBF202 EQ PUSH2 0x161 JUMPI DUP1 PUSH4 0xE6C0E6D5 EQ PUSH2 0x18C JUMPI PUSH2 0x7B JUMP JUMPDEST DUP1 PUSH4 0x8551A53 EQ PUSH2 0x80 JUMPI DUP1 PUSH4 0x47CCCA02 EQ PUSH2 0xAB JUMPI DUP1 PUSH4 0x98D5FDCA EQ PUSH2 0xD6 JUMPI DUP1 PUSH4 0xA6F2AE3A EQ PUSH2 0x101 JUMPI JUMPDEST PUSH1 0x0 DUP1 REVERT JUMPDEST CALLVALUE DUP1 ISZERO PUSH2 0x8C JUMPI PUSH1 0x0 DUP1 REVERT JUMPDEST POP PUSH2 0x95 PUSH2 0x1B7 JUMP JUMPDEST PUSH1 0x40 MLOAD PUSH2 0xA2 SWAP2 SWAP1 PUSH2 0x5CE JUMP JUMPDEST PUSH1 0x40 MLOAD DUP1 SWAP2 SUB SWAP1 RETURN JUMPDEST CALLVALUE DUP1 ISZERO PUSH2 0xB7 JUMPI PUSH1 0x0 DUP1 REVERT JUMPDEST POP PUSH2 0xC0 PUSH2 0x1DB JUMP JUMPDEST PUSH1 0x40 MLOAD PUSH2 0xCD SWAP2 SWAP1 PUSH2 0x620 JUMP JUMPDEST PUSH1 0x40 MLOAD DUP1 SWAP2 SUB SWAP1 RETURN JUMPDEST CALLVALUE DUP1 ISZERO PUSH2 0xE2 JUMPI PUSH1 0x0 DUP1 REVERT JUMPDEST POP PUSH2 0xEB PUSH2 0x1FF JUMP JUMPDEST PUSH1 0x40 MLOAD PUSH2 0xF8 SWAP2 SWAP1 PUSH2 0x67B JUMP JUMPDEST PUSH1 0x40 MLOAD DUP1 SWAP2 SUB SWAP1 RETURN JUMPDEST PUSH2 0x109 PUSH2 0x293 JUMP JUMPDEST STOP JUMPDEST CALLVALUE DUP1 ISZERO PUSH2 0x117 JUMPI PUSH1 0x0 DUP1 REVERT JUMPDEST POP PUSH2 0x120 PUSH2 0x4AD JUMP JUMPDEST PUSH1 0x40 MLOAD PUSH2 0x12D SWAP2 SWAP1 PUSH2 0x67B JUMP JUMPDEST PUSH1 0x40 MLOAD DUP1 SWAP2 SUB SWAP1 RETURN JUMPDEST CALLVALUE DUP1 ISZERO PUSH2 0x142 JUMPI PUSH1 0x0 DUP1 REVERT JUMPDEST POP PUSH2 0x14B PUSH2 0x4D1 JUMP JUMPDEST PUSH1 0x40 MLOAD PUSH2 0x158 SWAP2 SWAP1 PUSH2 0x67B JUMP JUMPDEST PUSH1 0x40 MLOAD DUP1 SWAP2 SUB SWAP1 RETURN JUMPDEST CALLVALUE DUP1 ISZERO PUSH2 0x16D JUMPI PUSH1 0x0 DUP1 REVERT JUMPDEST POP PUSH2 0x176 PUSH2 0x4F5 JUMP JUMPDEST PUSH1 0x40 MLOAD PUSH2 0x183 SWAP2 SWAP1 PUSH2 0x67B JUMP JUMPDEST PUSH1 0x40 MLOAD DUP1 SWAP2 SUB SWAP1 RETURN JUMPDEST CALLVALUE DUP1 ISZERO PUSH2 0x198 JUMPI PUSH1 0x0 DUP1 REVERT JUMPDEST POP PUSH2 0x1A1 PUSH2 0x519 JUMP JUMPDEST PUSH1 0x40 MLOAD PUSH2 0x1AE SWAP2 SWAP1 PUSH2 0x67B JUMP JUMPDEST PUSH1 0x40 MLOAD DUP1 SWAP2 SUB SWAP1 RETURN JUMPDEST PUSH32 0x0 DUP2 JUMP JUMPDEST PUSH32 0x0 DUP2 JUMP JUMPDEST PUSH1 0x0 DUP1 PUSH32 0x0 TIMESTAMP PUSH2 0x22E SWAP2 SWAP1 PUSH2 0x701 JUMP JUMPDEST SWAP1 POP PUSH1 0x0 DUP2 PUSH32 0x0 PUSH2 0x25E SWAP2 SWAP1 PUSH2 0x6A7 JUMP JUMPDEST SWAP1 POP DUP1 PUSH32 0x0 PUSH2 0x28C SWAP2 SWAP1 PUSH2 0x701 JUMP JUMPDEST SWAP3 POP POP POP SWAP1 JUMP JUMPDEST PUSH32 0x0 TIMESTAMP LT PUSH2 0x2F5 JUMPI PUSH1 0x40 MLOAD PUSH32 0x8C379A000000000000000000000000000000000000000000000000000000000 DUP2 MSTORE PUSH1 0x4 ADD PUSH2 0x2EC SWAP1 PUSH2 0x65B JUMP JUMPDEST PUSH1 0x40 MLOAD DUP1 SWAP2 SUB SWAP1 REVERT JUMPDEST PUSH1 0x0 PUSH2 0x2FF PUSH2 0x1FF JUMP JUMPDEST SWAP1 POP DUP1 CALLVALUE LT ISZERO PUSH2 0x344 JUMPI PUSH1 0x40 MLOAD PUSH32 0x8C379A000000000000000000000000000000000000000000000000000000000 DUP2 MSTORE PUSH1 0x4 ADD PUSH2 0x33B SWAP1 PUSH2 0x63B JUMP JUMPDEST PUSH1 0x40 MLOAD DUP1 SWAP2 SUB SWAP1 REVERT JUMPDEST PUSH32 0x0 PUSH20 0xFFFFFFFFFFFFFFFFFFFFFFFFFFFFFFFFFFFFFFFF AND PUSH4 0x23B872DD PUSH32 0x0 CALLER PUSH32 0x0 PUSH1 0x40 MLOAD DUP5 PUSH4 0xFFFFFFFF AND PUSH1 0xE0 SHL DUP2 MSTORE PUSH1 0x4 ADD PUSH2 0x3E1 SWAP4 SWAP3 SWAP2 SWAP1 PUSH2 0x5E9 JUMP JUMPDEST PUSH1 0x0 PUSH1 0x40 MLOAD DUP1 DUP4 SUB DUP2 PUSH1 0x0 DUP8 DUP1 EXTCODESIZE ISZERO DUP1 ISZERO PUSH2 0x3FB JUMPI PUSH1 0x0 DUP1 REVERT JUMPDEST POP GAS CALL ISZERO DUP1 ISZERO PUSH2 0x40F JUMPI RETURNDATASIZE PUSH1 0x0 DUP1 RETURNDATACOPY RETURNDATASIZE PUSH1 0x0 REVERT JUMPDEST POP POP POP POP PUSH1 0x0 DUP2 CALLVALUE PUSH2 0x421 SWAP2 SWAP1 PUSH2 0x701 JUMP JUMPDEST SWAP1 POP PUSH1 0x0 DUP2 GT ISZERO PUSH2 0x474 JUMPI CALLER PUSH20 0xFFFFFFFFFFFFFFFFFFFFFFFFFFFFFFFFFFFFFFFF AND PUSH2 0x8FC DUP3 SWAP1 DUP2 ISZERO MUL SWAP1 PUSH1 0x40 MLOAD PUSH1 0x0 PUSH1 0x40 MLOAD DUP1 DUP4 SUB DUP2 DUP6 DUP9 DUP9 CALL SWAP4 POP POP POP POP ISZERO DUP1 ISZERO PUSH2 0x472 JUMPI RETURNDATASIZE PUSH1 0x0 DUP1 RETURNDATACOPY RETURNDATASIZE PUSH1 0x0 REVERT JUMPDEST POP JUMPDEST PUSH32 0x0 PUSH20 0xFFFFFFFFFFFFFFFFFFFFFFFFFFFFFFFFFFFFFFFF AND SELFDESTRUCT JUMPDEST PUSH32 0x0 DUP2 JUMP JUMPDEST PUSH32 0x0 DUP2 JUMP JUMPDEST PUSH32 0x0 DUP2 JUMP JUMPDEST PUSH32 0x0 DUP2 JUMP JUMPDEST PUSH2 0x546 DUP2 PUSH2 0x783 JUMP JUMPDEST DUP3 MSTORE POP POP JUMP JUMPDEST PUSH2 0x555 DUP2 PUSH2 0x747 JUMP JUMPDEST DUP3 MSTORE POP POP JUMP JUMPDEST PUSH2 0x564 DUP2 PUSH2 0x735 JUMP JUMPDEST DUP3 MSTORE POP POP JUMP JUMPDEST PUSH2 0x573 DUP2 PUSH2 0x795 JUMP JUMPDEST DUP3 MSTORE POP POP JUMP JUMPDEST PUSH1 0x0 PUSH2 0x586 PUSH1 0x1B DUP4 PUSH2 0x696 JUMP JUMPDEST SWAP2 POP PUSH2 0x591 DUP3 PUSH2 0x7FA JUMP JUMPDEST PUSH1 0x20 DUP3 ADD SWAP1 POP SWAP2 SWAP1 POP JUMP JUMPDEST PUSH1 0x0 PUSH2 0x5A9 PUSH1 0xF DUP4 PUSH2 0x696 JUMP JUMPDEST SWAP2 POP PUSH2 0x5B4 DUP3 PUSH2 0x823 JUMP JUMPDEST PUSH1 0x20 DUP3 ADD SWAP1 POP SWAP2 SWAP1 POP JUMP JUMPDEST PUSH2 0x5C8 DUP2 PUSH2 0x779 JUMP JUMPDEST DUP3 MSTORE POP POP JUMP JUMPDEST PUSH1 0x0 PUSH1 0x20 DUP3 ADD SWAP1 POP PUSH2 0x5E3 PUSH1 0x0 DUP4 ADD DUP5 PUSH2 0x54C JUMP JUMPDEST SWAP3 SWAP2 POP POP JUMP JUMPDEST PUSH1 0x0 PUSH1 0x60 DUP3 ADD SWAP1 POP PUSH2 0x5FE PUSH1 0x0 DUP4 ADD DUP7 PUSH2 0x53D JUMP JUMPDEST PUSH2 0x60B PUSH1 0x20 DUP4 ADD DUP6 PUSH2 0x55B JUMP JUMPDEST PUSH2 0x618 PUSH1 0x40 DUP4 ADD DUP5 PUSH2 0x5BF JUMP JUMPDEST SWAP5 SWAP4 POP POP POP POP JUMP JUMPDEST PUSH1 0x0 PUSH1 0x20 DUP3 ADD SWAP1 POP PUSH2 0x635 PUSH1 0x0 DUP4 ADD DUP5 PUSH2 0x56A JUMP JUMPDEST SWAP3 SWAP2 POP POP JUMP JUMPDEST PUSH1 0x0 PUSH1 0x20 DUP3 ADD SWAP1 POP DUP2 DUP2 SUB PUSH1 0x0 DUP4 ADD MSTORE PUSH2 0x654 DUP2 PUSH2 0x579 JUMP JUMPDEST SWAP1 POP SWAP2 SWAP1 POP JUMP JUMPDEST PUSH1 0x0 PUSH1 0x20 DUP3 ADD SWAP1 POP DUP2 DUP2 SUB PUSH1 0x0 DUP4 ADD MSTORE PUSH2 0x674 DUP2 PUSH2 0x59C JUMP JUMPDEST SWAP1 POP SWAP2 SWAP1 POP JUMP JUMPDEST PUSH1 0x0 PUSH1 0x20 DUP3 ADD SWAP1 POP PUSH2 0x690 PUSH1 0x0 DUP4 ADD DUP5 PUSH2 0x5BF JUMP JUMPDEST SWAP3 SWAP2 POP POP JUMP JUMPDEST PUSH1 0x0 DUP3 DUP3 MSTORE PUSH1 0x20 DUP3 ADD SWAP1 POP SWAP3 SWAP2 POP POP JUMP JUMPDEST PUSH1 0x0 PUSH2 0x6B2 DUP3 PUSH2 0x779 JUMP JUMPDEST SWAP2 POP PUSH2 0x6BD DUP4 PUSH2 0x779 JUMP JUMPDEST SWAP3 POP DUP2 PUSH32 0xFFFFFFFFFFFFFFFFFFFFFFFFFFFFFFFFFFFFFFFFFFFFFFFFFFFFFFFFFFFFFFFF DIV DUP4 GT DUP3 ISZERO ISZERO AND ISZERO PUSH2 0x6F6 JUMPI PUSH2 0x6F5 PUSH2 0x7CB JUMP JUMPDEST JUMPDEST DUP3 DUP3 MUL SWAP1 POP SWAP3 SWAP2 POP POP JUMP JUMPDEST PUSH1 0x0 PUSH2 0x70C DUP3 PUSH2 0x779 JUMP JUMPDEST SWAP2 POP PUSH2 0x717 DUP4 PUSH2 0x779 JUMP JUMPDEST SWAP3 POP DUP3 DUP3 LT ISZERO PUSH2 0x72A JUMPI PUSH2 0x729 PUSH2 0x7CB JUMP JUMPDEST JUMPDEST DUP3 DUP3 SUB SWAP1 POP SWAP3 SWAP2 POP POP JUMP JUMPDEST PUSH1 0x0 PUSH2 0x740 DUP3 PUSH2 0x759 JUMP JUMPDEST SWAP1 POP SWAP2 SWAP1 POP JUMP JUMPDEST PUSH1 0x0 PUSH2 0x752 DUP3 PUSH2 0x759 JUMP JUMPDEST SWAP1 POP SWAP2 SWAP1 POP JUMP JUMPDEST PUSH1 0x0 PUSH20 0xFFFFFFFFFFFFFFFFFFFFFFFFFFFFFFFFFFFFFFFF DUP3 AND SWAP1 POP SWAP2 SWAP1 POP JUMP JUMPDEST PUSH1 0x0 DUP2 SWAP1 POP SWAP2 SWAP1 POP JUMP JUMPDEST PUSH1 0x0 PUSH2 0x78E DUP3 PUSH2 0x7A7 JUMP JUMPDEST SWAP1 POP SWAP2 SWAP1 POP JUMP JUMPDEST PUSH1 0x0 PUSH2 0x7A0 DUP3 PUSH2 0x7A7 JUMP JUMPDEST SWAP1 POP SWAP2 SWAP1 POP JUMP JUMPDEST PUSH1 0x0 PUSH2 0x7B2 DUP3 PUSH2 0x7B9 JUMP JUMPDEST SWAP1 POP SWAP2 SWAP1 POP JUMP JUMPDEST PUSH1 0x0 PUSH2 0x7C4 DUP3 PUSH2 0x759 JUMP JUMPDEST SWAP1 POP SWAP2 SWAP1 POP JUMP JUMPDEST PUSH32 0x4E487B7100000000000000000000000000000000000000000000000000000000 PUSH1 0x0 MSTORE PUSH1 0x11 PUSH1 0x4 MSTORE PUSH1 0x24 PUSH1 0x0 REVERT JUMPDEST PUSH32 0x455448203C2063757272656E742061756374696F6E2070726963650000000000 PUSH1 0x0 DUP3 ADD MSTORE POP JUMP JUMPDEST PUSH32 0x61756374696F6E20657870697265640000000000000000000000000000000000 PUSH1 0x0 DUP3 ADD MSTORE POP JUMP INVALID LOG2 PUSH5 0x6970667358 0x22 SLT KECCAK256 SWAP13 DIV 0x29 PUSH5 0x558D616D0D KECCAK256 OR PUSH24 0xCF63AAFE761FE0134E63C0B85CFFB2253C879DAC64736F6C PUSH4 0x43000807 STOP CALLER "
				},
				"gasEstimates": {
					"creation": {
						"codeDepositCost": "435600",
						"executionCost": "infinite",
						"totalCost": "infinite"
					},
					"external": {
						"buy()": "infinite",
						"discountRate()": "infinite",
						"getPrice()": "infinite",
						"nft()": "infinite",
						"nftId()": "infinite",
						"seller()": "infinite",
						"startAt()": "infinite",
						"startingPrice()": "infinite"
					}
				},
				"methodIdentifiers": {
					"buy()": "a6f2ae3a",
					"discountRate()": "e6c0e6d5",
					"getPrice()": "98d5fdca",
					"nft()": "47ccca02",
					"nftId()": "c6bc5182",
					"seller()": "08551a53",
					"startAt()": "c7446565",
					"startingPrice()": "d6fbf202"
				}
			},
			"storageLayout": {
				"storage": [],
				"types": null
			},
			"userdoc": {
				"kind": "user",
				"methods": {},
				"version": 1
			}
		}
	}
}