{
	"data": {
		"bytecode": {
			"linkReferences": {},
			"object": "608060405234801561001057600080fd5b506101bd806100206000396000f3fe608060405234801561001057600080fd5b50600436106100415760003560e01c80638688754414610046578063d0110e7814610065578063e9f305f414610085575b600080fd5b61004e6100a4565b60405161005c929190610111565b60405180910390f35b61006d6100b2565b60405161007c9392919061013a565b60405180910390f35b61008d6100e4565b60405161009b929190610111565b60405180910390f35b600080600180915091509091565b60008060008060006100c26100a4565b9150915060006100d06100e4565b915050828282955095509550505050909192565b60008060019150600190509091565b6100fc81610171565b82525050565b61010b8161017d565b82525050565b60006040820190506101266000830185610102565b61013360208301846100f3565b9392505050565b600060608201905061014f6000830186610102565b61015c60208301856100f3565b61016960408301846100f3565b949350505050565b60008115159050919050565b600081905091905056fea264697066735822122014749d1096e8c457b05346f0f8aa63fe2dd0c488db8907315e71cd95b45fa54264736f6c63430008070033",
			"opcodes": "PUSH1 0x80 PUSH1 0x40 MSTORE CALLVALUE DUP1 ISZERO PUSH2 0x10 JUMPI PUSH1 0x0 DUP1 REVERT JUMPDEST POP PUSH2 0x1BD DUP1 PUSH2 0x20 PUSH1 0x0 CODECOPY PUSH1 0x0 RETURN INVALID PUSH1 0x80 PUSH1 0x40 MSTORE CALLVALUE DUP1 ISZERO PUSH2 0x10 JUMPI PUSH1 0x0 DUP1 REVERT JUMPDEST POP PUSH1 0x4 CALLDATASIZE LT PUSH2 0x41 JUMPI PUSH1 0x0 CALLDATALOAD PUSH1 0xE0 SHR DUP1 PUSH4 0x86887544 EQ PUSH2 0x46 JUMPI DUP1 PUSH4 0xD0110E78 EQ PUSH2 0x65 JUMPI DUP1 PUSH4 0xE9F305F4 EQ PUSH2 0x85 JUMPI JUMPDEST PUSH1 0x0 DUP1 REVERT JUMPDEST PUSH2 0x4E PUSH2 0xA4 JUMP JUMPDEST PUSH1 0x40 MLOAD PUSH2 0x5C SWAP3 SWAP2 SWAP1 PUSH2 0x111 JUMP JUMPDEST PUSH1 0x40 MLOAD DUP1 SWAP2 SUB SWAP1 RETURN JUMPDEST PUSH2 0x6D PUSH2 0xB2 JUMP JUMPDEST PUSH1 0x40 MLOAD PUSH2 0x7C SWAP4 SWAP3 SWAP2 SWAP1 PUSH2 0x13A JUMP JUMPDEST PUSH1 0x40 MLOAD DUP1 SWAP2 SUB SWAP1 RETURN JUMPDEST PUSH2 0x8D PUSH2 0xE4 JUMP JUMPDEST PUSH1 0x40 MLOAD PUSH2 0x9B SWAP3 SWAP2 SWAP1 PUSH2 0x111 JUMP JUMPDEST PUSH1 0x40 MLOAD DUP1 SWAP2 SUB SWAP1 RETURN JUMPDEST PUSH1 0x0 DUP1 PUSH1 0x1 DUP1 SWAP2 POP SWAP2 POP SWAP1 SWAP2 JUMP JUMPDEST PUSH1 0x0 DUP1 PUSH1 0x0 DUP1 PUSH1 0x0 PUSH2 0xC2 PUSH2 0xA4 JUMP JUMPDEST SWAP2 POP SWAP2 POP PUSH1 0x0 PUSH2 0xD0 PUSH2 0xE4 JUMP JUMPDEST SWAP2 POP POP DUP3 DUP3 DUP3 SWAP6 POP SWAP6 POP SWAP6 POP POP POP POP SWAP1 SWAP2 SWAP3 JUMP JUMPDEST PUSH1 0x0 DUP1 PUSH1 0x1 SWAP2 POP PUSH1 0x1 SWAP1 POP SWAP1 SWAP2 JUMP JUMPDEST PUSH2 0xFC DUP2 PUSH2 0x171 JUMP JUMPDEST DUP3 MSTORE POP POP JUMP JUMPDEST PUSH2 0x10B DUP2 PUSH2 0x17D JUMP JUMPDEST DUP3 MSTORE POP POP JUMP JUMPDEST PUSH1 0x0 PUSH1 0x40 DUP3 ADD SWAP1 POP PUSH2 0x126 PUSH1 0x0 DUP4 ADD DUP6 PUSH2 0x102 JUMP JUMPDEST PUSH2 0x133 PUSH1 0x20 DUP4 ADD DUP5 PUSH2 0xF3 JUMP JUMPDEST SWAP4 SWAP3 POP POP POP JUMP JUMPDEST PUSH1 0x0 PUSH1 0x60 DUP3 ADD SWAP1 POP PUSH2 0x14F PUSH1 0x0 DUP4 ADD DUP7 PUSH2 0x102 JUMP JUMPDEST PUSH2 0x15C PUSH1 0x20 DUP4 ADD DUP6 PUSH2 0xF3 JUMP JUMPDEST PUSH2 0x169 PUSH1 0x40 DUP4 ADD DUP5 PUSH2 0xF3 JUMP JUMPDEST SWAP5 SWAP4 POP POP POP POP JUMP JUMPDEST PUSH1 0x0 DUP2 ISZERO ISZERO SWAP1 POP SWAP2 SWAP1 POP JUMP JUMPDEST PUSH1 0x0 DUP2 SWAP1 POP SWAP2 SWAP1 POP JUMP INVALID LOG2 PUSH5 0x6970667358 0x22 SLT KECCAK256 EQ PUSH21 0x9D1096E8C457B05346F0F8AA63FE2DD0C488DB8907 BALANCE 0x5E PUSH18 0xCD95B45FA54264736F6C6343000807003300 "
		},
		"gasEstimates": {
			"creation": {
				"codeDepositCost": "89000",
				"executionCost": "135",
				"totalCost": "89135"
			},
			"external": {
				"destructingAssignment()": "infinite",
				"namedReturns()": "479",
				"returnMany()": "435"
			}
		},
		"methodIdentifiers": {
			"destructingAssignment()": "d0110e78",
			"namedReturns()": "e9f305f4",
			"returnMany()": "86887544"
		}
	},
	"abi": [
		{
			"inputs": [],
			"name": "destructingAssignment",
			"outputs": [
				{
					"internalType": "uint256",
					"name": "",
					"type": "uint256"
				},
				{
					"internalType": "bool",
					"name": "",
					"type": "bool"
				},
				{
					"internalType": "bool",
					"name": "",
					"type": "bool"
				}
			],
			"stateMutability": "pure",
			"type": "function"
		},
		{
			"inputs": [],
			"name": "namedReturns",
			"outputs": [
				{
					"internalType": "uint256",
					"name": "x",
					"type": "uint256"
				},
				{
					"internalType": "bool",
					"name": "b",
					"type": "bool"
				}
			],
			"stateMutability": "pure",
			"type": "function"
		},
		{
			"inputs": [],
			"name": "returnMany",
			"outputs": [
				{
					"internalType": "uint256",
					"name": "",
					"type": "uint256"
				},
				{
					"internalType": "bool",
					"name": "",
					"type": "bool"
				}
			],
			"stateMutability": "pure",
			"type": "function"
		}
	]
}